:100000003DC0000058C0000056C0000054C00000B1
:1000100052C0000050C0000056C40000A2C400003E
:100020008EC2000048C0000046C0000044C000006E
:1000300042C00000D5C2000006C300003CC0000062
:100040003AC0000038C0000036C0000034C00000D4
:10005000C4C3000030C00000EEC300002CC000008C
:100060002AC0000028C0000026C000003FC30000D6
:1000700098C3000020C000001EC0000011241FBE55
:10008000CFEFCDBFDFE3DEBF18E3A0E0B8E3E8E0E9
:10009000FEE202C005900D92A039B107D9F72BE31B
:1000A000A0E9B8E301C01D92AE35B207E1F70E94A6
:1000B000E5150C94AA16A4CF81E080932204E6E211
:1000C000F4E0808310923004A1E2B4E092E09C93CB
:1000D000908310923104E0E1F8E097E0968398E095
:1000E000948383838C938581816085838581846CEF
:1000F0008583089580911408886080931408109275
:10010000130882E08093220499E021E081E02093AB
:10011000210430E13A95F1F700C02093220430E148
:100120003A95F1F700C0915089F728E02093140820
:100130008093130892E090932104909115089160A8
:100140009093150890911508946C9093150820933E
:10015000140880931308809321048091150881600E
:100160008093150880911508846C80931508089574
:10017000282F90911508906C909315089091150870
:10018000892F847092FD03C020931708089584E09E
:1001900008958CE080938E3A8091150887FD0AC0FF
:1001A0008091150886FD06C080918E3A8111F4CFAA
:1001B0008FEF089580911508806C809315088091C9
:1001C000150882FD09C08091150883FD07C0809144
:1001D000150882958170089584E0089582E008955D
:1001E000FC018CE080938E3A90911508892F8370E2
:1001F000823011F088E008959091150897FD06C0AF
:1002000090918E3A9111F8CF8FEF08959091150843
:10021000906C909315089091150892FD1EC09091D6
:10022000150893FD1DC090911508892F807194FDCC
:1002300016C090911408611102C09B7F01C09460A8
:1002400090931408909118089083611109C09091BF
:100250001408926090931408089584E0089581E052
:100260000895FC018CE080938E3A9091150893706C
:100270009230B1F48081809318088091150886FD32
:1002800006C080918E3A8111F8CF8FEF089580914A
:10029000150882FD07C08091150882958170089528
:1002A00088E0089584E00895E0E1F8E084818360C7
:1002B00084830895CF92DF92FF920F931F93CF9381
:1002C000DF936B01F42EE901182F110F812F50DFFE
:1002D00081112BC05EDF813019F4E6DF81E027C099
:1002E000811123C0FF2049F0C601BBDF81111DC071
:1002F0008FEFC81AD80AFA94F5CF013408F000E459
:100300001F5F10931708023040F060E0CE0168DFF5
:1003100081110BC021960150F6CF61E0CE0160DF64
:10032000811103C0C1DF80E002C0E4DE8FEFDF9106
:10033000CF911F910F91FF90DF90CF900895CF93B1
:10034000DF93F89488ED84BFC1E0C09361008AE434
:10035000809300048CE7809320049FE390934004F3
:100360008091530480688093530480915404806882
:100370008093540480915504806880935504809143
:1003800033048068809333048091340480688093C0
:10039000340480913504806880933504C093010251
:1003A000D2E0D09305042BE531E020930808309388
:1003B000090880EA8093050880EC8093060883E0B2
:1003C000809307081CBA1DBA1EBA1FBAC093030A4D
:1003D00088E08093000A9093020287E78093010AE5
:1003E000C0930A0A8BE08093050A8091000A81601D
:1003F0008093000A85E08093400A1092410A8FEFB3
:1004000091E080934C0A90934D0A1092450AC09354
:10041000500A1092510A8BE893E080935C0A909303
:100420005D0AC093550A48DE82E18093A00080E215
:100430008093A200C093A10086E08093000684E42C
:10044000809302068EE180930606C0930A0680918F
:100450000006816080930006C09308061092400653
:10046000D093410682E58093420684E0809345065E
:1004700080934606C0934A0680914006816080932F
:100480004006C093480680E48093A00680E88093ED
:10049000A1068091A00681608093A0068091410111
:1004A00080FDFCCF80E38093400110924701809152
:1004B000410182FDFCCF80E098E780934A01909350
:1004C0004B01809148019091490160914A017091DE
:1004D0004B0182960E94741680933B3B90933C3B69
:1004E0008091410183FDFCCF80913B3B90913C3B4F
:1004F00080934C0190934D0183E08093420181E011
:100500008093520188E0809350018091410180FDE9
:10051000FCCF809140018160809340018091500127
:100520008160809350011092A33A83EA9AE380930A
:10053000E73A9093E83A7894DF91CF9108951F922B
:100540000F920FB60F9211248F939F93AF93BF9387
:10055000EF93FF9387E08093460484E4809326041E
:10056000ECB388E0E89FF0011124E15FF44CA8E2CD
:10057000BAE096E081918D939A95E1F78BE08093B4
:10058000050A8CB3833058F48CB391E001C0990F05
:100590008A95EAF799B98CB383958CBB0AC08CB362
:1005A000833021F42A9A83958CBB03C02E9A882726
:1005B0008CBB80918E3A882329F080918E3A8150AD
:1005C00080938E3A8FEF80930B0AFF91EF91BF914A
:1005D000AF919F918F910F900FBE0F901F90189524
:1005E0001F920F920FB60F9211248F939F93EF9348
:1005F000FF93E091E73AF091E83A8081882391F007
:100600008081809302088091E73A9091E83A0196C0
:100610008093E73A9093E83A80910508806280934E
:10062000050805C081E0809304381092450A81E0F6
:100630008093460AFF91EF919F918F910F900FBE8B
:100640000F901F9018951F920F920FB60F921124C2
:100650002F933F934F938F939F93EF93FF93E0914B
:100660000238F09103388081811108C080910038F0
:10067000909101388093023890930338E0910238CA
:10068000F091033880818823E1F020814091E43AA1
:1006900030E02F573109429FC001439F900D112434
:1006A000892F990F990B80589F4F8093A1068091B5
:1006B0000238909103380196809302389093033862
:1006C00006C080E88093A10681E08093373B81E0FB
:1006D0008093560AFF91EF919F918F914F913F9197
:1006E0002F910F900FBE0F901F9018951F920F9291
:1006F0000FB60F9211248F93EF93FF9380919C3844
:10070000811144C0EDB3F0E080910008ED55F54C47
:100710008083EDB3F0E0ED55F54C808180930208C5
:10072000EDB3F0E0ED55F54C80818A3039F0EDB352
:10073000F0E0ED55F54C80818D3049F4EDB3F0E0FB
:10074000ED55F54C108281E080939C381FC0EDB3CD
:10075000F0E0ED55F54C8081883039F0EDB3F0E0F4
:10076000ED55F54C80818F3759F48DB3882341F0D6
:10077000EDB3F0E0ED55F54C10828DB3815005C01E
:100780008DB3803418F48DB38F5F8DBB80E8809378
:100790000408FF91EF918F910F900FBE0F901F9063
:1007A00018951F920F920FB60F9211248F93EF930B
:1007B000FF9310924A0A10924B0A81E08093450AF7
:1007C000E5E0F8E080818F7D8083FF91EF918F914C
:1007D0000F900FBE0F901F9018951F920F920FB69B
:1007E0000F9211248F93EF93FF9380919038811192
:1007F00015C08EB38F5F8F718EBB809106068E31D0
:1008000029F48091100680933A3B0AC0EEB3F0E0E1
:1008100080911006E151F54C808302C0109290380F
:1008200081E080930B06FF91EF918F910F900FBEA7
:100830000F901F9018951F920F920FB60F921124D0
:100840008F939F938091460681110AC08091500634
:10085000909151068093EB3A9093EC3A81E010C06E
:1008600080914606813079F488E080930604809177
:100870005006909151068093E93A9093EA3A84E0C9
:100880008093460610C08091500690915106809347
:10089000E53A9093E63A8FB38F3029F410924606EA
:1008A00088E0809305048FB390E001968F709927BC
:1008B0008FBB81E080934B069F918F910F900FBE6D
:1008C0000F901F9018951F920F920FB60F92112440
:1008D0005F936F937F938F939F93AF93BF93809119
:1008E000430181FF26C080919A388F3F29F0809183
:1008F0009A388F5F80939A3880914801909149018E
:1009000060914A0170914B0182960E947416809307
:100910003B3B90933C3B8091410183FDFCCF809118
:100920003B3B90913C3B80934C0190934D0182E086
:100930000AC080919B388F3F29F080919B388F5F50
:1009400080939B3881E080934301BF91AF919F9149
:100950008F917F916F915F910F900FBE0F901F90BD
:1009600018951F920F920FB60F9211248F9381E06A
:1009700080934806809353018F910F900FBE0F9084
:100980001F9018959091021091FDFCCFFB01480F2C
:10099000841739F0A82FB0E0BC5E9C9191938F5FD3
:1009A000F7CF08959DE924E033E0442309F1509105
:1009B000021051FDFCCF94BF20930010E82F582F58
:1009C0005F718F5F6F5F7F4FDB011197AC91F0E03C
:1009D000FC5EA083415019F0E82F5F3181F794BF8E
:1009E000309300105091021052FFDFCF81E0089544
:1009F00080E0089520910438222359F08093E73A4B
:100A00009093E83A1092043881E08093450A80E0A0
:100A1000089581E00895282F811101C021E08FEF12
:100A200090E0821B9109982F882781509F4F8093D7
:100A30004C0A90934D0A08952091E53A3091E63A98
:100A400094E0369527959A95E1F733272C353105B3
:100A5000D0F423353105A8F52233310550F42D3279
:100A6000310558F5235231092530310580F59CE0D8
:100A70002FC02733310518F12E53310927303105A6
:100A800030F596E025C02A38310550F42937310574
:100A9000D0F4235631092B303105C8F493E018C047
:100AA000223A3105A0F02B3B310578F0205F310967
:100AB0002031310560F490E00BC099E009C098E066
:100AC00007C094E005C092E003C091E001C09FE040
:100AD000282F2F70921306C0982F907F903F39F0E7
:100AE000805F0895992311F0892F08958FEF08955D
:100AF00080918538909186389C01322F222732953B
:100B0000330F307E822793279C01232F332726958E
:100B1000822793279C013695322F222737952795D8
:100B20008227932780938538909386380895DF92A3
:100B3000EF92FF920F931F93CF93DF937B018A0174
:100B4000C0915C0AD0915D0AE82FF0E03197E77020
:100B5000FF27E957F74CD080CBDF8D21C80FD11D7F
:100B6000C7DF8D21C81BD1090C171D0708F4E80148
:100B7000C701EC16FD0608F4CE0180935C0A909341
:100B80005D0ADF91CF911F910F91FF90EF90DF9061
:100B900008950F931F93CF93DF93C82F042F122F25
:100BA000E62FF0E03197E770FF27E957F74CD08147
:100BB0009FDF8D23C80F9CDF8D23C81B8C2F112333
:100BC00041F09C2F1C1708F4912F802F091708F46F
:100BD000892FDF91CF911F910F910895CF92DF92CE
:100BE000FF920F931F93CF93DF93CDB7DEB7649738
:100BF000CDBFDEBF44E1BE016F5F7F4F80E0C2DE4C
:100C00008FE8C82E8AE3D82E8E010F5F1F4FF12C7C
:100C1000F80181918F01F6019081981308C0F39437
:100C2000FFEFCF1ADF0A80E1F812F2CF08C041E0EF
:100C3000B6018F2DB7DE882391F391E036C0209165
:100C400096383091973830939F3A2093A03A80910C
:100C50009838909199389093A13A8093A23A8989D3
:100C60009A899827892798272817390769F48B8943
:100C70009C8998278927982720919838309199380E
:100C80002817390749F410C042E06FE97AE380E1A0
:100C900089DE882361F3D1CF42E061EA7AE382E121
:100CA00081DE91E0811101C090E0892F6496CDBF73
:100CB000DEBFDF91CF911F910F91FF90DF90CF901A
:100CC0000895E82FEF77E695E695E695F0E0E15791
:100CD000F54C208130E08770A90102C055954795F9
:100CE0008A95E2F7CA0181700895E82FEF77E695BB
:100CF000E695E695282F2770F0E0E157F54C81E066
:100D000090E001C0880F2A95EAF7662319F09081D8
:100D1000892B03C080959081892380830895982F23
:100D20008F7797FF02C060E001C061E0DECFCF9314
:100D3000C82F8F77C6DF2C2F221F2227221F91E07A
:100D4000811101C090E0822F8927CF910895E3E0BF
:100D5000F1E180E09191890FED3091E1F907D1F750
:100D600083708F5F809395380895EFE8FAE31192CE
:100D70008AE3E33AF807D9F7EADF811104C08091EA
:100D80009C3A806405C0813031F480919C3A80683F
:100D900080939C3A0DC0823021F480919D3A81600D
:100DA00005C0833029F480919D3A826080939D3AFA
:100DB00080918F3A816080938F3A08950F931F93AB
:100DC000CF93DF9380919338909194388827892B23
:100DD00009F065C08091933890919438807E99276E
:100DE000892B31F481E998E380930038909301389E
:100DF0008091933890919438809193389091943861
:100E00008091933890919438807E9927803691050F
:100E1000D1F510920B3885E098E3809300389093D9
:100E200001388C01C1E0D3E08C2F6D2F0E94681631
:100E3000992339F020E041E065E080E8AADEF8017E
:100E40008183CF5F0F5F1F4FC63071F780919A3853
:100E50008823C9F040E054E060E872E085E067DE96
:100E60008091E43A20EA40E162E093DE8093E43A44
:100E700020E940E762E0809105388BDE80930538F9
:100E80008095809308388091933890919438809120
:100E90009338909194388091933890919438DF9161
:100EA000CF911F910F91089580E008951F93CF93E4
:100EB000DF93CDB7DEB76297CDBFDEBF8A8B80E10F
:100EC000E8E5FDEADE01119601900D928A95E1F7C1
:100ED000FE01319690E08FEF21913191261737076F
:100EE00009F4892F9F5F9830B9F7883010F080E0BF
:100EF00012C018E1180F41E0BE016F5E7F4F812FD5
:100F000041DD89898F3F99F741E0BE016E5E7F4FD9
:100F1000812F48DD81E06296CDBFDEBFDF91CF91AA
:100F20001F910895F9019C012E1B3F0B88E0489FFB
:100F3000A001112448505245662369F0DF01A20F39
:100F4000B31FA770BB27A40FB51F80819C91982762
:100F500091936150F1CF0895262FFB0135E59E2F27
:100F6000921B981728F49081929593279193F7CF2D
:100F70000895AF92BF92CF92DF92EF92FF920F93BC
:100F80001F93CF93DF9300D0CDB7DEB7D62EC42EFC
:100F900059017C01E894F7F8F982EA82062F42E0D1
:100FA000BE016F5F7F4F80E585D9182F811105C085
:100FB00095014C2D6D2DC701B5DF812F0F900F903E
:100FC000DF91CF911F910F91FF90EF90DF90CF9025
:100FD000BF90AF9008958F5F883030F4E82FF0E035
:100FE000EB58F54C1082F7CF0895AC0190E0E92F53
:100FF000F0E0DA01AE0FBF1F3C91E60FF71F311191
:1010000005C081E09081992349F007C02081222307
:10101000C1F3321302C09F5FEACF80E008956115EB
:10102000710551F1EDE7FAE3A5E7BAE320E03FEF00
:101030006F3F710569F060F0819391933D9381500A
:101040009F4F6F5F71092F5F273091F781E00895FF
:10105000E22FF0E0DF01AA0FBB1FA358B54C8D9320
:101060009C93EB58F54CCB016FEF70E00E94741627
:1010700080834093733A05C010927D3A10927E3A75
:1010800020E0822FA8DF1092743A80E00895CF9379
:10109000DF93282F30E0F901EE0FFF1FE85BF64CDD
:1010A000ABE5BAE7A083B183F901EE0FFF1FE85764
:1010B000F64C62E070E060837183220F331FF90108
:1010C000E853F64C41E050E04083518321E0280F83
:1010D00030E0F901EE0FFF1FE85BF64CC4E6DAE7FB
:1010E000C083D183F901EE0FFF1FE857F64CCAE029
:1010F000D0E0C083D183220F331FF901E853F64CAF
:1011000040835183E2E0E80FF0E0EE0FFF1FE85B61
:10111000F64C20EF3FEF2083318323E0280F30E0AF
:10112000F901EE0FFF1FE85BF64CA083B183F901D4
:10113000EE0FFF1FE857F64C60837183220F331FB9
:10114000F901E853F64C4083518324E0280F30E046
:10115000F901EE0FFF1FE85BF64CA7E5BAE7A083A5
:10116000B183F901EE0FFF1FE857F64C60837183DE
:10117000220F331FF901E853F64C408351838B5FF4
:10118000DF91CF910895AF92BF92DF92EF92FF92DD
:101190000F931F93CF93DF93CDB7DEB72C97CDBFBF
:1011A000DEBF7C018B019E012F5F3F4F40E06CE072
:1011B0008096DFDE89819A819827892798278096F3
:1011C000F801808391838B819C81982789279827B8
:1011D000809682839383DE0115963496C8010C961F
:1011E0002D912193E817F907D9F7FCE2EF0EF11CD6
:1011F0005801D12C9E012F5F3F4F40E063E0C701B3
:10120000B8DE89819A8198278927982797012E5FD0
:101210003F4F43E04D1580F4AC0141505109F801B6
:10122000428F538FF3E0EF0EF11CF801E486F58650
:101230004B81F50144A305C0F801828F938F248769
:1012400035877C01E20EF31ED3940E5F1F4FFFEF34
:10125000AF1ABF0A47E0D412CDCF2C96CDBFDEBF68
:10126000DF91CF911F910F91FF90EF90DF90BF9092
:10127000AF900895CF92DF92EF92FF920F931F935A
:10128000CF93DF93CDB7DEB7A097CDBFDEBFC62E1D
:101290007C0120E2E20EF11C9E012F5F3F4F40E0F7
:1012A00062E08C9666DE1A81D12C112351F1012F58
:1012B000113208F000E29E012F5F3F4F40E0602FA7
:1012C000C7010E9656DEFE01319680E0DD2061F00A
:1012D000E1E0F0E0EC0FFD1FE80FF11D908190625E
:1012E00081E09C110EC00EC09191DD24D3949B35FA
:1012F00009F0D12C8F5F801748F3E00EF11C101B12
:10130000D4CF80E0A096CDBFDEBFDF91CF911F91FB
:101310000F91FF90EF90DF90CF900895AF92BF9222
:10132000DF92EF92FF920F931F93CF93DF9300D042
:1013300000D0CDB7DEB7D62E5A019E012F5F3F4FAA
:1013400040E064E0809615DEE980FA80FE24EF2418
:10135000FE240B811C811027012710270E151F0565
:1013600030F5A016B10658F09E012F5F3F4F40E0C8
:1013700062E0C8018096FDDD09811A81ECCF9E01F3
:101380002F5F3F4F40E061E0C8018596F2DD898123
:10139000811103C0D11005C00DC0C9DC8111FACF85
:1013A000E3CF6D2DC80166DF8823F1F203C080E032
:1013B00090E001C0C8012496CDBFDEBFDF91CF9180
:1013C0001F910F91FF90EF90DF90BF90AF90089525
:1013D00080629FE9980F9A3138F090ED980F81E084
:1013E0009A3018F080E0089581E008950F931F93DC
:1013F000CF93DF938C01D0E0C0E0F801ED0FF11D39
:1014000020818C2F90E0222351F0D801A80FB91F22
:101410002C938081DDDF8111CF5FDF5FEECFF8019C
:10142000E80FF91F10828C2FDF91CF911F910F9140
:101430000895CF932091743A283008F047C08091E6
:101440000438882309F442C0822F90E0FC01EB5855
:10145000F54CE081E11106C01092353988E08093A7
:10146000743A2CC0509135395E1750F5CE2FC51BFC
:10147000C13208F0C0E2880F991FFC01E358F54C17
:10148000808191812DE33BE34091733A6C2F850F6E
:10149000911D6FDD809135398C0F80933539EC2F9C
:1014A000F0E0E35CF44C108280913D3B811103C07D
:1014B0008BED80933D3B8DE39BE39CDA81E00BC099
:1014C000109235392F5F2093743AF8CF90910438F9
:1014D00081E0911180E0CF910895CF93DF93C09187
:1014E0004739CC23E9F1C150C0934739D091343901
:1014F0002D2F30E0F901EE0FFF1FE85BF64C8081E5
:101500009181803F4FEF940751F46091623A70915E
:10151000633A40E08091543A9091553A0DC0D90118
:10152000AA0FBB1FA853B64C220F331FF901E8576F
:10153000F64C608171814C9172DDDF5FD09334395C
:10154000C1110DC080914C3A90E0809393389093F4
:1015500094381DBA10929C381092343901C0C1E001
:101560008C2FDF91CF9108954F925F926F927F926F
:101570008F929F92AF92BF92CF92DF92EF92FF92A3
:101580000F931F93CF93DF93CDB7DEB7A197CDBF56
:10159000DEBF8C0180918F388F3F09F057C044E146
:1015A0006FE87AE380E0EED92EE6F22EE12C8F2D63
:1015B00088DBE80EF39482E7F812F9CFE1E0EE164B
:1015C00011F0D3DB01C0C3DB80919F3A9091A03A28
:1015D00098278927982780939638909397388091F9
:1015E000A13A9091A23A9827892798278093983812
:1015F00090939938F3DA68E47AE38091083A90910D
:10160000093AC1DD10928F388091933890919438C7
:101610008F3F910509F0D0F480914C3A90E02091F1
:101620009338309194388217930781F080939338E0
:10163000909394388091933890919438807E992734
:1016400021E0892B09F420E02093923880919C3886
:10165000882309F459C280913739882309F457C087
:101660001092363981E6F801808367E379E383EAF3
:101670009AE3BBDCF82E882321F081E08093363991
:1016800004C080913739813311F0F12C3FC2809131
:1016900039398111FACF83EA9AE3A8DE92E0909378
:1016A0003639F8011182823080F38091A33A803379
:1016B00061F08091A33A813341F08091A33A823363
:1016C00021F08091A33A833301F78091A43A80629C
:1016D0008093A43A8091A43A813661F08091A43A33
:1016E000853641F08091A43A863621F08091A43A63
:1016F000873759F6809138398F5EF8018183809160
:10170000A33A82838091A43A83831482FFC180919B
:10171000A33A833279F58DB3863061F581E090E0AC
:1017200010E0FC01ED55F54C208120532083110F72
:10173000212F220F220F120F2091A43A233048F4B8
:1017400020812A30A8F42081120F0196843091055F
:1017500041F7812F8F7761F08091A73A6091A83A85
:1017600070E0782B812FA2DB882311F0812FD7DA4C
:1017700080E04FC0D80180E090E0FC01ED55F54CD1
:101780002081213418F020812B3510F0208102C0F7
:10179000208120622C932081211105C0F801E80FDF
:1017A000F11D108205C0019611968134910529F72B
:1017B0008091A33AF801811105C010821DBA1092E0
:1017C0009C38A2C180818F3311F0883631F58BE5CA
:1017D0009AE7809348399093493984E090E0809368
:1017E00088399093893981E090E08093C83990934B
:1017F000C93923E93BE720934A3930934B392DE629
:1018000034E020938A3930938B398093CA3990938E
:10181000CB393DDC8093473977C18136D9F48BE5EC
:101820009AE7809348399093493984E090E0809317
:1018300088399093893981E090E08093C8399093FA
:10184000C9392EE63AE720934A3930934B3925E2DD
:1018500031E0D7CF873709F06EC08BE59AE78093E8
:1018600048399093493984E090E080938839909387
:10187000893921E030E02093C8393093C9398BECA5
:1018800096E780934A3990934B3982E190E08093B8
:101890008A3990938B392093CA393093CB39809110
:1018A0009538813019F485EC96E70FC0823049F401
:1018B00082EC96E780934C3990934D3983E090E029
:1018C0001EC0833049F48CEB96E780934C3990939B
:1018D0004D3986E090E013C0843049F487EB96E7F9
:1018E00080934C3990934D3985E090E008C080E4B6
:1018F00096E780934C3990934D3982E490E0809341
:101900008C3990938D392093CC393093CD398DE932
:1019100096E780934E3990934F398AE190E0809317
:101920008E3990938F3981E090E08093CE399093F7
:10193000CF3983E06ECF8137D9F48BE59AE7809376
:1019400048399093493984E090E0809388399093A6
:10195000893981E090E08093C8399093C93923E0B8
:101960003AE720934A3930934B3924E530E049CFA8
:1019700066E87DEAC80139DB8823D9F01EE660E01D
:10198000812FB3D91F5F1237D1F728D980E2E9EC54
:10199000FDEADE01119601900D928A95E1F78CE344
:1019A0003AD8809104388823E1F3CE01019622D8F9
:1019B000F8CF6CE87DEAC80118DB682E882349F16E
:1019C0008FEF89A318E141E0BE016F5D7F4F812F4A
:1019D0000E94D2041F5F1032B1F71EE660E0812F33
:1019E00084D91F5F1237D1F7F9D88FE0E9EEFDEA0D
:1019F000DE01119601900D928A95E1F78CE30BD8E8
:101A0000809104388823E1F3CE0101960E94FA0404
:101A1000F7CF63EC7DEAC801E8DA882309F435CE14
:101A200008E419E378E1772EEAE05E2EF4E64F2E23
:101A3000EE24E394F12CCC24C394D12C89E5882E98
:101A40008AE7982E92E0A92EB12C41E0BE016F5D8D
:101A50007F4F872D0E94C20429A1822F652D0E94ED
:101A600068169B830E9468169A83822F642D0E94B9
:101A70006816898319A2DE01119640E02D91862D0A
:101A8000840F90E0FC01EE0FFF1FE85BF64C30E0A6
:101A90002D523B4820833183FC01EE0FFF1FE85796
:101AA000F64CE082F182880F991FFC01E853F64C56
:101AB000E082F1824F5F433009F7F8018682978216
:101AC000EA5BFF4FA082B182E05CFF4FC082D1820F
:101AD0007394085F1F4FF4E06F0E80E27812B5CF69
:101AE0008BE59AE7809386399093873984E090E07C
:101AF0008093C6399093C73981E090E08093063A8D
:101B00009093073A70924739FF24F3948F2DA19652
:101B1000CDBFDEBFDF91CF911F910F91FF90EF906E
:101B2000DF90CF90BF90AF909F908F907F906F90FD
:101B30005F904F9008954F925F926F927F928F9235
:101B40009F92AF92BF92CF92DF92EF92FF920F934C
:101B50001F93CF93DF93CDB7DEB72A97CDBFDEBFFC
:101B60008C0144DCC80142DCF82ED801882309F43A
:101B700058C78C91883779F580918F38E82FF0E03D
:101B8000EE0FFF1FE85FF54C20813181232B11F010
:101B9000811103C082E896E758C580914E3AC7D8B4
:101BA000882381F0E0918F38E150E0938F38F0E0A6
:101BB000EE0FFF1FE85FF54C68E47AE380819181C6
:101BC000E2DA0DC280916A3A90916B3A20915C3AC8
:101BD00030915D3AF2C5853619F08F3609F0C9C0EB
:101BE000B2E0FB12D7CFE0908F38F12CF701EE0F67
:101BF000FF1FE85FF54C40E050E0D80111966C9172
:101C0000808191818BDBF701EE0FFF1FE65FF54CC2
:101C10008083918390918F38292F30E0F901EE0F66
:101C2000FF1FE65FF54C408151814115510521F0C0
:101C300069E079E3CA011CC0992309F40DC7220F9A
:101C4000331FF901EA5FF54CD80111966C91808140
:101C5000918110DB882309F4FFC6E0918F38F0E012
:101C6000EE0FFF1FEA5FF54C69E079E38081918117
:101C70008ADAF80180818536C9F48091113980FDB6
:101C80001EC080EA99E780934A3990934B398EE1E0
:101C900090E080938A3990938B3981E090E0809333
:101CA000CA399093CB3972E0772E9BC68F3639F4C0
:101CB0008091113981FD03C085E899E7C6C4809100
:101CC0000F3935D8E0918F38882309F442C0AE2F00
:101CD000B0E0AA0FBB1FA65FB54C8D919C91892BDC
:101CE00011F0EF5F01C0E150E0938F38E0918F3841
:101CF000F0E0EE0FFF1FE85FF54C68E47AE38081C7
:101D0000918141DA8091643A9091653A2091563AF6
:101D10003091573A20934A3930934B3980938A391E
:101D200090938B391092CA391092CB398BE59AE790
:101D300080934C3990934D3982E090E080938C39B8
:101D400090938D3981E090E08093CC399093CD3998
:101D500068C4F0E0EE0FFF1FE65FF54C10821182C1
:101D600080912B3990912C3920911D3930911E3959
:101D700024C58C3609F04BC1E0918F38B1E0FB12DD
:101D8000F6C08091643A9091653A2091563A30912C
:101D9000573A20934A3930934B3980938A3990933C
:101DA0008B391092CA391092CB398BE59AE7809320
:101DB0004C3990934D3982E090E080938C39909328
:101DC0008D3981E090E08093CC399093CD392EEE1F
:101DD00039E720934E3930934F3925E130E0209395
:101DE0008E3930938F398093CE399093CF39F0E08C
:101DF000EE0FFF1FE65FF54C1082118284E0682E23
:101E000099E5C92E9AE7D92E22E0A22EB12C88247A
:101E10008394912C80918F3890E09C01220F331F86
:101E2000F901E65FF54C7F0140815181F901E85FDE
:101E3000F54C60E08081918171DAD7018D939C939C
:101E4000E0918F38F0E0EE0FFF1FE65FF54C8081E8
:101E50009181009709F44AC02091963830919738C3
:101E60008217930709F442C020919838309199382D
:101E700082179307D9F169E079E385D980912339F5
:101E800090912439E62DF0E0DF01AA0FBB1FA85B7B
:101E9000B64C20911539309116392D933C93DF01C2
:101EA000AA0FBB1FA857B64C8D939C93EE0FFF1F34
:101EB000E853F64C1082118281E0860D90E0639425
:101EC0006394FC01EE0FFF1FE85BF64CC082D182E9
:101ED000FC01EE0FFF1FE857F64CA082B182880F7D
:101EE000991FFC01E853F64C8082918220918F3833
:101EF000822F90E0FC01EE0FFF1FE65FF54C408162
:101F00005181452B09F086CF222369F1880F991F53
:101F1000FC01EA5FF54C69E079E38081918133D976
:101F2000209123393091243977247394760C862DAF
:101F300090E0FC01EE0FFF1FE85BF64C4091153975
:101F40005091163940835183FC01EE0FFF1FE85773
:101F5000F64C20833183880F991FFC01E853F64C1F
:101F6000108211823EC577247A94760C3AC5EE2E03
:101F7000F12CF701EE0FFF1FE85FF54C40E050E059
:101F8000D80111966C9180819181C8D9F701EE0F2B
:101F9000FF1FE65FF54C8083918390918F38292F46
:101FA00030E0F901EE0FFF1FE65FF54C40815181F3
:101FB0004115510521F069E079E3CA011EC099235A
:101FC00009F44AC5220F331FF901EA5FF54CD80125
:101FD00011966C91808191814DD9811103C0772434
:101FE0007394FFC4E0918F38F0E0EE0FFF1FEA5FBB
:101FF000F54C69E079E380819181C5D880912539DC
:10200000909126392091173930911839D6C38037ED
:1020100009F096C08091963890919738892B79F085
:102020008091983890919938892B49F085E498E708
:1020300080934A3990934B3989E590E02ACEB2E0FB
:10204000FB12A8CDE0908F38F12CF701EE0FFF1FA7
:10205000E85FF54C40E050E0D80111966C9180812A
:1020600091815CD9F701EE0FFF1FE65FF54C80838D
:10207000918320918F3830E02F5F3F4F220F331F25
:10208000F901E85FF54C80819181009709F4ABC3B9
:1020900040919638509197388417950739F04091C0
:1020A00098385091993884179507C1F480E298E7E1
:1020B00080934A3990934B3985E290E080938A3936
:1020C00090938B3981E090E08093CA399093CB391B
:1020D000F901E85FF54C10821182E5CD69E079E302
:1020E00052D8809110390E949706882309F45DC365
:1020F00080911439882309F44DCD809196389091C0
:102100009738E0918F38F0E0EE0FFF1FE65FF54C57
:10211000892B39F0808191818093983890939938F8
:1021200006C08081918180939638909397388AE099
:1021300098E780934A3990934B3986E190E053C2F7
:102140008436D9F48091963890919738009709F0A9
:102150008CC48091983890919938892B49F484EEF9
:1021600097E780934A3990934B3986E290E091CD7E
:10217000B2E0FB1609F4DFC40DCD893609F07BC04F
:102180008091963890919738892B31F480919838C6
:1021900090919938892B19F38AE098E780934A390E
:1021A00090934B3986E190E080938A3990938B39F4
:1021B00081E090E08093CA399093CB3926E9E22EF2
:1021C00028E3F22E3AE9632E38E3732E42E0542ED0
:1021D00059E5C52E5AE7D52E62E0A62EB12C8824EB
:1021E0008394912CD7018D919D917D010097D9F118
:1021F00069E079E30E94C3088091233990912439E2
:10220000E52DF0E0DF01AA0FBB1FA85BB64C2091C3
:102210001539309116392D933C93DF01AA0FBB1F5E
:10222000A857B64C8D939C93EE0FFF1FE853F64CC6
:1022300010821182E1E0E50DF0E053945394DF0148
:10224000AA0FBB1FA85BB64CCD92DC92DF01AA0F90
:10225000BB1FA857B64CAD92BC92EE0FFF1FE853C0
:10226000F64C808291826E147F0409F0BBCF7724F4
:102270007A94750CB6C39CE8980F923028F0873694
:1022800019F0823709F0B8C28EEF8F0D823008F056
:1022900081CCE0918F38CE2ED12CD801AF0DB11D5D
:1022A0001197F601EE0FFF1FE85FF54C40E050E09C
:1022B0006C918081918132D8F601EE0FFF1FE65FAD
:1022C000F54C80839183E0918F38F0E0EE0FFF1F93
:1022D000E65FF54C80819181009709F47BC2B3E001
:1022E000FB126DC1F8012081253719F0273609F05E
:1022F00066C1612C7724739454E6C52E59E7D52E18
:1023000061E2A62EB12C88248394912CE62CF12C2A
:10231000C701880F991F9C012A56374C7901D901B2
:102320008D919C91009781F0F80161810E943A099A
:10233000882351F06EED78E3D7018D919C910E9436
:10234000C30832E0632E1EC0B1E06B121AC0E72D45
:10235000F0E0DF01AA0FBB1FA85BB64CCD92DC9268
:10236000DF01AA0FBB1FA857B64CAD92BC92EE0F6F
:10237000FF1FE853F64C80829182F801108273941B
:1023800001C0612C6394F1E06F1609F4BFCFD8014E
:102390008C91882309F425C3E0918F38F0E0EE0F8B
:1023A000FF1FE65FF54C69E079E3808191810E942F
:1023B000C308E0902739F0902839B1E0EB16F1041A
:1023C00009F09AC098012E5F3F4F40E061E0809194
:1023D000193990911A390E94B907F801428121E018
:1023E000270D872D90E0413309F06BC03091E9381B
:1023F00051EE530FFC01EE0FFF1FE85BF64C54301B
:1024000060F044E059E740835183FC01EE0FFF1F69
:10241000E857F64C4AE150E064C06EE875E7608327
:102420007183FC01EE0FFF1FE857F64C62EB70E082
:1024300060837183880F991FFC01E853F64CE0829A
:10244000F182822F90E0FC01EE0FFF1FE85BF64C5B
:102450006BE57AE760837183FC01EE0FFF1FE8579D
:10246000F64C62E070E060837183880F991FFC0175
:10247000E853F64CE082F18282E0870D90E0F3E0D1
:102480007F0EFC01EE0FFF1FE85BF64C60EB78E778
:1024900060837183FC01EE0FFF1FE857F64C62E189
:1024A00070E060837183880F991FFC01E853F64C3C
:1024B000E082F182409337393093383910923939BC
:1024C00090C2FC01EE0FFF1FE85BF64C40E456E7BC
:1024D00040835183FC01EE0FFF1FE857F64C42E4A6
:1024E00050E040835183880F991FFC01E853F64C5C
:1024F000E082F182722E75C2909112398091E93892
:10250000981324C0809113390E948F0620912F398F
:1025100030913039872D90E0FC01EE0FFF1FE85B12
:10252000F64C409121395091223940835183FC016E
:10253000EE0FFF1FE857F64C20833183880F991F59
:10254000FC01E853F64C1082118237C0D8018C91FF
:10255000853799F4872D90E0FC01EE0FFF1FE85BB3
:10256000F64C24E039E720833183FC01EE0FFF1F96
:10257000E857F64C2AE130E015C0873609F031C241
:10258000872D90E0FC01EE0FFF1FE85BF64C2DED70
:1025900036E720833183FC01EE0FFF1FE857F64C2E
:1025A00028E230E020833183880F991FFC01E85333
:1025B000F64C81E090E080839183739412C269E0CD
:1025C00079E30E94C308F8018081843769F580911E
:1025D000113983FD44C08EE199E780934A39909385
:1025E0004B398EE190E080938A3990938B3981E06A
:1025F00090E08093CA399093CB39809123399091A0
:102600002439209115393091163920934C39309363
:102610004D3980938C3990938D391092CC3910922A
:10262000CD3963E0762EDDC1853739F480911139DB
:1026300084FD15C084E099E711C2823769F4809166
:10264000113985FD0CC089EE98E780934A39909343
:102650004B398BE190E01DCB873609F49BCAE090A3
:102660002739F0902839F1E0EF16F10411F59801BF
:102670002E5F3F4F40E061E08091193990911A3907
:102680000E94B907D80112968C91813309F0A7CC2A
:1026900083E695E780934A3990934B398BE290E03B
:1026A00080938A3990938B39E092CA39F092CB3972
:1026B000FACAE114F10409F459C0809119399091D2
:1026C0001A3980934A3990934B39E0928A39F092C3
:1026D0008B391092CA391092CB398BE59AE78093E7
:1026E0004C3990934D3982E090E080938C399093EF
:1026F0008D3981E090E08093CC399093CD3920EBF7
:1027000038E720934E3930934F3922E130E020935F
:102710008E3930938F398093CE399093CF39809111
:10272000293990912A39409730F08FE090E08093DA
:10273000293990932A3927E339E340E06091293918
:1027400080911B3990911C390E94B90767E379E3A6
:10275000809129390E94AC07E0912939F0912A39FA
:10276000E95CF64C108254E0752E3BC18091103923
:102770000E9497068823C9F080912F3990913039B3
:10278000209121393091223920934A3930934B39A5
:1027900080938A3990938B391092CA391092CB3931
:1027A000809113390E948F067ECA80912D399091B5
:1027B0002E3920911F393091203920934A39309396
:1027C0004B3980938A3990938B391092CA39109281
:1027D000CB3969CAF8018081843711F0873619F442
:1027E0008CE399E702C080E599E780934A3990939A
:1027F0004B3984E190E04DCA813609F0F0CB8091ED
:102800003639823008F4ABC0D80111962C912223BE
:1028100009F49CC0FE0131967F018AE0DF011D9220
:102820008A95E9F72053F8012183328130533283AE
:102830008381813611F481E008C0853611F413825A
:1028400008C0863621F483E0F801838302C082E069
:10285000838321FD04C080E090E0DC0104C080E0BF
:1028600090E0A0E1B0E020FF03C09F5FAF4FBF4FFB
:10287000F801238121FD119620FF03C04096A11D80
:10288000B11D31FF03C0905FAF4FBF4F30FF03C09A
:102890000196A11DB11D4091953823E030E0241B25
:1028A0003109BC01CD0104C0660F771F881F991F35
:1028B0002A95D2F726E035E720934A3930934B39F1
:1028C00020E230E020938A3930938B3921E030E0E8
:1028D0002093CA393093CB3939E0B32E4AE0442EE5
:1028E000512C612C712C6701CB0CD11CA3019201DE
:1028F0000FD2D6016C93B901CA016115710581052A
:10290000910539F4E8E4F9E322E0722E21E030E0A9
:1029100002C0BA94E8CF3296B9E0BB1508F45FC0A4
:102920007394D701AB0DB11D8C9190E08D529B48F3
:1029300082839383DF01AE5BBF4F2D933C9311974E
:10294000A05CBF4F2D933C93B394E5CF86E295E70F
:1029500080934A3990934B398DE390E034C0E091F5
:102960008F38F0E0EE0FFF1FE65FF54C69E079E38A
:102970008130E9F4808191810E94C30880912F39D0
:1029800090913039209121393091223920934A3960
:1029900030934B3980938A3990938B391092CA398E
:1029A0001092CB39809113390E948F0616C0808116
:1029B00091810E94C3088EE998E780934A399093E9
:1029C0004B3982E190E080938A3990938B3981E092
:1029D00090E08093CA399093CB3982E0782E1092A0
:1029E0003739F801108210929C381DBA8BE59AE7AE
:1029F000809348399093493982E090E080938839F8
:102A00009093893981E090E08093C8399093C939D7
:102A100080913739882319F070924739A4C0872DE7
:102A200016C01C9210929C381DBA8BE59AE78093D1
:102A300048399093493982E090E0809388399093A7
:102A4000893981E090E08093C8399093C9390E9418
:102A500047088093473987C084ED99E780934A39C6
:102A600090934B398AE190E014C9B2E0FB1292C80E
:102A7000D80111966C910E943A09882309F45BC031
:102A800080E090E0880F991F9C012A56374C79010D
:102A900069E079E3D9018D919C910E94C30884ED8E
:102AA00097E780934A3990934B3980E190E0809387
:102AB0008A3990938B3981E090E08093CA39909362
:102AC000CB392091233930912439409115395091D7
:102AD000163940934C3950934D3920938C393093AB
:102AE0008D391092CC391092CD392BE53AE72093ED
:102AF0004E3930934F3922E030E020938E393093B5
:102B00008F398093CE399093CF3927E937E72093D7
:102B10005039309351392DE330E020939039309380
:102B200091398093D0399093D139F7011082118275
:102B3000F5E07F2E56CF8091983890919938009784
:102B400049F0F80161810E943A09882319F081E077
:102B500090E098CF84E699E780934A3990934B3977
:102B600081E290E096C880E02A96CDBFDEBFDF917B
:102B7000CF911F910F91FF90EF90DF90CF90BF907A
:102B8000AF909F908F907F906F905F904F9008953F
:102B9000CF930E94190A882311F0C1E013C00E944C
:102BA0006D0A8111FACF8DE998E30E94B40AC82F0B
:102BB000811107C08DE998E30E949B0D0E94EE05EC
:102BC00001C0C2E08C2FCF9108950E949F018FEF2A
:102BD0000E940B05AAE7BDEA81E0ED91F0E0E15F1C
:102BE000F44C80831596EC911597F0E0E15FF44C7E
:102BF00080832DEAA038B20781F7ECE6FDEA91E088
:102C0000EF01A581B0E0A15FB44C81E09C933196C7
:102C1000A881B0E0A15FB44C9C932DEAE137F207A4
:102C200079F7E09178ADF0E0E15FF44C8083E091DA
:102C300079ADF0E0E15FF44C8083E09176ADF0E0B7
:102C4000E15FF44C8083E09177ADF0E0E15FF44C1C
:102C50008083E0916AADF0E0E15FF44C8083E09125
:102C60006BADF0E0E15FF44C8083E09169ADF0E0A2
:102C7000E15FF44C8083E09168ADF0E0E15FF44CFB
:102C800080830E94DE0680919A388823D1F3809158
:102C90008D3A0E941C0580938D3A10929A3878DF05
:102CA0000E9454078091EB3A9091EC3A0A9720F4F5
:102CB00061E084E70E9475068091EB3A9091EC3ACE
:102CC00085369105F0F260E084E70E947506D9CF61
:102CD000991B79E004C0991F961708F0961B881F6E
:102CE0007A95C9F780950895AA1BBB1B51E107C0CF
:102CF000AA1FBB1FA617B70710F0A61BB70B881F8C
:102D0000991F5A95A9F780959095BC01CD0108951A
:102D1000A1E21A2EAA1BBB1BFD010DC0AA1FBB1FDF
:102D2000EE1FFF1FA217B307E407F50720F0A21B51
:102D3000B30BE40BF50B661F771F881F991F1A94BE
:102D400069F760957095809590959B01AC01BD01E8
:082D5000CF010895F894FFCFB4
:102D58002D7D39575C79514234617D593B655B441F
:102D68000D0B0C0A0201050003042422212308206C
:102D780009251412111310151C1A191B181D696442
:102D8800647164007468652074726F75626C652084
:102D980077697468207265616C206C696665206962
:102DA800732C2074686572652773206E6F207265B6
:102DB80073657420627574746F6E006368656174FE
:102DC80000436865617465722120436F6E746163A6
:102DD80074206261646765207465616D2E2E2E20F3
:102DE80000526573657420706C65617365212000FD
:102DF80074BFFA541C96B2261EEBD68BC0C20A6169
:102E080091389138018000000000000000000000A7
:102E180000000000000000000000000000000000AA
:102E2800000000000000000000000000000000009A
:102E3800000000000000000000000000000000008A
:102E4800000000000000000000000000000000007A
:102E5800000000000000000000000000000000006A
:102E6800000000000000000000000000000000005A
:102E7800000000000000000000000000000000004A
:102E8800000000000001D40103070F1F3F7FFFFF70
:00000001FF
