:100000003DC0000058C0000056C0000054C00000B1
:1000100052C0000050C000009DC60000E5C60000B0
:10002000D0C4000048C0000046C0000044C000002A
:1000300042C0000017C5000048C500003CC00000D9
:100040003AC0000038C0000036C0000034C00000D4
:1000500006C6000030C0000035C600002CC00000FD
:100060002AC0000028C0000026C0000081C5000092
:10007000DAC5000020C000001EC0000011241FBE11
:10008000CFEFCDBFDFE3DEBF18E3A0E0B8E3E0E2EF
:10009000F5E302C005900D92A832B107D9F72BE322
:1000A000A8E2B8E301C01D92AA30B207E1F70E94AE
:1000B0004C190C94211AA4CF80E0089581E080931C
:1000C0002204E6E2F4E0808310923004A1E2B4E07E
:1000D00092E09C93908310923104E0E1F8E097E085
:1000E000968398E0948383838C9385818160858354
:1000F0008581846C8583089580911408886080933D
:1001000014081092130882E08093220499E021E001
:1001100081E02093210430E13A95F1F700C020936B
:10012000220430E13A95F1F700C0915089F728E0B8
:10013000209314088093130892E0909321049091E7
:10014000150891609093150890911508946C909300
:10015000150820931408809313088093210480913C
:10016000150881608093150880911508846C809330
:1001700015080895282F90911508906C90931508F4
:1001800090911508892F847092FD03C02093170861
:10019000089584E008958CE08093383A80911508A2
:1001A00087FD0AC08091150886FD06C08091383A07
:1001B0008111F4CF8FEF089580911508806C8093A2
:1001C00015088091150882FD09C08091150883FDEE
:1001D00007C08091150882958170089584E0089584
:1001E00082E00895FC018CE08093383A90911508E4
:1001F000892F8370823011F088E00895909115085E
:1002000097FD06C09091383A9111F8CF8FEF08957D
:1002100090911508906C909315089091150892FD97
:100220001EC09091150893FD1DC090911508892F4F
:10023000807194FD16C090911408611102C09B7FDB
:1002400001C09460909314089091180890836111F4
:1002500009C090911408926090931408089584E066
:10026000089581E00895FC018CE08093383A9091E4
:10027000150893709230B1F48081809318088091B2
:10028000150886FD06C08091383A8111F8CF8FEFAE
:1002900008958091150882FD07C080911508829508
:1002A0008170089588E0089584E00895E0E1F8E021
:1002B0008481836084830895CF92DF92FF920F93AD
:1002C0001F93CF93DF936B01F42EE901182F110FC9
:1002D000812F50DF81112BC05EDF813019F4E6DF02
:1002E00081E027C0811123C0FF2049F0C601BBDF98
:1002F00081111DC08FEFC81AD80AFA94F5CF0134C6
:1003000008F000E41F5F10931708023040F060E02F
:10031000CE0168DF81110BC021960150F6CF61E05C
:10032000CE0160DF811103C0C1DF80E002C0E4DEE6
:100330008FEFDF91CF911F910F91FF90DF90CF90C2
:100340000895CF938BE738D78111F0C080912F3873
:10035000882319F0833009F0E9C0C09171B4EC2F03
:10036000F0E0809107388F3F19F09091093801C073
:1003700090E0E654F54C9083982F907F09F4D6C016
:1003800020910138982F92279F7009F4CFC02F3FFA
:1003900009F0C8C08F70823061F028F4813069F4B0
:1003A000109200380DC0843031F0883031F482E092
:1003B00005C081E003C083E001C08FEF8093003867
:1003C00083E080932F3880912938E82FF0E0EA5AB3
:1003D000FB44208190910038E0916EB4291317C03E
:1003E00090910238917090930238F0E0E654F54C09
:1003F00090E89083E0917DB4F0E0E654F54C1082F3
:10040000E0917CB4F0E0E654F54C108213C01092F9
:100410000238F0E0E654F54C1082843058F4109223
:100420002F38109229381092283881E080930238B2
:100430008FEF7AC08F5F80932938909128389F5F23
:10044000943018F4909328386DC010922838909109
:1004500002389130A1F5E82FE695E695F0E0E058F6
:10046000FB44E581F0E090910938E654F54C908327
:10047000883109F057C08BE795D6EC2FF0E0E654B1
:10048000F54C1082E0917DB4F0E0E654F54C10821A
:10049000E0917CB4F0E0E654F54C1082E0917FB43A
:1004A000F0E080910938E654F54C8083E0917EB409
:1004B000F0E080910938E654F54C808333C0109207
:1004C0002F381092293881E080930238EC2FF0E029
:1004D000E654F54C1082E0917FB4F0E0E654F54C20
:1004E0001082E0917EB4F0E0E654F54C1082E09189
:1004F0007DB4F0E080910938E654F54C8083E091BA
:100500007CB4F0E080910938E654F54C8083A6E88D
:10051000B4EBED91F0E0E654F54C108284EBAC388E
:10052000B807B9F7809107388093013880E0CF9100
:100530000895CF93DF9387EF3FD681113EC18DE7BA
:100540003BD681113AC180912F38823008F035C1F5
:100550008091E33A9091E43A892B41F48091933A67
:100560009091943A8093E33A9093E43A8091933A4D
:100570009091943A2091E33A3091E43A821B930BA4
:1005800030913C38313089F018F03230C1F01FC062
:10059000843D2EEF920714F481E004C08D32914027
:1005A0005CF082E080933B3812C08D3221E09207EC
:1005B000C4F789389F4F84F310923B3808C0843DBC
:1005C0002EEF92074CF388379105B4F3EACFC09130
:1005D00071B4EC2FF0E080913B38882319F09091B2
:1005E000093801C090E0E654F54C9083882359F017
:1005F00020913A3821113DC091E0813009F490E01A
:100600009093383836C0332309F4D7C010923C3861
:1006100080913A38823109F0D0C010922F38109270
:100620003A3881E080930A381082E0917FB4F0E09C
:10063000E654F54C1082E0917EB4F0E0E654F54CBF
:100640001082E0917DB4F0E0E654F54C1082E09128
:100650007CB4F0E0E654F54C1082A6E8B4EBED91E2
:10066000F0E0E654F54C108224EBAC38B207B9F751
:10067000A4C0381709F4A1C080933C3891E090934E
:100680002F3890913838992311F093E0892790E022
:10069000E22FF0E0E457FB44408150E084179507D7
:1006A00091F480910A38817080930A38E0917DB48A
:1006B000F0E0E654F54C1082E0917CB4F0E0E654B2
:1006C000F54C108202C010920A382F5F20933A38FE
:1006D000809139388F5F833018F4809339386DC03A
:1006E0001092393880910A388130A9F5EBEA2E9FB3
:1006F000E12D1124E695F0E0E058FB44E581F0E0BF
:1007000080910938E654F54C8083223109F055C0B8
:100710008DE748D5D0E0C654D54C1882E0917DB421
:10072000F0E0E654F54C1082E0917CB4F0E0E65441
:10073000F54C1082E0917FB4F0E080910938E654E6
:10074000F54C8083E0917EB4F0E080910938E65466
:10075000F54C808332C010922F3810923A3881E0E5
:1007600080930A38D0E0C654D54C1882E0917FB40B
:10077000F0E0E654F54C1082E0917EB4F0E0E654EF
:10078000F54C1082E0917DB4F0E080910938E65498
:10079000F54C8083E0917CB4F0E080910938E65418
:1007A000F54C8083A6E8B4EBED91F0E0E654F54C0F
:1007B000108284EBAC38B807B9F780E0DF91CF91B5
:1007C0000895CF93DF93F89488ED84BFC1E0C09380
:1007D00061008AE4809300048CE7809320049FE307
:1007E00090934004809153048068809353048091D7
:1007F00054048068809354048091550480688093E9
:1008000055048091330480688093330480913404CC
:100810008068809334048091350480688093350427
:10082000C0930102D2E0D09305042BE531E0209380
:1008300008083093090880EA8093050880EC8093CB
:10084000060883E0809307081CBA1DBA1EBA1FBAB7
:10085000C093030A88E08093000A9093020287E71E
:100860008093010AC0930A0A8BE08093050A809165
:10087000000A81608093000A85E08093400A10920C
:10088000410A8FEF91E080934C0A90934D0A1092A9
:10089000450AC093500A1092510A8BE893E0809366
:1008A0005C0A90935D0AC093550A08DC82E180934C
:1008B000A00080E28093A200C093A10086E0809314
:1008C000000684E4809302068EE180930606C093BE
:1008D0000A0680910006816080930006C093080696
:1008E00010924006D093410682E58093420684E050
:1008F0008093450680934606C0934A068091400641
:10090000816080934006C093480680E48093A006EF
:1009100080E88093A1068091A00681608093A00664
:100920008091410180FDFCCF80E3809340011092D3
:1009300047018091410182FDFCCF80E098E78093E0
:100940004A0190934B018091480190914901609137
:100950004A0170914B0182960E94EB198093E73A0D
:100960009093E83A8091410183FDFCCF8091E73A72
:100970009091E83A80934C0190934D0183E08093ED
:10098000420181E08093520188E080935001809180
:10099000410180FDFCCF8091400181608093400146
:1009A0008091500181608093500110924D3A8DE406
:1009B0009AE38093913A9093923A7894DF91CF9111
:1009C00008951F920F920FB60F9211248F939F9349
:1009D000AF93BF93EF93FF9387E08093460484E443
:1009E00080932604ECB388E0E89FF0011124E654DC
:1009F000F54CA8E2BAE096E081918D939A95E1F7E3
:100A00008BE08093050A8CB3833058F48CB391E06B
:100A100001C0990F8A95EAF799B98CB383958CBB7D
:100A20000AC08CB3833021F42A9A83958CBB03C00F
:100A30002E9A88278CBB8091383A882329F08091A0
:100A4000383A81508093383A8FEF80930B0AFF91A8
:100A5000EF91BF91AF919F918F910F900FBE0F902B
:100A60001F9018951F920F920FB60F9211248F931B
:100A70009F93EF93FF93E091913AF091923A8081A6
:100A8000882391F08081809302088091913A90911F
:100A9000923A01968093913A9093923A8091050808
:100AA00080628093050805C081E080930838109229
:100AB000450A81E08093460AFF91EF919F918F91C3
:100AC0000F900FBE0F901F9018951F920F920FB6A8
:100AD0000F9211242F933F934F938F939F93EF93F4
:100AE000FF93E0910538F09106388081811108C0AC
:100AF000809103389091043880930538909306389C
:100B0000E0910538F091063880818823E1F020815A
:100B100040918E3A30E02F573109429FC001439FE8
:100B2000900D1124892F990F990B80589F4F809316
:100B3000A10680910538909106380196809305387A
:100B40009093063806C080E88093A10681E08093E8
:100B5000E23A81E08093560AFF91EF919F918F9145
:100B60004F913F912F910F900FBE0F901F901895AE
:100B70001F920F920FB60F9211248F93EF93FF9352
:100B800080913738811144C0EDB3F0E080910008C6
:100B9000E35BF54C8083EDB3F0E0E35BF54C8081E3
:100BA00080930208EDB3F0E0E35BF54C80818A307E
:100BB00039F0EDB3F0E0E35BF54C80818D3049F422
:100BC000EDB3F0E0E35BF54C108281E080933738C1
:100BD0001FC0EDB3F0E0E35BF54C8081883039F065
:100BE000EDB3F0E0E35BF54C80818F3759F48DB3C2
:100BF000882341F0EDB3F0E0E35BF54C10828DB358
:100C0000815005C08DB3803418F48DB38F5F8DBBD8
:100C100080E880930408FF91EF918F910F900FBEB1
:100C20000F901F9018951F920F920FB60F921124DC
:100C30008F93EF93FF9310924A0A10924B0A81E030
:100C40008093450AE5E0F8E080818F7D8083FF9105
:100C5000EF918F910F900FBE0F901F9018951F92DC
:100C60000F920FB60F9211248F939F93EF93FF93E0
:100C700080912A38811118C08EB38F5F8F718EBB1F
:100C8000809106068E3141F48091100690E08093A9
:100C9000E53A9093E63A0AC0EEB3F0E08091100690
:100CA000E656F54C808302C010922A3881E080938A
:100CB0000B06FF91EF919F918F910F900FBE0F90B8
:100CC0001F9018951F920F920FB60F9211248F93B9
:100CD0009F938091460681110AC0809150069091A1
:100CE00051068093953A9093963A81E010C0809196
:100CF0004606813079F488E080930604809150069E
:100D0000909151068093933A9093943A84E0809323
:100D1000460610C0809150069091510680938F3AFC
:100D20009093903A8FB38F3029F41092460688E062
:100D3000809305048FB390E001968F7099278FBB45
:100D400081E080934B069F918F910F900FBE0F9083
:100D50001F9018951F920F920FB60F9211245F9358
:100D60006F937F938F939F93AF93BF938091430132
:100D700081FF26C0809135388F3F29F0809135382A
:100D80008F5F80933538809148019091490160913F
:100D90004A0170914B0182960E94EB198093E73AC9
:100DA0009093E83A8091410183FDFCCF8091E73A2E
:100DB0009091E83A80934C0190934D0182E006C0F7
:100DC000809136388F5F8093363881E0809343017D
:100DD000BF91AF919F918F917F916F915F910F9094
:100DE0000FBE0F901F9018951F920F920FB60F9283
:100DF00011248F9381E080934806809353018F9153
:100E00000F900FBE0F901F9018959091021091FDBA
:100E1000FCCFFB01480F841739F0A82FB0E0BC5E6F
:100E20009C9191938F5FF7CF08959DE924E033E083
:100E3000442309F15091021051FDFCCF94BF20933F
:100E40000010E82F582F5F718F5F6F5F7F4FDB01BE
:100E50001197AC91F0E0FC5EA083415019F0E82FAF
:100E60005F3181F794BF309300105091021052FF10
:100E7000DFCF81E0089580E0089520910838222393
:100E800059F08093913A9093923A1092083881E009
:100E90008093450A80E0089581E00895282F81110C
:100EA00001C021E08FEF90E0821B9109982F8827E5
:100EB00081509F4F80934C0A90934D0A0895209142
:100EC0008F3A3091903A94E0369527959A95E1F7CC
:100ED00033272C353105D0F423353105A8F52233DD
:100EE000310550F42D32310558F5235231092530A2
:100EF000310580F59CE02FC02733310518F12E53C2
:100F000031092730310530F596E025C02A38310502
:100F100050F429373105D0F4235631092B303105EF
:100F2000C8F493E018C0223A3105A0F02B3B3105FC
:100F300078F0205F31092031310560F490E00BC07A
:100F400099E009C098E007C094E005C092E003C0B2
:100F500091E001C09FE0282F2F70921306C0982FB8
:100F6000907F903F39F0805F0895992311F0892F89
:100F700008958FEF089580911C3890911D389C0141
:100F8000322F22273295330F307E822793279C0100
:100F9000232F33272695822793279C013695322FBE
:100FA0002227379527958227932780931C38909383
:100FB0001D380895DF92EF92FF920F931F93CF9306
:100FC000DF937B018A01C0915C0AD0915D0AE82F12
:100FD000F0E03197E770FF27E25EF74CD080CBDF7F
:100FE0008D21C80FD11DC7DF8D21C81BD1090C175A
:100FF0001D0708F4E801C701EC16FD0608F4CE0150
:1010000080935C0A90935D0ADF91CF911F910F91BD
:10101000FF90EF90DF9008950F931F93CF93DF938E
:10102000C82F042F122FE62FF0E03197E770FF272B
:10103000E25EF74CD0819FDF8D23C80F9CDF8D23AC
:10104000C81B8C2F112341F09C2F1C1708F4912FE3
:10105000802F091708F4892FDF91CF911F910F91ED
:101060000895CF92DF92FF920F931F93CF93DF9358
:10107000CDB7DEB76497CDBFDEBF44E1BE016F5F81
:101080007F4F80E0C2DE89E3C82E8AE3D82E8E012E
:101090000F5F1F4FF12CF80181918F01F6019081B4
:1010A000981308C0F394FFEFCF1ADF0A80E1F8121B
:1010B000F2CF08C041E0B6018F2DB7DE882391F34F
:1010C00091E036C020913138309132383093493A2E
:1010D00020934A3A809133389091343890934B3A28
:1010E00080934C3A89899A899827892798272817C5
:1010F000390769F48B899C8998278927982720913B
:101100003338309134382817390749F410C042E099
:1011100069E47AE380E189DE882361F3D1CF42E09C
:101120006BE47AE382E181DE91E0811101C090E01D
:10113000892F6496CDBFDEBFDF91CF911F910F91B4
:10114000FF90DF90CF900895E82FEF77E695E69532
:10115000E695F0E0E75CF54C208130E08770A9016E
:1011600002C0559547958A95E2F7CA0181700895A6
:10117000E82FEF77E695E695E695282F2770F0E0C3
:10118000E75CF54C81E090E001C0880F2A95EAF712
:10119000662319F09081892B03C080959081892363
:1011A00080830895982F8F7731F097FF02C060E019
:1011B00001C061E0DDCF0895CF93C82F8F77C4DFE2
:1011C0002C2F221F2227221F91E0811101C090E0C5
:1011D000822F8927CF910895E3E0F1E180E091919A
:1011E000890FED3091E1F907D1F783708F5F80931C
:1011F00030380895E9E3FAE311928AE3ED34F80711
:10120000D9F7EADF811104C08091463A806405C0B5
:10121000813031F48091463A80688093463A0DC01F
:10122000823021F48091473A816005C0833029F4EF
:101230008091473A82608093473A8091393A816041
:101240008093393A0895CF93DF9344E169E37AE3D9
:1012500080E0DBDDCEE6D0E08C2F76DFD80FCF5FED
:10126000C237D1F7D13011F0C5DF01C0B5DF8091B1
:10127000493A90914A3A982789279827809331389C
:101280009093323880914B3A90914C3A9827892725
:1012900098278093333890933438DF91CF91089515
:1012A000CF9386E789DFC82F882381F0E09171B45E
:1012B000F0E0E654F54C1082E09170B4F0E08091DB
:1012C0000938E654F54C8083C1E04CC085E774DFF3
:1012D000882359F1E09171B4F0E080910938E65427
:1012E000F54C808380914738882379F08091983A33
:1012F0009091993A2091E53A3091E63A089628176C
:10130000390718F086E74EDF2DC08091983A90910A
:10131000993A2091E53A3091E63A0296821793077E
:1013200008F181E0809347381DC08091983A9091F0
:10133000993A892B41F48091E53A9091E63A80936D
:10134000983A9093993A8091983A9091993A20914D
:10135000E53A3091E63A08962817390718F085E7FC
:1013600021DFC0E08C2FCF9108950F931F93CF936F
:10137000DF9380912D3890912E388827892B09F0A2
:10138000AFC080912D3890912E38807E9927892B7F
:1013900031F48BE298E38093033890930438809182
:1013A0002D3890912E38807E9927809709F045C07E
:1013B00080913538882309F440C0809146388111E6
:1013C00015C088E0809345388FEF8093443880E0E3
:1013D00090E280935C0A90935D0A8BE098E380939F
:1013E00003389093043881E08093463880914438E4
:1013F000882371F080938E3A90914538992321F09B
:1014000091509093453819C0880F8093443815C087
:101410008BE298E3809303389093043880912D38C1
:1014200090912E388071992780932D3890932E3883
:101430008FEF80938E3A1092463880912D3890919C
:101440002E3880912D3890912E38807E99278036C5
:101450009105D1F5109243388DE398E380930338DA
:10146000909304388C01C1E0D3E08C2F6D2F0E9443
:10147000DF19992339F020E041E065E080E8CCDD18
:10148000F8018183CF5F0F5F1F4FC63071F78091E6
:1014900035388823C9F040E054E060E872E085E028
:1014A00089DD80918E3A20EA40E162E0B5DD8093EB
:1014B0008E3A20E940E762E080913D38ADDD8093CF
:1014C0003D3880958093403880912D3890912E380A
:1014D00080912D3890912E3880912D3890912E3812
:1014E00080913538DF91CF911F910F91089580E061
:1014F00008951F93CF93DF93CDB7DEB76297CDBF2B
:10150000DEBF8A8B80E1E6E4F4EBDE011196019008
:101510000D928A95E1F7FE01319690E08FEF2191CF
:1015200031912617370709F4892F9F5F9830B9F753
:10153000883010F080E012C018E1180F41E0BE01C1
:101540006F5E7F4F812F61DC89898F3F99F741E082
:10155000BE016E5E7F4F812F68DC81E06296CDBF59
:10156000DEBFDF91CF911F910895F9019C012E1BE1
:101570003F0B88E0489FA0011124405F5A44662336
:1015800069F0DF01A20FB31FA770BB27A40FB51F1F
:1015900080819C91982791936150F1CF0895262FD7
:1015A000FB0135E59E2F921B981728F490819295A8
:1015B00093279193F7CF0895AF92BF92CF92DF9286
:1015C000EF92FF920F931F93CF93DF9300D0CDB78D
:1015D000DEB7D62EC42E59017C01E894F7F8F982C3
:1015E000EA82062F42E0BE016F5F7F4F80E50E94D6
:1015F0005C01182F811105C095014C2D6D2DC7017F
:10160000B4DF812F0F900F90DF91CF911F910F9139
:10161000FF90EF90DF90CF90BF90AF9008958F5FD5
:10162000883030F4E82FF0E0E05EF54C1082F7CF20
:101630000895AC0190E0E92FF0E0DA01AE0FBF1F92
:101640003C91E60FF71F311105C081E0908199238D
:1016500049F007C020812223C1F3321302C09F5FEB
:10166000EACF80E008956115710551F1E8E2FAE3EF
:10167000A0E2BAE320E03FEF6F3F710569F060F050
:10168000819391933D9381509F4F6F5F71092F5FBD
:10169000273091F781E00895E22FF0E0DF01AA0FF3
:1016A000BB1FA85DB54C8D939C93E05EF54CCB01C0
:1016B0006FEF70E00E94EB19808340931E3A05C0E3
:1016C0001092283A1092293A20E0822FA8DF109237
:1016D0001F3A80E00895CF93DF93282F30E0F9017F
:1016E000EE0FFF1FED50F74CABE5BAE7A083B183D7
:1016F000F901EE0FFF1FED5CF64C62E070E06083D5
:101700007183220F331FF901ED58F64C41E050E090
:101710004083518321E0280F30E0F901EE0FFF1FD5
:10172000ED50F74CC4E6DAE7C083D183F901EE0F40
:10173000FF1FED5CF64CCAE0D0E0C083D183220FDE
:10174000331FF901ED58F64C40835183E2E0E80F76
:10175000F0E0EE0FFF1FED50F74C20EF3FEF20833E
:10176000318323E0280F30E0F901EE0FFF1FED5029
:10177000F74CA083B183F901EE0FFF1FED5CF64C2F
:1017800060837183220F331FF901ED58F64C4083BB
:10179000518324E0280F30E0F901EE0FFF1FED50D8
:1017A000F74CA7E5BAE7A083B183F901EE0FFF1F5D
:1017B000ED5CF64C60837183220F331FF901ED5805
:1017C000F64C408351838B5FDF91CF910895AF92A8
:1017D000BF92DF92EF92FF920F931F93CF93DF930D
:1017E000CDB7DEB72C97CDBFDEBF7C018B019E014C
:1017F0002F5F3F4F40E06CE08096DEDE89819A816A
:101800009827892798278096F801808391838B8178
:101810009C81982789279827809682839383DE016D
:1018200015963496C8010C962D912193E817F90767
:10183000D9F7FCE2EF0EF11C5801D12C9E012F5F6D
:101840003F4F40E063E0C701B7DE89819A81982766
:101850008927982797012E5F3F4F43E04D1580F46D
:10186000AC0141505109F801428F538FF3E0EF0E64
:10187000F11CF801E486F5864B81F50144A305C00F
:10188000F801828F938F248735877C01E20EF31E47
:10189000D3940E5F1F4FFFEFAF1ABF0A47E0D41279
:1018A000CDCF2C96CDBFDEBFDF91CF911F910F9191
:1018B000FF90EF90DF90BF90AF900895CF92DF92AE
:1018C000EF92FF920F931F93CF93DF93CDB7DEB7C5
:1018D000A097CDBFDEBFC62E7C0120E2E20EF11C38
:1018E0009E012F5F3F4F40E062E08C9665DE1A81DB
:1018F000D12C112351F1012F113208F000E29E0189
:101900002F5F3F4F40E0602FC7010E9655DEFE016E
:10191000319680E0DD2061F0E1E0F0E0EC0FFD1FAA
:10192000E80FF11D9081906281E09C110EC00EC005
:101930009191DD24D3949B3509F0D12C8F5F8017D2
:1019400048F3E00EF11C101BD4CF80E0A096CDBF71
:10195000DEBFDF91CF911F910F91FF90EF90DF904D
:10196000CF900895AF92BF92DF92EF92FF920F93C4
:101970001F93CF93DF9300D000D0CDB7DEB7D62E24
:101980005A019E012F5F3F4F40E064E0809614DED5
:10199000E980FA80FE24EF24FE240B811C811027AD
:1019A000012710270E151F0530F5A016B10658F0B7
:1019B0009E012F5F3F4F40E062E0C8018096FCDD52
:1019C00009811A81ECCF9E012F5F3F4F40E061E01B
:1019D000C8018596F1DD8981811103C0D11005C050
:1019E0000DC0EADB8111FACFE3CF6D2DC80166DFB0
:1019F0008823F1F203C080E090E001C0C801249682
:101A0000CDBFDEBFDF91CF911F910F91FF90EF907F
:101A1000DF90BF90AF90089580629FE9980F9A3150
:101A200038F090ED980F81E09A3018F080E008953A
:101A300081E008950F931F93CF93DF938C01D0E043
:101A4000C0E0F801ED0FF11D20818C2F90E02223E2
:101A500051F0D801A80FB91F2C938081DDDF8111CF
:101A6000CF5FDF5FEECFF801E80FF91F10828C2FF8
:101A7000DF91CF911F910F910895CF9320911F3A3D
:101A8000283008F047C080910838882309F442C004
:101A9000822F90E0FC01E05EF54CE081E11106C090
:101AA0001092E03888E080931F3A2CC05091E038C3
:101AB0005E1750F5CE2FC51BC13208F0C0E2880F6B
:101AC000991FFC01E85DF54C8081918129EE3AE394
:101AD00040911E3A6C2F850F911D6EDD8091E0388C
:101AE0008C0F8093E038EC2FF0E0E751F54C10823A
:101AF0008091E93A811103C08BED8093E93A89EE38
:101B00009AE3BBD981E00BC01092E0382F5F20939D
:101B10001F3AF8CF9091083881E0911180E0CF9181
:101B20000895CF93DF93C091F238CC23E9F1C150EF
:101B3000C093F238D091DF382D2F30E0F901EE0F4D
:101B4000FF1FED50F74C80819181803F4FEF94074C
:101B500051F460910D3A70910E3A40E08091FF3956
:101B60009091003A0DC0D901AA0FBB1FAD58B64CD9
:101B7000220F331FF901ED5CF64C608171814C91AD
:101B800072DDDF5FD093DF38C1110DC08091F7396E
:101B900090E080932D3890932E381DBA10923738EC
:101BA0001092DF3801C0C1E08C2FDF91CF910895F2
:101BB0004F925F926F927F928F929F92AF92BF925D
:101BC000CF92DF92EF92FF920F931F93CF93DF9309
:101BD000CDB7DEB7A197CDBFDEBF8C01809126388F
:101BE0008F3F49F463EF79E38091B3399091B43931
:101BF000EEDD1092263880912D3890912E38892B69
:101C000099F48091F73990E080932D3890932E3895
:101C100080912D3890912E38807E992721E0892B54
:101C200009F420E020932C3880913738882309F478
:101C30005FC28091E238882309F457C01092E138DE
:101C400081E6F801808362EE78E38DE49AE3F1DCCB
:101C5000F82E882321F081E08093E13804C0809140
:101C6000E238813311F0F12C45C28091E4388111C2
:101C7000FACF8DE49AE3DEDE92E09093E138F8014A
:101C80001182823080F380914D3A813361F08091EE
:101C90004D3A823341F080914D3A833321F0809167
:101CA0004D3A843301F780914E3A806280934E3AE8
:101CB00080914E3A813661F080914E3A853641F0FE
:101CC00080914E3A863621F080914E3A873759F608
:101CD0008091E3388F5EF801818380914D3A828351
:101CE00080914E3A8383148205C280914D3A8332AB
:101CF00081F58DB3863069F581E090E010E0FC015C
:101D0000E35BF54C208120532083110F212F220FFC
:101D1000220F120F20914E3A233048F420812A30AE
:101D2000B0F42081120F01968430910541F7812F84
:101D30008F7769F08091513A6091523A70E0782B38
:101D4000812F8095D6DB882311F0812F2BDA80E05C
:101D500050C0D80180E090E0FC01E35BF54C2081AD
:101D6000213418F020812B3510F0208102C0208111
:101D700020622C932081211105C0F801E80FF11D8C
:101D8000108205C0019611968134910529F7809142
:101D90004D3AF801811105C010821DBA10923738F2
:101DA000A7C180818F3311F0883639F58BE59AE72A
:101DB0008093F3389093F43884E090E08093333943
:101DC0009093343981E090E0809373399093743923
:101DD00023E93BE72093F5383093F6382DE634E0DD
:101DE000209335393093363980937539909376390D
:101DF00082E071DC8093F2387BC18136D9F48BE5C7
:101E00009AE78093F3389093F43884E090E08093DD
:101E100033399093343981E090E080937339909313
:101E200074392EE63AE72093F5383093F63825E2F8
:101E300031E0D6CF873709F06EC08BE59AE7809303
:101E4000F3389093F43884E090E0809333399093A2
:101E5000343921E030E020937339309374398BECBE
:101E600096E78093F5389093F63882E190E080937E
:101E7000353990933639209375393093763980917E
:101E80003038813019F485EC96E70FC0823049F480
:101E900082EC96E78093F7389093F83883E090E0EF
:101EA0001EC0833049F48CEB96E78093F73890930B
:101EB000F83886E090E013C0843049F487EB96E769
:101EC0008093F7389093F83885E090E008C080E47C
:101ED00096E78093F7389093F83882E490E0809307
:101EE00037399093383920937739309378398DE9A1
:101EF00096E78093F9389093FA388AE190E08093DE
:101F0000393990933A3981E090E080937939909310
:101F10007A3984E06ECF8137D9F48BE59AE78093E4
:101F2000F3389093F43884E090E0809333399093C1
:101F3000343981E090E0809373399093743923E0D1
:101F40003AE72093F5383093F63824E530E048CF6F
:101F50006EE974EBC8016DDB8823E9F01EE660E0F2
:101F6000812F06D91F5F1237D1F77BD880E2E1EECF
:101F7000F4EBDE01119601900D928A95E1F78CE366
:101F80000E944E07809108388823E1F3CE01019624
:101F90000E943D07F7CF64EA74EBC8014ADB682E64
:101FA000882351F18FEF89A318E141E0BE016F5DF5
:101FB0007F4F812F0E9415071F5F1032B1F71EE679
:101FC00060E0812FD5D81F5F1237D1F74AD88FE054
:101FD000E1E0F5EBDE01119601900D928A95E1F7B3
:101FE0008CE30E944E07809108388823E1F3CE01EC
:101FF00001960E943D07F7CF6BED74EBC80119DB2A
:10200000882309F430CE03EF18E378E1772EEAE075
:102010005E2EF4E64F2EEE24E394F12CCC24C394F0
:10202000D12C89E5882E8AE7982E92E0A92EB12C32
:1020300041E0BE016F5D7F4F872D0E94050729A1FA
:102040002095822F652D0E94DF199B830E94DF1946
:102050009A83822F642D0E94DF19898319A2DE01E1
:10206000119640E02D91862D840F90E0FC01EE0F3B
:10207000FF1FED50F74C30E02D523B482083318359
:10208000FC01EE0FFF1FED5CF64CE082F182880F41
:10209000991FFC01ED58F64CE082F1824F5F43300E
:1020A00009F7F80186829782EA5BFF4FA082B1822E
:1020B000E05CFF4FC082D1827394085F1F4FF4E051
:1020C0006F0E80E27812B4CF8BE59AE780933139B6
:1020D0009093323984E090E0809371399093723913
:1020E00081E090E08093B1399093B2397092F238E8
:1020F000FF24F3948F2DA196CDBFDEBFDF91CF914A
:102100001F910F91FF90EF90DF90CF90BF90AF9015
:102110009F908F907F906F905F904F9008954F9217
:102120005F926F927F928F929F92AF92BF92CF9267
:10213000DF92EF92FF920F931F93CF93DF93CDB770
:10214000DEB72A97CDBFDEBF8C0174DCC80172DC1C
:10215000F82E882309F4D4C7D8018C91883709F068
:102160003DC080912638E82FF0E0EE0FFF1FED54C0
:10217000F64C20813181232B11F0811103C082E8BC
:1021800096E792C58091F93917D8882381F0E091BC
:102190002638E150E0932638F0E0EE0FFF1FED54B3
:1021A000F64C63EF79E38081918111DB2AC2809143
:1021B000153A9091163A2091073A3091083A2093B7
:1021C000F5383093F638809335399093363910923C
:1021D00075391092763980911B3A33C6853619F0DD
:1021E0008F3609F0D8C0B2E0FB12C9CFE090263894
:1021F000F12CF701EE0FFF1FED54F64C40E050E0DC
:10220000D80111966C9180819181ACDBF701EE0FC2
:10221000FF1FEB54F64C8083918390912638292F31
:1022200030E0F901EE0FFF1FEB54F64C4081518175
:102230004115510521F064EB78E3CA011CC09923D4
:1022400009F47AC7220F331FF901EF54F64CD80175
:1022500011966C918081918131DB882309F46CC7E0
:10226000E0912638F0E0EE0FFF1FEF54F64C64EBE0
:1022700078E380819181ABDAD8018C918536C9F4FD
:102280008091BC3880FD1EC080EA99E78093F538C4
:102290009093F6388EE190E08093353990933639FB
:1022A00081E090E0809375399093763972E0772ED3
:1022B00007C78F3639F48091BC3881FD03C085E8AB
:1022C00099E7F2C48091BA380E94DC08E091263880
:1022D000882309F442C0AE2FB0E0AA0FBB1FAB5455
:1022E000B64C8D919C91892B11F0EF5F01C0E150AC
:1022F000E0932638E0912638F0E0EE0FFF1FED5412
:10230000F64C63EF79E38081918161DA80910F3A35
:102310009091103A2091013A3091023A2093F53889
:102320003093F63880933539909336391092753959
:10233000109276398BE59AE78093F7389093F838C6
:1023400082E090E0809337399093383981E090E0D3
:1023500080937739909378398DC4F0E0EE0FFF1FAA
:10236000EB54F64C108211828091D6389091D73878
:102370002091C8383091C9382093F5383093F63819
:102380008093353990933639109275391092763999
:102390008091DC3856C58C3609F057C1E09126385B
:1023A000B1E0FB12F6C080910F3A9091103A209163
:1023B000013A3091023A2093F5383093F638809301
:1023C00035399093363910927539109276398BE5FC
:1023D0009AE78093F7389093F83882E090E0809302
:1023E00037399093383981E090E080937739909332
:1023F00078392EEE39E72093F9383093FA3825E111
:1024000030E02093393930933A3980937939909379
:102410007A39F0E0EE0FFF1FEB54F64C1082118278
:1024200084E0682E99E5C92E9AE7D92E22E0A22EE3
:10243000B12C88248394912C8091263890E09C01C3
:10244000220F331FF901EB54F64C7F01408151817B
:10245000F901ED54F64C60E08081918183DAD70177
:102460008D939C93E0912638F0E0EE0FFF1FEB5424
:10247000F64C80819181009709F44AC0209131384F
:10248000309132388217930709F442C020913338D3
:102490003091343882179307D9F164EB78E397D9F8
:1024A0008091CE389091CF38E62DF0E0DF01AA0F71
:1024B000BB1FAD50B74C2091C0383091C1382D931F
:1024C0003C93DF01AA0FBB1FAD5CB64C8D939C9370
:1024D000EE0FFF1FED58F64C1082118281E0860D41
:1024E00090E063946394FC01EE0FFF1FED50F74CF6
:1024F000C082D182FC01EE0FFF1FED5CF64CA08282
:10250000B182880F991FFC01ED58F64C80829182B0
:1025100020912638822F90E0FC01EE0FFF1FEB5434
:10252000F64C40815181452B09F086CF222369F179
:10253000880F991FFC01EF54F64C64EB78E380811F
:10254000918145D92091CE383091CF38772473943A
:10255000760C862D90E0FC01EE0FFF1FED50F74C3E
:102560004091C0385091C13840835183FC01EE0F37
:10257000FF1FED5CF64C20833183880F991FFC010F
:10258000ED58F64C108211829BC577247A94760C14
:1025900097C5EE2EF12CF701EE0FFF1FED54F64C10
:1025A00040E050E0D80111966C9180819181DAD998
:1025B000F701EE0FFF1FEB54F64C8083918390914F
:1025C0002638292F30E0F901EE0FFF1FEB54F64CAF
:1025D000408151814115510521F064EB78E3CA0136
:1025E0001EC0992309F4A8C5220F331FF901EF5427
:1025F000F64CD80111966C91808191815FD981113F
:1026000003C0772473945CC5E0912638F0E0EE0FA8
:10261000FF1FEF54F64C64EB78E380819181D7D8AB
:102620008091D0389091D1382091C2383091C33800
:102630002093F5383093F6388093353990933639B6
:10264000109275391092763931CE803709F096C0E4
:102650008091313890913238892B79F080913338DC
:1026600090913438892B49F085E498E78093F538C8
:102670009093F63889E590E00FCEB2E0FB127FCD63
:10268000E0902638F12CF701EE0FFF1FED54F64CC9
:1026900040E050E0D80111966C918081918162D91F
:1026A000F701EE0FFF1FEB54F64C808391832091CE
:1026B000263830E02F5F3F4F220F331FF901ED54D2
:1026C000F64C80819181009709F4CAC3409131385A
:1026D000509132388417950739F040913338509132
:1026E000343884179507C1F480E298E78093F53871
:1026F0009093F63885E290E080933539909336399F
:1027000081E090E08093753990937639F901ED542A
:10271000F64C10821182CACD64EB78E358D88091D0
:10272000BB380E94DC08882309F475C38091BF3848
:10273000882309F424CD8091313890913238E0918A
:102740002638F0E0EE0FFF1FEB54F64C892B39F0E2
:1027500080819181809333389093343806C0808192
:10276000918180933138909332388AE098E7809352
:10277000F5389093F63886E190E05EC28436D9F45D
:102780008091313890913238009709F0D8C4809107
:10279000333890913438892B49F484EE97E780934D
:1027A000F5389093F63886E290E076CDB2E0FB16ED
:1027B00009F42AC5E4CC893609F07BC08091313810
:1027C00090913238892B31F480913338909134389C
:1027D000892B19F38AE098E78093F5389093F638BF
:1027E00086E190E0809335399093363981E090E02E
:1027F000809375399093763921E3E22E28E3F22E07
:1028000035E3632E38E3732E42E0542E59E5C52E8E
:102810005AE7D52E62E0A62EB12C88248394912C01
:10282000D7018D919D917D010097D9F164EB78E3FB
:102830000E94E70B8091CE389091CF38E52DF0E0E3
:10284000DF01AA0FBB1FAD50B74C2091C0383091AB
:10285000C1382D933C93DF01AA0FBB1FAD5CB64C72
:102860008D939C93EE0FFF1FED58F64C1082118252
:10287000E1E0E50DF0E053945394DF01AA0FBB1F94
:10288000AD50B74CCD92DC92DF01AA0FBB1FAD5CFF
:10289000B64CAD92BC92EE0FFF1FED58F64C808205
:1028A00091826E147F0409F0BBCF77247A94750C63
:1028B00007C49CE8980F923028F0873619F08237C9
:1028C00009F0D7C28EEF8F0D823008F058CCE0911E
:1028D0002638CE2ED12CD801AF0DB11D1197F6019F
:1028E000EE0FFF1FED54F64C40E050E06C918081FC
:1028F000918138D8F601EE0FFF1FEB54F64C808320
:102900009183E0912638F0E0EE0FFF1FEB54F64C78
:1029100080819181009709F49AC2B3E0FB1278C1DB
:10292000F8012081253719F0273609F071C1612C93
:102930007724739454E6C52E59E7D52E61E2A62E6E
:10294000B12C88248394912CE62CF12CC701880F9C
:10295000991F9C012F5C374C7901D9018D919C9175
:10296000009781F0F80161810E945E0C882351F08C
:1029700069E878E3D7018D919C910E94E70B32E0E2
:10298000632E1EC0B1E06B121AC0E72DF0E0DF012C
:10299000AA0FBB1FAD50B74CCD92DC92DF01AA0F3E
:1029A000BB1FAD5CB64CAD92BC92EE0FFF1FED5855
:1029B000F64C80829182F8011082739401C0612CE0
:1029C0006394F1E06F1609F4BFCFD8018C9188238E
:1029D00009F476C3E0912638F0E0EE0FFF1FEB54C8
:1029E000F64C64EB78E3808191810E94E70BE090E4
:1029F000D238F090D338B1E0EB16F10409F09AC068
:102A000098012E5F3F4F40E061E08091C438909183
:102A1000C5380E94DC0AF801428121E0270D872D8C
:102A200090E0413309F06BC03091943851EE530F70
:102A3000FC01EE0FFF1FED50F74C543060F044E006
:102A400059E740835183FC01EE0FFF1FED5CF64C0C
:102A50004AE150E064C06EE875E760837183FC0171
:102A6000EE0FFF1FED5CF64C62EB70E0608371834C
:102A7000880F991FFC01ED58F64CE082F182822FFD
:102A800090E0FC01EE0FFF1FED50F74C6BE57AE78D
:102A900060837183FC01EE0FFF1FED5CF64C62E07A
:102AA00070E060837183880F991FFC01ED58F64C2C
:102AB000E082F18282E0870D90E0F3E07F0EFC017E
:102AC000EE0FFF1FED50F74C60EB78E760837183EA
:102AD000FC01EE0FFF1FED5CF64C62E170E06083DD
:102AE0007183880F991FFC01ED58F64CE082F1824A
:102AF0004093E2383093E3381092E438E1C2FC01AD
:102B0000EE0FFF1FED50F74C40E456E74083518332
:102B1000FC01EE0FFF1FED5CF64C42E450E04083F9
:102B20005183880F991FFC01ED58F64CE082F18229
:102B3000722EC6C29091BD388091943898132FC0E0
:102B40002091DA383091DB38FF24F394F70C872D8D
:102B500090E0FC01EE0FFF1FED50F74C4091CC3898
:102B60005091CD3840835183FC01EE0FFF1FED5C87
:102B7000F64C20833183880F991FFC01ED58F64CE9
:102B8000108211828091DE3890E080932D389093EE
:102B90002E388091BE380E94D2087F2C91C2D80175
:102BA0008C91853799F4872D90E0FC01EE0FFF1F83
:102BB000ED50F74C24E039E720833183FC01EE0F20
:102BC000FF1FED5CF64C2AE130E015C0873609F0B6
:102BD00077C2872D90E0FC01EE0FFF1FED50F74C00
:102BE0002DED36E720833183FC01EE0FFF1FED5CF6
:102BF000F64C28E230E020833183880F991FFC01D6
:102C0000ED58F64C81E090E080839183739458C234
:102C100064EB78E30E94E70BF8018081843769F563
:102C20008091BC3883FD4AC08EE199E78093F538E6
:102C30009093F6388EE190E0809335399093363951
:102C400081E090E080937539909376398091CE3809
:102C50009091CF382091C0383091C1382093F73807
:102C60003093F83880933739909338391092773908
:102C700010927839A3E07A2E23C2853769F48091C7
:102C8000BC3884FD1BC084E099E78093F5389093AD
:102C9000F6388AE190E000CB823769F48091BC3845
:102CA00085FD0CC089EE98E78093F5389093F6384F
:102CB0008BE190E0F1CA873609F461CAE090D2381E
:102CC000F090D338F1E0EF16F10411F598012E5F82
:102CD0003F4F40E061E08091C4389091C5380E9438
:102CE000DC0AD80112968C91813309F08ACC83E6F4
:102CF00095E78093F5389093F6388BE290E08093D7
:102D0000353990933639E0927539F0927639CECADA
:102D1000E114F10409F459C08091C4389091C53888
:102D20008093F5389093F638E0923539F092363941
:102D300010927539109276398BE59AE78093F738BF
:102D40009093F83882E090E0809337399093383947
:102D500081E090E0809377399093783920EB38E7E1
:102D60002093F9383093FA3822E130E02093393952
:102D700030933A398093793990937A398091D43865
:102D80009091D538409730F08FE090E08093D43820
:102D90009093D53822EE38E340E06091D4388091AA
:102DA000C6389091C7380E94DC0A62EE78E38091C1
:102DB000D4380E94CF0AE091D438F091D538EE5142
:102DC000F74C1082F4E07F2E7BC18091BB380E94CB
:102DD000DC08882301F18091DA389091DB3820916A
:102DE000CC383091CD382093F5383093F638809335
:102DF0003539909336391092753910927639809121
:102E0000DE3890E080932D3890932E388091BE3834
:102E10000E94D2084BCA8091D8389091D93820911D
:102E2000CA383091CB382093F5383093F6388093F8
:102E300035399093363910927539109276398091E0
:102E4000DD3890E080932D3890932E382FCAF8010A
:102E50008081843711F0873619F48CE399E702C03A
:102E600080E599E78093F5389093F63884E190E017
:102E700013CA813609F0C5CB8091E138823008F45D
:102E8000B3C0D80111962C91222309F4A4C0FE01ED
:102E900031967F018AE0DF011D928A95E9F721537F
:102EA000F80121833281315332838381813611F4D9
:102EB00081E008C0853611F4138208C0863621F4FB
:102EC00083E0F801838302C082E0838321FD04C094
:102ED00080E090E0DC0104C080E090E0A0E1B0E0A0
:102EE00020FF03C09F5FAF4FBF4FF801238121FD3B
:102EF000119620FF03C04096A11DB11D31FF03C0F4
:102F0000905FAF4FBF4F30FF03C00196A11DB11DB1
:102F10004091303824E030E0241B3109BC01CD0160
:102F200004C0660F771F881F991F2A95D2F726E0E5
:102F300035E72093F5383093F63820E230E02093DF
:102F400035393093363921E030E0209375393093AC
:102F5000763959E0B52EEAE04E2E512C612C712CB9
:102F60006701CB0CD11CA301920149D2D6016C930D
:102F7000B901CA01611571058105910551F423EF6D
:102F8000C22E28E3D22E32E0732E88248394912C13
:102F900002C0BA94E5CFF2E0CF0ED11C29E02B1588
:102FA00008F48CC07394F701EB0DF11D808190E063
:102FB0008D529B48F60182839383EE5BFF4F8082A4
:102FC0009182E05CFF4F808291828091BE380E94A6
:102FD000D208B394E0CF86E295E78093F5389093DA
:102FE000F6388DE390E05EC0E0912638F0E0EE0F19
:102FF000FF1FEB54F64C64EB78E3813009F046C0D8
:10300000808191810E94E70B8091BB380E94DC088F
:10301000882301F18091DA389091DB382091CC3807
:103020003091CD382093F5383093F6388093353988
:103030009093363910927539109276398091DE3836
:1030400090E080932D3890932E388091BE380E9466
:10305000D20832C08091D8389091D9382091CA389E
:103060003091CB382093F5383093F638809335394A
:103070009093363910927539109276398091DD38F7
:1030800090E080932D3890932E3816C080819181E6
:103090000E94E70B8EE998E78093F5389093F63815
:1030A00082E190E0809335399093363981E090E069
:1030B000809375399093763982E0782E1092E238B9
:1030C000D8011C92109237381DBA8BE59AE780938D
:1030D000F3389093F43882E090E080933339909302
:1030E000343981E090E08093733990937439809102
:1030F000E238882319F07092F2389EC0872D17C0ED
:10310000F8011082109237381DBA8BE59AE7809348
:10311000F3389093F43882E090E0809333399093C1
:10312000343981E090E080937339909374390E9430
:103130006B0B8093F23880C084ED99E7A6CDF2E066
:10314000FF121DC8F80161810E945E0C882309F4FA
:103150005BC080E090E0880F991F9C012F5C374C8A
:10316000790164EB78E3D9018D919C910E94E70B82
:1031700084ED97E78093F5389093F63880E190E0FE
:10318000809335399093363981E090E0809375399A
:10319000909376392091CE383091CF384091C03815
:1031A0005091C1384093F7385093F838209337390D
:1031B0003093383910927739109278392BE53AE705
:1031C0002093F9383093FA3822E030E020933939EF
:1031D00030933A398093793990937A3927E937E7F0
:1031E0002093FB383093FC382DE330E020933B39BB
:1031F00030933C3980937B3990937C39F70110826E
:103200001182F5E07F2E5CCF809133389091343875
:10321000009749F0F80161810E945E0C882319F043
:1032200081E090E098CF84E699E78093F538909319
:10323000F63881E290E030C880E02A96CDBFDEBF4C
:10324000DF91CF911F910F91FF90EF90DF90CF9082
:10325000BF90AF909F908F907F906F905F904F90B6
:103260000895CF930E943D0D882311F0C1E011C055
:103270000E94910D8111FACF88E498E30E94D80D45
:10328000C82F811105C088E498E30E948F1001C007
:10329000C2E08C2FCF9108950E94E1038FEF0E942E
:1032A0004E07A0E8B4EB81E0ED91F0E0E654F54C78
:1032B00080831596EC911597F0E0E654F54C8083E9
:1032C00024EBA638B20781F7E2E7F4EB91E0EF01D7
:1032D000A581B0E0A654B54C81E09C933196A881BD
:1032E000B0E0A654B54C9C9324EBE737F20779F78E
:1032F000E0917EB4F0E0E654F54C8083E0917FB439
:10330000F0E0E654F54C8083E0917CB4F0E0E654C4
:10331000F54C8083E0917DB4F0E0E654F54C808379
:10332000E09170B4F0E0E654F54C8083E09171B424
:10333000F0E0E654F54C8083E0916FB4F0E0E654A1
:10334000F54C8083E0916EB4F0E0E654F54C808358
:1033500080E290E080932D3890932E380E942309CC
:103360000E94B5098823E1F3809107380E945F0726
:10337000809307381092353874DF0E9499020E94BA
:10338000770A0E94A1010E945C000E94310880918E
:10339000953A9091963A0A9720F461E084E70E946A
:1033A000B8088091953A9091963A8536910520F02B
:1033B00060E084E70E94B8080E945009D1CF991BB1
:1033C00079E004C0991F961708F0961B881F7A951C
:1033D000C9F780950895AA1BBB1B51E107C0AA1F1E
:1033E000BB1FA617B70710F0A61BB70B881F991FA6
:1033F0005A95A9F780959095BC01CD010895A1E259
:103400001A2EAA1BBB1BFD010DC0AA1FBB1FEE1F5E
:10341000FF1FA217B307E407F50720F0A21BB30BA9
:10342000E40BF50B661F771F881F991F1A9469F725
:1034300060957095809590959B01AC01BD01CF0181
:063440000895F894FFCF8F
:103446002D7D39575C79514234617D593B655B442A
:103456000100000201020001010300030103010053
:1034660001020101010301000D0B0C0A0201050016
:1034760003042422212308200925141211131015F0
:103486001C1A191B181D0101020102020102020188
:103496000202020202010102696464716400746836
:1034A600652074726F75626C652077697468207226
:1034B60065616C206C6966652069732C207468658B
:1034C60072652773206E6F2072657365742062754E
:1034D60074746F6E00636865617400436865617437
:1034E60065722120436F6E74616374206261646744
:1034F60065207465616D2E2E2E20005265736574ED
:1035060020706C6561736521200074BFFA541C96A7
:0A351600B2261EEBD68BC0C20A617C
:10352000FFFF012B382B38FF01FF0101FF8080C016
:10353000FFC0FFC0804001400140800001D4010372
:08354000070F1F3F7FFFFF0092
:00000001FF
