:1000000046C0000061C000005FC000005DC000008D
:100010005BC0000059C000008CC70000E1C70000B1
:10002000C9C5000051C000004FC000004DC0000015
:100030004BC0000010C6000041C6000045C00000D3
:1000400043C0000041C000003FC000003DC00000B0
:10005000FCC6000039C0000024C7000035C0000005
:1000600033C0000031C000002FC0000077C6000080
:10007000D0C6000029C0000027C00000B60BE40B6A
:10008000EB0BB40CB40C010C150C530C7A0C1124B2
:100090001FBECFEFCDBFDFE3DEBF18E3A0E0B8E3C4
:1000A000EAECFFE302C005900D92A233B107D9F745
:1000B0002BE3A2E3B8E301C01D92A431B207E1F73C
:1000C0000E94F81E0C94851F9BCF28ED30E089E03C
:1000D0004091C43A50E0421753074CF04091C43A63
:1000E00050E0B9016E5E7F4F641775072CF48150A4
:1000F000295131098111ECCF0895CF93DF9380917D
:1001000035388F5F80933538C4E6D1E08C2F0E945C
:100110001E0A811101C0D0E0CF5FC836B9F7DD23D8
:1001200019F08CE70E94FD0980913438823020F06C
:1001300094E090933E380DC081110BC090913E38F1
:10014000943061F410923E3810923C3810923D3851
:1001500005C09091C13A9111F1CF18C0811116C01C
:100160009091C13A911112C080913F3893E3899FD9
:10017000802D11248093003880E098E38093033829
:10018000909304388FEF8093B83A09C0982F907FEE
:1001900031F08F5F8F7080933438109235384091F2
:1001A000C43A2091003830E050E0B9016A5071093A
:1001B00080913438461757075CF04091C43A50E0BC
:1001C000265F3F4F241735071CF0823008F443C0E8
:1001D00081110BC08091C13A811196C08091353850
:1001E000883008F491C080EF64C0813041F56DDF44
:1001F00080933338882379F190913538983008F41A
:1002000083C090913F38913011F4835014C09230E4
:1002100031F4833091F085508230E8F40EC0933091
:1002200039F49CEF980F923040F08730A1F405C06C
:10023000943089F48550833070F481EF3AC0823075
:1002400069F08330C9F1843009F05EC0809135389F
:10025000803408F459C01092343856C087E090E0DA
:1002600080933C3890933D3880913538883040F009
:100270002FEF44E668E080E80E944409809300384C
:10028000809135388A3F08F43FC080913F38909183
:100290003338981B90933238891710F489EF04C0D3
:1002A00093E3899F802D1124809300388091343806
:1002B000806F8093343828C080913538883020F1A1
:1002C00004DF8093333890913238482F50E02091EA
:1002D0003F38291708F4292F30E02B5F3F4F421792
:1002E000530709F0B8CF83E6890F0E94FD098FE11B
:1002F00090E080933C3890933D3860913F388091F6
:1003000032380E94ED0AD2CF80E0DF91CF9108957C
:1003100081E080932204E6E2F4E0808310923004CE
:10032000A1E2B4E092E09C93908310923104E0E16A
:10033000F8E097E0968398E0948383838C9385819B
:10034000816085838581846C8583089580911408FC
:100350008860809314081092130882E0809322042E
:1003600099E021E081E02093210430E13A95F1F712
:1003700000C02093220430E13A95F1F700C091507B
:1003800089F728E0209314088093130892E0909353
:10039000210490911508916090931508909115088B
:1003A000946C9093150820931408809313088093FD
:1003B00021048091150881608093150880911508AB
:1003C000846C809315080895282F90911508906CDF
:1003D0009093150890911508892F847092FD03C0A1
:1003E00020931708089584E008958CE08093623A82
:1003F0008091150887FD0AC08091150886FD06C00A
:100400008091623A8111F4CF8FEF089580911508A1
:10041000806C809315088091150882FD09C0809139
:10042000150883FD07C08091150882958170089595
:1004300084E0089582E00895FC018CE08093623AA4
:1004400090911508892F8370823011F088E008950B
:100450009091150897FD06C09091623A9111F8CFDE
:100460008FEF089590911508906C909315089091D6
:10047000150892FD1EC09091150893FD1DC0909126
:100480001508892F807194FD16C090911408611190
:1004900002C09B7F01C0946090931408909118084B
:1004A0009083611109C09091140892609093140890
:1004B000089584E0089581E00895FC018CE0809324
:1004C000623A9091150893709230B1F480818093D4
:1004D00018088091150886FD06C08091623A811146
:1004E000F8CF8FEF08958091150882FD07C08091A5
:1004F000150882958170089588E0089584E0089534
:10050000E0E1F8E08481836084830895CF92DF92F4
:10051000FF920F931F93CF93DF936B01F42EE901AA
:10052000182F110F812F50DF81112BC05EDF81301A
:1005300019F4E6DF81E027C0811123C0FF2049F0D4
:10054000C601BBDF81111DC08FEFC81AD80AFA940B
:10055000F5CF013408F000E41F5F10931708023054
:1005600040F060E0CE0168DF81110BC021960150A0
:10057000F6CF61E0CE0160DF811103C0C1DF80E012
:1005800002C0E4DE8FEFDF91CF911F910F91FF90BA
:10059000DF90CF900895109239381092383881E06A
:1005A000809302380C942B0BCF9380913E3883308C
:1005B00091F46AE070E080913638909137380E946B
:1005C0003B0E882341F0E7DF10923E3810923C3812
:1005D00010923D389BC08BE731D7811197C0809135
:1005E0003E38882319F0833009F090C0C09136BF9F
:1005F000EC2FF0E0809108388F3F19F090910C3883
:1006000001C090E0EB53F54C90838F3F09F47EC01E
:1006100090910738891709F479C00E942C0E8093B5
:10062000363890933738809107388F3F09F06EC085
:100630008091083820E2829FC0011124815C9E4F86
:1006400080933C3890933D3880913E38833009F058
:10065000A2DF83E080933E3880913938E82FF0E0C4
:10066000E25EF044208190910838291312C09091E5
:100670000238917090930238E09145BFF0E0EB535F
:10068000F54C1082E09144BFF0E0EB53F54C108242
:1006900009C010920238843028F47DDF82E0809314
:1006A0003E3834C08F5F80933938909138389F5FDF
:1006B000943018F49093383829C0109238389091BB
:1006C00002389130E1F4982F937069F4E82FE695A1
:1006D000E695F0E0E85BF044E581F0E090910C38BD
:1006E000EB53F54C9083883189F48BE786D6EC2F59
:1006F000F0E0EB53F54C108282E490E003C04BDF56
:1007000081E290E080933C3890933D3880E0CF9137
:10071000089510924B3810924C3810924A3881E06C
:1007200080930D381092493896C797FF03C0919572
:10073000819591099C01220F331F293731051CF047
:1007400041E040933E3840913E38413021F5283712
:1007500031051CF460E080E01DC0883791051CF471
:1007600061E081E017C02C3241E034071CF462E004
:1007700082E010C0280F391F283532401CF463E096
:1007800083E008C08C3291401CF464E084E002C035
:1007900065E085E022C70895CF93DF9380913E38CE
:1007A000813071F46AE070E0809147389091483868
:1007B0000E943B0E882321F0ACDF10923E38E5C04A
:1007C00087EF3CD68111E1C08DE738D68111DDC0BD
:1007D00080913E38823008F0D8C08091ED3A9091F7
:1007E000EE3A892B41F48091BD3A9091BE3A8093C4
:1007F000ED3A9093EE3AC091BD3AD091BE3A8091D5
:10080000ED3A9091EE3AC81BD90BCE018EDF809164
:100810004E38813089F018F08230C1F01FC0C43DDD
:100820009EEFD90714F491E004C0CD32D1405CF0C2
:1008300092E090934D3812C0CD3291E0D907C4F7C1
:10084000C938DF4F84F310924D3808C0C43D9EEF85
:10085000D9074CF3C837D105B4F3EACFC09136BFFE
:10086000EC2FF0E090914D38992319F020910C383D
:1008700001C020E0EB53F54C20832FE931E02093B9
:100880003C3830933D38891709F47FC00E942C0E04
:10089000809347389093483890914C3880914D38E8
:1008A000911108C0882331F091E0813009F490E083
:1008B0009093493880934E38882309F466C080911C
:1008C0003E38811101C025DF81E080933E38809160
:1008D000493820914E38882311F083E0282730E0F2
:1008E00080914C38E82FF0E0EC57F044408150E024
:1008F0002417350791F490910D38917090930D382D
:10090000E09145BFF0E0EB53F54C1082E09144BF1D
:10091000F0E0EB53F54C108202C010920D388F5F5F
:1009200080934C3890914A389F5F933018F490939D
:100930004A382BC010924A3890910D389130E1F42A
:1009400090914B38E92FF0E0E85BF044E681F0E06D
:1009500020910C38EB53F54C20839F5F90934B38DC
:10096000823199F48DE749D5EC2FF0E0EB53F54C4B
:10097000108282E490E005C0CCDE10923E3881E225
:1009800090E080933C3890933D3880E0DF91CF91A8
:100990000895CF93DF93F89488ED84BFC1E0C093AE
:1009A00061008AE4809300048CE7809320049FE335
:1009B0009093400480915304806880935304809105
:1009C0005404806880935404809155048068809317
:1009D00055048091330480688093330480913404FB
:1009E0008068809334048091350480688093350456
:1009F000C0930102D2E0D09305042BE531E02093AF
:100A000008083093090880EA8093050880EC8093F9
:100A1000060883E0809307081CBA1DBA1FBAC0936A
:100A2000030A88E08093000A9093020287E780938C
:100A3000010AC0930A0A8BE08093050A8091000A9C
:100A400081608093000A85E08093400A1092410AF9
:100A50008FEF91E080934C0A90934D0A1092450AD3
:100A6000C093500A1092510A8BE893E080935C0A7D
:100A700090935D0AC093550A4BDC82E18093A000FD
:100A800080E28093A200C093A100D093000684E48A
:100A9000809302068EE180930606C0930A06809139
:100AA0000006816080930006C093080610924006FD
:100AB000D093410682E58093420684E08093450608
:100AC00080934606C0934A068091400681608093D9
:100AD0004006C093480680E48093A00680E8809397
:100AE000A1068091A00681608093A00680914101BB
:100AF00080FDFCCF80E380934001109247018091FC
:100B0000410182FDFCCF80E098E780934A019093F9
:100B10004B01809148019091490182968093F13A6E
:100B20009093F23A20914A0130914B018091F13A31
:100B30009091F23A2817390770F420914A013091C8
:100B40004B018091F13A9091F23A821B930B809382
:100B5000F13A9093F23A8091410183FDFCCF80916C
:100B6000F13A9091F23A80934C0190934D0183E0D9
:100B70008093420181E08093520188E0809350018C
:100B80008091410180FDFCCF809140018160809384
:100B90004001809150018160809350011092773A1A
:100BA00087E79AE38093BB3A9093BC3A7894DF91BD
:100BB000CF9108951F920F920FB60F9211248F9329
:100BC0009F93AF93BF93EF93FF9387E08093460487
:100BD00084E480932604ECB388E0E89FF0011124BC
:100BE000EB53F54CA8E2BAE096E081918D939A958B
:100BF000E1F78BE08093050A8CB3833058F48CB313
:100C000091E001C0990F8A95EAF799B98CB3839561
:100C10008CBB0AC08CB3833021F42A9A83958CBB99
:100C200003C02E9A88278CBB8091623A882329F0D2
:100C30008091623A81508093623A8FEF80930B0AE1
:100C4000FF91EF91BF91AF919F918F910F900FBE48
:100C50000F901F9018951F920F920FB60F921124AC
:100C60008F939F93EF93FF93E091BB3AF091BC3A3F
:100C70008081882391F08081809302088091BB3A23
:100C80009091BC3A01968093BB3A9093BC3A809184
:100C9000050880628093050805C081E080930938CB
:100CA0001092450A81E08093460AFF91EF919F914F
:100CB0008F910F900FBE0F901F9018951F920F925B
:100CC0000FB60F9211242F933F934F938F939F93BF
:100CD000EF93FF93E0910538F09106388081811100
:100CE00008C0809103389091043880930538909320
:100CF0000638E0910538F091063880818823E1F0CC
:100D000020814091B83A30E02F573109429FC0010D
:100D1000439F900D1124892F990F990B80589F4F55
:100D20008093A106809105389091063801968093B2
:100D300005389093063803C080E88093A10681E0CF
:100D40008093560AFF91EF919F918F914F913F9120
:100D50002F910F900FBE0F901F9018951F920F921A
:100D60000FB60F9211248F93EF93FF938091463823
:100D7000811144C0EDB3F0E080910008E958F54CD2
:100D80008083EDB3F0E0E958F54C80818093020850
:100D9000EDB3F0E0E958F54C80818A3039F0EDB3DD
:100DA000F0E0E958F54C80818D3049F4EDB3F0E086
:100DB000E958F54C108281E0809346381FC0EDB3AE
:100DC000F0E0E958F54C8081883039F0EDB3F0E07F
:100DD000E958F54C80818F3759F48DB3882341F061
:100DE000EDB3F0E0E958F54C10828DB3815005C0A9
:100DF0008DB3803418F48DB38F5F8DBB80E8809302
:100E00000408FF91EF918F910F900FBE0F901F90EC
:100E100018951F920F920FB60F9211248F93EF9394
:100E2000FF9310924A0A10924B0A81E08093450A80
:100E3000E5E0F8E080818F7D8083FF91EF918F91D5
:100E40000F900FBE0F901F9018951F920F920FB624
:100E50000F9211248F939F9380913A38811112C081
:100E6000809106068E3149F480911006909111060A
:100E70008093EF3A9093F03A0AC0809110068093E5
:100E8000C43A05C080913A38815080933A3881E065
:100E900080930B069F918F910F900FBE0F901F9024
:100EA00018951F920F920FB60F9211248F939F9354
:100EB0008091460681110AC080915006909151069A
:100EC0008093BF3A9093C03A81E010C0809146066B
:100ED000813079F488E080930604809150069091E7
:100EE00051068093BD3A9093BE3A84E080934606C3
:100EF00010C080915006909151068093B93A90931A
:100F0000BA3A8FB38F3029F41092460688E0809366
:100F100005048FB390E001968F7099278FBB81E015
:100F200080934B069F918F910F900FBE0F901F9053
:100F300018951F920F920FB60F9211242F933F9383
:100F40008F939F938091430181FF39C080914438F2
:100F50008F3F29F0809144388F5F8093443880918F
:100F600048019091490182968093F13A9093F23A28
:100F700020914A0130914B018091F13A9091F23ADF
:100F80002817390770F420914A0130914B01809164
:100F9000F13A9091F23A821B930B8093F13A90933D
:100FA000F23A8091410183FDFCCF8091F13A90911A
:100FB000F23A80934C0190934D0182E006C08091FB
:100FC00045388F5F8093453881E0809343019F913E
:100FD0008F913F912F910F900FBE0F901F901895FA
:100FE0001F920F920FB60F9211248F9381E080937E
:100FF0004806809353018F910F900FBE0F901F9062
:1010000018959091021091FDFCCFFB01480F8417B9
:1010100039F0A82FB0E0BC5E9C9191938F5FF7CF21
:1010200008959DE924E033E0442309F15091021032
:1010300051FDFCCF94BF20930010E82F582F5F7113
:101040008F5F6F5F7F4FDB011197AC91F0E0FC5E2B
:10105000A083415019F0E82F5F3181F794BF30939E
:1010600000105091021052FFDFCF81E0089580E020
:101070000895F9019C012E1B3F0B88E0489FA001B9
:1010800011244C585044662369F0DF01A20FB31FAE
:10109000A770BB27A40FB51F80819C9198279193BF
:1010A0006150F1CF0895AF92BF92CF92DF92EF924D
:1010B000FF920F931F93CF93DF9300D0CDB7DEB78E
:1010C000D62EC42E59017C01E894F7F8F982EA8201
:1010D000062F42E0BE016F5F7F4F80E517DA182FC1
:1010E000811105C095014C2D6D2DC701C2DF812FE7
:1010F0000F900F90DF91CF911F910F91FF90EF9084
:10110000DF90CF90BF90AF900895209109382223AF
:1011100059F08093BB3A9093BC3A1092093881E021
:101120008093450A80E0089581E00895282F811179
:1011300001C021E08FEF90E0821B9109982F882752
:1011400081509F4F80934C0A90934D0A089582E1FD
:101150008093A000E0E0F6E080818B7F80838EE1C9
:101160008093060683E080933A38089582E2809364
:10117000A000E0E0F6E080818460808387E08093D7
:10118000060683E080933A3808958091B93A9091A9
:10119000BA3A24E0969587952A95E1F79927803603
:1011A000910540F48F34910588F4C097099790F425
:1011B00092E011C08537910568F08E38910540F0B6
:1011C0008E599109819730F490E005C093E003C0F7
:1011D00091E001C09FEF80912738981719F0909304
:1011E00027388FEF089580912538909126389C01FB
:1011F000322F22273295330F307E822793279C018E
:10120000232F33272695822793279C013695322F4B
:101210002227379527958227932780932538909307
:1012200026380895DF92EF92FF920F931F93CF938A
:10123000DF937B018A01C0915C0AD0915D0AE82F9F
:10124000F0E03197E770FF27E85DF74CD080CBDF07
:101250008D21C80FD11DC7DF8D21C81BD1090C17E7
:101260001D0708F4E801C701EC16FD0608F4CE01DD
:1012700080935C0A90935D0ADF91CF911F910F914B
:10128000FF90EF90DF9008950F931F93CF93DF931C
:10129000C82FD42F022FE62FF0E03197E770FF27F9
:1012A000E85DF74C10819FDF8123C80F9CDF81230D
:1012B000C81B8C2F002341F09C2F0C1708F4902F93
:1012C0008D2FD91708F4892F41E050E08D1710F0C9
:1012D00040E050E02D2F30E024233523232B09F06C
:1012E0008D2FDF91CF911F910F910895CF92DF92B3
:1012F000FF920F931F93CF93DF93CDB7DEB7649721
:10130000CDBFDEBF44E1BE016F5F7F4F80E079DE7D
:1013100083E6C82E8AE3D82E8E010F5F1F4FF12C73
:10132000F80181918F01F6019081981308C0F39420
:10133000FFEFCF1ADF0A80E1F812F2CF08C041E0D8
:10134000B6018F2D6EDE882391F391E036C0209197
:101350004038309141383093733A2093743A8091F9
:101360004238909143389093753A8093763A8989C0
:101370009A899827892798272817390769F48B892C
:101380009C899827892798272091423830914338A3
:101390002817390749F410C042E063E77AE380E197
:1013A00040DE882361F3D1CF42E065E77AE382E152
:1013B00038DE91E0811101C090E0892F6496CDBFA5
:1013C000DEBFDF91CF911F910F91FF90DF90CF9003
:1013D0000895E82FEF77E695E695E695F0E0ED596C
:1013E000F54C208130E08770A90102C055954795E2
:1013F0008A95E2F7CA0181700895E82FEF77E9F046
:10140000E695E695E695282F2770F0E0ED59F54C26
:1014100087FF0AC081E090E001C0880F2A95EAF7B3
:1014200080959081892308C081E090E001C0880FF9
:101430002A95EAF79081892B80830895CF93C82F4E
:101440008F77C7DF2C2F221F2227221F91E08111C7
:1014500001C090E0822F8927CF910895E3E0F1E168
:1014600080E09191890FED3091E1F907D1F7837018
:1014700091E0980F90933F380895CF93E3E6FAE315
:1014800011928AE3E737F807D9F7E8DFC82F81110F
:1014900002C08EE60BC0813011F48FE607C08230A7
:1014A00011F480E703C0833011F481E7A6DF84E6FE
:1014B0008C0FCF91A2CFCF93DF9344E163E67AE321
:1014C00080E09FDDCEE6D0E08C2F83DFD80FCF5FAA
:1014D000C237D1F7D13011F0D0DF01C0BFDF80912A
:1014E000733A9091743A98278927982780934038C7
:1014F000909341388091753A9091763A9827892750
:1015000098278093423890934338DF91CF91089584
:10151000CF9386E793DFC82F882381F0E09138BF0F
:10152000F0E0EB53F54C1082E09139BFF0E0809190
:101530000C38EB53F54C8083C1E04CC085E77EDF6F
:10154000882359F1E09138BFF0E080910C38EB53DB
:10155000F54C808380915B38882379F08091C23A82
:101560009091C33A2091EF3A3091F03A8096281743
:10157000390718F086E741DF2DC08091C23A90917B
:10158000C33A2091EF3A3091F03A089682179307C8
:1015900008F181E080935B381DC08091C23A909140
:1015A000C33A892B41F48091EF3A9091F03A8093BD
:1015B000C23A9093C33A8091C23A9091C33A209133
:1015C000EF3A3091F03A80962817390718F085E7FE
:1015D00014DFC0E08C2FCF910895EAE3FFEB90E099
:1015E000A581B0E0981734F420910C38AB53B54C7A
:1015F0002C9303C0AB53B54C1C92A081B0E096175E
:1016000034F420910C38AB53B54C2C9303C0AB533E
:10161000B54C1C929F5F3196953011F70895A4E464
:10162000BFEBEC91F0E0EB53F54C80831296EC911C
:101630001297F0E0EB53F54C60831196EC91119703
:10164000F0E0EB53F54C80831396EC91F0E0EB5314
:10165000F54C60830895CF93DF93E8E4FFEBEF014F
:10166000A681B0E0AB53B54C1C923196A881B0E096
:10167000AB53B54C1C928FEBEE34F80781F7DF913A
:10168000CF910895CF92DF92EF92FF920F931F9325
:10169000CF93DF9380913E38882329F080E4CEDE1B
:1016A000811124C050C0C8E4DFEB1AE7812FC6DEE9
:1016B000EE81F0E0882359F080910C38EB53F54C23
:1016C0008083E881F0E0EB53F54C10820AC0EB53C5
:1016D000F54C1082E881F0E080910C38EB53F54C2A
:1016E00080831F5F2196103809F7D8CF80915D382D
:1016F000982F9D7FE09137BFF0E0913011F0853059
:1017000021F490910C38969506C0823011F0843007
:1017100031F490910C38EB53F54C90830CC0882336
:1017200011F0863029F490910C3896959695F3CF68
:10173000EB53F54C1082803220F48F5F80935D383C
:1017400002C010925D3890915C389F5F90935C3836
:10175000E0913C38F0913D38EF71FF27E930F10519
:1017600008F002C1E25CFF4F0C947F1F60E080E054
:1017700034DFE09144BFF0E0EB53F54C1082E09190
:1017800046BFF0E0EB53F54C1082E09138BFF0E03B
:10179000EB53F54C1082E09145BFF0E0EB53F54C74
:1017A0001082E09147BFF0E0EB53F54C1082E091DE
:1017B00039BFF0E0EB53F54C1082E09136BFF0E01A
:1017C000EB53F54C1082D0C0892F817090FD809131
:1017D0000C3860E00DC0692F70E093FF02C0609587
:1017E000709595E0660F771F9A95E1F7615E80E04E
:1017F000DF91CF911F910F91FF90EF90DF90CF90ED
:101800000ECF892F837009F0AFC092FF03C065E04F
:1018100085E002C060E080E0DF91CF911F910F91E1
:10182000FF90EF90DF90CF90D8CE953010F01092CF
:101830005C3840915C38242F30E0F901E65CF044DC
:10184000E581F0E0EB53F54C1082443019F0C9010A
:10185000019602C080E090E0FC01E65CF044E58186
:10186000F0E080910C38EB53F54C8083EEE3FFEB16
:10187000E21BF30BE581F0E0EB53F54C10824430B2
:1018800029F083E090E0821B930B02C084E090E09B
:10189000FC01E65CF044E581F0E080910C38EB530C
:1018A000F54C808361C0CAE3DFEB8FE3E82E8FEB5A
:1018B000F82E6E010D8110E096DC87FF03C0809149
:1018C0000C3801C080E0F801EB53F54C8083219681
:1018D000F601008110E087DC87FF03C080910C389F
:1018E00001C080E0F801EB53F54C8083EC16FD0657
:1018F00001F73AC090FD38C0EAE3FFEB8EE39FEBBF
:101900009F01A581B0E0C681D0E0CB53D54C488182
:10191000AB53B54C4C933196E901A881B0E0C0813E
:10192000D0E0CB53D54C2881AB53B54C2C938E17BC
:101930009F0731F7C09143BFD0E055DC813E18F0DE
:1019400080910C3801C080E0CB53D54C8883C09186
:101950003EBFD0E048DC813E18F080910C3801C0D9
:1019600080E0CB53D54C8883DF91CF911F910F91AD
:10197000FF90EF90DF90CF9008950F931F93CF9338
:101980008091C43A893108F05FC1C1E0C093C13A87
:1019900080913C3890913D388827892B09F0FEC012
:1019A00080913C3890913D38807E9927892B31F485
:1019B0008BE398E3809303389093043880913C380C
:1019C00090913D38807E9927809709F051C040E082
:1019D00052E260E070E281E025DC20E041E065E079
:1019E00080E852DC8093163884E198E380930338D2
:1019F00090930438809144388823D1F180915A38EB
:101A000081110FC084E0809359388FEF8093B83AEA
:101A100080E090E280935C0A90935D0A81E080937D
:101A20005A3880913C3890913D3880915C0A909171
:101A30005D0A029780935C0A90935D0A8091B83AA0
:101A4000882351F080915938811106C08091B83AAD
:101A500080528093B83A0CC010925A388BE398E3C6
:101A6000809303389093043810923C3810923D389C
:101A700080913C3890913D38807E99278034910543
:101A800049F080913C3890913D38807E9927803A8A
:101A90009105E9F581E198E3809303389093043848
:101AA00080914438882399F18091583881110CC075
:101AB0008FEF8093B83A80E09AE080935C0A90932D
:101AC0005D0A81E08093583880913C3890913D3890
:101AD00080915C0A90915D0A029780935C0A9093D2
:101AE0005D0A8091B83A813230F08091B83A8052E4
:101AF0008093B83A0CC0109258388BE398E38093E7
:101B000003389093043810923C3810923D388091FD
:101B10003C3890913D38807E992780369105A9F513
:101B20001092573881E598E38093033890930438F6
:101B30008C01C1E0C33039F020E041E065E080E88D
:101B4000A3DBF8018183CF5F0F5F1F4FC63091F792
:101B5000809144388823C9F040E054E060E872E0A6
:101B600085E060DB8091B83A20EA40E162E08CDBFE
:101B70008093B83A20E940E762E08091513884DBF5
:101B80008093513880958093543880913C3890915F
:101B90003D3880913C3890913D3858C080913C3818
:101BA00090913D3888278115914009F04FC0809170
:101BB0003C3890913D38807E99278139910508F015
:101BC00045C060913C3870913D38607E77276F5FEB
:101BD0007F4F86E0660F771F8A95E1F7AB015D5F67
:101BE0007E5F81E01FDB80914438882379F180910A
:101BF000503881110EC083E080934F388EE098E317
:101C000080930338909304388FEF8093B83AC09351
:101C1000503880914F38811113C080913C38909199
:101C20003D388F71992780933C3890933D388BE3F2
:101C300098E380930338909304381092503806C08C
:101C4000815080934F3802C01092C13A809144383D
:101C5000CF911F910F9108952091453880914801AF
:101C600090914901892F992786953CE3239F800D08
:101C7000911D112408950F931F93CF93DF938C012F
:101C8000EB01EADF9C018017910708F4345CC00F78
:101C9000D11F81E0C217D30708F080E0DF91CF9118
:101CA0001F910F9108951F93CF93DF9300D000D021
:101CB000CDB7DEB719821A821B821C82A8E4BFEB63
:101CC0008FEFED91F0E0EB53F54C80832FEBAE34CA
:101CD000B207B9F78091BF3A9091C03A9927209105
:101CE000BF3A3091C03A332728173907C1F3E09142
:101CF00049BFF0E0EB53F54C10828091BD3A9091D2
:101D0000BE3A898399272091BD3A3091BE3A332754
:101D100028173907C1F3E0914ABFF0E0EB53F54CC7
:101D200010828091B93A9091BA3A80389C40C8F3B9
:101D3000E0914CBFF0E0EB53F54C10829E012F5F19
:101D40003F4F40E064E08CEC9CE3ADD989818F3358
:101D500049F48A81811106C08B81803C19F48C8101
:101D6000843109F0FFCF80E090E0FC01EB53F54CAB
:101D70001082019688329105C1F710E08091BF3A38
:101D80009091C03A212F30E08F7399272817390797
:101D900018F429DA1F5FF2CF80E02496CDBFDEBFB2
:101DA000DF91CF911F910895CF93DF93EAE3FFEB8B
:101DB000EF01A581B0E0AB53B54C1C923196A881E0
:101DC000B0E0AB53B54C1C929FEBEF33F90781F7B2
:101DD0008330D9F4E0913FBFF0E080910C38EB53B1
:101DE000F54C8083E09140BFF0E080910C38EB53DC
:101DF000F54C8083E09141BFF0E080910C38EB53CB
:101E0000F54C80838FE391E046C0813099F4E091F6
:101E100042BFF0E080910C38EB53F54C8083E091A9
:101E200043BFF0E080910C38EB53F54C80838FE595
:101E300091E031C08430D9F4E0913ABFF0E0809174
:101E40000C38EB53F54C8083E0913BBFF0E0809180
:101E50000C38EB53F54C8083E0913CBFF0E080916F
:101E60000C38EB53F54C80838FE791E014C082303F
:101E7000B1F4E0913DBFF0E080910C38EB53F54CAC
:101E80008083E0913EBFF0E080910C38EB53F54C3D
:101E900080838FE991E080933C3890933D38DF91C7
:101EA000CF910895CF93DF9380913E388D7F09F0D5
:101EB00073C18AE7C3DA882341F080913E388230CB
:101EC00009F06AC110923E3867C18BE7B7DA90918A
:101ED0000838882329F09F3F19F082E080933E382C
:101EE000E09136BFF0E09F3F19F080910C3801C0BF
:101EF00080E0EB53F54C808380915E3881110CC0FB
:101F0000C4E6D8E370D98370899388E3C037D807D3
:101F1000C9F781E080935E3880915E38813071F43A
:101F200080913E38823051F480935E38109263384D
:101F3000109262381092613810925F3880915E384A
:101F4000823019F580916138863038F080915F38A1
:101F50008F5F80935F3810926138E0915F38E63090
:101F600048F083E080935E381092613810925F38B9
:101F700072DB12C1F0E0E85BF044E081F0E08091B8
:101F80000C38EB53F54C80832BC0833049F580919E
:101F90006138883038F080915F388F5F80935F3888
:101FA00010926138E0915F38809163388E1740F469
:101FB0001092623885E080935E3880E0F5DE98C04C
:101FC00080916138833030F4F0E0EC59F74C808137
:101FD0008F5FEADE80916138873010F080E0E4DEC8
:101FE000C0915E38C53009F086C080910838909164
:101FF0000738981709F471C09091603891116FC03B
:10200000843008F06CC091E0909360381092613891
:102010008F5FCADE84E080935E38C0933038809151
:102020006238E82FF0E0EC59F74C208190910838A5
:1020300029131DC08F5F80936238E0916338E817E1
:10204000A0F5EF5FE09363381092613810925F382B
:10205000E13059F0E695F0E0E85BF044E581F0E02E
:1020600080910C38EB53F54C808383E01CC080E2F8
:1020700090E080933C3890933D38A8E4BFEBED911D
:10208000F0E080910C38EB53F54C80838FEBAE344D
:10209000B807A9F71092623810926338109261382D
:1020A00010925F3886E080933038809162388C30AF
:1020B00020F4809163388C3090F082E490E080933B
:1020C0003C3890933D388AE798D910926138109245
:1020D0005F3887E08093303802C01092603880917A
:1020E0006138883C41F483E080935E3810925F3819
:1020F0001092613851C080915E38843081F48091B3
:102100006138873060F080E04FDE109260381092C6
:10211000613810925F388091303880935E388091BA
:102120005E38863041F580916138843038F0809196
:102130005F388F5F80935F381092613880915F388D
:10214000863040F01092613810925F3887E08093BB
:102150005E3822C0E5E0F0E0E81BF109E85BF044FE
:10216000A081B0E0AB53B54C1C92E681F0E0EB539C
:10217000F54C10820CC0873051F4109262381092E6
:10218000633810925E3810923E3880E00DDE809108
:1021900061388F5F8093613880E0DF91CF9108953F
:1021A0001F93CF93DF93CDB7DEB76297CDBFDEBF6E
:1021B0008A8B80E1EEE0FFEBDE01119601900D923B
:1021C0008A95E1F7FE01319690E08FEF21913191F0
:1021D0002617370709F4892F9F5F9830B9F78830A1
:1021E00010F080E014C018E1180F41E0BE016F5EEE
:1021F0007F4F812F0E94010889898F3F91F741E02D
:10220000BE016E5E7F4F812F0E94110881E06296B1
:10221000CDBFDEBFDF91CF911F910895262FFB0127
:1022200035E59E2F921B981728F49081929593275D
:102230009193F7CF08958F5F883030F4E82FF0E066
:10224000E65BF54C1082F7CF0895AC0190E0E92FE2
:10225000F0E0DA01AE0FBF1F3C91E60FF71F31111E
:1022600005C081E09081992349F007C02081222395
:10227000C1F3321302C09F5FEACF80E00895CF938D
:10228000DF93FC016115710559F1A2E5BAE3CAE4D7
:10229000DAE380E09FEF6F3F710569F060F0ED9346
:1022A000FD939993E150FF4F6F5F71098F5F873006
:1022B00091F781E01EC0282F30E0D901AA0FBB1F83
:1022C000AE5AB54CED93FC936F3F710511F46EEF70
:1022D00070E0F901E65BF54C60834093483A05C035
:1022E0001092523A1092533A80E0A5DF1092493A88
:1022F00080E0DF91CF910895CF93DF93282F30E0D6
:10230000F901EE0FFF1FE35EF64CA9E5BAE7A083E3
:10231000B183F901EE0FFF1FE35AF64C62E070E063
:1023200060837183220F331FF901E356F64C41E0BD
:1023300050E04083518321E0280F30E0F901EE0F97
:10234000FF1FE35EF64CC2E6DAE7C083D183F901F2
:10235000EE0FFF1FE35AF64CCCE0D0E0C083D183F0
:10236000220F331FF901E356F64C40835183E2E01C
:10237000E80FF0E0EE0FFF1FE35EF64C20EF3FEFBB
:102380002083318323E0280F30E0F901EE0FFF1F97
:10239000E35EF64CA083B183F901EE0FFF1FE35A11
:1023A000F64C60837183220F331FF901E356F64C1C
:1023B0004083518324E0280F30E0F901EE0FFF1F26
:1023C000E35EF64CA5E5BAE7A083B183F901EE0F11
:1023D000FF1FE35AF64C60837183220F331FF9010C
:1023E000E356F64C408351838B5FDF91CF91089584
:1023F000AF92BF92DF92EF92FF920F931F93CF9312
:10240000DF93CDB7DEB72C97CDBFDEBF7C018B014C
:102410009E012F5F3F4F40E06CE080960E94530882
:1024200089819A819827892798278096F801808347
:1024300091838B819C819827892798278096828316
:102440009383DE0115963496C8010C962D91219345
:10245000E817F907D9F7FCE2EF0EF11C5801D12C6F
:102460009E012F5F3F4F40E063E0C7010E94530889
:1024700089819A8198278927982797012E5F3F4F56
:1024800043E04D1580F4AC0141505109F801428FF1
:10249000538FF3E0EF0EF11CF801E486F5864B81D3
:1024A000F50144A305C0F801828F938F24873587F7
:1024B0007C01E20EF31ED3940E5F1F4FFFEFAF1AA5
:1024C000BF0A47E0D412CCCF2C96CDBFDEBFDF9140
:1024D000CF911F910F91FF90EF90DF90BF90AF9041
:1024E0000895CF92DF92EF92FF920F931F93CF93B5
:1024F000DF93CDB7DEB7A097CDBFDEBFC62E7C0180
:1025000020E2E20EF11C9E012F5F3F4F40E062E0AF
:102510008C960E9453081A81D12C112359F1012F56
:10252000113208F000E29E012F5F3F4F40E0602F24
:10253000C7010E960E945308FE01319680E0DD200F
:1025400061F0E1E0F0E0EC0FFD1FE80FF11D90817C
:10255000906281E09C110EC00EC09191DD24D39455
:102560009B3509F0D12C8F5F801748F3E00EF11CEA
:10257000101BD3CF80E0A096CDBFDEBFDF91CF91FF
:102580001F910F91FF90EF90DF90CF900895AF9241
:10259000BF92DF92EF92FF920F931F93CF93DF933F
:1025A00000D000D0CDB7DEB7D62E5A019E012F5FE6
:1025B0003F4F40E064E080960E945308E980FA8033
:1025C000FE24EF24FE240B811C81102701271027F5
:1025D0000E151F0548F5A016B10660F09E012F5F8D
:1025E0003F4F40E062E0C80180960E945308098195
:1025F0001A81EBCF9E012F5F3F4F40E061E0C801A1
:1026000085960E9453088981811103C0D11006C0AC
:102610000EC00E941E0A8111F9CFE0CF6D2DC801B6
:1026200060DF8823D9F203C080E090E001C0C801D8
:102630002496CDBFDEBFDF91CF911F910F91FF9008
:10264000EF90DF90BF90AF90089580629FE9980F60
:102650009A3138F090ED980F81E09A3018F080E0D0
:10266000089581E008950F931F93CF93DF938C011A
:10267000D0E0C0E0F801ED0FF11D20818C2F90E03B
:10268000222351F0D801A80FB91F2C938081DDDFE0
:102690008111CF5FDF5FEECFF801E80FF91F1082E5
:1026A0008C2FDF91CF911F910F910895CF9320919F
:1026B000493A283008F049C080910938882309F444
:1026C00044C0822F90E0FC01E65BF54CE081E11113
:1026D00006C01092083988E08093493A2EC0509184
:1026E00008395E1760F5CE2FC51BC13208F0C0E275
:1026F000880F991FFC01EE5AF54C8081918123EFE0
:102700003AE34091483A6C2F850F911D0E9453087F
:10271000809108398C0F80930839EC2FF0E0ED5050
:10272000F54C10828091F33A811103C08BED8093B8
:10273000F33A83EF9AE30E94850881E00BC0109280
:1027400008392F5F2093493AF8CF9091093881E0FA
:10275000911180E0CF910895CF93DF93C0911C3900
:10276000CC23B1F1C150C0931C39D09107392D2F22
:1027700030E0F901EE0FFF1FE35EF64C808191819E
:10278000803F4FEF940751F46091373A7091383A97
:1027900040E08091293A90912A3A0DC0D901AA0FC0
:1027A000BB1FA356B64C220F331FF901E35AF64C58
:1027B000608171814C9163DDDF5FD0930739C11176
:1027C00006C01DBA109246381092073901C0C1E008
:1027D0008C2FDF91CF9108955F926F927F928F92AD
:1027E0009F92AF92BF92CF92DF92EF92FF920F93A0
:1027F0001F93CF93DF93CDB7DEB72A97CDBFDEBF50
:102800008C01809131388F3F49F46DE17AE38091FA
:10281000DD399091DE39ECDD109231388091463807
:10282000882309F4D4C180910C39882309F44FC05E
:1028300010920B3981E6F80180836CE079E387E739
:102840009AE303DDF82E882321F081E080930B3991
:1028500004C080910C39813311F0F12CBAC1809100
:102860000E398111FACF87E79AE3FDDE92E090936B
:102870000B39F8011182823080F38091773A8133ED
:1028800060F38091773A853340F78091783A80629F
:102890008093783A8091783A813661F08091783AE5
:1028A000853641F08091783A863621F08091783AE9
:1028B000873799F680910D398F5EF8018183809179
:1028C000773A82838091783A8383148282C180919F
:1028D000773A833289F58DB3863071F581E090E0E7
:1028E00010E0FC01E958F54C208120532083110FA2
:1028F000212F220F220F120F2091783A233048F413
:1029000020812A30B8F42081120F0196843091057D
:1029100041F7812F8F7771F080917B3A60917C3AFB
:1029200070E0782B812F80953BDC882319F0812F74
:102930000E94FD0981E048C1D80180E090E0FC01DF
:10294000E958F54C2081213418F020812B3510F006
:10295000208102C0208120622C932081211105C09A
:10296000F801E80FF11D108205C00196119681341F
:10297000910529F78091773AF801811105C01082FD
:102980001DBA1092463823C180818F3311F08836EA
:1029900049F483E99BE780931F39909320398DE6B2
:1029A00094E00AC08136A1F48EE69AE780931F393D
:1029B0009093203985E291E080935F39909360395C
:1029C00081E090E080939F399093A03982E0FCC031
:1029D000873709F041C08DE896E780931F399093BF
:1029E000203982E190E080935F399093603921E053
:1029F00030E020939F393093A03980913F3890E0A8
:102A0000FC01EE0FFF1FE054F04440815181880F1C
:102A1000991FFC01E854F044808191818093213911
:102A20009093223940936139509362392093A139B0
:102A30003093A2398FE596E7809323399093243918
:102A40008AE190E080936339909364392093A339AD
:102A50003093A43984E0B8C066E97FEBC801F5DBA8
:102A6000882319F18EEE0E94FD098FEE0E94FD0968
:102A700080EF0E94FD0981EF0E94FD090E94760906
:102A800089E0E9EAFFEBDE01119601900D928A954B
:102A9000E1F78CE30E949608809109388823E1F3DE
:102AA000CE0101960E948508F7CF6CE97FEBC80143
:102AB000CCDB882381F18FEF8A8718E141E0BE01EA
:102AC000665F7F4F812F0E9411081F5F1032B1F7A0
:102AD0008EEE0E94FD098FEE0E94FD0980EF0E949C
:102AE000FD0981EF0E94FD090E94760988E0E2EB72
:102AF000FFEBDE01119601900D928A95E1F78CE3D0
:102B00000E949608809109388823E1F3CE0101964E
:102B10000E948508F7CF63EA7FEBC80196DB882324
:102B200009F49BCE8DE1C82E89E3D82E9DE5E92ED0
:102B300099E3F92E0DE919E328E1522EAA24A39472
:102B4000B12C47E5842E4AE7942E52E0652E712C75
:102B500041E0BE016F5F7F4F852D0E940108898192
:102B600080958983282F22952F7030E023573B488A
:102B7000F60120833183F701A082B182F801A0829F
:102B8000B1828F7090E083579B48F60182839383D4
:102B9000F701A282B382F801A282B382F601848295
:102BA0009582F70164827582F801A482B5825394FC
:102BB000F6E0CF0ED11C86E0E80EF11C0A5F1F4F35
:102BC000E0E25E12C5CF88E197DB80931C39FF24D9
:102BD000F3948F2D2A96CDBFDEBFDF91CF911F9149
:102BE0000F91FF90EF90DF90CF90BF90AF909F90AC
:102BF0008F907F906F905F9008959F92AF92BF9259
:102C0000CF92DF92EF92FF920F931F93CF93DF93B8
:102C1000CDB7DEB7AB97CDBFDEBF99249394980EA6
:102C200090E0FC01EE0FFF1FE35EF64C2CEC37E763
:102C300020833183FC01EE0FFF1FE35AF64C26E19F
:102C400030E020833183880F991FFC01E356F64C56
:102C500081E090E08083918300E418E337E5E32E80
:102C60003AE7F32E42E0C42ED12CAA24A394B12C2F
:102C7000F801819191918F010097C9F1BE016F5FB9
:102C80007F4FB6DB2B8D3C8D892D90E0FC01EE0F44
:102C9000FF1FE35EF64C4D855E8540835183FC014A
:102CA000EE0FFF1FE35AF64C20833183880F991FE4
:102CB000FC01E356F64C1082118281E0890D90E010
:102CC00093949394FC01EE0FFF1FE35EF64CE082B9
:102CD000F182FC01EE0FFF1FE35AF64CC082D18255
:102CE000880F991FFC01E356F64CA082B182F8E3ED
:102CF00004341F0709F0BCCF8FEF890DAB96CDBF11
:102D0000DEBFDF91CF911F910F91FF90EF90DF9089
:102D1000CF90BF90AF909F9008956F927F928F92C7
:102D20009F92AF92BF92CF92DF92EF92FF920F935A
:102D30001F93CF93DF93CDB7DEB72897CDBFDEBF0C
:102D40003C0191DCC3018FDCF82E29E53AE72093A2
:102D50001D3930931E3984E090E080935D39909363
:102D60005E3901E010E000939D3910939E39FF20F9
:102D700009F454C7D3018C91883709F045C080917C
:102D80003138E82FF0E0EE0FFF1FE352F64C2081C0
:102D90003181232B11F0811103C084E496E713C520
:102DA0008091233A0E941E0A8823B9F0E0913138BD
:102DB000E150E0933138F0E0EE0FFF1FE352F64CA4
:102DC0006DE17AE38081918113DB8091213A90E07B
:102DD00080933C3890933D382AC280913F3A90913D
:102DE000403A2091313A3091323A20931F39309352
:102DF000203980935F399093603910929F391092F7
:102E0000A0398091453AA9C5853619F08F3609F069
:102E1000DEC0B2E0FB12C1CF0091313810E0F80102
:102E2000EE0FFF1FE352F64C40E050E0D301119645
:102E30006C9180819181ABDB000F111FF801E15291
:102E4000F64C8083918390913138292F30E0F9013D
:102E5000EE0FFF1FE152F64C4081518141155105A3
:102E600021F06CED78E3CA011CC0992309F4DCC69B
:102E7000220F331FF901E552F64CD30111966C91E4
:102E8000808191812EDB882309F4CEC6E091313810
:102E9000F0E0EE0FFF1FE552F64C6CED78E3808119
:102EA0009181A6DAD3018C918536C1F48091E43802
:102EB00080FD1DC08DE999E780931F3990932039DB
:102EC0008EE190E080935F399093603981E090E0EB
:102ED00080939F399093A03912E097C68F3639F4CA
:102EE0008091E43881FD03C082E899E76CC4809149
:102EF000E2380E941E0AE0913138882309F449C063
:102F0000AE2FB0E0AA0FBB1FA152B64C8D919C9181
:102F1000892B11F0EF5F01C0E150E0933138E0916F
:102F20003138F0E0EE0FFF1FE352F64C6DE17AE32B
:102F3000808191815DDA8091393A90913A3A20917D
:102F40002B3A30912C3A20931F39309320398093BB
:102F50005F399093603910929F391092A03989E5BA
:102F60009AE7809321399093223982E090E0809310
:102F700061399093623981E090E08093A139909318
:102F8000A2398091213A90E080933C3890933D386B
:102F900007C4F0E0EE0FFF1FE152F64C10821182E1
:102FA0008091FE389091FF382091F0383091F138BF
:102FB00020931F393093203980935F399093603983
:102FC00010929F391092A03980910439C6C48C3672
:102FD00009F059C1E0913138B1E0FB12F1C08091A4
:102FE000393A90913A3A40912B3A50912C3A409389
:102FF0001F395093203980935F3990936039109234
:103000009F391092A039209321393093223982E0E0
:1030100090E080936139909362390093A1391093C5
:10302000A2398BEE99E7809323399093243985E177
:1030300090E080936339909364390093A33910939F
:10304000A439F0E0EE0FFF1FE152F64C108211821E
:10305000B4E09B2E17E5E12E1AE7F12E02E0C02E18
:10306000D12CAA24A394B12C8091313890E08C010A
:10307000000F111F0152164CF80140815181880F39
:10308000991FFC01E352F64C60E0808191817FDA68
:10309000D8018D939C93E0913138F0E0EE0FFF1F43
:1030A000E152F64C80819181009709F44AC0209149
:1030B0004038309141388217930709F442C020917B
:1030C00042383091433882179307D9F16CED78E399
:1030D0008FD98091F6389091F738E92DF0E0DF0133
:1030E000AA0FBB1FA35EB64C2091E8383091E93897
:1030F0002D933C93DF01AA0FBB1FA35AB64C8D93AF
:103100009C93EE0FFF1FE356F64C1082118281E074
:10311000890D90E093949394FC01EE0FFF1FE35E02
:10312000F64CE082F182FC01EE0FFF1FE35AF64CF1
:10313000C082D182880F991FFC01E356F64CA08211
:10314000B18220913138822F90E0FC01EE0FFF1FF9
:10315000E152F64C40815181452B09F085CF222365
:1031600061F1880F991FFC01E552F64C6CED78E394
:10317000808191813DD92091F6383091F73811E066
:10318000190D892D90E0FC01EE0FFF1FE35EF64C58
:103190004091E8385091E93840835183FC01EE0FAB
:1031A000FF1FE35AF64C20833183880F991FFC01DF
:1031B000E356F64C1082118228C51FEF190D25C564
:1031C000EE2EF12CF701EE0FFF1FE352F64C40E01C
:1031D00050E0D30111966C9180819181D8D9F7018B
:1031E000EE0FFF1FE152F64C8083918390913138AE
:1031F000292F30E0F901EE0FFF1FE152F64C40811C
:1032000051814115510521F06CED78E3CA011CC0D4
:10321000992381F1220F331FF901E552F64CD301B6
:1032200011966C91808191815CD9811102C011E06D
:10323000ECC4E0913138F0E0EE0FFF1FE552F64CA0
:103240006CED78E380819181D3D88091F8389091AA
:10325000F9382091EA383091EB3820931F393093B8
:10326000203980935F399093603910929F39109282
:10327000A03932CE81ED99E780931F3990932039A0
:103280008AE190E0C9C2803709F092C0809140384D
:1032900090914138892B79F0809142389091433850
:1032A000892B49F087E098E780931F399093203964
:1032B00089E590E0B1C2B2E0FB126FCD00913138E8
:1032C00010E0F801EE0FFF1FE352F64C40E050E033
:1032D000D30111966C918081918159D9000F111FF2
:1032E000F801E152F64C808391832091313830E02F
:1032F0002F5F3F4F220F331FF901E352F64C8081BD
:103300009181009709F438C3409140385091413879
:103310008417950739F0409142385091433884170B
:103320009507C1F482EE97E780931F399093203977
:1033300085E290E080935F399093603981E090E07E
:1033400080939F399093A039F901E352F64C108293
:103350001182C2CD6CED78E34BD88091E3380E94A6
:103360001E0A882309F4E3C28091E738882309F410
:1033700014CD8091403890914138E0913138F0E09F
:10338000EE0FFF1FE152F64C892B39F080819181BD
:10339000809342389093433806C080819181809316
:1033A0004038909341388091E6380E94FD092BC047
:1033B0008436D9F48091403890914138009709F0D3
:1033C0003CC48091423890914338892B49F486EA75
:1033D00097E780931F399093203986E290E072CD71
:1033E000B2E0FB1609F48BC4D8CC893681F4809105
:1033F000403890914138892B31F480914238909136
:103400004338892B21F381E0F8DB182FFEC39CE8B9
:10341000980F923028F0873619F0823709F0B5C23C
:103420008EEF8F0D823008F0B8CCE09131380E2F3E
:1034300010E0D301AF0DB11D1197F801EE0FFF1F82
:10344000E352F64C40E050E06C91808191819FD82E
:10345000F801EE0FFF1FE152F64C80839183E0915B
:103460003138F0E0EE0FFF1FE152F64C8081918180
:10347000009709F478C2F3E0FF1260C1D3012C91E8
:10348000253719F0273609F059C100E011E041E66F
:10349000C42E49E7D42E51E2A52EB12C8824839462
:1034A000912CE02EF12CC701880F991FFC01E05CE4
:1034B000F74C7F0180819181009779F0D3011196BB
:1034C0006C910FD8882349F061EB78E3F701808194
:1034D00091810E94F81102E01DC00130D1F4E12F6A
:1034E000F0E0DF01AA0FBB1FA35EB64CCD92DC92C9
:1034F000DF01AA0FBB1FA35AB64CAD92BC92EE0FD0
:10350000FF1FE356F64C80829182D3011C921F5F0D
:1035100001C000E00F5F013021F2F30180818823B8
:1035200009F473C3E0913138F0E0EE0FFF1FE15270
:10353000F64C6CED78E3808191810E94F811E09067
:10354000FA38F090FB38F1E0EF16F10409F089C089
:1035500093012E5F3F4F40E061E08091EC38909105
:10356000ED380E945308D30112963C91313309F093
:103570004CC32091BC3851EE520F41E0410F812FD6
:1035800090E0FC01EE0FFF1FE35EF64C5430B0F00C
:1035900021E039E720833183FC01EE0FFF1FE35A5E
:1035A000F64C2AE130E020833183880F991FFC011B
:1035B000E356F64CE082F182142F27C360E575E7ED
:1035C00060837183FC01EE0FFF1FE35AF64C62EB40
:1035D00070E060837183880F991FFC01E356F64CFD
:1035E000E082F182842F90E0FC01EE0FFF1FE35E8A
:1035F000F64C49E55AE740835183FC01EE0FFF1F6B
:10360000E35AF64C42E050E040835183880F991F03
:10361000FC01E356F64CE082F18282E0810F90E0FB
:103620001D5FFC01EE0FFF1FE35EF64C4DEA58E70D
:1036300040835183FC01EE0FFF1FE35AF64C42E139
:1036400050E040835183880F991FFC01E356F64CEC
:10365000E082F18230930C3920930D3910920E39AB
:10366000D4C29091E5388091BC3898132EC0209137
:1036700002393091033901E0010F812F90E0FC0104
:10368000EE0FFF1FE35EF64C4091F4385091F53891
:1036900040835183FC01EE0FFF1FE35AF64C208359
:1036A0003183880F991FFC01E356F64C108211827A
:1036B0008091063990E080933C3890933D3880911A
:1036C000E6380E94FD09102FA0C2F30180818537E2
:1036D00099F4812F90E0FC01EE0FFF1FE35EF64CA2
:1036E00021E039E720833183FC01EE0FFF1FE35A0D
:1036F000F64C2AE130E015C0873609F086C2812FEA
:1037000090E0FC01EE0FFF1FE35EF64C2FE936E779
:1037100020833183FC01EE0FFF1FE35AF64C28E2B1
:1037200030E020833183880F991FFC01E356F64C6B
:1037300081E090E0808391831F5F67C26CED78E346
:103740000E94F811D3018C91843761F58091E4389F
:1037500083FD43C08BE199E780931F399093203913
:103760008EE190E080935F399093603981E090E042
:1037700080939F399093A0398091F6389091F738D3
:103780002091E8383091E93820932139309322395B
:1037900080936139909362391092A1391092A239C5
:1037A00013E033C2853739F48091E43884FD15C0C5
:1037B00081E099E73BC2823769F48091E43885FD66
:1037C0000CC086EE98E780931F39909320398BE1E7
:1037D00090E078CB873609F4E0CA0091FA3810916E
:1037E000FB380130110509F593012E5F3F4F40E092
:1037F00061E08091EC389091ED380E945308F3011C
:103800008281813309F013CD85E295E780931F39DA
:10381000909320398BE290E080935F3990936039E8
:1038200000939F391093A03957CB0115110509F466
:1038300058C08091EC389091ED3880931F39909367
:10384000203900935F391093603910929F3910929C
:10385000A03989E59AE7809321399093223982E053
:1038600090E0809361399093623981E090E0809399
:10387000A1399093A2392DEA38E720932339309368
:10388000243922E130E02093633930936439809306
:10389000A3399093A4398091FC389091FD384097DA
:1038A00030F08FE090E08093FC389093FD382CE06E
:1038B00039E340E06091FC388091EE389091EF3828
:1038C0000E9453086CE079E38091FC380E940E114D
:1038D000E091FC38F091FD38E45FF64C108214E082
:1038E00094C18091E3380E941E0A882301F18091DF
:1038F0000239909103392091F4383091F5382093B2
:103900001F393093203980935F399093603910923A
:103910009F391092A0398091063990E080933C380D
:1039200090933D388091E6380E94FD09D5CA809178
:103930000039909101392091F2383091F338209379
:103940001F393093203980935F39909360391092FA
:103950009F391092A0398091053990E080933C38CE
:1039600090933D38B9CAD3018C91843711F08736D2
:1039700019F489E399E702C08DE499E780931F3930
:103980009093203984E190E09DCA813609F04FCCB4
:1039900080910B39823008F4C7C0F30121812223C2
:1039A00009F4AFC0CE0101967C0188E0D7011D92D9
:1039B0008A95E9F720532183328131533283838101
:1039C000813611F481E00CC0853619F4F3011382BD
:1039D00008C0863619F483E0838303C082E0F301D4
:1039E000838321FD04C080E090E0DC0104C080E01E
:1039F00090E0A0E1B0E020FF03C09F5FAF4FBF4F5A
:103A0000F301238121FD119620FF03C04096A11DE3
:103A1000B11D31FF03C0905FAF4FBF4F30FF03C0F8
:103A20000196A11DB11D40913F3824E030E0241BD8
:103A3000310904C0880F991FAA1FBB1F2A95D2F70E
:103A400028EC34E720931F393093203920E230E00E
:103A500020935F393093603921E030E020939F3923
:103A60003093A0394DE954E74093213950932239DE
:103A700042E050E040936139509362392093A1397C
:103A80003093A23907E0F701E00FF11D282F2F70C6
:103A9000208344E0B695A795979587954A95D1F7E9
:103AA0000097A105B10549F42DE1C22E29E3D22EDC
:103AB00013E0AA24A394B12C02C00150E4CFB2E0D9
:103AC000CB0ED11C083008F09EC01F5FF701E00F3D
:103AD000F11D808190E083579B48D60114968D9309
:103AE0009C931597F601EC5BFF4FA082B182E05CDE
:103AF000FF4FA082B1828091E6380E94FD090F5FDE
:103B0000DECF88EE94E780931F39909320398DE3C0
:103B100090E080935F399093603981E090E08093EA
:103B20009F399093A0396EC0E0913138F0E0EE0FEC
:103B3000FF1FE152F64C6CED78E3813009F046C08E
:103B4000808191810E94F8118091E3380E941E0AC1
:103B5000882301F180910239909103392091F43842
:103B60003091F53820931F393093203980935F3995
:103B70009093603910929F391092A0398091063944
:103B800090E080933C3890933D388091E6380E94D5
:103B9000FD0938C080910039909101392091F238A7
:103BA0003091F33820931F393093203980935F3957
:103BB0009093603910929F391092A0398091053905
:103BC00090E080933C3890933D381CC08081918177
:103BD0000E94F81180E698E780931F39909320396E
:103BE0008DE490E080935F399093603981E090E0BC
:103BF00080939F399093A0390E942C0E80930939AD
:103C000090930A3912E010920C3980910C39882374
:103C100019F010931C398BC0812F01C081E00E94E4
:103C20007C1180931C3983C081ED99E780931F3903
:103C3000909320398AE190E045C9F2E0FF12ADC8C7
:103C4000F30161810E947112882309F458C000E0D9
:103C500010E0000F111F005C174C6CED78E3D801E9
:103C60008D919C910E94F81186E997E780931F3906
:103C70009093203980E190E080935F399093603990
:103C800081E090E080939F399093A0392091F6389D
:103C90003091F7384091E8385091E9384093213914
:103CA0005093223920936139309362391092A139AF
:103CB0001092A23929E53AE7209323393093243929
:103CC00022E030E020936339309364398093A33944
:103CD0009093A43929E537E7209325393093263985
:103CE0002DE330E020936539309366398093A53910
:103CF0009093A639F8011082118215E086CF809149
:103D0000423890914338009749F0F30161810E9455
:103D10007112882319F001E010E09BCF81E699E74A
:103D200080931F399093203981E290E0CBC8F30152
:103D30001082109246381DBA80E02896CDBFDEBFB3
:103D4000DF91CF911F910F91FF90EF90DF90CF9077
:103D5000BF90AF909F908F907F906F900895CF937A
:103D60008091093990910A39892B09F10E942C0E12
:103D70002091093930910A398217930708F4945C2D
:103D8000AC01421B530B9A014B30510530F010929D
:103D9000093910920A392AE030E080913E388111C9
:103DA00006C065E0621B8AE0821B0E94ED0A0E9449
:103DB0005613882311F0C1E018C00E94AC13C82F1D
:103DC0008111F9CF8091093990910A39892B69F4D1
:103DD00080E798E30E94EC13C82F811105C080E7AB
:103DE00098E30E948D1601C0C2E08C2FCF910895F8
:103DF0000E94C9040E945B0A8091633A81608093AB
:103E0000633A0E94530ECFE1D0E00E94BD0C88239C
:103E1000E1F380910838809307380E94C5088093A9
:103E20000838109244388091A000823119F40E9421
:103E3000B60802C00E94A7080E94420B90DF0E94B1
:103E4000CC030E94D4020E94520F0E947D000E9467
:103E500076098091BF3A9091C03A0A9718F484E7A6
:103E60000E94FD098091BF3A9091C03A8536910534
:103E700018F084EF0E94FD0920910A3830910B3828
:103E800080910A3890910B3846E0369527954A95EF
:103E9000E1F7821B930B80930A3890930B38809143
:103EA0000A3890910B38939580930A3890930B3889
:103EB0002091BF3A3091C03A80910A3890910B38E6
:103EC000220F232F221F330B3195FE01E21BF30B30
:103ED000EC5AF0442081821B910980930A38909318
:103EE0000B3880910A3890910B3866E0969587954B
:103EF0006A95E1F780930C380E94880A86CFEE0F0E
:0E3F0000FF1F0590F491E02D0994F894FFCF77
:103F0E002D7D39575C79514234617D593B655B4457
:103F1E000100000201020001010300030103010080
:103F2E0001020101010301000D0B0C0A0201050043
:103F3E00030424222123082009251412111310151D
:103F4E001C1A191B181D010D1926323E4A56626F96
:103F5E0078838E98A2ABB4BFC5CFD4DBE1E7ECF08B
:103F6E00F4F7FAFCFEFF74BFFA541C96B2261EEB51
:103F7E00D68BC0C20A6101010201020201020201D6
:103F8E000202020202010102696464716400696B3B
:103F9E00696C6C7500636865617400476F74636863
:103FAE006121200052657365742120008776847626
:0C3FBE007E767976060003000600050000
:103FCA00FF00013B383B38FFFF01FF1FFF01FF01E4
:103FDA0000FF010001FF8080C0FF40FFC080400158
:103FEA00C00140800001D4FF0103070F1F3F7FFF7C
:023FFA0005FFC1
:00000001FF
