S00E00004953525F494F2E7372656331
S11300003DC0000058C0000056C0000054C00000AD
S113001052C0000050C000000C9468080C94BF0843
S11300208AC6000048C0000046C0000044C000006A
S113003042C00000D1C6000002C700003CC000005E
S11300403AC0000038C0000036C0000034C00000D0
S1130050C0C7000030C00000F3C700002CC000007F
S11300602AC0000028C0000026C000003BC70000D2
S113007094C7000020C000001EC0000011241FBE51
S1130080CFEFCDBFDFE3DEBF18E3A0E0B8E3ECECD5
S1130090F0E402C005900D92AE32B107D9F72BE31C
S11300A0AEE2B8E301C01D92AA31B207E1F70E94A3
S11300B0311F0C94E31FA4CF2091323885E190E0E6
S11300C04091C23A50E04817590774F04091C23A3F
S11300D050E0BC01685F7F4F641775072CF02093D4
S11300E032388091323808952F5F4996863F9105C2
S11300F039F7F5CFEF92FF920F931F93CF93DF93CE
S1130100C4E6D1E08C2F0E94D20A811101C0D0E054
S1130110CF5FC836B9F7DD2319F08CE70E94C80A0F
S11301208091BF3A81111EC180913138811111C073
S113013090913D3822E3929F902D112490930038A2
S113014020E038E320930538309306389FEF9093EE
S1130150B63A4091C23A2091003830E050E0B901FB
S1130160655071094617570764F04091C23A50E050
S11301702B5F3F4F2417350724F0823008F040C02E
S1130180EFC081110AC0809130388F5F809330387E
S1130190883008F4E7C081E081C0813089F58CDFC4
S11301A080932F38882349F1909130389F5F909342
S11301B03038983008F4D6C090913D38913029F405
S11301C083508330B8F482E069C0923031F48330D4
S11301D0D1F38550823070F4F6CF933039F49CEF2C
S11301E0980F923080F3873029F4EDCF943011F4D6
S11301F08550E7CF1092313853C010923038B0C0D8
S1130200823009F050C0809130388F5F809330384D
S1130210C6EFDFEB7E010D8110E00E94A40987FF89
S113022003C080910B3801C080E0F801E653F54C1F
S113023080832196F701008110E00E94A40987FFC2
S113024003C080910B3801C080E0F801E653F54CFF
S11302508083FFEBCB3FDF07E9F6809130388830AD
S113026040F02FEF44E668E080E80E94F5098093AF
S11302700038809130388A3F08F474C090913D383A
S113028080912F38891B80932E38981720F48AEF99
S11302908093003802C01092003883E08093313894
S11302A0109230385FC08330E1F5809130388F5F31
S11302B080933038883008F455C0FEDE853009F06C
S11302C099CF80912E388D590E94C80A80913D386B
S11302D08D590E94C80A20912E3830913D38A6EFDE
S11302E0BFEB80E0ED011596EC911597F0E08217D5
S11302F018F490910B3801C090E0E653F54C9083CC
S11303001196E881F0E0831718F490910B3801C03E
S113031090E0E653F54C90838F5F853019F784E0C5
S1130320BDCF8430F9F4C8DE8530E1F480913038F3
S11303308F5F809330388A3FA8F0E6EFFFEB8BEFB6
S11303409FEBEF01A581B0E0A653B54C1C9231960A
S1130350A881B0E0A653B54C1C928E179F0789F76D
S11303601092313880E0DF91CF911F910F91FF906F
S1130370EF90089581E080932204E6E2F4E0808324
S113038010923004A1E2B4E092E09C939083109226
S11303903104E0E1F8E097E0968398E09483838366
S11303A08C938581816085838581846C85830895A0
S11303B0809114088860809314081092130882E0D6
S11303C08093220499E021E081E02093210430E12C
S11303D03A95F1F700C02093220430E13A95F1F701
S11303E000C0915089F728E02093140880931308E3
S11303F092E09093210490911508916090931508D0
S113040090911508946C9093150820931408809388
S11304101308809321048091150881608093150846
S113042080911508846C809315080895282F909165
S11304301508906C9093150890911508892F847075
S113044092FD03C020931708089584E008958CE07A
S11304508093603A8091150887FD0AC08091150841
S113046086FD06C08091603A8111F4CF8FEF089524
S113047080911508806C809315088091150882FD81
S113048009C08091150883FD07C0809115088295E5
S11304908170089584E0089582E00895FC018CE061
S11304A08093603A90911508892F8370823011F0FF
S11304B088E008959091150897FD06C09091603AE0
S11304C09111F8CF8FEF089590911508906C909347
S11304D015089091150892FD1EC09091150893FD82
S11304E01DC090911508892F807194FD16C09091BC
S11304F01408611102C09B7F01C09460909314089A
S1130500909118089083611109C090911408926029
S113051090931408089584E0089581E00895FC01FF
S11305208CE08093603A9091150893709230B1F406
S11305308081809318088091150886FD06C08091FB
S1130540603A8111F8CF8FEF08958091150882FDEC
S113055007C08091150882958170089588E00895F8
S113056084E00895E0E1F8E0848183608483089561
S1130570CF92DF92FF920F931F93CF93DF936B0180
S1130580F42EE901182F110F812F50DF81112BC098
S11305905EDF813019F4E6DF81E027C0811123C0DA
S11305A0FF2049F0C601BBDF81111DC08FEFC81ABF
S11305B0D80AFA94F5CF013408F000E41F5F1093D1
S11305C01708023040F060E0CE0168DF81110BC0F3
S11305D021960150F6CF61E0CE0160DF811103C0A6
S11305E0C1DF80E002C0E4DE8FEFDF91CF911F9185
S11305F00F91FF90DF90CF900895109236381092AB
S1130600353881E0809304388FEF80930338E0918C
S1130610F2BFF0E0E653F54C1082E09103C0F0E045
S1130620E653F54C1082E09102C0F0E0E653F54C3D
S11306301082E09101C0F0E0E653F54C1082E091A5
S113064000C0F0E0E653F54C1082AAE0B0ECED9166
S1130650F0E0E653F54C108280ECA031B807B9F70E
S11306600895CF9380913C38833091F46AE070E030
S113067080913338909134380E94E80D882341F0FA
S1130680BCDF10923C3810923A3810923B38C6C006
S11306908BE788D78111C2C080913C38882319F038
S11306A0833009F0BBC090910938892F807F09F409
S11306B0B5C0C091F2BFEC2FF0E09F3F19F08091DC
S11306C00B3801C080E0E653F54C808380910338F9
S11306D089278F7009F4A2C00E94D90D8093333802
S11306E090933438809103388F3F09F093C0809100
S11306F009388F708230C1F058F4813029F58FE9C0
S113070091E080933A3890933B38109202381FC09E
S1130710843091F08830C1F48FE591E080933A38C9
S113072090933B3882E011C08FE791E080933A3890
S113073090933B3881E009C08FE391E080933A388D
S113074090933B3883E001C08FEF8093023883E0BD
S113075080933C3880913638E82FF0E0E652F0443C
S1130760208190910238291312C09091043891701D
S113077090930438E09101C0F0E0E653F54C108208
S1130780E09100C0F0E0E653F54C108209C01092ED
S11307900438843028F431DF82E080933C383EC052
S11307A08F5F80933638909135389F5F943018F47A
S11307B0909335382FC01092353890910438913089
S11307C011F5982F937099F4E82FE695E695F0E0EB
S11307D0EC5FFF43E581F0E090910B38E653F54C74
S11307E090832FE530E020933A3830933B388831BA
S11307F089F48BE7CDD6EC2FF0E0E653F54C10826C
S113080082E490E003C0F9DE81E290E080933A381C
S113081090933B38809109388093033880E0CF91DE
S113082008951092493810924A381092483881E05D
S113083080930C3810924738E091F2BFF0E0E65311
S1130840F54C1082E09103C0F0E0E653F54C1082C1
S1130850E09102C0F0E0E653F54C1082E09101C053
S1130860F0E0E653F54C1082E09100C0F0E0E6536E
S1130870F54C1082AAE0B0ECED91F0E0E653F54CB3
S1130880108280ECA031B807B9F7089597FF03C030
S11308909195819591099C01220F331F29373105C8
S11308A01CF041E040933C3840913C38413021F504
S11308B0283731051CF460E080E01DC088379105BD
S11308C01CF461E081E017C02C3241E034071CF4D1
S11308D062E082E010C0280F391F283532401CF432
S11308E063E083E008C08C3291401CF464E084E04F
S11308F002C065E085E02FC70895CF93DF93809110
S11309003C38813071F46AE070E080914538909110
S113091046380E94E80D882321F083DF10923C388A
S1130920F4C087EF3FD68111F0C08DE73BD681112B
S1130930ECC080913C38823008F0E7C08091F33AF3
S11309409091F43A892B41F48091BB3A9091BC3A4E
S11309508093F33A9093F43AC091BB3AD091BC3A65
S11309608091F33A9091F43AC81BD90BCE018EDFF3
S113097080914C38813089F018F08230C1F01FC06A
S1130980C43D9EEFD90714F491E004C0CD32D140A8
S11309905CF092E090934B3812C0CD3291E0D907CD
S11309A0C4F7C938DF4F84F310924B3808C0C43DF4
S11309B09EEFD9074CF3C837D105B4F3EACFC09101
S11309C0F2BFEC2FF0E090914B38992319F020916D
S11309D00B3801C020E0E653F54C2083891709F455
S11309E094C00E94D90D8093453890934638209145
S11309F04A3880914B38211108C0882331F091E0A6
S1130A00813009F490E09093473880934C388823E0
S1130A1009F47BC091E090933C3890914738992336
S1130A2011F093E0892790E0E22FF0E0E05DFF43CE
S1130A30408150E08417950791F480910C388170BF
S1130A4080930C38E09101C0F0E0E653F54C10823D
S1130A50E09100C0F0E0E653F54C108202C0109221
S1130A600C382F5F20934A38809148388F5F833049
S1130A7018F48093483849C01092483880910C3853
S1130A80813081F580914938E82FF0E0EC5FFF4335
S1130A90E681F0E090910B38E653F54C90838F5F3C
S1130AA080934938223189F58DE772D5EC2FF0E037
S1130AB0E653F54C1082E09101C0F0E0E653F54CAA
S1130AC01082E09100C0F0E0E653F54C1082E09112
S1130AD003C0F0E080910B38E653F54C8083E0913D
S1130AE002C00DC09EDE10923C38E09101C0F0E0DF
S1130AF080910B38E653F54C8083E09100C0F0E020
S1130B0080910B38E653F54C808380E0DF91CF91E0
S1130B100895CF93DF93F89488ED84BFC1E0C09328
S1130B2061008AE4809300048CE7809320049FE3AF
S1130B30909340048091530480688093530480917F
S1130B405404806880935404809155048068809391
S1130B505504809133048068809333048091340475
S1130B6080688093340480913504806880933504D0
S1130B70C0930102D2E0D09305042BE531E0209329
S1130B8008083093090880EA8093050880EC809374
S1130B90060883E0809307081CBA1DBA1EBA1FBA60
S1130BA0C093030A88E08093000A9093020287E7C7
S1130BB08093010AC0930A0A8BE08093050A80910E
S1130BC0000A81608093000A85E08093400A1092B5
S1130BD0410A8FEF91E080934C0A90934D0A109252
S1130BE0450AC093500A1092510A8BE893E080930F
S1130BF05C0A90935D0AC093550ABCDB82E1809342
S1130C00A00080E28093A200C093A100D0930006CC
S1130C1084E4809302068EE180930606C0930A065C
S1130C2080910006816080930006C09308061092AC
S1130C304006D093410682E58093420684E0809387
S1130C40450680934606C0934A068091400681601B
S1130C5080934006C093480680E48093A00680E811
S1130C608093A1068091A00681608093A006809164
S1130C70410180FDFCCF80E3809340011092470145
S1130C808091410182FDFCCF80E098E780934A0186
S1130C9090934B01809148019091490182968093F1
S1130CA0F73A9093F83A20914A0130914B018091A0
S1130CB0F73A9091F83A2817390770F420914A01CD
S1130CC030914B018091F73A9091F83A821B930B43
S1130CD08093F73A9093F83A8091410183FDFCCFD9
S1130CE08091F73A9091F83A80934C0190934D019A
S1130CF083E08093420181E08093520188E08093F5
S1130D0050018091410180FDFCCF809140018160C0
S1130D108093400180915001816080935001109232
S1130D20753A85E79AE38093B93A9093BA3A7894FE
S1130D30DF91CF9108951F920F920FB60F92112455
S1130D408F939F93AF93BF93EF93FF9387E0809329
S1130D50460484E480932604ECB388E0E89FF00121
S1130D601124E653F54CA8E2BAE096E081918D9304
S1130D709A95E1F78BE08093050A8CB3833058F49D
S1130D808CB391E001C0990F8A95EAF799B98CB3B5
S1130D9083958CBB0AC08CB3833021F42A9A839543
S1130DA08CBB03C02E9A88278CBB8091603A882321
S1130DB029F08091603A81508093603A8FEF80935C
S1130DC00B0AFF91EF91BF91AF919F918F910F907B
S1130DD00FBE0F901F9018951F920F920FB60F928F
S1130DE011248F939F93EF93FF93E091B93AF0917D
S1130DF0BA3A8081882391F080818093020880919F
S1130E00B93A9091BA3A01968093B93A9093BA3A22
S1130E108091050880628093050805C081E0809375
S1130E200A381092450A81E08093460AFF91EF91B7
S1130E309F918F910F900FBE0F901F9018951F9246
S1130E400F920FB60F9211242F933F934F938F93CA
S1130E509F93EF93FF93E0910738F09108388081D6
S1130E60811108C080910538909106388093073825
S1130E7090930838E0910738F091083880818823EE
S1130E80E1F020814091B63A30E02F573109429F7A
S1130E90C001439F900D1124892F990F990B8058FD
S1130EA09F4F8093A106809107389091083801964E
S1130EB0809307389093083806C080E88093A10691
S1130EC081E08093F23A81E08093560AFF91EF919A
S1130ED09F918F914F913F912F910F900FBE0F9043
S1130EE01F9018951F920F920FB60F9211248F9393
S1130EF0EF93FF9380914438811144C0EDB3F0E047
S1130F0080910008EB58F54C8083EDB3F0E0EB588A
S1130F10F54C808180930208EDB3F0E0EB58F54C7A
S1130F2080818A3039F0EDB3F0E0EB58F54C8081E4
S1130F308D3049F4EDB3F0E0EB58F54C108281E0CC
S1130F40809344381FC0EDB3F0E0EB58F54C80813A
S1130F50883039F0EDB3F0E0EB58F54C80818F37F1
S1130F6059F48DB3882341F0EDB3F0E0EB58F54C20
S1130F7010828DB3815005C08DB3803418F48DB3C5
S1130F808F5F8DBB80E880930408FF91EF918F9170
S1130F900F900FBE0F901F9018951F920F920FB6CF
S1130FA00F9211248F93EF93FF9310924A0A109299
S1130FB04B0A81E08093450AE5E0F8E080818F7D6B
S1130FC08083FF91EF918F910F900FBE0F901F9030
S1130FD018951F920F920FB60F9211248F939F931F
S1130FE0EF93FF9380913738811119C08EB38F5FCF
S1130FF087708EBB809106068E3149F4809110066D
S1131000909111068093F53A9093F63A0DC0EEB3A1
S1131010F0E080911006EE53F54C808305C080917A
S1131020373881508093373881E080930B06FF91E5
S1131030EF919F918F910F900FBE0F901F90189575
S11310401F920F920FB60F9211248F939F9380914A
S1131050460681110AC080915006909151068093F2
S1131060BD3A9093BE3A81E010C08091460681302B
S113107079F488E08093060480915006909151069B
S11310808093BB3A9093BC3A84E08093460610C0A8
S113109080915006909151068093B73A9093B83A54
S11310A08FB38F3029F41092460688E080930504AC
S11310B08FB390E001968F7099278FBB81E0809366
S11310C04B069F918F910F900FBE0F901F90189514
S11310D01F920F920FB60F9211242F933F938F9369
S11310E09F938091430181FF39C0809142388F3FA3
S11310F029F0809142388F5F809342388091480173
S11311009091490182968093F73A9093F83A20910E
S11311104A0130914B018091F73A9091F83A28179F
S1131120390770F420914A0130914B018091F73ACC
S11311309091F83A821B930B8093F73A9093F83A84
S11311408091410183FDFCCF8091F73A9091F83A68
S113115080934C0190934D0182E006C08091433806
S11311608F5F8093433881E0809343019F918F91F7
S11311703F912F910F900FBE0F901F9018951F92C3
S11311800F920FB60F9211248F9381E0809348063B
S1131190809353018F910F900FBE0F901F9018955D
S11311A09091021091FDFCCFFB01480F841739F098
S11311B0A82FB0E0BC5E9C9191938F5FF7CF089508
S11311C09DE924E033E0442309F15091021051FDDC
S11311D0FCCF94BF20930010E82F582F5F718F5FCE
S11311E06F5F7F4FDB011197AC91F0E0FC5EA08351
S11311F0415019F0E82F5F3181F794BF309300100C
S11312005091021052FFDFCF81E0089580E00895ED
S113121020910A38222359F08093B93A9093BA3A2C
S113122010920A3881E08093450A80E0089581E0B5
S11312300895282F811101C021E08FEF90E0821BD7
S11312409109982F882781509F4F80934C0A90933F
S11312504D0A089582E18093A000E0E0F6E08081E9
S11312608B7F80838EE18093060683E080933738FA
S1131270089582E28093A000E0E0F6E0808184603B
S1131280808387E08093060683E08093373808954F
S11312902091B73A3091B83A94E0369527959A95CB
S11312A0E1F733272C353105D0F423353105A8F582
S11312B02233310550F42D32310558F523523109CA
S11312C02530310580F59CE02FC02733310518F116
S11312D02E5331092730310530F596E025C02A38E0
S11312E0310550F429373105D0F4235631092B3018
S11312F03105C8F493E018C0223A3105A0F02B3B25
S1131300310578F0205F31092031310560F490E037
S11313100BC099E009C098E007C094E005C092E0D2
S113132003C091E001C09FE0282F2F70921306C0E4
S1131330982F907F903F39F0805F0895992311F0A2
S1131340892F08958FEF0895809121389091223844
S11313509C01322F22273295330F307E8227932728
S11313609C01232F33272695822793279C013695AA
S1131370322F222737952795822793278093213868
S1131380909322380895DF92EF92FF920F931F9368
S1131390CF93DF937B018A01C0915C0AD0915D0AEF
S11313A0E82FF0E03197E770FF27ED5DF74CD08030
S11313B0CBDF8D21C80FD11DC7DF8D21C81BD109FB
S11313C00C171D0708F4E801C701EC16FD0608F424
S11313D0CE0180935C0A90935D0ADF91CF911F91B7
S11313E00F91FF90EF90DF9008950F931F93CF9389
S11313F0DF93C82FD42F022FE62FF0E03197E77048
S1131400FF27ED5DF74C10819FDF8123C80F9CDF20
S11314108123C81B8C2F002341F09C2F0C1708F448
S1131420902F8D2FD91708F4892F41E050E08D17A4
S113143010F040E050E02D2F30E024233523232BFF
S113144009F08D2FDF91CF911F910F910895CF92C5
S1131450DF92FF920F931F93CF93DF93CDB7DEB745
S11314606497CDBFDEBF44E1BE016F5F7F4F80E074
S113147097DE81E6C82E8AE3D82E8E010F5F1F4FB8
S1131480F12CF80181918F01F6019081981308C025
S1131490F394FFEFCF1ADF0A80E1F812F2CF08C00D
S11314A041E0B6018F2D8CDE882391F391E036C0A4
S11314B020913E3830913F383093713A2093723AFC
S11314C080914038909141389093733A8093743A64
S11314D089899A899827892798272817390769F4C9
S11314E08B899C89982789279827209140383091A7
S11314F041382817390749F410C042E061E77AE31C
S113150080E15EDE882361F3D1CF42E063E77AE3D2
S113151082E156DE91E0811101C090E0892F64964A
S1131520CDBFDEBFDF91CF911F910F91FF90DF9070
S1131530CF900895E82FEF77E695E695E695F0E0ED
S1131540EF59F54C208130E08770A90102C0559510
S113155047958A95E2F7CA0181700895E82FEF77DD
S1131560E695E695E695282F2770F0E0EF59F54CBF
S113157081E090E001C0880F2A95EAF7662319F00C
S11315809081892B03C0809590818923808308955D
S1131590982F8F7731F097FF02C060E001C061E0BF
S11315A0DDCF0895CF93C82F8F77C4DF2C2F221F50
S11315B02227221F91E0811101C090E0822F892708
S11315C0CF910895E3E0F1E180E09191890FED304E
S11315D091E1F907D1F783708F5F80933D380895C7
S11315E0E1E6FAE311928AE3E537F807D9F7EADF8F
S11315F0811104C080916E3A806405C0813031F459
S113160080916E3A806880936E3A0DC0823021F4E6
S113161080916F3A816005C0833029F480916F3ADC
S1131620826080936F3A8091613A81608093613ADD
S11316300895CF93DF9344E161E67AE380E0B0DD7F
S1131640CEE6D0E08C2F76DFD80FCF5FC237D1F74C
S1131650D13011F0C5DF01C0B5DF8091713A9091AE
S1131660723A98278927982780933E3890933F3879
S11316708091733A9091743A982789279827809398
S1131680403890934138DF91CF910895CF9386E706
S113169089DFC82F882381F0E091F5BFF0E0E6539D
S11316A0F54C1082E091F4BFF0E080910B38E653E2
S11316B0F54C8083C1E04CC085E774DF882359F181
S11316C0E091F5BFF0E080910B38E653F54C808350
S11316D080915938882379F08091C03A9091C13A29
S11316E02091F53A3091F63A80962817390718F088
S11316F086E74EDF2DC08091C03A9091C13A209187
S1131700F53A3091F63A08968217930708F181E08A
S1131710809359381DC08091C03A9091C13A892B69
S113172041F48091F53A9091F63A8093C03A9093BF
S1131730C13A8091C03A9091C13A2091F53A3091E2
S1131740F63A80962817390718F085E721DFC0E0BC
S11317508C2FCF910895E6EFFFEB90E0A581B0E0E8
S1131760981734F420910B38A653B54C2C9303C02E
S1131770A653B54C1C92A081B0E0961734F4209186
S11317800B38A653B54C2C9303C0A653B54C1C92EE
S11317909F5F3196953011F70895A0E0B0ECEC917D
S11317A0F0E0E653F54C80831296EC911297F0E04A
S11317B0E653F54C60831196EC911197F0E0E653F3
S11317C0F54C80831396EC91F0E0E653F54C60837E
S11317D008951F93CF93DF9380913C38882329F099
S11317E080E4E0DE811124C050C0C4E0D0EC1AE7EC
S11317F0812FD8DEEE81F0E0882359F080910B38F8
S1131800E653F54C8083E881F0E0E653F54C108212
S11318100AC0E653F54C1082E881F0E080910B3861
S1131820E653F54C80831F5F2196103809F7D8CF13
S113183080915B38982F9D7FE091F3BFF0E0913069
S113184011F0853021F490910B38969506C08230C2
S113185011F0843031F490910B38E653F54C9083B9
S11318600CC0882311F0863029F490910B3896959A
S11318709695F3CFE653F54C1082803220F48F5FB7
S113188080935B3802C010925B3890915A389F5F06
S113189090935A3820913A3830913B382F7133273E
S11318A02130310599F120F022303105B1F146C0E3
S11318B060E080E050DFE09100C0F0E0E653F54CDA
S11318C01082E09102C0F0E0E653F54C1082E09102
S11318D0F4BFF0E0E653F54C1082E09101C0F0E073
S11318E0E653F54C1082E09103C0F0E0E653F54C6A
S11318F01082E091F5BFF0E0E653F54C1082E091E0
S1131900F2BFF0E0E653F54C108218C0892F8170C5
S113191090FD80910B3860E00DC0692F70E093FF5B
S113192002C06095709585E0660F771F8A95E1F790
S1131930615E80E0DF91CF911F912FCFDF91CF9136
S11319401F9108950F931F93CF938091C63A8931C5
S113195008F027C1C1E0C093BF3A80913A38909112
S11319603B388827892B09F0BFC080913A38909181
S11319703B38807E9927892B31F488E398E3809360
S113198005389093063880913A3890913B38807EA0
S11319909927809709F059C040E052E260E070E274
S11319A081E0F1DC20E041E065E080E81EDD809329
S11319B0123880914238882309F447C080915838FE
S11319C0811115C084E0809357388FEF8093563887
S11319D080E090E280935C0A90935D0A80E198E352
S11319E0809305389093063881E08093583880912D
S11319F05638882369F08093B63A909157389923E2
S1131A0021F091509093573803C0869580935638AF
S1131A1080915638811119C080913A3890913B38A1
S1131A208F71992780933A3890933B3888E398E3F1
S1131A30809305389093063880930738909308383C
S1131A408FEF8093B63A1092583880913A3890913B
S1131A503B3880913A3890913B38807E9927803684
S1131A609105A9F5109255388FE498E380930538D1
S1131A70909306388C01C1E0C33039F020E041E096
S1131A8065E080E8B2DCF8018183CF5F0F5F1F4F10
S1131A90C63091F7809142388823C9F040E054E081
S1131AA060E872E085E06FDC8091B63A20EA40E1BC
S1131AB062E09BDC8093B63A20E940E762E08091E3
S1131AC04F3893DC80934F388095809352388091BF
S1131AD03A3890913B3880913A3890913B388091D4
S1131AE03A3890913B385FC080913A3890913B38B6
S1131AF088278115914009F056C080913A38909119
S1131B003B38807E99278139910508F04CC060915B
S1131B103A3870913B38607E77276F5F7F4F86E05D
S1131B20660F771F8A95E1F7AB015D5F7E5F81E009
S1131B302ADC809142388823B1F180914E3881119A
S1131B400EC083E080934D388DE098E38093053890
S1131B50909306388FEF8093B63AC0934E388091B5
S1131B604D3881111AC080913A3890913B388F7169
S1131B70992780933A3890933B3888E398E380938D
S1131B8005389093063880930738909308388FEF80
S1131B908093B63A10924E3806C0815080934D38E7
S1131BA002C01092BF3A80914238CF911F910F9199
S1131BB00895209143388091480190914901892FDB
S1131BC0992786953CE3239F800D911D1124089548
S1131BD00F931F93CF93DF938C01EB01EADF9C01FA
S1131BE08017910708F4345CC00FD11F81E0C2173D
S1131BF0D30708F080E0DF91CF911F910F910895F2
S1131C00CF93DF93E6EFFFEBEF01A581B0E0A6539E
S1131C10B54C1C923196A881B0E0A653B54C1C92E9
S1131C209FEBEB3FF90781F78130D9F4E091FBBFDB
S1131C30F0E080910B38E653F54C8083E091FCBFD3
S1131C40F0E080910B38E653F54C8083E091FDBFC2
S1131C50F0E080910B38E653F54C80838FE391E0FC
S1131C6046C0823099F4E091FEBFF0E080910B38D9
S1131C70E653F54C8083E091FFBFF0E080910B3890
S1131C80E653F54C80838FE591E031C08330D9F47D
S1131C90E091F6BFF0E080910B38E653F54C808379
S1131CA0E091F7BFF0E080910B38E653F54C808368
S1131CB0E091F8BFF0E080910B38E653F54C808357
S1131CC08FE791E014C08430B1F4E091F9BFF0E003
S1131CD080910B38E653F54C8083E091FABFF0E035
S1131CE080910B38E653F54C80838FE991E0809323
S1131CF03A3890933B38DF91CF9108950F931F9317
S1131D00CF93DF938AE74EDC811165C180913C3823
S1131D108D7F09F060C180915C38811121C02091D0
S1131D20BD3A3091BE3A8091F53A9091F63A820FDD
S1131D308F7380936138C0E080916138C81718F4BC
S1131D4003DBCF5FF9CFC2E6D8E30EE618E3FCDA93
S1131D50837089930C171D07D1F781E080935C3859
S1131D6080915C38813071F480913C38823051F438
S1131D7080935C38109261381092603810925F380A
S1131D8010925D3880915C38823011F580915F3813
S1131D90863038F080915D388F5F80935D38109283
S1131DA05F38E0915D38E73040F083E080935C3841
S1131DB010925F3810925D380EC1F0E0EC5FFF4383
S1131DC0E081F0E080910B38E653F54C808320C02D
S1131DD08330F1F480915F38803138F080915D3840
S1131DE08F5F80935D3810925F38E0915D38809109
S1131DF061388E1740F485E080935C3880E000DF22
S1131E0010925F38E8C0F0E0EE59F74C8081F8DEBC
S1131E10D0915C38D53009F07FC0E09109388E2F1D
S1131E20807F09F477C0EF3F09F474C0EF70E1508C
S1131E30E83008F06FC0F0E0EE5BFF43C081CC23D4
S1131E4009F468C080915E3881117AC081E0809382
S1131E505E3810925F388C2FD3DE84E080935C3838
S1131E60D0932B3880916038E82FF0E0EE59F74C8E
S1131E709081C91318C08F5F809360389091613846
S1131E80891780F122E430E020933A3830933B38CC
S1131E909F5F909361381092603810925F3810926F
S1131EA05D3883E01DC085E091E080933A389093DB
S1131EB03B38A4E0B0EC8AE090ECED91F0E02091A6
S1131EC00B38E653F54C20838A179B07B1F7109221
S1131ED060381092613810925F3810925D3886E055
S1131EE080932B38809160388C3020F48091613855
S1131EF08C3090F086E091E080933A3890933B38B0
S1131F008AE746DB10925F3810925D3887E0809351
S1131F102B3802C010925E3880915C38843081F492
S1131F2080915F38873060F080E06ADE10925E381E
S1131F3010925F3810925D3880912B3880935C3812
S1131F4080915C38863021F580915F38863038F096
S1131F5080915D388F5F80935D3810925F388091F7
S1131F605D38873040F010925F3810925D3887E01A
S1131F7080935C3830C0E5E0F0E0E81BF109EC5FE9
S1131F80FF43E081F0E0E653F54C81E080831EC01E
S1131F908730E1F4109260381092613881E08093C8
S1131FA05C3810923C38E6EFFFEB2BEF3FEBEF0190
S1131FB0A581B0E0A653B54C8C933196A881B0E0CE
S1131FC0A653B54C8C932E173F0789F780915F3841
S1131FD08F5F80935F3880E0DF91CF911F910F91E5
S1131FE008951F93CF93DF93CDB7DEB76297CDBF2C
S1131FF0DEBF8A8B80E1EAECFFEBDE0111960190F3
S11320000D928A95E1F7FE01319690E08FEF2191D0
S113201031912617370709F4892F9F5F9830B9F754
S1132020883010F080E012C018E1180F41E0BE01C2
S11320306F5E7F4F812FB4D889898F3F99F741E034
S1132040BE016E5E7F4F812FBBD881E06296CDBF0B
S1132050DEBFDF91CF911F910895F9019C012E1BE2
S11320603F0B88E0489FA001112444545F4366233A
S113207069F0DF01A20FB31FA770BB27A40FB51F20
S113208080819C91982791936150F1CF0895262FD8
S1132090FB0135E59E2F921B981728F490819295A9
S11320A093279193F7CF0895AF92BF92CF92DF9287
S11320B0EF92FF920F931F93CF93DF9300D0CDB78E
S11320C0DEB7D62EC42E59017C01E894F7F8F982C4
S11320D0EA82062F42E0BE016F5F7F4F80E50E94D7
S11320E0B802182F811105C095014C2D6D2DC70123
S11320F0B4DF812F0F900F90DF91CF911F910F913B
S1132100FF90EF90DF90CF90BF90AF9008958F5FD6
S1132110883030F4E82FF0E0E85BF54C1082F7CF1C
S11321200895AC0190E0E92FF0E0DA01AE0FBF1F93
S11321303C91E60FF71F311105C081E0908199238E
S113214049F007C020812223C1F3321302C09F5FEC
S1132150EACF80E00895CF93DF93FC016115710508
S113216059F1A0E5BAE3C8E4DAE380E09FEF6F3FFA
S1132170710569F060F0ED93FD939993E150FF4F81
S11321806F5F71098F5F873091F781E01EC0282F40
S113219030E0D901AA0FBB1FA05BB54CED93FC93B3
S11321A06F3F710511F46EEF70E0F901E85BF54CD7
S11321B060834093463A05C01092503A1092513AC7
S11321C080E0A5DF1092473A80E0DF91CF91089537
S11321D0CF93DF93282F30E0F901EE0FFF1FE55E68
S11321E0F64CABE5BAE7A083B183F901EE0FFF1F0C
S11321F0E55AF64C62E070E060837183220F331F6E
S1132200F901E556F64C41E050E04083518321E06A
S1132210280F30E0F901EE0FFF1FE55EF64CC4E62F
S1132220DAE7C083D183F901EE0FFF1FE55AF64CBC
S1132230CAE0D0E0C083D183220F331FF901E556F1
S1132240F64C40835183E2E0E80FF0E0EE0FFF1F0D
S1132250E55EF64C20EF3FEF2083318323E0280F27
S113226030E0F901EE0FFF1FE55EF64CA083B18369
S1132270F901EE0FFF1FE55AF64C60837183220FBC
S1132280331FF901E556F64C4083518324E0280FAF
S113229030E0F901EE0FFF1FE55EF64CA7E5BAE763
S11322A0A083B183F901EE0FFF1FE55AF64C60835A
S11322B07183220F331FF901E556F64C4083518395
S11322C08B5FDF91CF910895AF92BF92DF92EF922F
S11322D0FF920F931F93CF93DF93CDB7DEB72C9765
S11322E0CDBFDEBF7C018B019E012F5F3F4F40E0DD
S11322F06CE08096D9DE89819A819827892798276E
S11323008096F801808391838B819C81982789270B
S11323109827809682839383DE0115963496C801AC
S11323200C962D912193E817F907D9F7FCE2EF0EEB
S1132330F11C5801D12C9E012F5F3F4F40E063E018
S1132340C701B2DE89819A81982789279827970146
S11323502E5F3F4F43E04D1580F4AC0141505109CD
S1132360F801428F538FF3E0EF0EF11CF801E4867D
S1132370F5864B81F50144A305C0F801828F938F44
S1132380248735877C01E20EF31ED3940E5F1F4F22
S1132390FFEFAF1ABF0A47E0D412CDCF2C96CDBFC2
S11323A0DEBFDF91CF911F910F91FF90EF90DF90EF
S11323B0BF90AF900895CF92DF92EF92FF920F9368
S11323C01F93CF93DF93CDB7DEB7A097CDBFDEBF0A
S11323D0C62E7C0120E2E20EF11C9E012F5F3F4FCE
S11323E040E062E08C9660DE1A81D12C112351F119
S11323F0012F113208F000E29E012F5F3F4F40E0B1
S1132400602FC7010E9650DEFE01319680E0DD207C
S113241061F0E1E0F0E0EC0FFD1FE80FF11D9081A9
S1132420906281E09C110EC00EC09191DD24D39482
S11324309B3509F0D12C8F5F801748F3E00EF11C17
S1132440101BD4CF80E0A096CDBFDEBFDF91CF912B
S11324501F910F91FF90EF90DF90CF900895AF926E
S1132460BF92DF92EF92FF920F931F93CF93DF936C
S113247000D000D0CDB7DEB7D62E5A019E012F5F13
S11324803F4F40E064E080960FDEE980FA80FE244E
S1132490EF24FE240B811C811027012710270E1521
S11324A01F0530F5A016B10658F09E012F5F3F4F6F
S11324B040E062E0C8018096F7DD09811A81ECCF23
S11324C09E012F5F3F4F40E061E0C8018596ECDD3F
S11324D08981811103C0D11005C00DC063D8811159
S11324E0FACFE3CF6D2DC80166DF8823F1F203C074
S11324F080E090E001C0C8012496CDBFDEBFDF912B
S1132500CF911F910F91FF90EF90DF90BF90AF900C
S1132510089580629FE9980F9A3138F090ED980FF2
S113252081E09A3018F080E0089581E008950F93D7
S11325301F93CF93DF938C01D0E0C0E0F801ED0F3F
S1132540F11D20818C2F90E0222351F0D801A80F97
S1132550B91F2C938081DDDF8111CF5FDF5FEECF68
S1132560F801E80FF91F10828C2FDF91CF911F9192
S11325700F910895CF9380913A3890913B38892BED
S113258099F480911F3A90E080933A3890933B38C5
S113259080913A3890913B38807E992721E0892BAD
S11325A009F420E0209339382091473A283008F084
S11325B048C080910A38882309F443C0822F90E0F0
S11325C0FC01E85BF54CE081E11106C0109206398C
S11325D088E08093473A2DC0509106395E1758F52C
S11325E0CE2FC51BC13208F0C0E2880F991FFC0131
S11325F0E05BF54C8081918129EF3AE34091463AC2
S11326006C2F850F911D50DD809106398C0F8093BE
S11326100639EC2FF0E0E750F54C10828091F93A3E
S1132620811103C08BED8093F93A89EF9AE30E94FC
S1132630080981E00BC0109206392F5F2093473AB6
S1132640F8CF90910A3881E0911180E0CF910895FC
S1132650CF93DF93C0911A39CC23E9F1C150C093D1
S11326601A39D09105392D2F30E0F901EE0FFF1FF3
S1132670E55EF64C80819181803F4FEF940751F4E1
S11326806091353A7091363A40E08091273A9091C2
S1132690283A0DC0D901AA0FBB1FA556B64C220F6C
S11326A0331FF901E55AF64C608171814C9153DD79
S11326B0DF5FD0930539C1110DC080911F3A90E0BE
S11326C080933A3890933B381DBA10924438109254
S11326D0053901C0C1E08C2FDF91CF9108953F925D
S11326E04F925F926F927F928F929F92AF92BF921E
S11326F0CF92DF92EF92FF920F931F93CF93DF93CA
S1132700CDB7DEB7A197CDBFDEBF8C0180912C3849
S11327108F3F49F46BE17AE38091DB399091DC39A6
S1132720D3DD10922C3880914438882309F46EC28A
S113273080910A39882309F457C01092093981E637
S1132740F80180836AE079E385E79AE3EADCF82E0E
S1132750882321F081E08093093904C080910A39EB
S1132760813311F0F12C54C280910C398111FACFCC
S113277085E79AE3DCDE92E090930939F80111824F
S1132780823080F38091753A813361F08091753A9B
S1132790823341F08091753A833321F08091753A08
S11327A0843301F78091763A80628093763A8091FF
S11327B0763A813661F08091763A853641F080919F
S11327C0763A863621F08091763A873759F68091A9
S11327D00B398F5EF80181838091753A82838091F1
S11327E0763A8383148214C28091753A833289F5D0
S11327F08DB3863071F581E090E010E0FC01EB5878
S1132800F54C208120532083110F212F220F220FFA
S1132810120F2091763A233048F420812A30B8F4FC
S11328202081120F01968430910541F7812F8F7713
S113283071F08091793A60917A3A70E0782B812F27
S11328408095CFDB882319F0812F0E94C80A80E08D
S113285050C0D80180E090E0FC01EB58F54C208199
S1132860213418F020812B3510F0208102C0208102
S113287020622C932081211105C0F801E80FF11D7D
S1132880108205C0019611968134910529F7809133
S1132890753AF801811105C010821DBA10924438AE
S11328A0B5C180818F3311F0883639F58BE59AE70D
S11328B080931B3990931C3984E090E080935B39BA
S11328C090935C3981E090E080939B3990939C399C
S11328D023E93BE720931D3930931E392DE634E07C
S11328E020935D3930935E3980939D3990939E395E
S11328F082E06EDC80931A3989C18136D9F48BE584
S11329009AE780931B3990931C3984E090E080937C
S11329105B3990935C3981E090E080939B3990938C
S11329209C392EE63AE720931D3930931E3925E26F
S113293031E0D6CF873709F06EC08BE59AE78093F4
S11329401B3990931C3984E090E080935B39909319
S11329505C3921E030E020939B3930939C398AEC38
S113296096E780931D3990931E3982E190E080931D
S11329705D3990935E3920939D3930939E398091CF
S11329803D38813019F484EC96E70FC0823049F465
S113299081EC96E780931F399093203983E090E08F
S11329A01EC0833049F48BEB96E780931F399093D4
S11329B0203986E090E013C0843049F486EB96E732
S11329C080931F399093203985E090E008C08FE30D
S11329D096E780931F399093203982E490E08093A6
S11329E05F399093603920939F393093A0398CE9F3
S11329F096E780932139909322398AE190E080937D
S1132A0061399093623981E090E08093A139909389
S1132A10A23984E06ECF8137D9F48BE59AE78093AD
S1132A201B3990931C3984E090E080935B39909338
S1132A305C3981E090E080939B3990939C3922E04B
S1132A403AE720931D3930931E3925E530E048CF0D
S1132A506AE470ECC80165DB8823F9F01EE660E0E7
S1132A60812F0E94AE0A1F5F1237C9F70E94270AFE
S1132A7080E2EDE8F0ECDE01119601900D928A956A
S1132A80E1F78CE30E94190980910A388823E1F365
S1132A90CE0101960E940809F7CF60E570ECC801E9
S1132AA040DB882361F18FEF89A318E141E0BE0187
S1132AB06F5D7F4F812F0E94E0081F5F1032B1F7D6
S1132AC01EE660E0812F0E94AE0A1F5F1237C9F72D
S1132AD00E94270A8FE0EDEAF0ECDE0111960190E6
S1132AE00D928A95E1F78CE30E94190980910A38C6
S1132AF08823E1F3CE0101960E940809F7CF67E825
S1132B0070ECC8010EDB882309F42CCE8BE1C82EAF
S1132B1089E3D82E9BE5E92E99E3F92E0BE919E315
S1132B2028E1322E3AED632E34E7732E42E0842EF0
S1132B30912CAA24A394B12C69E5462E6AE7562E5B
S1132B4041E0BE016F5D7F4F832D0E94D00889A1B3
S1132B50809589A3F60160827182F7018082918257
S1132B60F801A082B182982F92959F70E1E0F0E085
S1132B70EC0FFD1FE90FF11D208130E026533B4887
S1132B80F60122833383F701A282B382F801A28281
S1132B90B3828F70E1E0F0E0EC0FFD1FE80FF11D50
S1132BA0808190E086539B48F60184839583F701E6
S1132BB0A482B582F801A482B582F60146825782C6
S1132BC0F70186829782F801A682B7823394F8E0EF
S1132BD0CF0ED11C88E0E80EF11C085F1F4FE0E225
S1132BE03E12AECF8BE59AE78093593990935A39C8
S1132BF084E090E08093993990939A3981E090E051
S1132C008093D9399093DA3930921A39FF24F394A6
S1132C108F2DA196CDBFDEBFDF91CF911F910F9174
S1132C20FF90EF90DF90CF90BF90AF909F908F90E8
S1132C307F906F905F904F903F9008955F926F9256
S1132C407F928F929F92AF92BF92CF92DF92EF9238
S1132C50FF920F931F93CF93DF93CDB7DEB72897DF
S1132C60CDBFDEBF8C0163DCC80161DCF82E882394
S1132C7009F4FCC7D8018C91883709F045C08091CC
S1132C802C38E82FF0E0EE0FFF1FE552F64C2081C0
S1132C903181232B11F0811103C081E896E7A1C58E
S1132CA08091213A0E94D20A8823B9F0E0912C380D
S1132CB0E150E0932C38F0E0EE0FFF1FE552F64CA4
S1132CC06BE17AE380819181FFDA80911F3A90E091
S1132CD080933A3890933B3831C280913D3A909139
S1132CE03E3A20912F3A3091303A20931D39309357
S1132CF01E3980935D3990935E3910929D391092FC
S1132D009E398091433A3AC6853619F08F3609F0D8
S1132D10DFC0B2E0FB12C1CFE0902C38F12CF701F8
S1132D20EE0FFF1FE552F64C40E050E0D80111963B
S1132D306C918081918193DBF701EE0FFF1FE352C9
S1132D40F64C8083918390912C38292F30E0F9013F
S1132D50EE0FFF1FE352F64C40815181411551059E
S1132D6021F06AED78E3CA011CC0992309F495C7E0
S1132D70220F331FF901E752F64CD80111966C91DA
S1132D808081918118DB882309F487C7E0912C386E
S1132D90F0E0EE0FFF1FE752F64C6AED78E3808116
S1132DA0918192DAF80180818536C9F48091E23804
S1132DB080FD1EC08FE999E780931D3990931E39D9
S1132DC08EE190E080935D3990935E3981E090E0EC
S1132DD080939D3990939E3972E0772E2CC78F365D
S1132DE039F48091E23881FD03C084E899E7F9C49D
S1132DF08091E0380E94D20AE0912C38882309F4AB
S1132E0049C0AE2FB0E0AA0FBB1FA352B64C8D91A0
S1132E109C91892B11F0EF5F01C0E150E0932C38B5
S1132E20E0912C38F0E0EE0FFF1FE552F64C6BE119
S1132E307AE38081918148DA8091373A9091383AE7
S1132E402091293A30912A3A20931D3930931E3922
S1132E5080935D3990935E3910929D3910929E391A
S1132E608BE59AE780931F399093203982E090E0B4
S1132E7080935F399093603981E090E080939F392B
S1132E809093A03980911F3A90E080933A389093C0
S1132E903B388DC4F0E0EE0FFF1FE352F64C108276
S1132EA011828091FC389091FD382091EE38309158
S1132EB0EF3820931D3930931E3980935D399093F8
S1132EC05E3910929D3910929E398091023956C50F
S1132ED08C3609F057C1E0912C38B1E0FB12F6C0F2
S1132EE08091373A9091383A2091293A30912A3A90
S1132EF020931D3930931E3980935D3990935E3948
S1132F0010929D3910929E398BE59AE780931F3970
S1132F109093203982E090E080935F3990936039F8
S1132F2081E090E080939F399093A0392DEE39E7AA
S1132F30209321393093223925E130E020936139FF
S1132F40309362398093A1399093A239F0E0EE0F67
S1132F50FF1FE352F64C1082118284E0682E99E53B
S1132F60C92E9AE7D92E22E0A22EB12C882483946C
S1132F70912C80912C3890E09C01220F331FF90191
S1132F80E352F64C7F0140815181F901E552F64C40
S1132F9060E08081918163DAD7018D939C93E09105
S1132FA02C38F0E0EE0FFF1FE352F64C8081918144
S1132FB0009709F44AC020913E3830913F38821777
S1132FC0930709F442C02091403830914138821768
S1132FD09307D9F16AED78E377D98091F438909129
S1132FE0F538E62DF0E0DF01AA0FBB1FA55EB64C55
S1132FF02091E6383091E7382D933C93DF01AA0FF6
S1133000BB1FA55AB64C8D939C93EE0FFF1FE5563C
S1133010F64C1082118281E0860D90E063946394F3
S1133020FC01EE0FFF1FE55EF64CC082D182FC016D
S1133030EE0FFF1FE55AF64CA082B182880F991F4C
S1133040FC01E556F64C8082918220912C38822F27
S113305090E0FC01EE0FFF1FE352F64C40815181DA
S1133060452B09F086CF222369F1880F991FFC01B3
S1133070E752F64C6AED78E38081918125D920915D
S1133080F4383091F53877247394760C862D90E0DB
S1133090FC01EE0FFF1FE55EF64C4091E6385091BF
S11330A0E73840835183FC01EE0FFF1FE55AF64CCD
S11330B020833183880F991FFC01E556F64C10825A
S11330C01182B9C577247A94760CB5C5EE2EF12C0D
S11330D0F701EE0FFF1FE552F64C40E050E0D80137
S11330E011966C9180819181BAD9F701EE0FFF1F7F
S11330F0E352F64C8083918390912C38292F30E051
S1133100F901EE0FFF1FE352F64C40815181411546
S1133110510521F06AED78E3CA011EC0992309F430
S1133120BCC5220F331FF901E752F64CD8011196A2
S11331306C91808191813FD9811103C0772473946C
S11331407AC5E0912C38F0E0EE0FFF1FE752F64C01
S11331506AED78E380819181B7D88091F6389091B7
S1133160F7382091E8383091E93820931D393093AD
S11331701E3980935D3990935E3910929D39109277
S11331809E392ACE803709F096C080913E389091BE
S11331903F38892B79F08091403890914138892BC0
S11331A049F084E498E780931D3990931E3989E5AA
S11331B090E008CEB2E0FB1270CDE0902C38F12CF8
S11331C0F701EE0FFF1FE552F64C40E050E0D80146
S11331D011966C918081918142D9F701EE0FFF1F06
S11331E0E352F64C8083918320912C3830E02F5F9A
S11331F03F4F220F331FF901E552F64C8081918134
S1133200009709F4CAC340913E3850913F3884175F
S1133210950739F04091403850914138841795070B
S1133220C1F48FE198E780931D3990931E3985E2AC
S113323090E080935D3990935E3981E090E08093D3
S11332409D3990939E39F901E552F64C1082118212
S1133250C3CD6AED78E338D88091E1380E94D20A70
S1133260882309F475C38091E538882309F415CDC2
S113327080913E3890913F38E0912C38F0E0EE0F89
S1133280FF1FE352F64C892B39F0808191818093A2
S113329040389093413806C08081918180933E38B4
S11332A090933F3889E098E780931D3990931E39B5
S11332B086E190E05EC28436D9F480913E389091E4
S11332C03F38009709F0ECC4809140389091413820
S11332D0892B49F483EE97E780931D3990931E3927
S11332E086E290E06FCDB2E0FB1609F440C5D5CC80
S11332F0893609F07BC080913E3890913F38892B04
S113330031F48091403890914138892B19F389E048
S113331098E780931D3990931E3986E190E080935D
S11333205D3990935E3981E090E080939D3990936C
S11333309E392EE3E22E28E3F22E32E4632E38E3A4
S1133340732E42E0542E59E5C52E5AE7D52E62E07D
S1133350A62EB12C88248394912CD7018D919D9114
S11333607D010097D9F16AED78E30E9464118091A0
S1133370F4389091F538E52DF0E0DF01AA0FBB1F7A
S1133380A55EB64C2091E6383091E7382D933C93F6
S1133390DF01AA0FBB1FA55AB64C8D939C93EE0F69
S11333A0FF1FE556F64C10821182E1E0E50DF0E0D6
S11333B053945394DF01AA0FBB1FA55EB64CCD9264
S11333C0DC92DF01AA0FBB1FA55AB64CAD92BC928A
S11333D0EE0FFF1FE556F64C808291826E147F0437
S11333E009F0BBCF77247A94750C25C49CE8980F18
S11333F0923028F0873619F0823709F0D7C28EEF61
S11334008F0D823008F049CCE0912C38CE2ED12C8F
S1133410D801AF0DB11D1197F601EE0FFF1FE55254
S1133420F64C40E050E06C918081918118D8F6010F
S1133430EE0FFF1FE352F64C80839183E0912C380A
S1133440F0E0EE0FFF1FE352F64C8081918100976C
S113345009F49AC2B3E0FB1278C1F8012081253740
S113346019F0273609F071C1612C7724739453E65F
S1133470C52E59E7D52E61E2A62EB12C882483945B
S1133480912CE62CF12CC701880F991F9C01225C1A
S1133490374C7901D9018D919C91009781F0F80105
S11334A061810E94DB11882351F06FEA78E3D70130
S11334B08D919C910E94641132E0632E1EC0B1E094
S11334C06B121AC0E72DF0E0DF01AA0FBB1FA55E47
S11334D0B64CCD92DC92DF01AA0FBB1FA55AB64CA5
S11334E0AD92BC92EE0FFF1FE556F64C808291829E
S11334F0F8011082739401C0612C6394F1E06F169B
S113350009F4BFCFD8018C91882309F494C3E091C6
S11335102C38F0E0EE0FFF1FE352F64C6AED78E32F
S1133520808191810E946411E090F838F090F9381C
S1133530B1E0EB16F10409F09AC098012E5F3F4FF9
S113354040E061E08091EA389091EB380E94541099
S1133550F801428121E0270D872D90E0413309F0E5
S11335606BC03091BA3851EE530FFC01EE0FFF1FC0
S1133570E55EF64C543060F043E059E740835183F4
S1133580FC01EE0FFF1FE55AF64C4AE150E064C01F
S11335906DE875E760837183FC01EE0FFF1FE55A48
S11335A0F64C62EB70E060837183880F991FFC0115
S11335B0E556F64CE082F182822F90E0FC01EE0F9A
S11335C0FF1FE55EF64C6BE57AE760837183FC01CF
S11335D0EE0FFF1FE55AF64C62E070E060837183E2
S11335E0880F991FFC01E556F64CE082F18282E0D7
S11335F0870D90E0F3E07F0EFC01EE0FFF1FE55E08
S1133600F64C6FEA78E760837183FC01EE0FFF1FCD
S1133610E55AF64C62E170E060837183880F991F6C
S1133620FC01E556F64CE082F18240930A3930936E
S11336300B3910920C39FFC2FC01EE0FFF1FE55E3F
S1133640F64C4FE356E740835183FC01EE0FFF1F16
S1133650E55AF64C42E450E040835183880F991FA9
S1133660FC01E556F64CE082F182722EE4C29091A0
S1133670E3388091BA3898132FC0209100393091E3
S11336800139FF24F394F70C872D90E0FC01EE0F31
S1133690FF1FE55EF64C4091F2385091F3384083B9
S11336A05183FC01EE0FFF1FE55AF64C2083318352
S11336B0880F991FFC01E556F64C10821182809107
S11336C0043990E080933A3890933B388091E43801
S11336D00E94C80A7F2CAFC2D8018C91853799F417
S11336E0872D90E0FC01EE0FFF1FE55EF64C23E012
S11336F039E720833183FC01EE0FFF1FE55AF64CB6
S11337002AE130E015C0873609F095C2872D90E094
S1133710FC01EE0FFF1FE55EF64C2CED36E720832F
S11337203183FC01EE0FFF1FE55AF64C28E230E02E
S113373020833183880F991FFC01E556F64C81E004
S113374090E080839183739476C26AED78E30E945B
S11337506411F8018081843769F58091E23883FD32
S11337604AC08DE199E780931D3990931E398EE10B
S113377090E080935D3990935E3981E090E080938E
S11337809D3990939E398091F4389091F538209129
S1133790E6383091E73820931F39309320398093ED
S11337A05F399093603910929F391092A039E3E009
S11337B07E2E41C2853769F48091E23884FD1BC0B6
S11337C083E099E780931D3990931E398AE190E054
S11337D0F9CA823769F48091E23885FD0CC088EE1D
S11337E098E780931D3990931E398BE190E0EACAE3
S11337F0873609F452CAE090F838F090F938F1E0CD
S1133800EF16F10411F598012E5F3F4F40E061E09F
S11338108091EA389091EB380E945410D8011296A6
S11338208C91813309F08ACC82E695E780931D3927
S113383090931E398BE290E080935D3990935E39CA
S1133840E0929D39F0929E39C7CAE114F10409F45B
S113385059C08091EA389091EB3880931D39909348
S11338601E39E0925D39F0925E3910929D391092C2
S11338709E398BE59AE780931F399093203982E033
S113388090E080935F399093603981E090E0809379
S11338909F399093A0392FEA38E720932139309348
S11338A0223922E130E020936139309362398093E8
S11338B0A1399093A2398091FA389091FB384097BE
S11338C030F08FE090E08093FA389093FB382AE050
S11338D039E340E06091FA388091EC389091ED380A
S11338E00E9454106AE079E38091FA380E944710EC
S11338F0E091FA38F091FB38E65FF64C108274E000
S1133900772E99C18091E1380E94D20A882301F16F
S113391080910039909101392091F2383091F33837
S113392020931D3930931E3980935D3990935E390D
S113393010929D3910929E398091043990E08093C1
S11339403A3890933B388091E4380E94C80A44CABC
S11339508091FE389091FF382091F0383091F13801
S113396020931D3930931E3980935D3990935E39CD
S113397010929D3910929E398091033990E0809382
S11339803A3890933B3828CAF8018081843711F083
S1133990873619F48BE399E702C08FE499E78093A3
S11339A01D3990931E3984E190E00CCA813609F0E8
S11339B0C5CB80910939823008F4CBC0D801119667
S11339C02C91222309F4B2C0FE0131967F0188E0D4
S11339D0DF011D928A95E9F72153F8012183328191
S11339E0315332838381813611F481E008C08536F6
S11339F011F4138208C0863621F483E0F80183832E
S1133A0002C082E0838321FD04C080E090E0DC01F9
S1133A1004C080E090E0A0E1B0E020FF03C09F5F1D
S1133A20AF4FBF4FF801238121FD119620FF03C042
S1133A304096A11DB11D31FF03C0905FAF4FBF4F32
S1133A4030FF03C00196A11DB11D40913D3824E013
S1133A5030E0241B310904C0880F991FAA1FBB1F23
S1133A602A95D2F725E035E720931D3930931E3986
S1133A7020E230E020935D3930935E3921E030E07C
S1133A8020939D3930939E394AED54E740931F3972
S1133A905093203942E050E040935F3950936039AD
S1133AA020939F393093A03967E0D62EF701ED0DAE
S1133AB0F11D282F2F70208354E0B695A795979574
S1133AC087955A95D1F70097A105B10551F42BE1DB
S1133AD0A22E29E3B22E33E0732E88248394912CF2
S1133AE002C0DA94E3CFB2E0AB0EB11CE7E0ED150F
S1133AF008F49FC07394F701ED0DF11D808190E0EF
S1133B0086539B48D50114968D939C931597F50184
S1133B10EC5BFF4F80829182E05CFF4F8082918258
S1133B208091E4380E94C80AD394DDCF85E295E7FA
S1133B3080931D3990931E398DE390E080935D3915
S1133B4090935E3981E090E080939D3990939E3903
S1133B506EC0E0912C38F0E0EE0FFF1FE352F64CFC
S1133B606AED78E3813009F046C0808191810E943A
S1133B7064118091E1380E94D20A882301F1809176
S1133B800039909101392091F2383091F338209323
S1133B901D3930931E3980935D3990935E391092AC
S1133BA09D3910929E398091043990E080933A387F
S1133BB090933B388091E4380E94C80A38C08091C1
S1133BC0FE389091FF382091F0383091F1382093ED
S1133BD01D3930931E3980935D3990935E3910926C
S1133BE09D3910929E398091033990E080933A3840
S1133BF090933B381CC0808191810E9464118DE9AF
S1133C0098E780931D3990931E3982E190E0809368
S1133C105D3990935E3981E090E080939D39909373
S1133C209E390E94D90D809307399093083982E018
S1133C30782E10920A398BE59AE780931B3990937A
S1133C401C3982E090E080935B3990935C3981E089
S1133C5090E080939B3990939C3980910A39882312
S1133C6019F070921A399BC0872D12C08BE59AE720
S1133C7080931B3990931C3982E090E080935B39E8
S1133C8090935C3981E090E080939B3990939C39C8
S1133C900E94E81080931A3982C083ED99E792CD8F
S1133CA0B2E0FB120C944D16D80111966C910E944F
S1133CB0DB11882309F45BC080E090E0880F991F32
S1133CC09C01225C374C79016AED78E3D9018D912E
S1133CD09C910E94641183ED97E780931D39909322
S1133CE01E3980E190E080935D3990935E3981E0E4
S1133CF090E080939D3990939E392091F4383091CF
S1133D00F5384091E6385091E73840931F39509385
S1133D10203920935F393093603910929F39109283
S1133D20A0392BE53AE7209321393093223922E058
S1133D3030E020936139309362398093A1399093B4
S1133D40A23926E937E720932339309324392DE328
S1133D5030E020936339309364398093A33990938E
S1133D60A439F70110821182F5E07F2E64CF80918F
S1133D70403890914138009749F0F80161810E94E0
S1133D80DB11882319F081E090E098CF83E699E76E
S1133D9080931D3990931E3981E290E013C8D801B5
S1133DA01C92109244381DBA80E02896CDBFDEBF25
S1133DB0DF91CF911F910F91FF90EF90DF90CF9003
S1133DC0BF90AF909F908F907F906F905F90089579
S1133DD0CF938091073990910839892B09F10E947A
S1133DE0D90D20910739309108398217930708F4C7
S1133DF0945CAC01421B530B9A014B30510530F0DB
S1133E0010920739109208392AE030E080913C384A
S1133E10811106C065E0621B8AE0821B0E94AB0B25
S1133E200E94BA12882311F0C1E018C00E9428131E
S1133E30C82F8111F9CF8091073990910839892BC6
S1133E4069F48EE698E30E946F13C82F811105C0B0
S1133E508EE698E30E941E1601C0C2E08C2FCF911B
S1133E6008950E9489058FEF0E941909A4E0B0EC1F
S1133E7081E0ED91F0E0E653F54C80831596EC91EA
S1133E801597F0E0E653F54C808320ECAA30B20796
S1133E9081F7E6EFFFEB91E0EF01A581B0E0A653D7
S1133EA0B54C81E09C933196A881B0E0A653B54C03
S1133EB09C932FEBEB3FF20779F7E09102C0F0E01F
S1133EC0E653F54C8083E09103C0F0E0E653F54CF3
S1133ED08083E09100C0F0E0E653F54C8083E091EC
S1133EE001C0F0E0E653F54C8083E091F4BFF0E0CC
S1133EF0E653F54C8083E091F5BFF0E0E653F54CD2
S1133F008083E091F3BFF0E0E653F54C8083E091C9
S1133F10F2BFF0E0E653F54C80830E94190B8FE367
S1133F2091E080933A3890933B38CFE1D0E00E94FF
S1133F30A20C8823E1F3809109380E9448098093F8
S1133F400938109242388091A000823119F40E94FD
S1133F50390902C00E942A090E94E90B39DF0E9434
S1133F607D040E9431030E947E0E0E947A000E940A
S1133F70270A8091BD3A9091BE3A0A9720F461E0F5
S1133F8084E70E94AE0A8091BD3A9091BE3A85368C
S1133F90910520F060E084E70E94AE0A8091BD3A6A
S1133FA09091BE3A880F892F881F990B9195FE0135
S1133FB0E81BF90BE05FFF438081819580930B3808
S10D3FC00E94460BB4CFF894FFCF23
S1133FCA2D7D39575C79514234617D593B655B4497
S1133FDA01000002010200010103000301030100C0
S1133FEA01020101010301000D0B0C0A0201050083
S1133FFA030424222123082009251412111310155D
S113400A1C1A191B181D010D1926323E4A56626FD5
S113401A78838E98A2ABB4BFC5CFD4DBE1E7ECF0CA
S113402AF4F7FAFCFEFF0101020102020102020195
S113403A020202020201010202040003000000015A
S113404A6964647164007468652074726F75626C63
S113405A652077697468207265616C206C6966658D
S113406A2069732C2074686572652773206E6F202B
S113407A726573657420627574746F6E0063686523
S113408A617400436865617465722120436F6E74BC
S113409A616374206261646765207465616D2E2EA4
S11340AA2E2000526573657420706C6561736521F6
S11340BA200074BFFA541C96B2261EEBD68BC0C2DB
S10540CA0A6185
S11340CCFF00FFFF0138383838FF01FF01FF010002
S11340DC01FF8080C0FF40FFC0804001C0014080D0
S11140EC0001D40103070F1F3F7FFF05FF00F3
S9030000FC
