:100000004FC000006AC0000068C0000066C0000069
:1000100064C0000062C0000098C70000EAC700008A
:10002000D2C500005AC0000058C0000056C00000F1
:1000300054C0000019C600004AC600004EC00000AF
:100040004CC000004AC0000048C0000046C000008C
:1000500008C7000042C0000030C700003EC00000DA
:100060003CC000003AC0000038C0000083C6000059
:10007000DCC6000032C0000030C00000AB0BD90B62
:10008000EB0BA60CA60CFA0B070C450C6C0CA60C83
:10009000A60CA60CA60CA60CA60CA60CA60CD90B9E
:1000A00011241FBECFEFCDBFDFE3DEBF18E3A0E01A
:1000B000B8E3ECE9FFE302C005900D92A633B10767
:1000C000D9F72BE3A6E3B8E301C01D92AB31B20729
:1000D000E1F70E94961E0C94741F92CF28ED30E039
:1000E00089E04091CB3A50E0421753074CF04091E1
:1000F000CB3A50E0B9016E5E7F4F641775072CF460
:100100008150295131098111ECCF0895CF93DF93AC
:10011000809139388F5F80933938C4E6D1E08C2FD5
:100120000E941B0A811101C0D0E0CF5FC836B9F729
:10013000DD2319F08CE70E94F9098091383882306C
:1001400020F094E0909342380DC081110BC0909143
:100150004238943061F41092423810924038109234
:10016000413805C09091C83A9111F1CF18C0811162
:1001700016C09091C83A911112C08091433893E310
:10018000899F802D11248093003880E098E380932C
:100190000338909304388FEF8093BF3A09C0982FAB
:1001A000907F31F08F5F8F7080933838109239389C
:1001B0004091CB3A2091003830E050E0B9016A50CC
:1001C000710980913838461757075CF04091CB3A57
:1001D00050E0265F3F4F241735071CF0823008F4AB
:1001E00043C081110BC08091C83A811195C08091A4
:1001F0003938883008F490C080EF63C0813041F511
:100200006DDF80933738882379F1909139389830B1
:1002100008F482C090914338913011F4835014C097
:10022000923031F4833091F085508230E8F40EC082
:10023000933039F49CEF980F923040F08730A1F45E
:1002400005C0943089F48550833070F481EF39C053
:10025000823069F08330C1F1843009F05DC0809153
:100260003938803408F458C01092383855C087E0C7
:1002700090E08093403890934138809139388830AD
:1002800038F02FEF44E668E080E8FAD78093003832
:10029000809139388A3F08F43FC08091433890916B
:1002A0003738981B90933638891710F489EF04C0BB
:1002B00093E3899F802D11248093003880913838F2
:1002C000806F8093383828C080913938883020F189
:1002D00005DF8093373890913638482F50E02091D1
:1002E0004338291708F4292F30E02B5F3F4F42177E
:1002F000530709F0B9CF83E6890F0E94F9098FE10E
:1003000090E08093403890934138609143388091D9
:1003100036380E94E80AD2CF80E0DF91CF9108956D
:1003200081E080932204E6E2F4E0808310923004BE
:10033000A1E2B4E092E09C93908310923104E0E15A
:10034000F8E097E0968398E0948383838C9385818B
:10035000816085838581846C8583089580911408EC
:100360008860809314081092130882E0809322041E
:1003700099E021E081E02093210430E13A95F1F702
:1003800000C02093220430E13A95F1F700C091506B
:1003900089F728E0209314088093130892E0909343
:1003A000210490911508916090931508909115087B
:1003B000946C9093150820931408809313088093ED
:1003C000210480911508816080931508809115089B
:1003D000846C809315080895282F90911508906CCF
:1003E0009093150890911508892F847092FD03C091
:1003F00020931708089584E008958CE08093693A6B
:100400008091150887FD0AC08091150886FD06C0F9
:100410008091693A8111F4CF8FEF0895809115088A
:10042000806C809315088091150882FD09C0809129
:10043000150883FD07C08091150882958170089585
:1004400084E0089582E00895FC018CE08093693A8D
:1004500090911508892F8370823011F088E00895FB
:100460009091150897FD06C09091693A9111F8CFC7
:100470008FEF089590911508906C909315089091C6
:10048000150892FD1EC09091150893FD1DC0909116
:100490001508892F807194FD16C090911408611180
:1004A00002C09B7F01C0946090931408909118083B
:1004B0009083611109C09091140892609093140880
:1004C000089584E0089581E00895FC018CE0809314
:1004D000693A9091150893709230B1F480818093BD
:1004E00018088091150886FD06C08091693A81112F
:1004F000F8CF8FEF08958091150882FD07C0809195
:10050000150882958170089588E0089584E0089523
:10051000E0E1F8E08481836084830895CF92DF92E4
:10052000FF920F931F93CF93DF936B01F42EE9019A
:10053000182F110F812F50DF81112BC05EDF81300A
:1005400019F4E6DF81E027C0811123C0FF2049F0C4
:10055000C601BBDF81111DC08FEFC81AD80AFA94FB
:10056000F5CF013408F000E41F5F10931708023044
:1005700040F060E0CE0168DF81110BC02196015090
:10058000F6CF61E0CE0160DF811103C0C1DF80E002
:1005900002C0E4DE8FEFDF91CF911F910F91FF90AA
:1005A000DF90CF90089580914238833089F46AE0DB
:1005B00070E080913A3890913B380E94750E882304
:1005C00039F01092423810924038109241389EC053
:1005D0008BE731D781119AC080914238882319F076
:1005E000833009F093C0809108388F3F09F48EC0A2
:1005F00090910738891709F489C00E94660E80938C
:100600003A3890933B38809107388F3F09F07EC08D
:1006100080914238833021F48091023881FF0EC0EE
:1006200083E08093423810923D3810923C3881E04C
:100630008093023860E080E00E94260B80913D3874
:10064000E82FF0E0E450F14420819091083829131C
:1006500012C090910238917090930238E09117BFC8
:10066000F0E0E453F54C1082E09116BFF0E0E45363
:10067000F54C108208C010920238811104C082E04B
:100680008093423843C08F5F80933D3880913C38DF
:100690008F5F80933C38682F9BD780913C388430A3
:1006A000A8F110923C3880910238813019F560E051
:1006B00080E08ED780913D38E82FE695F0E0E65E49
:1006C000F044A481B0E090910C38A453B54C9C93B5
:1006D000E581F0E090910C38E453F54C90838C3038
:1006E000A9F48BE786D682E490E08093403890931B
:1006F00041380CC082608093023881E390E080939F
:1007000040389093413860E080E062D780E00895FF
:1007100010925138109252381092503881E08093E4
:100720000D3810924F3860E080E090C70895CF9365
:10073000DF93EC0197FF03C0D195C195D109CD336B
:10074000D10544F080914238811104C0E1DF81E09D
:100750008093423880914238813009F5CC33D105FD
:100760001CF460E080E01AC0C837D1051CF461E0D9
:1007700081E014C0C639D1051CF462E082E00EC0ED
:10078000C83CD1051CF463E083E008C0CC32D14002
:100790001CF464E084E002C065E085E019D7DF91D5
:1007A000CF910895CF93DF9380914238813071F4D7
:1007B0006AE070E080914D3890914E380E94750E3D
:1007C000882321F0A5DF10924238E5C087EF33D6A9
:1007D0008111E1C08DE72FD68111DDC080914238B3
:1007E000823008F0D8C08091F43A9091F53A892B84
:1007F00041F48091C43A9091C53A8093F43A909331
:10080000F53AC091C43AD091C53A8091F43A9091AA
:10081000F53AC81BD90BCE018ADF8091543881305C
:1008200089F018F08230C1F01FC0C43D9EEFD90797
:1008300014F491E004C0CD32D1405CF092E090938A
:10084000533812C0CD3291E0D907C4F7C938DF4F11
:1008500084F31092533808C0C43D9EEFD9074CF37F
:10086000C837D105B4F3EACFC09108BFEC2FF0E050
:1008700090915338992319F020910C3801C020E051
:10088000E453F54C20832FE931E020934038309336
:100890004138891709F47FC00E94660E80934D3855
:1008A00090934E389091523880915338911108C0EE
:1008B000882331F091E0813009F490E090934F3833
:1008C00080935438882309F466C08091423881119E
:1008D00001C01EDF81E08093423880914F38209123
:1008E0005438882311F083E0282730E08091523873
:1008F000E82FF0E0EA5AF044408150E02417350731
:1009000091F490910D38917090930D38E09117BF4C
:10091000F0E0E453F54C1082E09116BFF0E0E453B0
:10092000F54C108202C010920D388F5F80935238C0
:10093000909150389F5F933018F4909350382BC0AB
:100940001092503890910D389130E1F490915138D7
:10095000E92FF0E0E65EF044E681F0E020910C380B
:10096000E453F54C20839F5F90935138823199F482
:100970008DE73FD5EC2FF0E0E453F54C108282E494
:1009800090E005C0C5DE1092423881E390E080938C
:1009900040389093413880E0DF91CF910895CF9314
:1009A000DF93F89488ED84BFC1E0C09361008AE4CE
:1009B000809300048CE7809320049FE3909340048D
:1009C000809153048068809353048091540480681C
:1009D00080935404809155048068809355048091DD
:1009E000330480688093330480913404806880935A
:1009F000340480913504806880933504C0930102EB
:100A0000D2E0D09305042BE531E020930808309321
:100A1000090880EA8093050880EC8093060883E04B
:100A2000809307081CBA1DBA1FBAC093030A88E056
:100A30008093000A9093020287E78093010AC09393
:100A40000A0A8BE08093050A8091000A81608093F6
:100A5000000A85E08093400A1092410A8FEF91E0EE
:100A600080934C0A90934D0A1092450AC093500A05
:100A70001092510A8BE893E080935C0A90935D0A90
:100A8000C093550A4DDC82E18093A00080E2809300
:100A9000A200C093A100D093000684E480930206D4
:100AA0008EE180930606C0930A068091000681605D
:100AB00080930006C093080610924006D09341062A
:100AC00082E58093420684E0809345068093460643
:100AD000C0934A0680914006816080934006C0938F
:100AE000480680E48093A00680E88093A106809168
:100AF000A00681608093A0068091410180FDFCCF1B
:100B000080E380934001109247018091410182FD72
:100B1000FCCF80E098E780934A0190934B0180914D
:100B200048019091490182968093F83A9093F93A5E
:100B300020914A0130914B018091F83A9091F93A15
:100B40002817390770F420914A0130914B018091A8
:100B5000F83A9091F93A821B930B8093F83A90936C
:100B6000F93A8091410183FDFCCF8091F83A909150
:100B7000F93A80934C0190934D0183E080934201B8
:100B800081E08093520188E080935001809141017F
:100B900080FDFCCF80914001816080934001809175
:100BA000500181608093500110927E3A8EE79AE363
:100BB0008093C23A9093C33A8FEF80933E387894F3
:100BC000DF91CF9108951F920F920FB60F921124CB
:100BD0008F939F93AF93BF93EF93FF9387E080939F
:100BE000460484E480932604ECB388E0E89FF00197
:100BF0001124E453F54CA8E2BAE096E081918D937C
:100C00009A95E1F78BE08093050A8CB3833058F412
:100C10008CB391E001C0990F8A95EAF799B98CB32A
:100C200083958CBB0AC08CB3833021F42A9A8395B8
:100C30008CBB03C02E9A88278CBB8091693A88238D
:100C400029F08091693A81508093693A8FEF8093BF
:100C50000B0AFF91EF91BF91AF919F918F910F90F0
:100C60000FBE0F901F9018951F920F920FB60F9204
:100C700011248F939F93EF93FF93E091C23AF091E9
:100C8000C33A8081882391F080818093020880910B
:100C9000C23A9091C33A01968093C23A9093C33A74
:100CA0008091050880628093050805C081E08093EB
:100CB00009381092450A81E08093460AFF91EF912E
:100CC0009F918F910F900FBE0F901F9018951F92BC
:100CD0000F920FB60F9211242F933F934F938F9340
:100CE0009F93EF93FF93E0910538F0910638808150
:100CF000811108C0809103389091043880930538A1
:100D000090930638E0910538F09106388081882369
:100D1000E1F020814091BF3A30E02F573109429FE6
:100D2000C001439F900D1124892F990F990B805872
:100D30009F4F8093A10680910538909106380196C7
:100D4000809305389093063806C08FEF8093BF3AA2
:100D500080E88093A10681E08093560AFF91EF918D
:100D60009F918F914F913F912F910F900FBE0F90B8
:100D70001F9018951F920F920FB60F9211248F9308
:100D8000EF93FF9380914C38811144C0EDB3F0E0B4
:100D900080910008E258F54C8083EDB3F0E0E25812
:100DA000F54C808180930208EDB3F0E0E258F54CF9
:100DB00080818A3039F0EDB3F0E0E258F54C808163
:100DC0008D3049F4EDB3F0E0E258F54C108281E04B
:100DD00080934C381FC0EDB3F0E0E258F54C8081B1
:100DE000883039F0EDB3F0E0E258F54C80818F3770
:100DF00059F48DB3882341F0EDB3F0E0E258F54C9F
:100E000010828DB3815005C08DB3803418F48DB33A
:100E10008F5F8DBB80E880930408FF91EF918F91E5
:100E20000F900FBE0F901F9018951F920F920FB644
:100E30000F9211248F93EF93FF9310924A0A10920E
:100E40004B0A81E08093450AE5E0F8E080818F7DE0
:100E50008083FF91EF918F910F900FBE0F901F90A5
:100E600018951F920F920FB60F9211248F939F9394
:100E700080913E38811112C0809106068E3149F46E
:100E800080911006909111068093F63A9093F73A6C
:100E90000AC0809110068093CB3A05C080913E38FD
:100EA000815080933E3881E080930B069F918F9113
:100EB0000F900FBE0F901F9018951F920F920FB6B4
:100EC0000F9211248F939F938091460681110AC03F
:100ED00080915006909151068093C63A9093C73AFC
:100EE00081E010C080914606813079F488E08093DB
:100EF000060480915006909151068093C43A9093D5
:100F0000C53A84E08093460610C0809150069091C7
:100F100051068093C03A9093C13A8FB38F3029F431
:100F20001092460688E0809305048FB390E0019606
:100F30008F7099278FBB81E080934B069F918F9193
:100F40000F900FBE0F901F9018951F920F920FB623
:100F50000F9211242F933F938F939F93809143017E
:100F600081FF36C0809148388F3F29F08091483802
:100F70008F5F809348388091480190914901829613
:100F80008093F83A9093F93A20914A0130914B01BD
:100F90008091F83A9091F93A2817390758F420913E
:100FA0004A0130914B018091F83A9091F93A821BB5
:100FB000930BE6CF8091410183FDFCCF8091F83AFD
:100FC0009091F93A80934C0190934D0182E006C0D4
:100FD000809149388F5F8093493881E08093430145
:100FE0009F918F913F912F910F900FBE0F901F9067
:100FF00018951F920F920FB60F9211248F939F9303
:1010000091E09093480680914B388F5F80934B38E6
:10101000909353019F918F910F900FBE0F901F904F
:1010200018959091021091FDFCCFFB01480F841799
:1010300039F0A82FB0E0BC5E9C9191938F5FF7CF01
:1010400008959DE924E033E0442309F15091021012
:1010500051FDFCCF94BF20930010E82F582F5F71F3
:101060008F5F6F5F7F4FDB011197AC91F0E0FC5E0B
:10107000A083415019F0E82F5F3181F794BF30937E
:1010800000105091021052FFDFCF81E0089580E000
:101090000895F9019C012E1B3F0B88E0489FA00199
:1010A00011244A5B5044662369F0DF01A20FB31F8D
:1010B000A770BB27A40FB51F80819C91982791939F
:1010C0006150F1CF0895A2E0B0E0E9E6F8E00C94B9
:1010D0004B1FD62EC42E59017C01E894F7F8F982F3
:1010E000EA82062F42E0BE016F5F7F4F80E516DA8D
:1010F000182F811105C095014C2D6D2DC701C9DF39
:10110000812F2296EAE00C94641F20910938222353
:1011100059F08093C23A9093C33A1092093881E013
:101120008093450A80E0089581E00895282F811179
:1011300001C021E08FEF90E0821B9109982F882752
:1011400081509F4F80934C0A90934D0A08958FEFE2
:1011500080933E3882E18093A000E0E0F6E0808159
:101160008B7F80838EE18093060608958FEF8093B6
:101170003E3882E28093A000E0E0F6E08081846067
:10118000808387E08093060608958091C03A90910D
:10119000C13A24E0969587952A95E1F799278036FC
:1011A000910540F48F34910588F4C097099790F425
:1011B00092E011C08537910568F08E38910540F0B6
:1011C0008E599109819730F490E005C093E003C0F7
:1011D00091E001C09FEF80912B38981719F0909300
:1011E0002B388FEF089580916338909164389C017B
:1011F000322F22273295330F307E822793279C018E
:10120000232F33272695822793279C013695322F4B
:1012100022273795279582279327809363389093C9
:1012200064380895A0E0B0E0E8E1F9E00C944E1FC6
:101230007B018A01C0915C0AD0915D0AE82FF0E041
:101240003197E770FF27E45DF74CD080CCDF8D212C
:10125000C80FD11DC8DF8D21C81BD1090C171D0770
:1012600008F4E801C701EC16FD0608F4CE018093EE
:101270005C0A90935D0ACDB7DEB7E7E00C94671F78
:101280000F931F93CF93DF93C82FD42F022FE62FF6
:10129000F0E03197E770FF27E45DF74C1081A3DFA2
:1012A0008123C80FA0DF8123C81B8C2F002341F0AE
:1012B0009C2F0C1708F4902F8D2FD91708F4892F25
:1012C00041E050E08D1710F040E050E02D2F30E06D
:1012D00024233523232B09F08D2FDF91CF911F91EC
:1012E0000F910895CF92DF92FF920F931F93CF93A8
:1012F000DF93CDB7DEB76497CDBFDEBF44E1BE015B
:101300006F5F7F4F80E08DDE8AE6C82E8AE3D82E9D
:101310008E010F5F1F4FF12CF80181918F01F601B3
:101320009081981308C0F394FFEFCF1ADF0A80E191
:10133000F812F2CF08C041E0B6018F2D82DE88237B
:1013400091F391E036C02091443830914538309384
:101350007A3A20937B3A809146389091473890931F
:101360007C3A80937D3A89899A899827892798279A
:101370002817390769F48B899C899827892798272A
:1013800020914638309147382817390749F410C062
:1013900042E06AE77AE380E154DE882361F3D1CF4B
:1013A00042E06CE77AE382E14CDE91E0811101C01A
:1013B00090E0892F6496CDBFDEBFDF91CF911F9162
:1013C0000F91FF90DF90CF900895E82FEF77E6958B
:1013D000E695E695F0E0E659F54C208130E087701F
:1013E000A90102C0559547958A95E2F7CA01817017
:1013F0000895E82FEF77F1F0E695E695E695282F2A
:101400002770F0E0E659F54C87FF0BC0822F90E083
:1014100021E002970CF420E020958081282320838E
:10142000089581E090E001C0880F2A95EAF7908145
:10143000892B80830895CF93C82F8F77C6DF2C2FF9
:10144000221F2227221F91E0811101C090E0822FEC
:101450008927CF910895E3E0F1E180E09191890F30
:10146000ED3091E1F907D1F7837091E0980F9093F7
:1014700043380895CF93EAE6FAE311928AE3EE3710
:10148000F807D9F7E8DFC82F811102C08EE60BC03C
:10149000813011F48FE607C0823011F480E703C079
:1014A000833011F481E7A5DF84E68C0FA2DFCF91B2
:1014B0000895CF93DF9344E16AE67AE380E0B1DDFB
:1014C000CEE6D0E08C2F81DFD80FCF5FC237D1F7C7
:1014D000D13011F0CFDF01C0BEDF80917A3A909118
:1014E0007B3A9827892798278093443890934538EA
:1014F00080917C3A90917D3A98278927982780930C
:10150000463890934738DF91CF910895CF9386E77F
:1015100092DFC82F882381F0E0910ABFF0E0E45306
:10152000F54C1082E0910BBFF0E080910C38E45351
:10153000F54C8083C1E049C085E77DDF882349F110
:10154000E0910ABFF0E080910C38E453F54C8083C1
:1015500080916038882371F08091C93A9091CA3A9D
:101560002091F63A3091F73A80962817390710F013
:1015700086E72AC08091C93A9091CA3A2091F63AFA
:101580003091F73A08968217930718F081E080931C
:1015900060388091C93A9091CA3A892B41F4809180
:1015A000F63A9091F73A8093C93A9093CA3A80916B
:1015B000C93A9091CA3A2091F63A3091F73A80961A
:1015C0002817390710F085E714DF8C2FCF91089585
:1015D000ECE0FFEB90E0A581B0E0981734F42091A7
:1015E0000C38A453B54C2C9303C0A453B54C1C9297
:1015F000A081B0E0961734F420910C38A453B54C78
:101600002C9303C0A453B54C1C929F5F3196953028
:1016100011F70895A6E1BFEBEC91F0E0E453F54C2F
:1016200080831296EC911297F0E0E453F54C6083BE
:101630001196EC911197F0E0E453F54C80831396EA
:10164000EC91F0E0E453F54C60830895AAE1BFEB20
:10165000ED91F0E0E453F54C80831596EC911597ED
:10166000F0E0E453F54C60839FEBA032B90781F7BB
:101670000895A0E0B0E0EFE3FBE00C944D1F8091F3
:101680004238882329F080E4D6DE811124C050C07E
:10169000CAE1DFEB1AE7812FCEDEEE81F0E088238E
:1016A00059F080910C38E453F54C8083E881F0E0E8
:1016B000E453F54C10820AC0E453F54C1082E881E3
:1016C000F0E080910C38E453F54C80831F5F219645
:1016D000103809F7D8CF80916238982F9D7FE0911C
:1016E00009BFF0E0913011F0853021F490910C3871
:1016F000969506C0823011F0843031F490910C3808
:10170000E453F54C90830CC0882311F0863029F403
:1017100090910C3896959695F3CFE453F54C108242
:10172000803220F48F5F8093623802C0109262385A
:10173000909161389F5F90936138E0914038F091CB
:101740004138EF71FF27E231F10508F0FFC0E25C9C
:10175000FF4F0C943D1F60E080E03ADFE09116BF40
:10176000F0E0E453F54C1082E09118BFF0E0E45350
:10177000F54C1082E0910ABFF0E0E453F54C108282
:10178000E09117BFF0E0E453F54C1082E09119BFEF
:10179000F0E0E453F54C1082E0910BBFF0E0E4532D
:1017A000F54C1082E09108BFF0E0E453F54C108254
:1017B000CDC0892F817090FD80910C3860E02ADFC8
:1017C000809140389091413884FFC0C080910C389E
:1017D00060E03CDFBBC0692F70E093FF02C0609502
:1017E000709595E0660F771F9A95E1F7615E80E04E
:1017F00011DFACC0892F837009F0A8C092FF03C02D
:1018000065E085E002C060E080E0E2DE9FC09530E8
:1018100010F01092613840916138242F30E0F901C6
:10182000E45FF044E581F0E0E453F54C108244308D
:1018300019F0C901019602C080E090E0FC01E45F6C
:10184000F044E581F0E080910C38E453F54C80835E
:10185000E0E1FFEBE21BF30BE081F0E0E453F54C39
:101860001082443029F083E090E0821B930B02C089
:1018700084E090E0FC01E45FF044E081F0E08091DE
:101880000C38E453F54C808361C0CCE0DFEB81E1A0
:10189000E82E8FEBF82E6E010D8110E0A4DC87FF9F
:1018A00003C080910C3801C080E0F801E453F54C8E
:1018B00080832196F601008110E095DC87FF03C04C
:1018C00080910C3801C080E0F801E453F54C80832E
:1018D000EC16FD0601F73AC090FD38C0ECE0FFEBD6
:1018E00080E19FEB9F01A581B0E0C681D0E0C453A9
:1018F000D54C4881A453B54C4C933196E901A8814D
:10190000B0E0C081D0E0C453D54C2881A453B54C7D
:101910002C938E179F0731F7C09115BFD0E063DC81
:10192000813E18F080910C3801C080E0C453D54C42
:101930008883C09110BFD0E056DC813E18F08091C2
:101940000C3801C080E0C453D54C8883CDB7DEB7D6
:10195000E8E00C94661FE0910338F0910438908120
:101960009923A1F120914B3890914A3830E0291BFE
:10197000310980958770A90102C0559547958A95D0
:10198000E2F7CA01442311F13091BF3A431730F412
:101990009091BF3A981B9093BF3A14C01092BF3AEF
:1019A000662381F08FE398E38093033890930438A3
:1019B00080914038909141388F71992780934038B9
:1019C0009093413880914B3880934A3808950F9313
:1019D0001F93CF93DF938091CB3A893108F062C196
:1019E000C1E0C093C83A809140389091413888272F
:1019F000892B09F00DC18091403890914138807E4B
:101A00009927892B49F48FE398E3809303389093C7
:101A1000043810925F3848C1809140389091413825
:101A2000807E9927809761F520E041E065E080E8BD
:101A300027DC80931C3880915F38811114C080E0CE
:101A400091E280935C0A90935D0A8AE198E3809327
:101A50000338909304388FEF8093BF3AC0935F3878
:101A600084E080935E3880915E38811104C060917B
:101A70005F3884E070DF40E052E260E070E20FC166
:101A80008091403890914138807E9927803491052B
:101A9000C1F580915F38811114C080E09AE0809395
:101AA0005C0A90935D0A87E198E3809303389093F2
:101AB00004388FEF8093BF3AC0935F3884E08093FF
:101AC0005E3880915E38811104C060915F3884E097
:101AD00042DF80914838882309F4E6C080915C0A8F
:101AE00090915D0A8058910980935C0A90935D0AF9
:101AF0008091BF3A8111D8C010924038109241387D
:101B0000D3C08091403890914138807E99278036AB
:101B10009105B9F510925D3887E598E38093033815
:101B2000909304388C01C1E0C33039F020E041E0EB
:101B300065E080E8A5DBF8018183CF5F0F5F1F4F71
:101B4000C63091F780914838882309F4ADC040E051
:101B500054E060E872E085E065DB8091BF3A20EAFE
:101B600040E162E08DDB8093BF3A20E940E762E02C
:101B70008091573885DB80935738809580935A3809
:101B800093C08091403890914138807E9927803869
:101B9000910509F489C08091403890914138807E48
:101BA0009927803A910579F580915F38811114C0A9
:101BB00080E090E280935C0A90935D0A81E198E373
:101BC00080930338909304388FEF8093BF3AC0938B
:101BD0005F388AE080935E3880915E38811104C05E
:101BE00060915F3882E0B7DE80914838882309F43D
:101BF0005BC0C1E1D8E3F7DA81608993F8E3C731CC
:101C0000DF07C9F751C080914038909141384CC0EE
:101C1000809140389091413888278115914009F092
:101C200043C08091403890914138807E9927813916
:101C30009105D0F580915F38811122C080914038A4
:101C400090914138807E9927019626E0880F991F50
:101C50002A95E1F7809355389093563880935C0A23
:101C600090935D0A8EE098E3809303389093043854
:101C70008FEF8093BF3AC0935F3883E080935E38E4
:101C800080915E38811104C060915F3887E063DE27
:101C90006091553870915638AB015D5F7E5F81E091
:101CA000C1DA02C01092C83A80914838882339F0CE
:101CB00080915E38882319F0815080935E3880913E
:101CC0004838DF91CF911F910F910895809148017D
:101CD0009091490120914938892F992786953CE3B5
:101CE000239F800D911D112408950F931F93CF936F
:101CF000DF938C01EB01EADF9C018017910708F468
:101D0000345CC00FD11F81E0C217D30708F080E018
:101D1000DF91CF911F910F910895A4E0B0E0E3E926
:101D2000FEE00C94531F19821A821B821C82AAE1C6
:101D3000BFEB80E29FEB2FEFED91F0E0E453F54C29
:101D400020838A179B07C1F78091C63A9091C73AC2
:101D5000898399272091C63A3091C73A33272817AB
:101D60003907C1F3E0911BBFF0E0E453F54C10825A
:101D70008091C03A9091C13A80389C40C8F3E0917C
:101D80001EBFF0E0E453F54C10829E012F5F3F4FE1
:101D900040E064E08CEC9CE396D989818F3349F470
:101DA0008A81811106C08B81803C19F48C81843139
:101DB00009F0FFCF80E090E0FC01E453F54C108285
:101DC000019688329105C1F72091C63A3091C73A01
:101DD0008091F63A9091F73A820F931F880F991FDE
:101DE0008160809363389093643880E02496E2E0C9
:101DF0000C946C1FCF93DF93ECE0FFEBEF01A58118
:101E0000B0E0A453B54C1C923196A881B0E0A45325
:101E1000B54C1C929FEBE131F90781F7833099F4BF
:101E2000E09111BFF0E080910C38E453F54C8083D1
:101E3000E09112BFF0E080910C38E453F54C8083C0
:101E4000E09113BF2EC0813059F4E09114BFF0E04F
:101E500080910C38E453F54C8083E09115BF21C08C
:101E6000843099F4E0910CBFF0E080910C38E45399
:101E7000F54C8083E0910DBFF0E080910C38E45385
:101E8000F54C8083E0910EBF0CC0823081F4E0916C
:101E90000FBFF0E080910C38E453F54C8083E09163
:101EA00010BFF0E080910C38E453F54C8083DF9153
:101EB000CF910895CF93DF93809142388D7F09F0C1
:101EC00069C18AE7B8DA882341F0809142388230CC
:101ED00009F060C1109242385DC18BE7ACDA88230B
:101EE00039F0809108388F3F19F082E080934238B2
:101EF0008091653881110CC0CBE6D8E374D983702A
:101F0000899388E3C737D807C9F781E0809365389C
:101F100080916538813071F480914238823051F47B
:101F20008093653810926A38109269381092683838
:101F30001092663880916538823029F58091683832
:101F4000863038F0809166388F5F809366381092C3
:101F50006838E0916638E63058F083E08093653861
:101F6000109268381092663860E080E06FDB12C132
:101F7000F0E0E65EF044E081F0E080910C38E4535C
:101F8000F54C80832BC0833049F5809168388830C8
:101F900038F0809166388F5F809366381092683889
:101FA000E091663880916A388E1740F41092693853
:101FB00085E08093653880E01DDF98C080916838A7
:101FC000833030F4F0E0E559F74C80818F5F12DF09
:101FD00080916838873010F080E00CDFC091653860
:101FE000C53009F086C0809108389091073898175D
:101FF00009F471C09091673891116FC0843008F076
:102000006CC091E090936738109268388F5FF2DE71
:1020100084E080936538C093343880916938E82F24
:10202000F0E0E559F74C20819091083829131DC044
:102030008F5F80936938E0916A38E817A0F5EF5F09
:10204000E0936A381092683810926638E13059F09F
:10205000E695F0E0E65EF044E581F0E080910C3832
:10206000E453F54C808383E01CC080E290E08093D1
:10207000403890934138AAE1BFEBED91F0E08091B8
:102080000C38E453F54C80838FEBA032B807A9F7E6
:102090001092693810926A38109268381092663837
:1020A00086E080933438809169388C3020F48091B8
:1020B0006A388C3090F082E490E0809340389093BE
:1020C00041388AE796D9109268381092663887E0CE
:1020D0008093343802C01092673880916838883C09
:1020E00041F483E080936538109266381092683826
:1020F00051C080916538843081F480916838873090
:1021000060F080E077DE10926738109268381092A5
:102110006638809134388093653880916538863090
:1021200041F580916838843038F0809166388F5F4F
:10213000809366381092683880916638863040F017
:10214000109268381092663887E08093653822C014
:10215000E5E0F0E0E81BF109E65EF044A081B0E0C4
:10216000A453B54C1C92E681F0E0E453F54C108288
:102170000CC0873051F41092693810926A3810926E
:1021800065381092423880E035DE809168388F5F84
:102190008093683880E0DF91CF910895A2E1B0E0AC
:1021A000E4EDF0E10C94521F8A8B80E1ECEEFEEB43
:1021B000DE01119601900D928A95E1F7FE013196AC
:1021C00090E08FEF219131912617370709F4892F7D
:1021D0009F5F9830B9F7883010F080E014C018E1A4
:1021E000180F41E0BE016F5E7F4F812F0E941108E2
:1021F00089898F3F91F741E0BE016E5E7F4F812F4D
:102200000E94210881E06296E3E00C946B1F262F68
:10221000FB0135E59E2F921B981728F4908192952B
:1022200093279193F7CF08958F5F883030F4E82F8C
:10223000F0E0EF5AF54C1082F7CF0895AC0190E032
:10224000E92FF0E0DA01AE0FBF1F3C91E60FF71F58
:10225000311105C081E09081992349F007C02081A8
:102260002223C1F3321302C09F5FEACF80E00895BA
:10227000CF93DF93FC016115710559F1A9E5BAE32C
:10228000C1E5DAE380E09FEF6F3F710569F060F030
:10229000ED93FD939993E150FF4F6F5F71098F5F4D
:1022A000873091F781E01EC0282F30E0D901AA0FB6
:1022B000BB1FA75AB54CED93FC936F3F710511F40A
:1022C0006EEF70E0F901EF5AF54C608340934F3A9E
:1022D00005C01092593A10925A3A80E0A5DF109248
:1022E000503A80E0DF91CF910895CF93DF93282F6C
:1022F00030E0F901EE0FFF1FEC5DF64CA9E5BAE7FF
:10230000A083B183F901EE0FFF1FEC59F64C62E098
:1023100070E060837183220F331FF901EC55F64C96
:1023200041E050E04083518321E0280F30E0F90183
:10233000EE0FFF1FEC5DF64CC2E6DAE7C083D183F7
:10234000F901EE0FFF1FEC59F64CCCE0D0E0C08352
:10235000D183220F331FF901EC55F64C4083518392
:10236000E2E0E80FF0E0EE0FFF1FEC5DF64C20EF2F
:102370003FEF2083318323E0280F30E0F901EE0F97
:10238000FF1FEC5DF64CA083B183F901EE0FFF1F38
:10239000EC59F64C60837183220F331FF901EC5521
:1023A000F64C4083518324E0280F30E0F901EE0F12
:1023B000FF1FEC5DF64CA5E5BAE7A083B183F901F8
:1023C000EE0FFF1FEC59F64C60837183220F331F11
:1023D000F901EC55F64C408351838B5FDF91CF912F
:1023E0000895AF92BF92DF92EF92FF920F931F93E7
:1023F000CF93DF93CDB7DEB72C97CDBFDEBF7C0187
:102400008B019E012F5F3F4F40E06CE080960E9461
:10241000630889819A819827892798278096F801EF
:10242000808391838B819C81982789279827809628
:1024300082839383DE0115963496C8010C962D9104
:102440002193E817F907D9F7FCE2EF0EF11C5801C8
:10245000D12C9E012F5F3F4F40E063E0C7010E94F7
:10246000630889819A8198278927982797012E5F89
:102470003F4F43E04D1580F4AC0141505109F80144
:10248000428F538FF3E0EF0EF11CF801E486F586DE
:102490004B81F50144A305C0F801828F938F2487F7
:1024A00035877C01E20EF31ED3940E5F1F4FFFEFC2
:1024B000AF1ABF0A47E0D412CCCF2C96CDBFDEBFF7
:1024C000DF91CF911F910F91FF90EF90DF90BF9020
:1024D000AF900895A0E2B0E0E0E7F2E10C944D1F68
:1024E000C62E7C0120E2E20EF11C9E012F5F3F4FC1
:1024F00040E062E08C960E9463081A81D12C11237F
:1025000059F1012F113208F000E29E012F5F3F4F79
:1025100040E0602FC7010E960E946308FE013196CD
:1025200080E0DD2061F0E1E0F0E0EC0FFD1FE80F5E
:10253000F11D9081906281E09C110EC00EC09191BE
:10254000DD24D3949B3509F0D12C8F5F801748F39D
:10255000E00EF11C101BD3CF80E0A096E8E00C94B5
:10256000661FAF92BF92DF92EF92FF920F931F937D
:10257000CF93DF9300D000D0CDB7DEB7D62E5A016F
:102580009E012F5F3F4F40E064E080960E94630809
:10259000E980FA80FE24EF24FE240B811C811027A1
:1025A000012710270E151F0548F5A016B10660F08B
:1025B0009E012F5F3F4F40E062E0C80180960E947D
:1025C000630809811A81EBCF9E012F5F3F4F40E0E6
:1025D00061E0C80185960E9463088981811103C06A
:1025E000D11006C00EC00E941B0A8111F9CFE0CFA6
:1025F0006D2DC8016FDF8823D9F203C080E090E021
:1026000001C0C8012496CDBFDEBFDF91CF911F91DD
:102610000F91FF90EF90DF90BF90AF900895806290
:102620009FE9980F9A3138F090ED980F81E09A3039
:1026300018F080E0089581E008950F931F93CF93E1
:10264000DF938C01D0E0C0E0F801ED0FF11D808137
:102650002C2F30E0882361F0D801A20FB31F8C9398
:1026600080818B3129F0DBDF8111CF5FDF5FECCF21
:10267000F801E20FF31F10828C2FDF91CF911F9191
:102680000F910895CF932091503A283008F049C017
:1026900080910938882309F444C0822F90E0FC011E
:1026A000EF5AF54CE081E11106C010920F3988E035
:1026B0008093503A2EC050910F395E1760F5CE2F9F
:1026C000C51BC13208F0C0E2880F991FFC01E75A10
:1026D000F54C808191812AEF3AE340914F3A6C2F7B
:1026E000850F911D0E94630880910F398C0F809394
:1026F0000F39EC2FF0E0E650F54C10828091FA3A59
:10270000811103C08BED8093FA3A8AEF9AE30E941D
:10271000850881E00BC010920F392F5F2093503A4B
:10272000F8CF9091093881E0911180E0CF91089520
:10273000CF93DF93C0912339CC23B1F1C150C09323
:102740002339D0910E392D2F30E0F901EE0FFF1F04
:10275000EC5DF64C80819181803F4FEF940751F4FE
:1027600060913E3A70913F3A40E08091303A9091CA
:10277000313A0DC0D901AA0FBB1FAC55B64C220F80
:10278000331FF901EC59F64C608171814C9170DD79
:10279000DF5FD0930E39C11106C01DBA10924C38BC
:1027A00010920E3901C0C1E08C2FDF91CF910895B6
:1027B000AAE0B0E0EEEDF3E10C94461F8C018091AD
:1027C00035388F3F49F464E27AE38091E43990919F
:1027D000E53907DE1092353880914C38882309F4AA
:1027E000D4C180911339882309F44FC01092123953
:1027F00081E6F801808363E179E38EE79AE31EDDE9
:10280000F82E882321F081E08093123904C0809152
:102810001339813311F0F12CBAC18091153981112E
:10282000FACF8EE79AE309DF92E090931239F8012C
:102830001182823080F380917E3A813360F38091FF
:102840007E3A853340F780917F3A806280937F3A69
:1028500080917F3A813661F080917F3A853641F0F0
:1028600080917F3A863621F080917F3A873799F6BA
:10287000809114398F5EF801818380917E3A828342
:1028800080917F3A8383148282C180917E3A833221
:1028900089F58DB3863071F581E090E010E0FC01A0
:1028A000E258F54C208120532083110F212F220F55
:1028B000220F120F20917F3A233048F420812A30D2
:1028C000B8F42081120F01968430910541F7812FD1
:1028D0008F7771F08091823A6091833A70E0782B23
:1028E000812F80955BDC882319F0812F0E94F909E4
:1028F00081E048C1D80180E090E0FC01E258F54C4D
:102900002081213418F020812B3510F0208102C065
:10291000208120622C932081211105C0F801E80F4D
:10292000F11D108205C0019611968134910529F799
:1029300080917E3AF801811105C010821DBA109273
:102940004C3823C180818F3311F0883649F483E9F4
:102950009BE780932639909327398DE694E00AC04F
:102960008136A1F48EE69AE7809326399093273931
:1029700085E291E0809366399093673981E090E039
:102980008093A6399093A73982E0FCC0873709F07D
:1029900041C08DE896E7809326399093273982E1EC
:1029A00090E0809366399093673921E030E020937E
:1029B000A6393093A7398091433890E0FC01EE0F9F
:1029C000FF1FEE56F04440815181880F991FFC0192
:1029D000E657F0448081918180932839909329397A
:1029E00040936839509369392093A8393093A939B5
:1029F0008FE596E780932A3990932B398AE190E00E
:102A000080936A3990936B392093AA393093AB390C
:102A100084E0B8C068E67FEBC80110DC882319F1B8
:102A20008EEE0E94F9098FEE0E94F90980EF0E9454
:102A3000F90981EF0E94F9090E94720989E0EBE728
:102A4000FFEBDE01119601900D928A95E1F78CE380
:102A50000E949608809109388823E1F3CE010196FF
:102A60000E948508F7CF6EE67FEBC801E7DB88237D
:102A700081F18FEF8A8718E141E0BE01665F7F4FE9
:102A8000812F0E9421081F5F1032B1F78EEE0E9445
:102A9000F9098FEE0E94F90980EF0E94F90981EF90
:102AA0000E94F9090E94720988E0E4E8FFEBDE0168
:102AB000119601900D928A95E1F78CE30E94960899
:102AC000809109388823E1F3CE0101960E948508A0
:102AD000F7CF65E77FEBC801B1DB882309F49BCE14
:102AE00084E2C82E89E3D82E94E6E92E99E3F92EE4
:102AF00004EA19E328E1522EAA24A394B12C47E555
:102B0000842E4AE7942E52E0652E712C41E0BE01DE
:102B10006F5F7F4F852D0E94110889818095898381
:102B2000282F22952F7030E023573B48F601208351
:102B30003183F701A082B182F801A082B1828F7047
:102B400090E083579B48F60182839383F701A2822A
:102B5000B382F801A282B382F60184829582F701E2
:102B600064827582F801A482B5825394F6E0CF0E98
:102B7000D11C86E0E80EF11C0A5F1F4FE0E25E12F6
:102B8000C5CF88E1B2DB80932339FF24F3948F2DE6
:102B90002A96EFE00C945F1FABE2B0E0E2EDF5E1C6
:102BA0000C944A1F99249394980E90E0FC01EE0F28
:102BB000FF1FEC5DF64C2CEC37E720833183FC01E2
:102BC000EE0FFF1FEC59F64C26E130E020833183F5
:102BD000880F991FFC01EC55F64C81E090E0808352
:102BE000918304E418E337E5E32E3AE7F32E42E05D
:102BF000C42ED12CAA24A394B12CF80181919191D7
:102C00008F010097C9F1BE016F5F7F4FEADB2B8D0B
:102C10003C8D892D90E0FC01EE0FFF1FEC5DF64C22
:102C20004D855E8540835183FC01EE0FFF1FEC59FB
:102C3000F64C20833183880F991FFC01EC55F64C2C
:102C40001082118281E0890D90E093949394FC01AD
:102C5000EE0FFF1FEC5DF64CE082F182FC01EE0FFF
:102C6000FF1FEC59F64CC082D182880F991FFC01DE
:102C7000EC55F64CA082B182F8E308341F0709F046
:102C8000BCCF8FEF890DAB96EBE00C94631FA8E0EF
:102C9000B0E0EDE4F6E10C94471F3C01CEDCC3014B
:102CA000CCDCF82E29E53AE72093243930932539F6
:102CB00084E090E0809364399093653901E010E0FE
:102CC0000093A4391093A539FF2009F454C7D30108
:102CD0008C91883709F045C080913538E82FF0E0B5
:102CE000EE0FFF1FEC51F64C20813181232B11F0A8
:102CF000811103C084E496E713C580912A3A0E94AB
:102D00001B0A8823B9F0E0913538E150E09335385B
:102D1000F0E0EE0FFF1FEC51F64C64E27AE38081A5
:102D200091815FDB8091283A90E0809340389093C6
:102D300041382AC28091463A9091473A2091383AD8
:102D40003091393A20932639309327398093663968
:102D5000909367391092A6391092A73980914C3A16
:102D6000A9C5853619F08F3609F0DEC0B2E0FB1236
:102D7000C1CF0091353810E0F801EE0FFF1FEC5184
:102D8000F64C40E050E0D30111966C918081918126
:102D9000E8DB000F111FF801EA51F64C80839183A4
:102DA00090913538292F30E0F901EE0FFF1FEA51DD
:102DB000F64C408151814115510521F063EE78E3D5
:102DC000CA011CC0992309F4DCC6220F331FF90184
:102DD000EE51F64CD30111966C91808191817ADB92
:102DE000882309F4CEC6E0913538F0E0EE0FFF1FDE
:102DF000EE51F64C63EE78E380819181F2DAD301F3
:102E00008C918536C1F48091EB3880FD1DC08DE931
:102E100099E780932639909327398EE190E080934B
:102E200066399093673981E090E08093A63990935A
:102E3000A73912E097C68F3639F48091EB3881FDBF
:102E400003C082E899E76CC48091E9380E941B0AAC
:102E5000E0913538882309F449C0AE2FB0E0AA0FBD
:102E6000BB1FAA51B64C8D919C91892B11F0EF5F3D
:102E700001C0E150E0933538E0913538F0E0EE0FD5
:102E8000FF1FEC51F64C64E27AE380819181A9DA6C
:102E90008091403A9091413A2091323A3091333AC0
:102EA0002093263930932739809366399093673978
:102EB0001092A6391092A73989E59AE780932839AC
:102EC0009093293982E090E0809368399093693932
:102ED00081E090E08093A8399093A9398091283AB5
:102EE00090E0809340389093413807C4F0E0EE0FB3
:102EF000FF1FEA51F64C10821182809105399091A2
:102F000006392091F7383091F838209326393093DC
:102F1000273980936639909367391092A6391092B9
:102F2000A73980910B39C6C48C3609F059C1E0919C
:102F30003538B1E0FB12F1C08091403A9091413AAE
:102F40004091323A5091333A409326395093273981
:102F500080936639909367391092A6391092A739F9
:102F6000209328393093293982E090E080936839A2
:102F7000909369390093A8391093A9398BEE99E79A
:102F800080932A3990932B3985E190E080936A39B8
:102F900090936B390093AA391093AB39F0E0EE0FA0
:102FA000FF1FEA51F64C1082118214E0912E07E5C2
:102FB000E02E0AE7F02E82E0C82ED12CAA24A3949A
:102FC000B12C8091353890E08C01000F111F0A510F
:102FD000164CF80140815181880F991FFC01EC517A
:102FE000F64C60E080819181BCDAD8018D939C938E
:102FF000E0913538F0E0EE0FFF1FEA51F64C80818A
:103000009181009709F44AC02091443830914538A5
:103010008217930709F442C020914638309147380F
:1030200082179307D9F163EE78E3DBD98091FD38FD
:103030009091FE38E92DF0E0DF01AA0FBB1FAC5DD7
:10304000B64C2091EF383091F0382D933C93DF014E
:10305000AA0FBB1FAC59B64C8D939C93EE0FFF1F6C
:10306000EC55F64C1082118281E0890D90E093942A
:103070009394FC01EE0FFF1FEC5DF64CE082F182B1
:10308000FC01EE0FFF1FEC59F64CC082D182880F75
:10309000991FFC01EC55F64CA082B1822091353885
:1030A000822F90E0FC01EE0FFF1FEA51F64C4081A9
:1030B0005181452B09F085CF222361F1880F991F9B
:1030C000FC01EE51F64C63EE78E38081918189D961
:1030D0002091FD383091FE3811E0190D892D90E0D6
:1030E000FC01EE0FFF1FEC5DF64C4091EF38509164
:1030F000F03840835183FC01EE0FFF1FEC59F64C72
:1031000020833183880F991FFC01EC55F64C108207
:10311000118228C51FEF190D25C5EE2EF12CF701E0
:10312000EE0FFF1FEC51F64C40E050E0D30111963A
:103130006C918081918115DAF701EE0FFF1FEA5142
:10314000F64C8083918390913538292F30E0F90136
:10315000EE0FFF1FEA51F64C408151814115510598
:1031600021F063EE78E3CA011CC0992381F1220F9C
:10317000331FF901EE51F64CD30111966C91808109
:103180009181A8D9811102C011E0ECC4E0913538D9
:10319000F0E0EE0FFF1FEE51F64C63EE78E3808116
:1031A00091811FD98091FF38909100392091F13899
:1031B0003091F2382093263930932739809366393D
:1031C000909367391092A6391092A73932CE81EDCB
:1031D00099E780932639909327398AE190E0C9C214
:1031E000803709F092C08091443890914538892BFE
:1031F00079F08091463890914738892B49F087E0E3
:1032000098E7809326399093273989E590E0B1C2F9
:10321000B2E0FB126FCD0091353810E0F801EE0FEF
:10322000FF1FEC51F64C40E050E0D30111966C9139
:103230008081918196D9000F111FF801EA51F64C57
:10324000808391832091353830E02F5F3F4F220FEC
:10325000331FF901EC51F64C80819181009709F4FC
:1032600038C340914438509145388417950739F058
:10327000409146385091473884179507C1F482EE43
:1032800097E7809326399093273985E290E08093E1
:1032900066399093673981E090E08093A6399093E6
:1032A000A739F901EC51F64C10821182C2CD63EEC0
:1032B00078E397D88091EA380E941B0A882309F4A2
:1032C000E3C28091EE38882309F414CD809144380C
:1032D00090914538E0913538F0E0EE0FFF1FEA514C
:1032E000F64C892B39F080819181809346389093F8
:1032F000473806C080819181809344389093453847
:103300008091ED380E94F9092BC08436D9F4809160
:10331000443890914538009709F03CC48091463874
:1033200090914738892B49F486EA97E780932639AC
:103330009093273986E290E072CDB2E0FB1609F453
:103340008BC4D8CC893681F480914438909145382B
:10335000892B31F48091463890914738892B21F39D
:1033600081E01ADC182FFEC39CE8980F923028F0F9
:10337000873619F0823709F0B5C28EEF8F0D823093
:1033800008F0B8CCE09135380E2F10E0D301AF0D26
:10339000B11D1197F801EE0FFF1FEC51F64C40E004
:1033A00050E06C9180819181DCD8F801EE0FFF1F15
:1033B000EA51F64C80839183E0913538F0E0EE0FCE
:1033C000FF1FEA51F64C80819181009709F478C281
:1033D000F3E0FF1260C1D3012C91253719F0273695
:1033E00009F059C100E011E041E6C42E49E7D42EAE
:1033F00051E2A52EB12C88248394912CE02EF12C3F
:10340000C701880F991FFC01EC5BF74C7F0180819D
:103410009181009779F0D30111966C915BD8882344
:1034200049F068EB78E3F701808191810E94F11106
:1034300002E01DC00130D1F4E12FF0E0DF01AA0F5E
:10344000BB1FAC5DB64CCD92DC92DF01AA0FBB1F57
:10345000AC59B64CAD92BC92EE0FFF1FEC55F64C3A
:1034600080829182D3011C921F5F01C000E00F5F38
:10347000013021F2F3018081882309F473C3E091C4
:103480003538F0E0EE0FFF1FEA51F64C63EE78E3BB
:10349000808191810E94F111E0900139F090023910
:1034A000F1E0EF16F10409F089C093012E5F3F4F60
:1034B00040E061E08091F3389091F4380E94630815
:1034C000D30112963C91313309F04CC32091C3389B
:1034D00051EE520F41E0410F812F90E0FC01EE0FC1
:1034E000FF1FEC5DF64C5430B0F021E039E720834B
:1034F0003183FC01EE0FFF1FEC59F64C2AE130E05E
:1035000020833183880F991FFC01EC55F64CE08233
:10351000F182142F27C360E575E760837183FC0196
:10352000EE0FFF1FEC59F64C62EB70E06083718385
:10353000880F991FFC01EC55F64CE082F182842F34
:1035400090E0FC01EE0FFF1FEC5DF64C49E55AE7F9
:1035500040835183FC01EE0FFF1FEC59F64C42E013
:1035600050E040835183880F991FFC01EC55F64CC5
:10357000E082F18282E0810F90E01D5FFC01EE0F9E
:10358000FF1FEC5DF64C4DEA58E740835183FC0188
:10359000EE0FFF1FEC59F64C42E150E0408351839F
:1035A000880F991FFC01EC55F64CE082F1823093B4
:1035B00013392093143910921539D4C29091EC38F4
:1035C0008091C33898132EC02091093930910A395F
:1035D00001E0010F812F90E0FC01EE0FFF1FEC5D79
:1035E000F64C4091FB385091FC3840835183FC01EC
:1035F000EE0FFF1FEC59F64C20833183880F991F83
:10360000FC01EC55F64C1082118280910D3990E04E
:1036100080934038909341388091ED380E94F909A9
:10362000102FA0C2F3018081853799F4812F90E09B
:10363000FC01EE0FFF1FEC5DF64C21E039E7208323
:103640003183FC01EE0FFF1FEC59F64C2AE130E00C
:1036500015C0873609F086C2812F90E0FC01EE0F7D
:10366000FF1FEC5DF64C2FE936E720833183FC0128
:10367000EE0FFF1FEC59F64C28E230E02083318337
:10368000880F991FFC01EC55F64C81E090E0808397
:1036900091831F5F67C263EE78E30E94F111D3014B
:1036A0008C91843761F58091EB3883FD43C08BE1C9
:1036B00099E780932639909327398EE190E08093A3
:1036C00066399093673981E090E08093A6399093B2
:1036D000A7398091FD389091FE382091EF383091D4
:1036E000F0382093283930932939809368399093A2
:1036F00069391092A8391092A93913E033C285377D
:1037000039F48091EB3884FD15C081E099E73BC224
:10371000823769F48091EB3885FD0CC086EE98E71E
:1037200080932639909327398BE190E078CB8736C8
:1037300009F4E0CA009101391091023901301105F4
:1037400009F593012E5F3F4F40E061E08091F3382F
:103750009091F4380E946308F3018281813309F06B
:1037600013CD85E295E780932639909327398BE234
:1037700090E080936639909367390093A63910934F
:10378000A73957CB0115110509F458C08091F338BA
:103790009091F438809326399093273900936639B5
:1037A000109367391092A6391092A73989E59AE7E4
:1037B000809328399093293982E090E0809368398A
:1037C0009093693981E090E08093A8399093A9396A
:1037D0002DEA38E720932A3930932B3922E130E063
:1037E00020936A3930936B398093AA399093AB391F
:1037F0008091033990910439409730F08FE090E048
:10380000809303399093043923E139E340E06091D8
:1038100003398091F5389091F6380E94630863E18E
:1038200079E3809103390E940711E0910339F09107
:103830000439ED5EF64C108214E094C18091EA38B0
:103840000E941B0A882301F18091093990910A395D
:103850002091FB383091FC3820932639309327395A
:1038600080936639909367391092A6391092A739E0
:1038700080910D3990E08093403890934138809149
:10388000ED380E94F909D5CA80910739909108391D
:103890002091F9383091FA3820932639309327391E
:1038A00080936639909367391092A6391092A739A0
:1038B00080910C3990E08093403890934138B9CA98
:1038C000D3018C91843711F0873619F489E399E795
:1038D00002C08DE499E7809326399093273984E1DB
:1038E00090E09DCA813609F04FCC80911239823028
:1038F00008F4C7C0F3012181222309F4AFC0CE012F
:1039000001967C0188E0D7011D928A95E9F7205342
:1039100021833281315332838381813611F481E0F6
:103920000CC0853619F4F301138208C0863619F4E9
:1039300083E0838303C082E0F301838321FD04C01D
:1039400080E090E0DC0104C080E090E0A0E1B0E025
:1039500020FF03C09F5FAF4FBF4FF301238121FDC5
:10396000119620FF03C04096A11DB11D31FF03C079
:10397000905FAF4FBF4F30FF03C00196A11DB11D37
:103980004091433824E030E0241B310904C0880F03
:10399000991FAA1FBB1F2A95D2F728EC34E7209362
:1039A00026393093273920E230E02093663930936E
:1039B000673921E030E02093A6393093A7394DE9EB
:1039C00054E7409328395093293942E050E040931E
:1039D0006839509369392093A8393093A93907E0A1
:1039E000F701E00FF11D282F2F70208344E0B695DA
:1039F000A795979587954A95D1F70097A105B105A9
:103A000049F424E2C22E29E3D22E13E0AA24A3947F
:103A1000B12C02C00150E4CFB2E0CB0ED11C083073
:103A200008F09EC01F5FF701E00FF11D808190E05C
:103A300083579B48D60114968D939C931597F60156
:103A4000EC5BFF4FA082B182E05CFF4FA082B182AD
:103A50008091ED380E94F9090F5FDECF88EE94E780
:103A600080932639909327398DE390E080936639CF
:103A70009093673981E090E08093A6399093A739BD
:103A80006EC0E0913538F0E0EE0FFF1FEA51F64CC2
:103A900063EE78E3813009F046C0808191810E9415
:103AA000F1118091EA380E941B0A882301F180916C
:103AB000093990910A392091FB383091FC382093D4
:103AC000263930932739809366399093673910925D
:103AD000A6391092A73980910D3990E08093403833
:103AE000909341388091ED380E94F90938C0809157
:103AF0000739909108392091F9383091FA3820939C
:103B0000263930932739809366399093673910921C
:103B1000A6391092A73980910C3990E080934038F3
:103B2000909341381CC0808191810E94F11180E600
:103B300098E780932639909327398DE490E080931D
:103B400066399093673981E090E08093A63990932D
:103B5000A7390E94660E809310399093113912E0B4
:103B60001092133980911339882319F01093233957
:103B70008BC0812F01C081E00E9475118093233991
:103B800083C081ED99E780932639909327398AE1A4
:103B900090E045C9F2E0FF12ADC8F30161810E94D7
:103BA0006A12882309F458C000E010E0000F111FCA
:103BB0000C5B174C63EE78E3D8018D919C910E94C9
:103BC000F11186E997E7809326399093273980E1B0
:103BD00090E0809366399093673981E090E080931C
:103BE000A6399093A7392091FD383091FE38409145
:103BF000EF385091F0384093283950932939209369
:103C00006839309369391092A8391092A93929E599
:103C10003AE720932A3930932B3922E030E0209381
:103C20006A3930936B398093AA399093AB3929E57F
:103C300037E720932C3930932D392DE330E0209352
:103C40006C3930936D398093AC399093AD39F8016C
:103C50001082118215E086CF8091463890914738C6
:103C6000009749F0F30161810E946A12882319F0DC
:103C700001E010E09BCF81E699E78093263990938D
:103C8000273981E290E0CBC8F301108210924C38C2
:103C90001DBA80E02896EEE013C1CF9380911039D1
:103CA00090911139892B09F10E94660E20911039EB
:103CB000309111398217930708F4945CAC01421BD0
:103CC000530B9A014B30510530F01092103910927D
:103CD00011392AE030E080914238811106C065E058
:103CE000621B8AE0821B0E94E80A0E94421388231A
:103CF00011F0C1E018C00E949813C82F8111F9CFAC
:103D00008091103990911139892B69F487E798E3F4
:103D10000E94D813C82F811105C087E798E30E943D
:103D2000471601C0C2E08C2FCF9108950E94CF04A6
:103D30000E94590A80916A3A816080936A3A0E948F
:103D40008D0EC09108BFD0E0C453D54C0FE110E0F8
:103D50000E94E70C8823E1F38091083880930738AC
:103D60000E94C508809308388F3FA9F02091403801
:103D700030914138207E232B51F420E2829FC001F4
:103D80001124815C9E4F80934038909341388091FC
:103D90000C38888301C01882809148388150809304
:103DA00048388091A000823119F40E94B60802C000
:103DB0000E94A7080E94390B70DF0E94D2030E9464
:103DC000D3020E945A0F0E9486000E9472098091BD
:103DD000C63A9091C73A0A9718F484E70E94F90905
:103DE0008091C63A9091C73A8536910518F084EFD4
:103DF0000E94F90920910A3830910B3880910A38D5
:103E000090910B3846E0369527954A95E1F7821B4D
:103E1000930B80930A3890930B3880910A389091D5
:103E20000B38939580930A3890930B382091C63ABB
:103E30003091C73A80910A3890910B38220F232F86
:103E4000221F330B3195F801E21BF30BEA5DF044BE
:103E50002081821B910980930A3890930B388091BE
:103E60000A3890910B3866E0969587956A95E1F748
:103E700080930C380E94860A6BCFEE0FFF1F0590CF
:103E8000F491E02D09942F923F924F925F926F929E
:103E90007F928F929F92AF92BF92CF92DF92EF92DA
:103EA000FF920F931F93CF93DF93CDB7DEB7CA1B5B
:103EB000DB0BCDBFDEBF09942A88398848885F8430
:103EC0006E847D848C849B84AA84B984C884DF80BA
:103ED000EE80FD800C811B81AA81B981CE0FD11D9E
:0C3EE000CDBFDEBFED010895F894FFCFC8
:103EEC002D7D39575C79514234617D593B655B447A
:103EFC000100000201020001010300030D0B0C0A7A
:103F0C000201050003042422212308200925141290
:103F1C00111310151C1A191B181D010D1926323EF0
:103F2C004A56626F78838E98A2ABB4BFC5CFD4DBF0
:103F3C00E1E7ECF0F4F7FAFCFEFF74BFFA541C96C0
:103F4C00B2261EEBD68BC0C20A610101020102022D
:103F5C00010202010202020202010102696464719F
:103F6C006400696B696C6C7500636865617400470B
:103F7C006F746368612120005265736574212000A1
:103F8C00877684767E767976060003000600050037
:103F9C00FF00013F383F38FFFF01FF1FFF01FF010A
:103FAC0000FFC080400100FF010001FF8080C0FFC6
:103FBC0040FFC0804001C001408000FF0103070F9B
:063FCC001F3F7FFF05FF0F
:00000001FF
