S00E00004953525F494F2E7372656331
S113000046C0000061C000005FC000005DC0000089
S11300105BC0000059C00000BFC700000C94230857
S1130020FCC5000051C000004FC000004DC00000DE
S11300304BC0000043C6000074C6000045C0000069
S113004043C0000041C000003FC000003DC00000AC
S11300502FC7000039C0000057C7000035C000009A
S113006033C0000031C000002FC00000AAC6000049
S113007003C7000029C0000027C00000F50B230CB3
S11300802A0CD90CD90C3E0C500C7B0C9F0C11245F
S11300901FBECFEFCDBFDFE3DEBF18E3A0E0B8E3C0
S11300A0E2E2F1E402C005900D92A033B107D9F762
S11300B02BE3A0E3B8E301C01D92A231B207E1F73C
S11300C00E94AF1F0C9439209BCF28ED30E089E0CB
S11300D04091C23A50E0421753074CF04091C23A63
S11300E050E0B9016E5E7F4F641775072CF48150A0
S11300F0295131098111ECCF0895EF92FF920F93AA
S11301001F93CF93DF93C4E6D1E08C2F0E94540A4F
S1130110811101C0D0E0CF5FC836B9F7DD2319F0F3
S11301208CE70E944A0A80913338823050F094E080
S113013090933C382FE130E020933A3830933B38A9
S11301400CC081110AC090913C38943031F4109263
S11301503C3810923A3810923B389091BF3A911142
S1130160FEC0811111C090913D3823E3929F902DE0
S113017011249093003820E038E32093033830931F
S113018004389FEF9093B63A4091C23A20910038D8
S113019030E050E0B9016A5071094617570764F01E
S11301A04091C23A50E0265F3F4F2417350724F0B0
S11301B0823008F040C0D1C081110AC08091323829
S11301C08F5F80933238883008F4C9C081E07EC0E4
S11301D0813089F57ADF80933138882349F1909111
S11301E032389F5F90933238983008F4B8C09091B9
S11301F03D38913029F483508330B8F482E066C0EE
S1130200923031F48330D1F38550823070F4F6CFDC
S1130210933039F49CEF980F923080F3873029F4AF
S1130220EDCF943011F48550E7CF1092333850C09D
S11302301092323892C0823009F04DC08091323829
S11302408F5F80933238C2EAD0EC7E010D8110E0DA
S1130250FDD787FF03C080910C3801C080E0F8010E
S1130260ED53F54C80832196F701008110E0EED721
S113027087FF03C080910C3801C080E0F801ED5382
S1130280F54C8083F0ECC73ADF07F9F680913238F9
S1130290883040F02FEF44E668E080E80E94770958
S11302A080930038809132388A3F08F458C0909186
S11302B03D3880913138891B80933038981710F479
S11302C089EF01C081E08093003883E08093333864
S11302D01092323844C08330F9F4809132388F5F01
S11302E0809332388830D8F1F0DE8093313885300D
S11302F009F09BCF809130388D590E944A0A809131
S11303003D388D590E944A0A60913D3880913038B9
S11303100E942E0B84E0DACF843009F580913238C4
S11303208F5F809332388034D0F0E2EAF0EC87EAD1
S113033090ECEF01A581B0E0AD53B54C1C92319621
S1130340A881B0E0AD53B54C1C928E179F0789F776
S11303501092333810923C3802C01092333880E047
S1130360DF91CF911F910F91FF90EF90089581E05D
S113037080932204E6E2F4E0808310923004A1E248
S1130380B4E092E09C93908310923104E0E1F8E0B1
S113039097E0968398E0948383838C93858181602E
S11303A085838581846C8583089580911408886091
S11303B0809314081092130882E08093220499E039
S11303C021E081E02093210430E13A95F1F700C067
S11303D02093220430E13A95F1F700C0915089F757
S11303E028E0209314088093130892E0909321044A
S11303F09091150891609093150890911508946C4C
S11304009093150820931408809313088093210473
S11304108091150881608093150880911508846C7B
S1130420809315080895282F90911508906C909347
S1130430150890911508892F847092FD03C02093AC
S11304401708089584E008958CE08093603A8091C1
S1130450150887FD0AC08091150886FD06C08091A5
S1130460603A8111F4CF8FEF089580911508806C64
S1130470809315088091150882FD09C080911508A4
S113048083FD07C08091150882958170089584E0EA
S1130490089582E00895FC018CE08093603A909185
S11304A01508892F8370823011F088E008959091A7
S11304B0150897FD06C09091603A9111F8CF8FEF1F
S11304C0089590911508906C9093150890911508D3
S11304D092FD1EC09091150893FD1DC090911508C2
S11304E0892F807194FD16C090911408611102C087
S11304F09B7F01C094609093140890911808908396
S1130500611109C0909114089260909314080895A1
S113051084E0089581E00895FC018CE08093603AC2
S11305209091150893709230B1F4808180931808EB
S11305308091150886FD06C08091603A8111F8CF3C
S11305408FEF08958091150882FD07C080911508EA
S113055082958170089588E0089584E00895E0E12B
S1130560F8E08481836084830895CF92DF92FF92C0
S11305700F931F93CF93DF936B01F42EE901182F90
S1130580110F812F50DF81112BC05EDF813019F4F0
S1130590E6DF81E027C0811123C0FF2049F0C601B6
S11305A0BBDF81111DC08FEFC81AD80AFA94F5CFAA
S11305B0013408F000E41F5F10931708023040F084
S11305C060E0CE0168DF81110BC021960150F6CFA7
S11305D061E0CE0160DF811103C0C1DF80E002C0B1
S11305E0E4DE8FEFDF91CF911F910F91FF90DF90A9
S11305F0CF900895109237381092363881E0809366
S113060002380C946C0BCF9380913C38833091F476
S11306106AE070E080913438909135380E94260E5B
S1130620882341F0E7DF10923C3810923A38109258
S11306303B389BC08BE738D7811197C080913C38F9
S1130640882319F0833009F090C0C0919EC0EC2F2C
S1130650F0E0809108388F3F19F090910C3801C078
S113066090E0ED53F54C90838F3F09F47EC0909158
S11306700738891709F479C00E94170E809334381B
S113068090933538809107388F3F09F06EC0809180
S1130690083820E2829FC0011124815C9E4F809320
S11306A03A3890933B3880913C38833009F0A2DF8C
S11306B083E080933C3880913738E82FF0E0EA57A4
S11306C0FF43208190910838291312C09091023879
S11306D0917090930238E091ADC0F0E0ED53F54C89
S11306E01082E091ACC0F0E0ED53F54C108209C0EB
S11306F010920238843028F47DDF82E080933C3805
S113070034C08F5F80933738909136389F5F943030
S113071018F49093363829C01092363890910238E4
S11307209130E1F4982F937069F4E82FE695E695FB
S1130730F0E0E055FF43E581F0E090910C38ED5393
S1130740F54C9083883189F48BE7A4D6EC2FF0E044
S1130750ED53F54C108282E490E003C04BDF81E25C
S113076090E080933A3890933B3880E0CF9108959D
S11307701092493810924A381092483881E0809398
S11307800D381092473810923A3810923B38089539
S113079097FF03C09195819591099C01220F331F06
S11307A0293731051CF041E040933C3840913C38F6
S11307B0413021F5283731051CF460E080E01DC08C
S11307C0883791051CF461E081E017C02C3241E0C8
S11307D034071CF462E082E010C0280F391F28356A
S11307E032401CF463E083E008C08C3291401CF476
S11307F064E084E002C065E085E030C70895CF93EB
S1130800DF9380913C38813071F46AE070E080912C
S11308104538909146380E94260E882321F0A8DF9F
S113082010923C38E5C087EF3FD68111E1C08DE7D7
S11308303BD68111DDC080913C38823008F0D8C0AD
S11308408091EB3A9091EC3A892B41F48091BB3A38
S11308509091BC3A8093EB3A9093EC3AC091BB3AB6
S1130860D091BC3A8091EB3A9091EC3AC81BD90BE9
S1130870CE018EDF80914C38813089F018F08230BF
S1130880C1F01FC0C43D9EEFD90714F491E004C029
S1130890CD32D1405CF092E090934B3812C0CD320F
S11308A091E0D907C4F7C938DF4F84F310924B386D
S11308B008C0C43D9EEFD9074CF3C837D105B4F343
S11308C0EACFC0919EC0EC2FF0E090914B38992371
S11308D019F020910C3801C020E0ED53F54C208331
S11308E02FE931E020933A3830933B38891709F4E3
S11308F07FC00E94170E809345389093463890919C
S11309004A3880914B38911108C0882331F091E026
S1130910813009F490E09093473880934C388823D1
S113092009F466C080913C38811101C021DF81E067
S113093080933C388091473820914C38882311F0BB
S113094083E0282730E080914A38E82FF0E0E45132
S1130950FF43408150E02417350791F490910D38FE
S1130960917090930D38E091ADC0F0E0ED53F54CEB
S11309701082E091ACC0F0E0ED53F54C108202C05F
S113098010920D388F5F80934A38909148389F5F5A
S1130990933018F4909348382BC0109248389091B3
S11309A00D389130E1F490914938E92FF0E0E055A9
S11309B0FF43E681F0E020910C38ED53F54C2083A1
S11309C09F5F90934938823199F48DE763D5EC2F7A
S11309D0F0E0ED53F54C108282E490E005C0C8DEEF
S11309E010923C3881E290E080933A3890933B38FF
S11309F080E0DF91CF910895CF93DF93F89488ED51
S1130A0084BFC1E0C09361008AE4809300048CE752
S1130A10809320049FE39093400480915304806862
S1130A20809353048091540480688093540480918B
S1130A3055048068809355048091330480688093C2
S1130A4033048091340480688093340480913504A5
S1130A50806880933504C0930102D2E0D0930504EA
S1130A602BE531E0209308083093090880EA80934D
S1130A70050880EC8093060883E0809307081CBA7D
S1130A801DBA1FBAC093030A88E08093000A9093AA
S1130A90020287E78093010AC0930A0A8BE08093DD
S1130AA0050A8091000A81608093000A85E08093A2
S1130AB0400A1092410A8FEF91E080934C0A909380
S1130AC04D0A1092450AC093500A1092510A8BE8BD
S1130AD093E080935C0A90935D0AC093550A47DCC7
S1130AE082E18093A00080E28093A200C093A100E1
S1130AF0D093000684E4809302068EE18093060678
S1130B00C0930A0680910006816080930006C0931A
S1130B10080610924006D093410682E5809342066F
S1130B2084E08093450680934606C0934A068091EC
S1130B304006816080934006C093480680E4809319
S1130B40A00680E88093A1068091A006816080932E
S1130B50A0068091410180FDFCCF80E38093400199
S1130B60109247018091410182FDFCCF80E098E71B
S1130B7080934A0190934B018091480190914901DF
S1130B8082968093EF3A9093F03A20914A01309103
S1130B904B018091EF3A9091F03A2817390770F49D
S1130BA020914A0130914B018091EF3A9091F03AB3
S1130BB0821B930B8093EF3A9093F03A809141011A
S1130BC083FDFCCF8091EF3A9091F03A80934C01F1
S1130BD090934D0183E08093420181E08093520120
S1130BE088E0809350018091410180FDFCCF809189
S1130BF04001816080934001809150018160809325
S1130C0050011092753A85E79AE38093B93A90932C
S1130C10BA3A7894DF91CF9108951F920F920FB64C
S1130C200F9211248F939F93AF93BF93EF93FF93EE
S1130C3087E08093460484E480932604ECB388E040
S1130C40E89FF0011124ED53F54CA8E2BAE096E0D8
S1130C5081918D939A95E1F78BE08093050A8CB38B
S1130C60833058F48CB391E001C0990F8A95EAF768
S1130C7099B98CB383958CBB0AC08CB3833021F4AF
S1130C802A9A83958CBB03C02E9A88278CBB8091AB
S1130C90603A882329F08091603A81508093603AC9
S1130CA08FEF80930B0AFF91EF91BF91AF919F91CA
S1130CB08F910F900FBE0F901F9018951F920F9257
S1130CC00FB60F9211248F939F93EF93FF93E091AC
S1130CD0B93AF091BA3A8081882391F08081809367
S1130CE002088091B93A9091BA3A01968093B93A40
S1130CF09093BA3A8091050880628093050805C0F4
S1130D0081E0809309381092450A81E08093460A75
S1130D10FF91EF919F918F910F900FBE0F901F90B5
S1130D2018951F920F920FB60F9211242F933F9391
S1130D304F938F939F93EF93FF93E0910538F09136
S1130D4006388081811108C080910338909104385D
S1130D508093053890930638E0910538F091063871
S1130D6080818823E1F020814091B63A30E02F570A
S1130D703109429FC001439F900D1124892F990F7F
S1130D80990B80589F4F8093A106809105389091CC
S1130D9006380196809305389093063803C080E89E
S1130DA08093A10681E08093560AFF91EF919F9171
S1130DB08F914F913F912F910F900FBE0F901F90E5
S1130DC018951F920F920FB60F9211248F93EF93E1
S1130DD0FF9380914438811144C0EDB3F0E08091D9
S1130DE00008EB58F54C8083EDB3F0E0EB58F54C7C
S1130DF0808180930208EDB3F0E0EB58F54C8081DC
S1130E008A3039F0EDB3F0E0EB58F54C80818D3049
S1130E1049F4EDB3F0E0EB58F54C108281E0809397
S1130E2044381FC0EDB3F0E0EB58F54C80818830B6
S1130E3039F0EDB3F0E0EB58F54C80818F3759F47D
S1130E408DB3882341F0EDB3F0E0EB58F54C1082FC
S1130E508DB3815005C08DB3803418F48DB38F5F8A
S1130E608DBB80E880930408FF91EF918F910F90E0
S1130E700FBE0F901F9018951F920F920FB60F92EE
S1130E8011248F93EF93FF9310924A0A10924B0A06
S1130E9081E08093450AE5E0F8E080818F7D8083DE
S1130EA0FF91EF918F910F900FBE0F901F901895A7
S1130EB01F920F920FB60F9211248F939F938091DC
S1130EC03838811112C0809106068E3149F4809120
S1130ED01006909111068093ED3A9093EE3A0AC071
S1130EE0809110068093C23A05C0809138388150B1
S1130EF08093383881E080930B069F918F910F90F7
S1130F000FBE0F901F9018951F920F920FB60F925D
S1130F1011248F939F938091460681110AC080917A
S1130F205006909151068093BD3A9093BE3A81E069
S1130F3010C080914606813079F488E080930604DD
S1130F4080915006909151068093BB3A9093BC3A9D
S1130F5084E08093460610C080915006909151061B
S1130F608093B73A9093B83A8FB38F3029F41092A4
S1130F70460688E0809305048FB390E001968F7055
S1130F8099278FBB81E080934B069F918F910F909F
S1130F900FBE0F901F9018951F920F920FB60F92CD
S1130FA011242F933F938F939F938091430181FF4B
S1130FB039C0809142388F3F29F0809142388F5F49
S1130FC080934238809148019091490182968093A0
S1130FD0EF3A9093F03A20914A0130914B0180917D
S1130FE0EF3A9091F03A2817390770F420914A01AA
S1130FF030914B018091EF3A9091F03A821B930B20
S11310008093EF3A9093F03A8091410183FDFCCFB5
S11310108091EF3A9091F03A80934C0190934D0176
S113102082E006C0809143388F5F8093433881E02B
S1131030809343019F918F913F912F910F900FBE09
S11310400F901F9018951F920F920FB60F921124B4
S11310508F9381E080934806809353018F910F9082
S11310600FBE0F901F9018959091021091FDFCCF28
S1131070FB01480F841739F0A82FB0E0BC5E9C91A7
S113108091938F5FF7CF08959DE924E033E04423E3
S113109009F15091021051FDFCCF94BF2093001030
S11310A0E82F582F5F718F5F6F5F7F4FDB011197C0
S11310B0AC91F0E0FC5EA083415019F0E82F5F3161
S11310C081F794BF309300105091021052FFDFCF8C
S11310D081E0089580E00895F9019C012E1B3F0BE7
S11310E088E0489FA001112444525F43662369F0BD
S11310F0DF01A20FB31FA770BB27A40FB51F808108
S11311009C91982791936150F1CF0895AF92BF922B
S1131110CF92DF92EF92FF920F931F93CF93DF93BF
S113112000D0CDB7DEB7D62EC42E59017C01E89489
S1131130F7F8F982EA82062F42E0BE016F5F7F4F23
S113114080E513DA182F811105C095014C2D6D2D02
S1131150C701C2DF812F0F900F90DF91CF911F91B4
S11311600F91FF90EF90DF90CF90BF90AF900895D4
S113117020910938222359F08093B93A9093BA3ACE
S11311801092093881E08093450A80E0089581E057
S11311900895282F811101C021E08FEF90E0821B78
S11311A09109982F882781509F4F80934C0A9093E0
S11311B04D0A089582E18093A000E0E0F6E080818A
S11311C08B7F80838EE18093060683E0809338389A
S11311D0089582E28093A000E0E0F6E080818460DC
S11311E0808387E08093060683E0809338380895EF
S11311F08091B73A9091B83A24E0969587952A95CC
S1131200E1F799278036910540F48F34910588F4ED
S1131210C097099790F492E011C08537910568F062
S11312208E38910540F08E599109819730F490E001
S113123005C093E003C091E001C09FEF8091243882
S1131240981719F0909324388FEF089580912238DD
S1131250909123389C01322F22273295330F307E10
S1131260822793279C01232F3327269582279327B0
S11312709C013695322F222737952795822793276D
S113128080932238909323380895DF92EF92FF924F
S11312900F931F93CF93DF937B018A01C0915C0A64
S11312A0D0915D0AE82FF0E03197E770FF27EB5DFE
S11312B0F74CD080CBDF8D21C80FD11DC7DF8D2126
S11312C0C81BD1090C171D0708F4E801C701EC1667
S11312D0FD0608F4CE0180935C0A90935D0ADF91C9
S11312E0CF911F910F91FF90EF90DF9008950F938E
S11312F01F93CF93DF93C82FD42F022FE62FF0E054
S11313003197E770FF27EB5DF74C10819FDF812356
S1131310C80F9CDF8123C81B8C2F002341F09C2F16
S11313200C1708F4902F8D2FD91708F4892F41E05A
S113133050E08D1710F040E050E02D2F30E02423D2
S11313403523232B09F08D2FDF91CF911F910F911E
S11313500895CF92DF92FF920F931F93CF93DF9361
S1131360CDB7DEB76497CDBFDEBF44E1BE016F5F8A
S11313707F4F80E079DE81E6C82E8AE3D82E8E0185
S11313800F5F1F4FF12CF80181918F01F6019081BD
S1131390981308C0F394FFEFCF1ADF0A80E1F81224
S11313A0F2CF08C041E0B6018F2D6EDE882391F3A1
S11313B091E036C020913E3830913F383093713AF5
S11313C02093723A80914038909141389093733AC7
S11313D08093743A89899A899827892798272817A6
S11313E0390769F48B899C89982789279827209144
S11313F04038309141382817390749F410C042E089
S113140061E77AE380E140DE882361F3D1CF42E0F3
S113141063E77AE382E138DE91E0811101C090E074
S1131420892F6496CDBFDEBFDF91CF911F910F91BD
S1131430FF90DF90CF900895E82FEF77E695E6953B
S1131440E695F0E0EF59F54C208130E08770A90172
S113145002C0559547958A95E2F7CA0181700895AF
S1131460E82FEF77E695E695E695282F2770F0E0CC
S1131470EF59F54C81E090E001C0880F2A95EAF716
S1131480662319F09081892B03C08095908189236C
S113149080830895982F8F7731F097FF02C060E022
S11314A001C061E0DDCF0895CF93C82F8F77C4DFEB
S11314B02C2F221F2227221F91E0811101C090E0CE
S11314C0822F8927CF910895E3E0F1E180E09191A3
S11314D0890FED3091E1F907D1F7837091E0980F0E
S11314E090933D380895E1E6FAE311928AE3E537F3
S11314F0F807D9F7E9DF811104C080916E3A80645E
S113150005C0813031F480916E3A806880936E3AE0
S11315100DC0823021F480916F3A816005C0833020
S113152029F480916F3A826080936F3A8091613A96
S113153081608093613A0895CF93DF9344E161E63B
S11315407AE380E091DDCEE6D0E08C2F75DFD80F12
S1131550CF5FC237D1F7D13011F0C5DF01C0B4DF9E
S11315608091713A9091723A9827892798278093AD
S11315703E3890933F388091733A9091743A98270B
S1131580892798278093403890934138DF91CF91F1
S11315900895CF9386E788DFC82F882381F0E091F0
S11315A0A0C0F0E0ED53F54C1082E091A1C0F0E052
S11315B080910C38ED53F54C8083C1E04CC085E735
S11315C073DF882359F1E091A0C0F0E080910C38DA
S11315D0ED53F54C808380915938882379F08091BC
S11315E0C03A9091C13A2091ED3A3091EE3A80960A
S11315F02817390718F086E74DDF2DC08091C03ACF
S11316009091C13A2091ED3A3091EE3A08968217C2
S1131610930708F181E0809359381DC08091C03A46
S11316209091C13A892B41F48091ED3A9091EE3A30
S11316308093C03A9093C13A8091C03A9091C13A54
S11316402091ED3A3091EE3A80962817390718F038
S113165085E720DFC0E08C2FCF910895E2EAF0EC1B
S113166090E0A581B0E0981734F420910C38AD5384
S1131670B54C2C9303C0AD53B54C1C92A081B0E083
S1131680961734F420910C38AD53B54C2C9303C009
S1131690AD53B54C1C929F5F3196953011F7089568
S11316A0ACEAB0ECEC91F0E0ED53F54C808312968B
S11316B0EC911297F0E0ED53F54C60831196EC91A8
S11316C01197F0E0ED53F54C80831396EC91F0E024
S11316D0ED53F54C60830895CF93DF93E0EBF0EC8A
S11316E0EF01A681B0E0AD53B54C1C923196A881B0
S11316F0B0E0AD53B54C1C9280ECE63BF80781F7A3
S1131700DF91CF910895EF92FF920F931F93CF93A0
S1131710DF9380913C38882329F080E4C5DE811171
S113172024C050C0C0EBD0EC1AE7812FBDDEEE819F
S1131730F0E0882359F080910C38ED53F54C808308
S1131740E881F0E0ED53F54C10820AC0ED53F54CFE
S11317501082E881F0E080910C38ED53F54C8083E1
S11317601F5F2196103809F7D8CF80915B38982FE6
S11317709D7FE0919FC0F0E0913011F0853021F41D
S113178090910C38969506C0823011F0843031F473
S113179090910C38ED53F54C90830CC0882311F0D4
S11317A0863029F490910C3896959695F3CFED53A5
S11317B0F54C1082803220F48F5F80935B3802C036
S11317C010925B3890915A389F5F90935A38E09109
S11317D03A38F0913B38EF71FF27E930F10508F012
S11317E0E8C0E25CFF4F0C94332060E080E036DF19
S11317F0E091ACC0F0E0ED53F54C1082E091AEC046
S1131800F0E0ED53F54C1082E091A0C0F0E0ED5310
S1131810F54C1082E091ADC0F0E0ED53F54C108230
S1131820E091AFC0F0E0ED53F54C1082E091A1C01F
S1131830F0E0ED53F54C1082E0919EC0F0E0ED53E2
S1131840F54C1082B6C0892F817090FD80910C38C0
S113185060E00DC0692F70E093FF02C06095709541
S113186085E0660F771F8A95E1F7615E80E0DF917E
S1131870CF911F910F91FF90EF9012CF892F83701A
S113188009F097C092FF03C065E085E002C060E004
S113189080E0DF91CF911F910F91FF90EF90DECE0A
S11318A0953010F010925A38E0915A38F0E0EE5525
S11318B0FF43A581B0E0AD53B54C1C92E681F0E046
S11318C080910C38ED53F54C808382EA90ECCCEA9D
S11318D0D0EC27EA30ECDC01ED91CD01F0E0AA91E7
S11318E0B0E0AD53B54C4C91ED53F54C40832C17FF
S11318F03D0789F75EC0C2EAD0EC7E010D8110E09D
S1131900A5DC87FF03C080910C3801C080E0F8019A
S1131910ED53F54C80832196F701008110E096DCAD
S113192087FF03C080910C3801C080E0F801ED53BB
S1131930F54C8083F0ECC73ADF07F9F63AC090FD26
S113194038C0E2EAF0EC86EA90EC9F01A581B0E0B1
S1131950C681D0E0CD53D54C4881AD53B54C4C93A2
S11319603196E901A881B0E0C081D0E0CD53D54CD7
S11319702881AD53B54C2C938E179F0731F7C09136
S1131980ABC0D0E063DC813E18F080910C3801C01C
S113199080E0CD53D54C8883C091A6C0D0E056DCFE
S11319A0813E18F080910C3801C080E0CD53D54CB5
S11319B08883DF91CF911F910F91FF90EF9008954D
S11319C00F931F93CF938091C23A893108F027C1B6
S11319D0C1E0C093BF3A80913A3890913B38882750
S11319E0892B09F0BFC080913A3890913B38807EB2
S11319F09927892B31F489E398E3809303389093F2
S1131A00043880913A3890913B38807E99278097AA
S1131A1009F059C040E052E260E070E281E035DC58
S1131A2020E041E065E080E862DC80931338809137
S1131A304238882309F447C080915838811115C071
S1131A4084E0809357388FEF8093563880E090E29B
S1131A5080935C0A90935D0A81E198E38093033854
S1131A609093043881E080935838809156388823C5
S1131A7069F08093B63A90915738992321F09150A8
S1131A809093573803C08695809356388091563882
S1131A90811119C080913A3890913B388F71992700
S1131AA080933A3890933B3889E398E380930338E2
S1131AB09093043880930538909306388FEF809381
S1131AC0B63A1092583880913A3890913B388091C8
S1131AD03A3890913B38807E992780369105A9F554
S1131AE0109255388FE498E3809303389093043828
S1131AF08C01C1E0C33039F020E041E065E080E8CA
S1131B00F6DBF8018183CF5F0F5F1F4FC63091F77B
S1131B10809142388823C9F040E054E060E872E0E4
S1131B2085E0B3DB8091B63A20EA40E162E0DFDB96
S1131B308093B63A20E940E762E080914F38D7DBE2
S1131B4080934F3880958093523880913A389091A1
S1131B503B3880913A3890913B3880913A38909153
S1131B603B385FC080913A3890913B388827811583
S1131B70914009F056C080913A3890913B38807E6C
S1131B8099278139910508F04CC060913A387091D9
S1131B903B38607E77276F5F7F4F86E0660F771F45
S1131BA08A95E1F7AB015D5F7E5F81E06EDB80913A
S1131BB042388823B1F180914E3881110EC083E000
S1131BC080934D388EE098E38093033890930438E3
S1131BD08FEF8093B63AC0934E3880914D3881117F
S1131BE01AC080913A3890913B388F71992780932D
S1131BF03A3890933B3889E398E380930338909381
S1131C00043880930538909306388FEF8093B63A62
S1131C1010924E3806C0815080934D3802C0109205
S1131C20BF3A80914238CF911F910F91089520912E
S1131C3043388091480190914901892F99278695CD
S1131C403CE3239F800D911D112408950F931F934E
S1131C50CF93DF938C01EB01EADF9C01801791079E
S1131C6008F4345CC00FD11F81E0C217D30708F019
S1131C7080E0DF91CF911F910F910895DF92EF9251
S1131C80FF920F931F93CF93DF9300D000D0CDB773
S1131C90DEB719821A821B821C8281E08983A0EB41
S1131CA0B0EC8FEFED91F0E0ED53F54C808320EC38
S1131CB0A63BB207B9F78DDA8091C23A8530E0F7D6
S1131CC08091C23A8430E0F3E091B0C0F0E0ED538B
S1131CD0F54C1082E091B6C0F0E0ED53F54C8FEF77
S1131CE0808389E398E38093033890930438809148
S1131CF0BD3A9091BE3A99272091BD3A3091BE3AAF
S1131D00332728173907C1F3E091B1C0F0E0ED5350
S1131D10F54C1082E091B7C0F0E0ED53F54C8FEF35
S1131D2080838091BB3A9091BC3A89839927209112
S1131D30BB3A3091BC3A332728173907C1F3E091F5
S1131D40B2C0F0E0ED53F54C1082E091B8C0F0E081
S1131D50ED53F54C8FEF80832DDA8091ED3A90911D
S1131D60EE3A898399272091ED3A3091EE3A332760
S1131D7028173907C1F3E091B3C0F0E0ED53F54CF7
S1131D801082E091B9C0F0E0ED53F54C8FEF808301
S1131D908091B73A9091B83A80389C40C8F3E0906B
S1131DA0B4C08E2D90E0FC01ED53F54C7F01108200
S1131DB00091BAC010E00D53154CDD24DA94F801FB
S1131DC0D0829E012F5F3F4F40E064E08CEC9CE3A7
S1131DD09DD989818F3349F48A81811106C08B8111
S1131DE0803C19F48C81843109F0FFCFF701108213
S1131DF0F801D08280E090E0FC01ED53F54C1082B4
S1131E00019688329105C1F710E04091BD3A509196
S1131E10BE3A8091ED3A9091EE3A212F30E0840F52
S1131E20951F8F7399272817390718F40FDA1F5F46
S1131E30ECCF80E02496CDBFDEBFDF91CF911F9120
S1131E400F91FF90EF90DF900895CF93DF93E2EA34
S1131E50F0ECEF01A581B0E0AD53B54C1C92319686
S1131E60A881B0E0AD53B54C1C9290ECE73AF90769
S1131E7081F78330D9F4E091A7C0F0E080910C3869
S1131E80ED53F54C8083E091A8C0F0E080910C38CC
S1131E90ED53F54C8083E091A9C0F0E080910C38BB
S1131EA0ED53F54C80838FE391E046C0813099F483
S1131EB0E091AAC0F0E080910C38ED53F54C80839A
S1131EC0E091ABC0F0E080910C38ED53F54C808389
S1131ED08FE591E031C08430D9F4E091A2C0F0E004
S1131EE080910C38ED53F54C8083E091A3C0F0E071
S1131EF080910C38ED53F54C8083E091A4C0F0E060
S1131F0080910C38ED53F54C80838FE791E014C039
S1131F108230B1F4E091A5C0F0E080910C38ED532B
S1131F20F54C8083E091A6C0F0E080910C38ED532D
S1131F30F54C80838FE991E080933A3890933B3855
S1131F40DF91CF910895CF93DF9380913C388D7FBB
S1131F5009F073C18AE7A8DA882341F080913C38FC
S1131F60823009F06AC110923C3867C18BE79CDA71
S1131F7090910838882329F09F3F19F082E08093DC
S1131F803C38E0919EC0F0E09F3F19F080910C38FE
S1131F9001C080E0ED53F54C808380915C38811161
S1131FA00CC0C2E6D8E352D98370899388E3CE3655
S1131FB0D807C9F781E080935C3880915C38813020
S1131FC071F480913C38823051F480935C381092E3
S1131FD061381092603810925F3810925D388091A9
S1131FE05C38823019F580915F38863038F0809102
S1131FF05D388F5F80935D3810925F38E0915D3873
S1132000E63048F083E080935C3810925F38109299
S11320105D3862DB12C1F0E0E055FF43E081F0E09F
S113202080910C38ED53F54C80832BC0833049F5F7
S113203080915F38883038F080915D388F5F80936D
S11320405D3810925F38E0915D38809161388E1769
S113205040F41092603885E080935C3880E0F5DECF
S113206098C080915F38833030F4F0E0EE59F74C3B
S113207080818F5FEADE80915F38873010F080E0E6
S1132080E4DEC0915C38C53009F086C08091083820
S113209090910738981709F471C090915E389111A6
S11320A06FC0843008F06CC091E090935E38109259
S11320B05F388F5FCADE84E080935C38C0932D382C
S11320C080916038E82FF0E0EE59F74C2081909130
S11320D0083829131DC08F5F80936038E091613800
S11320E0E817A0F5EF5FE093613810925F38109223
S11320F05D38E13059F0E695F0E0E055FF43E581C5
S1132100F0E080910C38ED53F54C808383E01CC0E3
S113211080E290E080933A3890933B38A0EBB0ECA7
S1132120ED91F0E080910C38ED53F54C808380EC18
S1132130A63BB807A9F71092603810926138109244
S11321405F3810925D3886E080932D388091603836
S11321508C3020F4809161388C3090F082E490E0EF
S113216080933A3890933B388AE794D910925F3839
S113217010925D3887E080932D3802C010925E384B
S113218080915F38883C41F483E080935C381092FE
S11321905D3810925F3851C080915C38843081F48E
S11321A080915F38873060F080E04FDE10925E38B7
S11321B010925F3810925D3880912D3880935C388E
S11321C080915C38863041F580915F38843038F0F6
S11321D080915D388F5F80935D3810925F38809175
S11321E05D38863040F010925F3810925D3887E099
S11321F080935C3822C0E5E0F0E0E81BF109E0558B
S1132200FF43A081B0E0AD53B54C1C92E681F0E0F1
S1132210ED53F54C10820CC0873051F410926038A5
S11322201092613810925C3810923C3880E00DDED8
S113223080915F388F5F80935F3880E0DF91CF912A
S113224008951F93CF93DF93CDB7DEB76297CDBFC9
S1132250DEBF8A8B80E1E6E7F0ECDE0111960190A7
S11322600D928A95E1F7FE01319690E08FEF21916E
S113227031912617370709F4892F9F5F9830B9F7F2
S1132280883010F080E014C018E1180F41E0BE015E
S11322906F5E7F4F812F0E94340889898F3F91F7A9
S11322A041E0BE016E5E7F4F812F0E94440881E0B1
S11322B06296CDBFDEBFDF91CF911F910895262F87
S11322C0FB0135E59E2F921B981728F49081929577
S11322D093279193F7CF08958F5F883030F4E82FD8
S11322E0F0E0E85BF54C1082F7CF0895AC0190E084
S11322F0E92FF0E0DA01AE0FBF1F3C91E60FF71FA4
S1132300311105C081E09081992349F007C02081F3
S11323102223C1F3321302C09F5FEACF80E0089505
S1132320CF93DF93FC016115710559F1A0E5BAE380
S1132330C8E4DAE380E09FEF6F3F710569F060F075
S1132340ED93FD939993E150FF4F6F5F71098F5F98
S1132350873091F781E01EC0282F30E0D901AA0F01
S1132360BB1FA05BB54CED93FC936F3F710511F45B
S11323706EEF70E0F901E85BF54C60834093463AF8
S113238005C01092503A1092513A80E0A5DF1092A5
S1132390473A80E0DF91CF910895CF93DF93282FC0
S11323A030E0F901EE0FFF1FE55EF64CA9E5BAE750
S11323B0A083B183F901EE0FFF1FE55AF64C62E0EA
S11323C070E060837183220F331FF901E556F64CE8
S11323D041E050E04083518321E0280F30E0F901CF
S11323E0EE0FFF1FE55EF64CC2E6DAE7C083D18349
S11323F0F901EE0FFF1FE55AF64CCCE0D0E0C083A4
S1132400D183220F331FF901E556F64C40835183E3
S1132410E2E0E80FF0E0EE0FFF1FE55EF64C20EF80
S11324203FEF2083318323E0280F30E0F901EE0FE2
S1132430FF1FE55EF64CA083B183F901EE0FFF1F89
S1132440E55AF64C60837183220F331FF901E55678
S1132450F64C4083518324E0280F30E0F901EE0F5D
S1132460FF1FE55EF64CA5E5BAE7A083B183F90149
S1132470EE0FFF1FE55AF64C60837183220F331F62
S1132480F901E556F64C408351838B5FDF91CF9180
S11324900895AF92BF92DF92EF92FF920F931F9332
S11324A0CF93DF93CDB7DEB72C97CDBFDEBF7C01D2
S11324B08B019E012F5F3F4F40E06CE080960E94AD
S11324C0860889819A819827892798278096F80118
S11324D0808391838B819C81982789279827809674
S11324E082839383DE0115963496C8010C962D9150
S11324F02193E817F907D9F7FCE2EF0EF11C580114
S1132500D12C9E012F5F3F4F40E063E0C7010E9442
S1132510860889819A8198278927982797012E5FB1
S11325203F4F43E04D1580F4AC0141505109F8018F
S1132530428F538FF3E0EF0EF11CF801E486F58629
S11325404B81F50144A305C0F801828F938F248742
S113255035877C01E20EF31ED3940E5F1F4FFFEF0D
S1132560AF1ABF0A47E0D412CCCF2C96CDBFDEBF42
S1132570DF91CF911F910F91FF90EF90DF90BF906B
S1132580AF900895CF92DF92EF92FF920F931F9333
S1132590CF93DF93CDB7DEB7A097CDBFDEBFC62EF6
S11325A07C0120E2E20EF11C9E012F5F3F4F40E0D0
S11325B062E08C960E9486081A81D12C112359F16D
S11325C0012F113208F000E29E012F5F3F4F40E0DF
S11325D0602FC7010E960E948608FE01319680E0A6
S11325E0DD2061F0E1E0F0E0EC0FFD1FE80FF11DEC
S11325F09081906281E09C110EC00EC09191DD2407
S1132600D3949B3509F0D12C8F5F801748F3E00EEB
S1132610F11C101BD3CF80E0A096CDBFDEBFDF91AD
S1132620CF911F910F91FF90EF90DF90CF9008957D
S1132630AF92BF92DF92EF92FF920F931F93CF93CB
S1132640DF9300D000D0CDB7DEB7D62E5A019E015D
S11326502F5F3F4F40E064E080960E948608E98047
S1132660FA80FE24EF24FE240B811C81102701270D
S113267010270E151F0548F5A016B10660F09E013F
S11326802F5F3F4F40E062E0C80180960E948608B9
S113269009811A81EBCF9E012F5F3F4F40E061E03B
S11326A0C80185960E9486088981811103C0D110D2
S11326B006C00EC00E94540A8111F9CFE0CF6D2DDF
S11326C0C80160DF8823D9F203C080E090E001C034
S11326D0C8012496CDBFDEBFDF91CF911F910F912A
S11326E0FF90EF90DF90BF90AF90089580629FE9D4
S11326F0980F9A3138F090ED980F81E09A3018F0E5
S113270080E0089581E008950F931F93CF93DF93A2
S11327108C01D0E0C0E0F801ED0FF11D20818C2F79
S113272090E0222351F0D801A80FB91F2C93808187
S1132730DDDF8111CF5FDF5FEECFF801E80FF91F16
S113274010828C2FDF91CF911F910F910895CF9319
S113275080913A3890913B38892B39F480911F3A13
S113276090E080933A3890933B382091473A283050
S113277008F049C080910938882309F444C0822FA5
S113278090E0FC01E85BF54CE081E11106C0109299
S1132790063988E08093473A2EC0509106395E1777
S11327A060F5CE2FC51BC13208F0C0E2880F991F17
S11327B0FC01E05BF54C8081918121EF3AE340918B
S11327C0463A6C2F850F911D0E9486088091063928
S11327D08C0F80930639EC2FF0E0EF50F54C10820B
S11327E08091F13A811103C08BED8093F13A81EF2E
S11327F09AE30E94B80881E00BC0109206392F5F5B
S11328002093473AF8CF9091093881E0911180E004
S1132810CF910895CF93DF93C0911A39CC23B1F1AE
S1132820C150C0931A39D09105392D2F30E0F901E8
S1132830EE0FFF1FE55EF64C80819181803F4FEFE4
S1132840940751F46091353A7091363A40E08091A2
S1132850273A9091283A0DC0D901AA0FBB1FA5565B
S1132860B64C220F331FF901E55AF64C6081718191
S11328704C9156DDDF5FD0930539C11106C01DBAF6
S1132880109244381092053901C0C1E08C2FDF91B9
S1132890CF9108953F924F925F926F927F928F9261
S11328A09F92AF92BF92CF92DF92EF92FF920F93DB
S11328B01F93CF93DF93CDB7DEB72A97CDBFDEBF8B
S11328C08C0180912E388F3F49F46BE17AE380913B
S11328D0DB399091DC39DDDD10922E38809144385B
S11328E0882309F414C280910A39882309F44FC05B
S11328F01092093981E6F80180836AE079E385E77B
S11329009AE3F4DCF82E882321F081E080930939DE
S113291004C080910A39813311F0F12CFAC18091FD
S11329200C398111FACF85E79AE3EEDE92E09093B9
S11329300939F8011182823080F38091753A81332C
S113294060F38091753A853340F78091763A8062DE
S11329508093763A8091763A813661F08091763A26
S1132960853641F08091763A863621F08091763A28
S1132970873799F680910B398F5EF80181838091B6
S1132980753A82838091763A83831482C2C180919E
S1132990753A833289F58DB3863071F581E090E024
S11329A010E0FC01EB58F54C208120532083110FDB
S11329B0212F220F220F120F2091763A233048F450
S11329C020812A30B8F42081120F019684309105B9
S11329D041F7812F8F7771F08091793A60917A3A3B
S11329E070E0782B812F80952CDC882319F0812FBF
S11329F00E944A0A81E040C0D80180E090E0FC01D6
S1132A00EB58F54C2081213418F020812B3510F03F
S1132A10208102C0208120622C932081211105C0D5
S1132A20F801E80FF11D108205C00196119681345A
S1132A30910529F78091753AF801811105C010823A
S1132A401DBA1092443863C180818F3311F08836E7
S1132A50B9F483E99BE780931D3990931E398DE681
S1132A6094E080935D3990935E3981E090E08093A7
S1132A709D3990939E3982E090DC80931A3947C146
S1132A80813649F48EE69AE780931D3990931E3976
S1132A9085E291E0E6CF873709F05EC08DE896E7DE
S1132AA080931D3990931E3982E190E080935D39C3
S1132AB090935E3921E030E020939D3930939E3924
S1132AC080913D38813019F487E896E70FC0823051
S1132AD049F484E896E780931F399093203983E082
S1132AE090E01EC0833049F48EE796E780931F3947
S1132AF09093203986E090E013C0843049F489E74C
S1132B0096E780931F399093203985E090E008C0C0
S1132B1082E096E780931F399093203982E490E015
S1132B2080935F399093603920939F393093A03913
S1132B308FE596E780932139909322398AE190E0DA
S1132B40809361399093623981E090E08093A13958
S1132B509093A23984E090CF813749F480E09AE7DA
S1132B6080931D3990931E3985E590E07ACF6EEFFE
S1132B7070ECC801BBDB8823F9F01EE660E0812F0E
S1132B800E94300A1F5F1237C9F70E94A90989E021
S1132B90E1E1F1ECDE01119601900D928A95E1F7E5
S1132BA08CE30E94C908809109388823E1F3CE019F
S1132BB001960E94B808F7CF64E071ECC80196DB77
S1132BC0882361F18FEF8A8718E141E0BE01665FD7
S1132BD07F4F812F0E9444081F5F1032B1F71EE619
S1132BE060E0812F0E94300A1F5F1237C9F70E94EC
S1132BF0A90988E0EAE1F1ECDE01119601900D9259
S1132C008A95E1F78CE30E94C908809109388823EA
S1132C10E1F3CE0101960E94B808F7CF6BE071ECA6
S1132C20C80164DB882309F478CE8BE1C82E89E3DC
S1132C30D82E9BE5E92E99E3F92E0BE919E328E157
S1132C40322E3DE9632E34E7732E42E0842E912C1C
S1132C50AA24A394B12C67E5462E6AE7562E41E0D8
S1132C60BE016F5F7F4F832D0E9434088981809558
S1132C708983F60160827182F70180829182F80172
S1132C80A082B182282F22952F7030E023573B4831
S1132C90F60122833383F701A282B382F801A28270
S1132CA0B3828F7090E083579B48F60184839583A9
S1132CB0F701A482B582F801A482B582F6014682A6
S1132CC05782F70186829782F801A682B7823394ED
S1132CD0F8E0CF0ED11C88E0E80EF11C085F1F4F0E
S1132CE0E0E23E12BCCF89E59AE78093593990938C
S1132CF05A3984E090E08093993990939A3981E02D
S1132D0090E08093D9399093DA3930921A39FF24BC
S1132D10F3948F2D2A96CDBFDEBFDF91CF911F9103
S1132D200F91FF90EF90DF90CF90BF90AF909F9066
S1132D308F907F906F905F904F903F9008959F92F7
S1132D40AF92BF92CF92DF92EF92FF920F931F93B5
S1132D50CF93DF93CDB7DEB7AB97CDBFDEBF99245A
S1132D609394980E90E0FC01EE0FFF1FE55EF64C85
S1132D702CEC37E720833183FC01EE0FFF1FE55A6B
S1132D80F64C26E130E020833183880F991FFC0143
S1132D90E556F64C81E090E0808391830EE318E3DE
S1132DA037E5E32E3AE7F32E42E0C42ED12CAA24D1
S1132DB0A394B12CF801819191918F010097C9F1ED
S1132DC0BE016F5F7F4F65DB2B8D3C8D892D90E0BD
S1132DD0FC01EE0FFF1FE55EF64C4D855E854083DA
S1132DE05183FC01EE0FFF1FE55AF64C208331831B
S1132DF0880F991FFC01E556F64C1082118281E080
S1132E00890D90E093949394FC01EE0FFF1FE55E0F
S1132E10F64CE082F182FC01EE0FFF1FE55AF64CFE
S1132E20C082D182880F991FFC01E556F64CA0821E
S1132E30B182F8E302341F0709F0BCCF8FEF890D8C
S1132E40AB96CDBFDEBFDF91CF911F910F91FF9065
S1132E50EF90DF90CF90BF90AF909F9008956F92C6
S1132E607F928F929F92AF92BF92CF92DF92EF9216
S1132E70FF920F931F93CF93DF93CDB7DEB72897BD
S1132E80CDBFDEBF3C0140DCC3013EDCF82E29E5AA
S1132E903AE720931B3930931C3984E090E0809307
S1132EA05B3990935C3901E010E000939B391093F7
S1132EB09C39FF2009F469C7D3018C91883709F044
S1132EC045C080912E38E82FF0E0EE0FFF1FE55249
S1132ED0F64C20813181232B11F0811103C084E44D
S1132EE096E728C58091213A0E94540A8823B9F0B4
S1132EF0E0912E38E150E0932E38F0E0EE0FFF1F02
S1132F00E552F64C6BE17AE380819181C2DA8091DB
S1132F101F3A90E080933A3890933B3831C08091C7
S1132F203D3A90913E3A20912F3A3091303A209395
S1132F301D3930931E3980935D3990935E39109218
S1132F409D3910929E398091433ABEC5853619F059
S1132F508F3609F0F2C0B2E0FB16A1F084E496E7E4
S1132F6080931D3990931E398BE190E080935D39F5
S1132F7090935E3981E090E080939D3990939E39DF
S1132F8011E0FAC600912E3810E0F801EE0FFF1F91
S1132F90E552F64C40E050E0D30111966C918081EB
S1132FA0918146DB000F111FF801E352F64C808338
S1132FB0918390912E38292F30E0F901EE0FFF1FF5
S1132FC0E352F64C408151814115510521F06AEDDF
S1132FD078E3CA011CC0992309F4DDC6220F331F0C
S1132FE0F901E752F64CD30111966C9180819181DD
S1132FF0C9DA882309F4CFC6E0912E38F0E0EE0F49
S1133000FF1FE752F64C6AED78E38081918141DA43
S1133010D3018C918536C1F48091E23880FD1DC0C6
S11330208DE999E780931D3990931E398EE190E0E4
S113303080935D3990935E3981E090E080939D396F
S113304090939E3912E098C68F3639F48091E23815
S113305081FD03C082E899E76DC48091E0380E9445
S1133060540AE0912E38882309F449C0AE2FB0E009
S1133070AA0FBB1FA352B64C8D919C91892B11F0C2
S1133080EF5F01C0E150E0932E38E0912E38F0E07C
S1133090EE0FFF1FE552F64C6BE17AE380819181DC
S11330A0F8D98091373A9091383A2091293A309161
S11330B02A3A20931D3930931E3980935D399093B9
S11330C05E3910929D3910929E3989E59AE7809372
S11330D01F399093203982E090E080935F39909378
S11330E0603981E090E080939F399093A03980917A
S11330F01F3A90E080933A3890933B3808C4F0E04C
S1133100EE0FFF1FE352F64C108211828091FC38BF
S11331109091FD382091EE383091EF3820931D398D
S113312030931E3980935D3990935E3910929D39A6
S113313010929E3980910239C7C48C3609F058C167
S1133140E0912E38B1E0FB12F1C08091373A9091B2
S1133150383A4091293A50912A3A40931D39509374
S11331601E3980935D3990935E3910929D39109287
S11331709E3920931F393093203982E090E0809368
S11331805F399093603900939F391093A0398BEE87
S113319099E7809321399093223985E190E08093D7
S11331A06139909362390093A1391093A239F0E008
S11331B0EE0FFF1FE352F64C10821182B4E09B2EF7
S11331C017E5E12E1AE7F12E02E0C02ED12CAA2435
S11331D0A394B12C80912E3890E08C01000F111F24
S11331E00352164CF80140815181880F991FFC014C
S11331F0E552F64C60E0808191811ADAD8018D9312
S11332009C93E0912E38F0E0EE0FFF1FE352F64C52
S113321080819181009709F44AC020913E38309111
S11332203F388217930709F442C020914038309107
S1133230413882179307D9F16AED78E32AD980914E
S1133240F4389091F538E92DF0E0DF01AA0FBB1FA7
S1133250A55EB64C2091E6383091E7382D933C9327
S1133260DF01AA0FBB1FA55AB64C8D939C93EE0F9A
S1133270FF1FE556F64C1082118281E0890D90E023
S113328093949394FC01EE0FFF1FE55EF64CE082ED
S1133290F182FC01EE0FFF1FE55AF64CC082D18289
S11332A0880F991FFC01E556F64CA082B18220914B
S11332B02E38822F90E0FC01EE0FFF1FE352F64CF4
S11332C040815181452B09F085CF222361F1880F7C
S11332D0991FFC01E752F64C6AED78E380819181F5
S11332E0D8D82091F4383091F53811E0190D892D92
S11332F090E0FC01EE0FFF1FE55EF64C4091E638CE
S11333005091E73840835183FC01EE0FFF1FE55ACB
S1133310F64C20833183880F991FFC01E556F64C47
S11333201082118229C51FEF190D26C5EE2EF12C2E
S1133330F701EE0FFF1FE552F64C40E050E0D301D9
S113334011966C918081918173D9F701EE0FFF1F63
S1133350E352F64C8083918390912E38292F30E0EC
S1133360F901EE0FFF1FE352F64C408151814115E4
S1133370510521F06AED78E3CA011BC0992379F164
S1133380220F331FF901E752F64CD30111966C91C9
S113339080819181F7D8882309F4F2CDE0912E3809
S11333A0F0E0EE0FFF1FE752F64C6AED78E3808100
S11333B091816FD88091F6389091F7382091E83850
S11333C03091E93820931D3930931E3980935D394B
S11333D090935E3910929D3910929E3933CE81EDCF
S11333E099E780931D3990931E398AE190E0CBC20E
S11333F0803709F093C080913E3890913F38892BF3
S113340079F08091403890914138892B49F087E0D8
S113341098E780931D3990931E3989E590E0B3C2F3
S1133420B2E0FB125CCD00912E3810E0F801EE0FF3
S1133430FF1FE552F64C40E050E0D30111966C9129
S113344080819181F5D8000F111FF801E352F64CE9
S11334508083918320912E3830E02F5F3F4F220FDD
S1133460331FF901E552F64C80819181009709F4EC
S113347040C340913E3850913F388417950739F046
S1133480409140385091413884179507C1F482EE39
S113349097E780931D3990931E3985E290E08093DD
S11334A05D3990935E3981E090E080939D399093EB
S11334B09E39F901E552F64C10821182C3CD6AEDB2
S11334C078E30E9449128091E1380E94540A8823CB
S11334D009F4E4C28091E538882309F400CD809191
S11334E03E3890913F38E0912E38F0E0EE0FFF1F08
S11334F0E352F64C892B39F08081918180934038D6
S11335009093413806C08081918180933E38909396
S11335103F388091E4380E944A0A2BC08436D9F49B
S113352080913E3890913F38009709F03DC48091D6
S1133530403890914138892B49F486EA97E7809383
S11335401D3990931E3986E290E072CDB2E0FB16ED
S113355009F48CC4C4CC893681F480913E389091AE
S11335603F38892B31F48091403890914138892B30
S113357021F381E0E4DB182FFFC39CE8980F92301D
S113358028F0873619F0823709F0B6C28EEF8F0D16
S1133590823008F0A4CCE0912E380E2F10E0D30135
S11335A0AF0DB11D1197F801EE0FFF1FE552F64C58
S11335B040E050E06C91808191813AD8F801EE0F9F
S11335C0FF1FE352F64C80839183E0912E38F0E0A4
S11335D0EE0FFF1FE352F64C80819181009709F4AE
S11335E079C2F3E0FF1261C1D3012C91253719F0A0
S11335F0273609F05AC100E011E041E6C42E49E73C
S1133600D42E51E2A52EB12C88248394912CE02E43
S1133610F12CC701880F991FFC01E25CF74C7F0174
S113362080819181009781F0D30111966C910E9461
S1133630C212882349F06FEA78E3F701808191810F
S11336400E94491202E01DC00130D1F4E12FF0E0E4
S1133650DF01AA0FBB1FA55EB64CCD92DC92DF0141
S1133660AA0FBB1FA55AB64CAD92BC92EE0FFF1F1A
S1133670E556F64C80829182D3011C921F5F01C0F3
S113368000E00F5F013019F2F3018081882309F40F
S113369073C3E0912E38F0E0EE0FFF1FE352F64CB7
S11336A06AED78E3808191810E944912E090F838B4
S11336B0F090F938F1E0EF16F10409F089C09301B4
S11336C02E5F3F4F40E061E08091EA389091EB3803
S11336D00E948608D30112963C91313309F04CC301
S11336E02091BA3851EE520F41E0410F812F90E002
S11336F0FC01EE0FFF1FE55EF64C5430B0F021E004
S113370039E720833183FC01EE0FFF1FE55AF64CA5
S11337102AE130E020833183880F991FFC01E556AC
S1133720F64CE082F182142F27C360E575E76083CD
S11337307183FC01EE0FFF1FE55AF64C62EB70E05B
S113374060837183880F991FFC01E556F64CE08273
S1133750F182842F90E0FC01EE0FFF1FE55EF64C32
S113376049E55AE740835183FC01EE0FFF1FE55AF8
S1133770F64C42E050E040835183880F991FFC01CE
S1133780E556F64CE082F18282E0810F90E01D5F05
S1133790FC01EE0FFF1FE55EF64C4DEA58E740834F
S11337A05183FC01EE0FFF1FE55AF64C42E150E055
S11337B040835183880F991FFC01E556F64CE08243
S11337C0F18230930A3920930B3910920C39D4C208
S11337D09091E3388091BA3898132EC02091003923
S11337E03091013901E0010F812F90E0FC01EE0FCF
S11337F0FF1FE55EF64C4091F2385091F338408358
S11338005183FC01EE0FFF1FE55AF64C20833183F0
S1133810880F991FFC01E556F64C108211828091A5
S1133820043990E080933A3890933B388091E4389F
S11338300E944A0A102FA0C2F3018081853799F4AF
S1133840812F90E0FC01EE0FFF1FE55EF64C21E0B6
S113385039E720833183FC01EE0FFF1FE55AF64C54
S11338602AE130E015C0873609F086C2812F90E046
S1133870FC01EE0FFF1FE55EF64C2FE936E72083CF
S11338803183FC01EE0FFF1FE55AF64C28E230E0CD
S113389020833183880F991FFC01E556F64C81E0A3
S11338A090E0808391831F5F67C26AED78E30E9492
S11338B04912D3018C91843761F58091E23883FDFC
S11338C043C08BE199E780931D3990931E398EE1B3
S11338D090E080935D3990935E3981E090E080932D
S11338E09D3990939E398091F4389091F5382091C8
S11338F0E6383091E73820931F393093203980938C
S11339005F399093603910929F391092A03913E077
S113391033C2853739F48091E23884FD15C081E0E3
S113392099E73BC2823769F48091E23885FD0CC087
S113393086EE98E780931D3990931E398BE190E0D1
S113394077CB873609F4CBCA0091F8381091F9384F
S11339500130110509F593012E5F3F4F40E061E00E
S11339608091EA389091EB380E948608F3018281B5
S1133970813309F005CB85E295E780931D39909357
S11339801E398BE290E080935D3990935E39009309
S11339909D3910939E3956CB0115110509F458C071
S11339A08091EA389091EB3880931D3990931E39B9
S11339B000935D3910935E3910929D3910929E39AF
S11339C089E59AE780931F399093203982E090E04B
S11339D080935F399093603981E090E080939F39C0
S11339E09093A0392DEA38E7209321393093223976
S11339F022E130E020936139309362398093A13918
S1133A009093A2398091FA389091FB38409730F026
S1133A108FE090E08093FA389093FB382AE039E302
S1133A2040E06091FA388091EC389091ED380E9432
S1133A3086086AE079E38091FA380E945F11E09188
S1133A40FA38F091FB38E65FF64C108214E094C12A
S1133A508091E1380E94540A882301F18091003951
S1133A60909101392091F2383091F33820931D3927
S1133A7030931E3980935D3990935E3910929D394D
S1133A8010929E398091043990E080933A38909353
S1133A903B388091E4380E944A0AD4CA8091FE38A7
S1133AA09091FF382091F0383091F13820931D39EE
S1133AB030931E3980935D3990935E3910929D390D
S1133AC010929E398091033990E080933A38909314
S1133AD03B38B8CAD3018C91843711F0873649F446
S1133AE089E399E780931D3990931E3984E190E02E
S1133AF09FCA8DE499E7F6CF813609F041CA8091D7
S1133B000939823008F4C7C0F3012181222309F462
S1133B10AFC0CE0101967C0188E0D7011D928A9541
S1133B20E9F72053218332813153328383818136F3
S1133B3011F481E00CC0853619F4F301138208C036
S1133B40863619F483E0838303C082E0F301838320
S1133B5021FD04C080E090E0DC0104C080E090E03E
S1133B60A0E1B0E020FF03C09F5FAF4FBF4FF30160
S1133B70238121FD119620FF03C04096A11DB11D94
S1133B8031FF03C0905FAF4FBF4F30FF03C00196BA
S1133B90A11DB11D40913D3824E030E0241B3109C2
S1133BA004C0880F991FAA1FBB1F2A95D2F728ECBF
S1133BB034E720931D3930931E3920E230E02093FE
S1133BC05D3930935E3921E030E020939D393093A4
S1133BD09E394DE954E740931F395093203942E010
S1133BE050E040935F395093603920939F3930936C
S1133BF0A03907E0F701E00FF11D282F2F70208373
S1133C0044E0B695A795979587954A95D1F700977F
S1133C10A105B10549F42BE1C22E29E3D22E13E00C
S1133C20AA24A394B12C02C00150E4CFB2E0CB0E7D
S1133C30D11C083008F09EC01F5FF701E00FF11D92
S1133C40808190E083579B48D60114968D939C9372
S1133C501597F601EC5BFF4FA082B182E05CFF4F49
S1133C60A082B1828091E4380E944A0A0F5FDECFBD
S1133C7088EE94E780931D3990931E398DE390E08C
S1133C8080935D3990935E3981E090E080939D3913
S1133C9090939E396EC0E0912E38F0E0EE0FFF1F36
S1133CA0E352F64C6AED78E3813009F046C0808136
S1133CB091810E9449128091E1380E94540A88231C
S1133CC001F180910039909101392091F2383091BD
S1133CD0F33820931D3930931E3980935D399093C6
S1133CE05E3910929D3910929E398091043990E08A
S1133CF080933A3890933B388091E4380E944A0A82
S1133D0038C08091FE389091FF382091F03830917E
S1133D10F13820931D3930931E3980935D39909387
S1133D205E3910929D3910929E398091033990E04A
S1133D3080933A3890933B381CC0808191810E94D3
S1133D40491280E698E780931D3990931E398DE4DB
S1133D5090E080935D3990935E3981E090E08093A8
S1133D609D3990939E390E94170E80930739909342
S1133D70083912E010920A3980910A39882319F01F
S1133D8010931A398BC0812F01C081E00E94CD119C
S1133D9080931A3983C081ED99E780931D399093FC
S1133DA01E398AE190E044C9F2E0FF1298C8F30199
S1133DB061810E94C212882309F458C000E010E017
S1133DC0000F111F025C174C6AED78E3D8018D9146
S1133DD09C910E94491286E997E780931D3990933C
S1133DE01E3980E190E080935D3990935E3981E0E3
S1133DF090E080939D3990939E392091F4383091CE
S1133E00F5384091E6385091E73840931F39509384
S1133E10203920935F393093603910929F39109282
S1133E20A03929E53AE7209321393093223922E059
S1133E3030E020936139309362398093A1399093B3
S1133E40A23929E537E720932339309324392DE328
S1133E5030E020936339309364398093A33990938D
S1133E60A439F8011082118215E086CF8091403880
S1133E7090914138009749F0F30161810E94C21288
S1133E80882319F001E010E09BCF81E699E7809345
S1133E901D3990931E3981E290E0CAC8F301108263
S1133EA0109244381DBA80E02896CDBFDEBFDF9162
S1133EB0CF911F910F91FF90EF90DF90CF90BF9023
S1133EC0AF909F908F907F906F900895CF93809143
S1133ED0073990910839892B09F10E94170E209116
S1133EE00739309108398217930708F4945CAC01C0
S1133EF0421B530B9A014B30510530F01092073995
S1133F00109208392AE030E080913C38811106C0D3
S1133F1065E0621B8AE0821B0E942E0B0E94A7139D
S1133F20882311F0C1E018C00E940A14C82F81111F
S1133F30F9CF8091073990910839892B69F48EE67D
S1133F4098E30E944A14C82F811105C08EE698E3B5
S1133F500E942F1701C0C2E08C2FCF9108950E94B8
S1133F60FC040E949C0A0E943E0ECFE1D0E00E9415
S1133F70E00C8823E1F380910838809307380E948D
S1133F80F80880930838109242388091A00082315A
S1133F9019F40E94E90802C00E94DA080E94830B07
S1133FA095DF0E94FF030E9403030E94A30F0E9457
S1133FB07D000E94A9098091BD3A9091BE3A0A976A
S1133FC020F461E084E70E94300A8091BD3A909128
S1133FD0BE3A8536910520F060E084E70E94300AFD
S1133FE020910A3830910B3880910A3890910B381F
S1133FF046E0369527954A95E1F7821B930B80930B
S11340000A3890930B3880910A3890910B38939525
S113401080930A3890930B382091BD3A3091BE3A80
S113402080910A3890910B38220F232F221F330BD3
S11340303195FE01E21BF30BE454FF432081821B04
S1134040910980930A3890930B3880910A389091A3
S11340500B3866E0969587956A95E1F780930C385E
S11340600E94C90A84CFEE0FFF1F0590F491E02D42
S10940700994F894FFCF4F
S11340762D7D39575C79514234617D593B655B44EA
S11340860100000201020001010300030103010013
S113409601020101010301000D0B0C0A02010500D6
S11340A603042422212308200925141211131015B0
S11340B61C1A191B181D010D1926323E4A56626F29
S11340C678838E98A2ABB4BFC5CFD4DBE1E7ECF01E
S11340D6F4F7FAFCFEFF74BFFA541C96B2261EEBE4
S11340E6D68BC0C20A610101020102020102020169
S11340F60202020202010102696464716400696BCE
S1134106696C6C7500636865617400476F74207927
S10F4116612120005265736574212000B3
S1134122FF000139383938FFFF01FF1FFF01FF018A
S11341320001FF8080C0FF40FFC0804001C00140F9
S1134142800001D4FF0103070F1F3F7FFF05FF001B
S9030000FC
