:1000000046C0000061C000005FC000005DC000008D
:100010005BC0000059C0000083C70000D8C70000C3
:10002000C0C5000051C000004FC000004DC000001E
:100030004BC0000007C6000038C6000045C00000E5
:1000400043C0000041C000003FC000003DC00000B0
:10005000F3C6000039C000001BC7000035C0000017
:1000600033C0000031C000002FC000006EC6000089
:10007000C7C6000029C0000027C00000AD0BDB0B85
:10008000E20BAB0CAB0CF80B0C0C4A0C710C1124F2
:100090001FBECFEFCDBFDFE3DEBF18E3A0E0B8E3C4
:1000A000E2EFFFE302C005900D92A633B107D9F746
:1000B0002BE3A6E3B8E301C01D92A831B207E1F734
:1000C0000E940C1F0C94991F9BCF28ED30E089E013
:1000D0004091C83A50E0421753074CF04091C83A5B
:1000E00050E0B9016E5E7F4F641775072CF48150A4
:1000F000295131098111ECCF0895CF93DF9380917D
:1001000039388F5F80933938C4E6D1E08C2F0E9454
:10011000150A811101C0D0E0CF5FC836B9F7DD23E1
:1001200019F08CE70E94F40980913838823020F071
:1001300094E0909342380DC081110BC090914238E9
:10014000943061F410924238109240381092413845
:1001500005C09091C53A9111F1CF18C0811116C018
:100160009091C53A911112C08091433893E3899FD1
:10017000802D11248093003880E098E38093033829
:10018000909304388FEF8093BC3A09C0982F907FEA
:1001900031F08F5F8F7080933838109239384091EA
:1001A000C83A2091003830E050E0B9016A50710936
:1001B00080913838461757075CF04091C83A50E0B4
:1001C000265F3F4F241735071CF0823008F443C0E8
:1001D00081110BC08091C53A811195C08091393849
:1001E000883008F490C080EF63C0813041F56DDF46
:1001F00080933738882379F190913938983008F412
:1002000082C090914338913011F4835014C09230E1
:1002100031F4833091F085508230E8F40EC0933091
:1002200039F49CEF980F923040F08730A1F405C06C
:10023000943089F48550833070F481EF39C0823076
:1002400069F08330C1F1843009F05DC080913938A4
:10025000803408F458C01092383855C087E090E0D8
:10026000809340389093413880913938883038F005
:100270002FEF44E668E080E8FED780930038809155
:1002800039388A3F08F43FC080914338909137381D
:10029000981B90933638891710F489EF04C093E3C4
:1002A000899F802D11248093003880913838806F89
:1002B0008093383828C080913938883020F105DFA4
:1002C0008093373890913638482F50E0209143384A
:1002D000291708F4292F30E02B5F3F4F42175307AF
:1002E00009F0B9CF83E6890F0E94F4098FE190E00D
:1002F00080934038909341386091433880913638EC
:100300000E94E40AD2CF80E0DF91CF91089581E08E
:1003100080932204E6E2F4E0808310923004A1E2AC
:10032000B4E092E09C93908310923104E0E1F8E015
:1003300097E0968398E0948383838C938581816092
:1003400085838581846C85830895809114088860F5
:10035000809314081092130882E08093220499E09D
:1003600021E081E02093210430E13A95F1F700C0CB
:100370002093220430E13A95F1F700C0915089F7BB
:1003800028E0209314088093130892E090932104AE
:100390009091150891609093150890911508946CB0
:1003A00090931508209314088093130880932104D8
:1003B0008091150881608093150880911508846CE0
:1003C000809315080895282F90911508906C9093AC
:1003D000150890911508892F847092FD03C0209311
:1003E0001708089584E008958CE08093663A809120
:1003F000150887FD0AC08091150886FD06C080910A
:10040000663A8111F4CF8FEF089580911508806CC2
:10041000809315088091150882FD09C08091150808
:1004200083FD07C08091150882958170089584E04E
:10043000089582E00895FC018CE08093663A9091E3
:100440001508892F8370823011F088E0089590910B
:10045000150897FD06C09091663A9111F8CF8FEF7D
:10046000089590911508906C909315089091150837
:1004700092FD1EC09091150893FD1DC09091150826
:10048000892F807194FD16C090911408611102C0EB
:100490009B7F01C0946090931408909118089083FA
:1004A000611109C090911408926090931408089506
:1004B00084E0089581E00895FC018CE08093663A21
:1004C0009091150893709230B1F480818093180850
:1004D0008091150886FD06C08091663A8111F8CF9B
:1004E0008FEF08958091150882FD07C0809115084F
:1004F00082958170089588E0089584E00895E0E190
:10050000F8E08481836084830895CF92DF92FF9224
:100510000F931F93CF93DF936B01F42EE901182FF4
:10052000110F812F50DF81112BC05EDF813019F454
:10053000E6DF81E027C0811123C0FF2049F0C6011A
:10054000BBDF81111DC08FEFC81AD80AFA94F5CF0E
:10055000013408F000E41F5F10931708023040F0E8
:1005600060E0CE0168DF81110BC021960150F6CF0B
:1005700061E0CE0160DF811103C0C1DF80E002C015
:10058000E4DE8FEFDF91CF911F910F91FF90DF900D
:10059000CF90089510923D3810923C3881E08093BE
:1005A00002380C94220BCF9380914238833081F42F
:1005B0006AE070E080913A3890913B380E94610E79
:1005C000882331F0E7DF109242380E94220B9BC053
:1005D0008BE72BD7811197C080914238882319F07F
:1005E000833009F090C0C0915EBFEC2FF0E08091A5
:1005F00008388F3F19F090910C3801C090E0E75314
:10060000F54C90838F3F09F47EC09091073889178D
:1006100009F479C00E94520E80933A3890933B3887
:10062000809107388F3F09F06EC08091083820E232
:10063000829FC0011124815C9E4F8093403890932B
:10064000413880914238833009F0A4DF83E0809301
:10065000423880913D38E82FF0E0EA5BF044208199
:1006600090910838291312C090910238917090939C
:100670000238E0916DBFF0E0E753F54C1082E09155
:100680006CBFF0E0E753F54C108209C010920238BD
:10069000843028F47FDF82E08093423834C08F5F5B
:1006A00080933D3890913C389F5F943018F490933C
:1006B0003C3829C010923C38909102389130E1F4D6
:1006C000982F937069F4E82FE695E695F0E0E059ED
:1006D000F044E581F0E090910C38E753F54C9083BD
:1006E000883189F48BE780D6EC2FF0E0E753F54CA6
:1006F000108282E490E003C04DDF81E290E08093BD
:1007000040389093413880E0CF91089510924F384F
:100710001092503810924E3881E080930D3810922C
:100720004D3890C797FF03C09195819591098D33FE
:1007300091051CF021E0209342382091423821306D
:1007400009F58C3391051CF460E080E01AC088370D
:1007500091051CF461E081E014C0863991051CF418
:1007600062E082E00EC0883C91051CF463E083E007
:1007700008C08C3291401CF464E084E002C065E063
:1007800085E022C70895CF93DF938091423881306E
:1007900071F46AE070E080914B3890914C380E947F
:1007A000610E882321F0B2DF10924238E5C087EF56
:1007B0003CD68111E1C08DE738D68111DDC0809132
:1007C0004238823008F0D8C08091F13A9091F23AE4
:1007D000892B41F48091C13A9091C23A8093F13AC9
:1007E0009093F23AC091C13AD091C23A8091F13AD5
:1007F0009091F23AC81BD90BCE0194DF8091523808
:10080000813089F018F08230C1F01FC0C43D9EEFE6
:10081000D90714F491E004C0CD32D1405CF092E0ED
:100820009093513812C0CD3291E0D907C4F7C9383E
:10083000DF4F84F31092513808C0C43D9EEFD907B2
:100840004CF3C837D105B4F3EACFC0915EBFEC2FAB
:10085000F0E090915138992319F020910C3801C0A3
:1008600020E0E753F54C20832FE931E02093403816
:1008700030934138891709F47FC00E94520E80934B
:100880004B3890934C389091503880915138911159
:1008900008C0882331F091E0813009F490E0909312
:1008A0004D3880935238882309F466C080914238CD
:1008B000811101C02BDF81E08093423880914D3857
:1008C00020915238882311F083E0282730E080916E
:1008D0005038E82FF0E0E455F044408150E0241710
:1008E000350791F490910D38917090930D38E09107
:1008F0006DBFF0E0E753F54C1082E0916CBFF0E083
:10090000E753F54C108202C010920D388F5F809330
:10091000503890914E389F5F933018F490934E3832
:100920002BC010924E3890910D389130E1F4909197
:100930004F38E92FF0E0E059F044E681F0E02091F3
:100940000C38E753F54C20839F5F90934F388231EA
:1009500099F48DE749D5EC2FF0E0E753F54C108280
:1009600082E490E005C0D2DE1092423881E290E04D
:10097000809340389093413880E0DF91CF91089583
:10098000CF93DF93F89488ED84BFC1E0C0936100FA
:100990008AE4809300048CE7809320049FE3909383
:1009A00040048091530480688093530480915404E0
:1009B0008068809354048091550480688093550426
:1009C000809133048068809333048091340480687C
:1009D0008093340480913504806880933504C093FB
:1009E0000102D2E0D09305042BE531E02093080802
:1009F0003093090880EA8093050880EC809306080C
:100A000083E0809307081CBA1DBA1FBAC093030A7B
:100A100088E08093000A9093020287E78093010A9E
:100A2000C0930A0A8BE08093050A8091000A8160D6
:100A30008093000A85E08093400A1092410A8FEF6C
:100A400091E080934C0A90934D0A1092450AC0930E
:100A5000500A1092510A8BE893E080935C0A9093BD
:100A60005D0AC093550A53DC82E18093A00080E2C6
:100A70008093A200C093A100D093000684E48093E9
:100A800002068EE180930606C0930A068091000656
:100A9000816080930006C093080610924006D093B0
:100AA000410682E58093420684E080934506809368
:100AB0004606C0934A0680914006816080934006B6
:100AC000C093480680E48093A00680E88093A10646
:100AD0008091A00681608093A0068091410180FDF5
:100AE000FCCF80E380934001109247018091410147
:100AF00082FDFCCF80E098E780934A0190934B0100
:100B0000809148019091490182968093F53A9093A3
:100B1000F63A20914A0130914B018091F53A90913B
:100B2000F63A2817390770F420914A0130914B01A9
:100B30008091F53A9091F63A821B930B8093F53AA7
:100B40009093F63A8091410183FDFCCF8091F53A74
:100B50009091F63A80934C0190934D0183E08093FD
:100B6000420181E08093520188E08093500180919E
:100B7000410180FDFCCF8091400181608093400164
:100B80008091500181608093500110927B3A8BE7F5
:100B90009AE38093BF3A9093C03A7894DF91CF91D3
:100BA00008951F920F920FB60F9211248F939F9367
:100BB000AF93BF93EF93FF9387E08093460484E461
:100BC00080932604ECB388E0E89FF0011124E753FA
:100BD000F54CA8E2BAE096E081918D939A95E1F701
:100BE0008BE08093050A8CB3833058F48CB391E08A
:100BF00001C0990F8A95EAF799B98CB383958CBB9C
:100C00000AC08CB3833021F42A9A83958CBB03C02D
:100C10002E9A88278CBB8091663A882329F0809190
:100C2000663A81508093663A8FEF80930B0AFF916A
:100C3000EF91BF91AF919F918F910F900FBE0F9049
:100C40001F9018951F920F920FB60F9211248F9339
:100C50009F93EF93FF93E091BF3AF091C03A808168
:100C6000882391F08081809302088091BF3A90910F
:100C7000C03A01968093BF3A9093C03A809105089C
:100C800080628093050805C081E080930938109246
:100C9000450A81E08093460AFF91EF919F918F91E1
:100CA0000F900FBE0F901F9018951F920F920FB6C6
:100CB0000F9211242F933F934F938F939F93EF9312
:100CC000FF93E0910538F09106388081811108C0CA
:100CD00080910338909104388093053890930638BA
:100CE000E0910538F091063880818823E1F0208179
:100CF0004091BC3A30E02F573109429FC001439FD9
:100D0000900D1124892F990F990B80589F4F809334
:100D1000A106809105389091063801968093053898
:100D20009093063803C080E88093A10681E0809309
:100D3000560AFF91EF919F918F914F913F912F9183
:100D40000F900FBE0F901F9018951F920F920FB625
:100D50000F9211248F93EF93FF9380914A38811162
:100D600044C0EDB3F0E080910008E558F54C808375
:100D7000EDB3F0E0E558F54C808180930208EDB3C7
:100D8000F0E0E558F54C80818A3039F0EDB3F0E0C1
:100D9000E558F54C80818D3049F4EDB3F0E0E5582D
:100DA000F54C108281E080934A381FC0EDB3F0E02B
:100DB000E558F54C8081883039F0EDB3F0E0E55826
:100DC000F54C80818F3759F48DB3882341F0EDB312
:100DD000F0E0E558F54C10828DB3815005C08DB31D
:100DE000803418F48DB38F5F8DBB80E88093040846
:100DF000FF91EF918F910F900FBE0F901F9018955C
:100E00001F920F920FB60F9211248F93EF93FF93BF
:100E100010924A0A10924B0A81E08093450AE5E05D
:100E2000F8E080818F7D8083FF91EF918F910F900B
:100E30000FBE0F901F9018951F920F920FB60F9232
:100E400011248F939F9380913E38811112C080911D
:100E500006068E3149F48091100690911106809318
:100E6000F33A9093F43A0AC0809110068093C83AFE
:100E700005C080913E38815080933E3881E0809358
:100E80000B069F918F910F900FBE0F901F9018959A
:100E90001F920F920FB60F9211248F939F93809100
:100EA000460681110AC080915006909151068093A8
:100EB000C33A9093C43A81E010C0809146068130D5
:100EC00079F488E080930604809150069091510651
:100ED0008093C13A9093C23A84E08093460610C052
:100EE00080915006909151068093BD3A9093BE3AFE
:100EF0008FB38F3029F41092460688E08093050462
:100F00008FB390E001968F7099278FBB81E080931B
:100F10004B069F918F910F900FBE0F901F901895C9
:100F20001F920F920FB60F9211242F933F938F931E
:100F30009F938091430181FF39C0809148388F3F52
:100F400029F0809148388F5F80934838809148011C
:100F50009091490182968093F53A9093F63A2091C8
:100F60004A0130914B018091F53A9091F63A281759
:100F7000390770F420914A0130914B018091F53A84
:100F80009091F63A821B930B8093F53A9093F63A40
:100F90008091410183FDFCCF8091F53A9091F63A22
:100FA00080934C0190934D0182E006C080914938B6
:100FB0008F5F8093493881E0809343019F918F91A7
:100FC0003F912F910F900FBE0F901F9018951F9279
:100FD0000F920FB60F9211248F9381E080934806F1
:100FE000809353018F910F900FBE0F901F90189513
:100FF0009091021091FDFCCFFB01480F841739F04E
:10100000A82FB0E0BC5E9C9191938F5FF7CF0895BD
:101010009DE924E033E0442309F15091021051FD91
:10102000FCCF94BF20930010E82F582F5F718F5F83
:101030006F5F7F4FDB011197AC91F0E0FC5EA08306
:10104000415019F0E82F5F3181F794BF30930010C1
:101050005091021052FFDFCF81E0089580E00895A3
:10106000F9019C012E1B3F0B88E0489FA001112431
:1010700044565044662369F0DF01A20FB31FA770E6
:10108000BB27A40FB51F80819C9198279193615035
:10109000F1CF0895AF92BF92CF92DF92EF92FF927D
:1010A0000F931F93CF93DF9300D0CDB7DEB7D62E2B
:1010B000C42E59017C01E894F7F8F982EA82062FE0
:1010C00042E0BE016F5F7F4F80E51FDA182F81116C
:1010D00005C095014C2D6D2DC701C2DF812F0F90EA
:1010E0000F90DF91CF911F910F91FF90EF90DF90C4
:1010F000CF90BF90AF90089520910938222359F0E6
:101100008093BF3A9093C03A1092093881E080935F
:10111000450A80E0089581E00895282F811101C0DB
:1011200021E08FEF90E0821B9109982F8827815052
:101130009F4F80934C0A90934D0A089582E18093CB
:10114000A000E0E0F6E080818B7F80838EE18093D9
:10115000060683E080933E38089582E28093A000E3
:10116000E0E0F6E080818460808387E0809306067B
:1011700083E080933E3808958091BD3A9091BE3AC5
:1011800024E0969587952A95E1F799278036910571
:1011900040F48F34910588F4C097099790F492E059
:1011A00011C08537910568F08E38910540F08E5951
:1011B0009109819730F490E005C093E003C091E07D
:1011C00001C09FEF80912A38981719F090932A3820
:1011D0008FEF089580912838909129389C01322F03
:1011E00022273295330F307E822793279C01232FAD
:1011F00033272695822793279C013695322F222765
:1012000037952795822793278093283890932938FC
:101210000895DF92EF92FF920F931F93CF93DF9386
:101220007B018A01C0915C0AD0915D0AE82FF0E051
:101230003197E770FF27E55DF74CD080CBDF8D213C
:10124000C80FD11DC7DF8D21C81BD1090C171D0781
:1012500008F4E801C701EC16FD0608F4CE018093FE
:101260005C0A90935D0ADF91CF911F910F91FF90DF
:10127000EF90DF9008950F931F93CF93DF93C82FC4
:10128000D42F022FE62FF0E03197E770FF27E55DBE
:10129000F74C10819FDF8123C80F9CDF8123C81B7F
:1012A0008C2F002341F09C2F0C1708F4902F8D2FCA
:1012B000D91708F4892F41E050E08D1710F040E075
:1012C00050E02D2F30E024233523232B09F08D2FE0
:1012D000DF91CF911F910F910895CF92DF92FF92EE
:1012E0000F931F93CF93DF93CDB7DEB76497CDBF36
:1012F000DEBF44E1BE016F5F7F4F80E079DE87E6AD
:10130000C82E8AE3D82E8E010F5F1F4FF12CF801F3
:1013100081918F01F6019081981308C0F394FFEF3B
:10132000CF1ADF0A80E1F812F2CF08C041E0B6011F
:101330008F2D6EDE882391F391E036C020914438E2
:10134000309145383093773A2093783A80914638F7
:10135000909147389093793A80937A3A89899A891B
:101360009827892798272817390769F48B899C893A
:101370009827892798272091463830914738281791
:10138000390749F410C042E067E77AE380E140DEC4
:10139000882361F3D1CF42E069E77AE382E138DE66
:1013A00091E0811101C090E0892F6496CDBFDEBF2E
:1013B000DF91CF911F910F91FF90DF90CF90089513
:1013C000E82FEF77E695E695E695F0E0E959F54CDC
:1013D000208130E08770A90102C0559547958A9514
:1013E000E2F7CA0181700895E82FEF77E9F0E695FA
:1013F000E695E695282F2770F0E0E959F54C87FF30
:101400000AC081E090E001C0880F2A95EAF7809534
:101410009081892308C081E090E001C0880F2A955F
:10142000EAF79081892B80830895CF93C82F8F7717
:10143000C7DF2C2F221F2227221F91E0811101C01C
:1014400090E0822F8927CF910895E3E0F1E180E0D9
:101450009191890FED3091E1F907D1F7837091E017
:10146000980F909343380895CF93E7E6FAE31192EB
:101470008AE3EB37F807D9F7E8DFC82F811102C0FC
:101480008EE60BC0813011F48FE607C0823011F474
:1014900080E703C0833011F481E7A6DF84E68C0F78
:1014A000CF91A2CFCF93DF9344E167E67AE380E068
:1014B0009FDDCEE6D0E08C2F83DFD80FCF5FC23721
:1014C000D1F7D13011F0D0DF01C0BFDF8091773A82
:1014D0009091783A98278927982780934438909359
:1014E00045388091793A90917A3A982789279827B8
:1014F0008093463890934738DF91CF910895CF93EA
:1015000086E793DFC82F882381F0E09160BFF0E089
:10151000E753F54C1082E09161BFF0E080910C3808
:10152000E753F54C8083C1E04CC085E77EDF88231C
:1015300059F1E09160BFF0E080910C38E753F54C31
:10154000808380915F38882379F08091C63A9091AA
:10155000C73A2091F33A3091F43A80962817390728
:1015600018F086E741DF2DC08091C63A9091C73AC6
:101570002091F33A3091F43A08968217930708F1D4
:1015800081E080935F381DC08091C63A9091C73A40
:10159000892B41F48091F33A9091F43A8093C63AC2
:1015A0009093C73A8091C63A9091C73A2091F33A06
:1015B0003091F43A80962817390718F085E714DF40
:1015C000C0E08C2FCF910895E2E6FFEB90E0A5817B
:1015D000B0E0981734F420910C38A753B54C2C93F5
:1015E00003C0A753B54C1C92A081B0E0961734F409
:1015F00020910C38A753B54C2C9303C0A753B54C7E
:101600001C929F5F3196953011F70895ACE6BFEBC1
:10161000EC91F0E0E753F54C80831296EC91129731
:10162000F0E0E753F54C60831196EC911197F0E0F0
:10163000E753F54C80831396EC91F0E0E753F54CBB
:1016400060830895CF93DF93E0E7FFEBEF01A6817E
:10165000B0E0A753B54C1C923196A881B0E0A753D7
:10166000B54C1C928FEBE637F80781F7DF91CF91ED
:101670000895CF92DF92EF92FF920F931F93CF9333
:10168000DF9380914238882329F080E4CEDE8111F7
:1016900024C050C0C0E7DFEB1AE7812FC6DEEE8121
:1016A000F0E0882359F080910C38E753F54C8083A3
:1016B000E881F0E0E753F54C10820AC0E753F54C9F
:1016C0001082E881F0E080910C38E753F54C80837C
:1016D0001F5F2196103809F7D8CF80916138982F75
:1016E0009D7FE0915FBFF0E0913011F0853021F4F3
:1016F00090910C38969506C0823011F0843031F408
:1017000090910C38E753F54C90830CC0882311F06E
:10171000863029F490910C3896959695F3CFE7533F
:10172000F54C1082803220F48F5F8093613802C0C4
:1017300010926138909160389F5F90936038E0918B
:101740004038F0914138EF71FF27E930F10508F09A
:1017500002C1E25CFF4F0C94931F60E080E034DF35
:10176000E0916CBFF0E0E753F54C1082E0916EBF62
:10177000F0E0E753F54C1082E09160BFF0E0E753F2
:10178000F54C1082E0916DBFF0E0E753F54C10820C
:10179000E0916FBFF0E0E753F54C1082E09161BF3C
:1017A000F0E0E753F54C1082E0915EBFF0E0E753C4
:1017B000F54C1082D0C0892F817090FD80910C383B
:1017C00060E00DC0692F70E093FF02C060957095D6
:1017D00095E0660F771F9A95E1F7615E80E0DF91F3
:1017E000CF911F910F91FF90EF90DF90CF900ECF90
:1017F000892F837009F0AFC092FF03C065E085E0D8
:1018000002C060E080E0DF91CF911F910F91FF90C7
:10181000EF90DF90CF90D8CE953010F010926038D6
:1018200040916038242F30E0F901EE59F044E58111
:10183000F0E0E753F54C1082443019F0C9010196ED
:1018400002C080E090E0FC01EE59F044E581F0E058
:1018500080910C38E753F54C8083E6E6FFEBE21B02
:10186000F30BE081F0E0E753F54C1082443029F0AF
:1018700083E090E0821B930B02C084E090E0FC01C7
:10188000EE59F044E081F0E080910C38E753F54CDC
:10189000808361C0C2E6DFEB87E6E82E8FEBF82E8F
:1018A0006E010D8110E096DC87FF03C080910C383B
:1018B00001C080E0F801E753F54C80832196F601E2
:1018C000008110E087DC87FF03C080910C3801C0E5
:1018D00080E0F801E753F54C8083EC16FD0601F734
:1018E0003AC090FD38C0E2E6FFEB86E69FEB9F0131
:1018F000A581B0E0C681D0E0C753D54C4881A7533D
:10190000B54C4C933196E901A881B0E0C081D0E09C
:10191000C753D54C2881A753B54C2C938E179F07DE
:1019200031F7C0916BBFD0E055DC813E18F080915B
:101930000C3801C080E0C753D54C8883C09166BF86
:10194000D0E048DC813E18F080910C3801C080E086
:10195000C753D54C8883DF91CF911F910F91FF9092
:10196000EF90DF90CF9008950F931F93CF938091C6
:10197000C83A893108F08EC1C1E0C093C53A809160
:101980004038909141388827892B09F02DC18091EA
:10199000403890914138807E9927892B31F48FE32C
:1019A00098E3809303389093043880914038909165
:1019B0004138807E9927809709F053C040E052E279
:1019C00060E070E281E025DC20E041E065E080E855
:1019D00052DC8093193880914838882309F441C03B
:1019E00080915E3881110FC084E080935D388FEF65
:1019F0008093BC3A87E198E380930338909304384E
:101A000081E080935E388091BC3A882349F08091D0
:101A10005D38811105C08091BC3A86958093BC3AAF
:101A20008091BC3A811116C010925E388FE398E322
:101A300080930338909304388091403890914138D6
:101A40008F71992780934038909341388FEF80931E
:101A5000BC3A07C080915D38882319F0815080938B
:101A60005D388091403890914138807E992780344C
:101A7000910551F08091403890914138807E9927AE
:101A8000803A910509F047C080914838882309F4CD
:101A900042C080915C38811112C08FEF8093BC3AB4
:101AA00080E09AE080935C0A90935D0A84E198E379
:101AB000809303389093043881E080935C38809160
:101AC0004038909141388134910518F420E830E095
:101AD00002C020E032E080915C0A90915D0A821B96
:101AE000930B80935C0A90935D0A8091BC3A81329B
:101AF00030F08091BC3A80528093BC3A0CC0109276
:101B00005C388FE398E38093033890930438109205
:101B10004038109241388091403890914138807E11
:101B2000992780369105A9F510925B3885E598E3F1
:101B300080930338909304388C01C1E0C33039F0AE
:101B400020E041E065E080E896DBF8018183CF5F2B
:101B50000F5F1F4FC63091F7809148388823C9F036
:101B600040E054E060E872E085E053DB8091BC3AED
:101B700020EA40E162E07FDB8093BC3A20E940E765
:101B800062E08091553877DB80935538809580935B
:101B900058388091403890914138809140389091E8
:101BA0004138807E9927803A9105C9F481E198E314
:101BB000809303389093043880914838882379F0D3
:101BC0004FEF5FE060E075E086E023DB8091BC3A98
:101BD000882329F08091BC3A81508093BC3A80914F
:101BE00040389091413858C08091403890914138A8
:101BF00088278115914009F04FC08091403890911D
:101C00004138807E99278139910508F045C060915F
:101C1000403870914138607E77276F5F7F4F86E054
:101C2000660F771F8A95E1F7AB015D5F7E5F81E00C
:101C3000F0DA80914838882379F180915438811105
:101C40000EC083E0809353388EE098E3809303388E
:101C5000909304388FEF8093BC3AC09354388091AE
:101C60005338811113C080914038909141388F7161
:101C7000992780934038909341388FE398E380937D
:101C80000338909304381092543806C081508093E2
:101C9000533802C01092C53A80914838CF911F91B5
:101CA0000F91089580914801909149012091493800
:101CB000892F992786953CE3239F800D911D112440
:101CC00008950F931F93CF93DF938C01EB01EADF0D
:101CD0009C018017910708F4345CC00FD11F81E08C
:101CE000C217D30708F080E0DF91CF911F910F91C9
:101CF00008951F93CF93DF9300D000D0CDB7DEB708
:101D000019821A821B821C82A0E7BFEB86E79FEB39
:101D10002FEFED91F0E0E753F54C20838A179B07F6
:101D2000C1F78091C33A9091C43A89839927209151
:101D3000C33A3091C43A332728173907C1F3E091E9
:101D400071BFF0E0E753F54C10828091BD3A90915D
:101D5000BE3A80389C40C8F3E09174BFF0E0E7538E
:101D6000F54C10829E012F5F3F4F40E064E08CEC09
:101D70009CE390D989818F3349F48A81811106C00F
:101D80008B81803C19F48C81843109F0FFCF80E095
:101D900090E0FC01E753F54C1082019688329105E2
:101DA000C1F710E08091C33A9091C43A212F30E0FE
:101DB0008F7399272817390718F40CDA1F5FF2CFB1
:101DC00080E02496CDBFDEBFDF91CF911F910895B3
:101DD000CF93DF93E2E6FFEBEF01A581B0E0A753DD
:101DE000B54C1C923196A881B0E0A753B54C1C921B
:101DF0009FEBE736F90781F78330D9F4E09167BFAD
:101E0000F0E080910C38E753F54C8083E09168BF97
:101E1000F0E080910C38E753F54C8083E09169BF86
:101E2000F0E080910C38E753F54C80838FE391E02C
:101E300046C0813099F4E0916ABFF0E080910C389F
:101E4000E753F54C8083E0916BBFF0E080910C3854
:101E5000E753F54C80838FE591E031C08430D9F4AD
:101E6000E09162BFF0E080910C38E753F54C80833D
:101E7000E09163BFF0E080910C38E753F54C80832C
:101E8000E09164BFF0E080910C38E753F54C80831B
:101E90008FE791E014C08230B1F4E09165BFF0E0CB
:101EA00080910C38E753F54C8083E09166BFF0E0F9
:101EB00080910C38E753F54C80838FE991E0809353
:101EC000403890934138DF91CF910895CF93DF93BD
:101ED000809142388D7F09F073C18AE7A6DA8823A2
:101EE00041F080914238823009F06AC11092423844
:101EF00067C18BE79ADA90910838882329F09F3FD1
:101F000019F082E080934238E0915EBFF0E09F3F9D
:101F100019F080910C3801C080E0E753F54C8083C4
:101F20008091623881110CC0C8E6D8E353D9837020
:101F3000899388E3C437D807C9F781E08093623872
:101F400080916238813071F480914238823051F44E
:101F50008093623810926738109266381092653814
:101F60001092633880916238823019F5809165381B
:101F7000863038F0809163388F5F80936338109299
:101F80006538E0916338E63048F083E0809362384A
:101F9000109265381092633855DB12C1F0E0E059B9
:101FA000F044E081F0E080910C38E753F54C8083F9
:101FB0002BC0833049F580916538883038F08091A6
:101FC00063388F5F8093633810926538E09163388F
:101FD000809167388E1740F41092663885E08093C0
:101FE000623880E0F5DE98C080916538833030F447
:101FF000F0E0E859F74C80818F5FEADE8091653828
:10200000873010F080E0E4DEC0916238C53009F01E
:1020100086C08091083890910738981709F471C0EC
:102020009091643891116FC0843008F06CC091E0D9
:1020300090936438109265388F5FCADE84E0809395
:102040006238C093333880916638E82FF0E0E85961
:10205000F74C20819091083829131DC08F5F809321
:102060006638E0916738E817A0F5EF5FE0936738CE
:102070001092653810926338E13059F0E695F0E03F
:10208000E059F044E581F0E080910C38E753F54CDD
:10209000808383E01CC080E290E08093403890937E
:1020A0004138A0E7BFEBED91F0E080910C38E753A9
:1020B000F54C80838FEBA637B807A9F710926638E6
:1020C00010926738109265381092633886E08093DA
:1020D0003338809166388C3020F4809167388C30AA
:1020E00090F082E490E080934038909341388AE702
:1020F0007BD9109265381092633887E0809333382B
:1021000002C01092643880916538883C41F483E0C5
:1021100080936238109263381092653851C0809174
:102120006238843081F480916538873060F080E0D7
:102130004FDE1092643810926538109263388091A7
:1021400033388093623880916238863041F58091CF
:102150006538843038F0809163388F5F80936338BE
:102160001092653880916338863040F0109265385F
:102170001092633887E08093623822C0E5E0F0E097
:10218000E81BF109E059F044A081B0E0A753B54C39
:102190001C92E681F0E0E753F54C10820CC08730CA
:1021A00051F410926638109267381092623810928B
:1021B000423880E00DDE809165388F5F809365380E
:1021C00080E0DF91CF9108951F93CF93DF93CDB738
:1021D000DEB76297CDBFDEBF8A8B80E1E6E3FFEB1F
:1021E000DE01119601900D928A95E1F7FE0131967C
:1021F00090E08FEF219131912617370709F4892F4D
:102200009F5F9830B9F7883010F080E014C018E173
:10221000180F41E0BE016F5E7F4F812F0E94F807CB
:1022200089898F3F91F741E0BE016E5E7F4F812F1C
:102230000E94080881E06296CDBFDEBFDF91CF919A
:102240001F910895262FFB0135E59E2F921B9817AD
:1022500028F49081929593279193F7CF08958F5FFB
:10226000883030F4E82FF0E0E25BF54C1082F7CFD5
:102270000895AC0190E0E92FF0E0DA01AE0FBF1F46
:102280003C91E60FF71F311105C081E09081992341
:1022900049F007C020812223C1F3321302C09F5F9F
:1022A000EACF80E00895CF93DF93FC0161157105BB
:1022B00059F1A6E5BAE3CEE4DAE380E09FEF6F3FA1
:1022C000710569F060F0ED93FD939993E150FF4F34
:1022D0006F5F71098F5F873091F781E01EC0282FF3
:1022E00030E0D901AA0FBB1FAA5AB54CED93FC935D
:1022F0006F3F710511F46EEF70E0F901E25BF54C90
:10230000608340934C3A05C01092563A1092573A67
:1023100080E0A5DF10924D3A80E0DF91CF910895E3
:10232000CF93DF93282F30E0F901EE0FFF1FEF5D11
:10233000F64CA9E5BAE7A083B183F901EE0FFF1FC0
:10234000EF59F64C62E070E060837183220F331F17
:10235000F901EF55F64C41E050E04083518321E014
:10236000280F30E0F901EE0FFF1FEF5DF64CC2E6DB
:10237000DAE7C083D183F901EE0FFF1FEF59F64C66
:10238000CCE0D0E0C083D183220F331FF901EF5599
:10239000F64C40835183E2E0E80FF0E0EE0FFF1FC0
:1023A000EF5DF64C20EF3FEF2083318323E0280FD1
:1023B00030E0F901EE0FFF1FEF5DF64CA083B18313
:1023C000F901EE0FFF1FEF59F64C60837183220F66
:1023D000331FF901EF55F64C4083518324E0280F59
:1023E00030E0F901EE0FFF1FEF5DF64CA5E5BAE70F
:1023F000A083B183F901EE0FFF1FEF59F64C608304
:102400007183220F331FF901EF55F64C408351833E
:102410008B5FDF91CF910895AF92BF92DF92EF92E1
:10242000FF920F931F93CF93DF93CDB7DEB72C9717
:10243000CDBFDEBF7C018B019E012F5F3F4F40E08F
:102440006CE080960E944A0889819A8198278927A2
:1024500098278096F801808391838B819C819827AF
:1024600089279827809682839383DE011596349678
:10247000C8010C962D912193E817F907D9F7FCE2D2
:10248000EF0EF11C5801D12C9E012F5F3F4F40E011
:1024900063E0C7010E944A0889819A8198278927A9
:1024A000982797012E5F3F4F43E04D1580F4AC0114
:1024B00041505109F801428F538FF3E0EF0EF11CA8
:1024C000F801E486F5864B81F50144A305C0F801C7
:1024D000828F938F248735877C01E20EF31ED3947D
:1024E0000E5F1F4FFFEFAF1ABF0A47E0D412CCCFE9
:1024F0002C96CDBFDEBFDF91CF911F910F91FF9042
:10250000EF90DF90BF90AF900895CF92DF92EF925F
:10251000FF920F931F93CF93DF93CDB7DEB7A097B2
:10252000CDBFDEBFC62E7C0120E2E20EF11C9E0173
:102530002F5F3F4F40E062E08C960E944A081A816C
:10254000D12C112359F1012F113208F000E29E0124
:102550002F5F3F4F40E0602FC7010E960E944A0850
:10256000FE01319680E0DD2061F0E1E0F0E0EC0F6B
:10257000FD1FE80FF11D9081906281E09C110EC05B
:102580000EC09191DD24D3949B3509F0D12C8F5F3F
:10259000801748F3E00EF11C101BD3CF80E0A0960B
:1025A000CDBFDEBFDF91CF911F910F91FF90EF90D4
:1025B000DF90CF900895AF92BF92DF92EF92FF929B
:1025C0000F931F93CF93DF9300D000D0CDB7DEB72A
:1025D000D62E5A019E012F5F3F4F40E064E0809667
:1025E0000E944A08E980FA80FE24EF24FE240B8131
:1025F0001C811027012710270E151F0548F5A0166E
:10260000B10660F09E012F5F3F4F40E062E0C801DD
:1026100080960E944A0809811A81EBCF9E012F5FA4
:102620003F4F40E061E0C80185960E944A088981D9
:10263000811103C0D11006C00EC00E94150A81117D
:10264000F9CFE0CF6D2DC80160DF8823D9F203C038
:1026500080E090E001C0C8012496CDBFDEBFDF91CD
:10266000CF911F910F91FF90EF90DF90BF90AF90AF
:10267000089580629FE9980F9A3138F090ED980F95
:1026800081E09A3018F080E0089581E008950F937A
:102690001F93CF93DF938C01D0E0C0E0F801ED0FE2
:1026A000F11D20818C2F90E0222351F0D801A80F3A
:1026B000B91F2C938081DDDF8111CF5FDF5FEECF0B
:1026C000F801E80FF91F10828C2FDF91CF911F9135
:1026D0000F910895CF9320914D3A283008F049C0CA
:1026E00080910938882309F444C0822F90E0FC01CE
:1026F000E25BF54CE081E11106C010920C3988E0F4
:1027000080934D3A2EC050910C395E1760F5CE2F54
:10271000C51BC13208F0C0E2880F991FFC01EA5ABC
:10272000F54C8081918127EF3AE340914C3A6C2F30
:10273000850F911D0E944A0880910C398C0F80935F
:102740000C39EC2FF0E0E950F54C10828091F73A0B
:10275000811103C08BED8093F73A87EF9AE30E94D3
:102760007C0881E00BC010920C392F5F20934D3A0A
:10277000F8CF9091093881E0911180E0CF910895D0
:10278000CF93DF93C0912039CC23B1F1C150C093D6
:102790002039D0910B392D2F30E0F901EE0FFF1FBA
:1027A000EF5DF64C80819181803F4FEF940751F4AB
:1027B00060913B3A70913C3A40E080912D3A909183
:1027C0002E3A0DC0D901AA0FBB1FAF55B64C220F30
:1027D000331FF901EF59F64C608171814C9163DD33
:1027E000DF5FD0930B39C11106C01DBA10924A3871
:1027F00010920B3901C0C1E08C2FDF91CF91089569
:102800005F926F927F928F929F92AF92BF92CF9280
:10281000DF92EF92FF920F931F93CF93DF93CDB789
:10282000DEB72A97CDBFDEBF8C01809134388F3F51
:1028300049F461E27AE38091E1399091E239ECDD8B
:102840001092343880914A38882309F4D4C1809199
:102850001039882309F44FC010920F3981E6F8012E
:10286000808360E179E38BE79AE303DDF82E882328
:1028700021F081E080930F3904C0809110398133B9
:1028800011F0F12CBAC1809112398111FACF8BE786
:102890009AE3FDDE92E090930F39F80111828230C5
:1028A00080F380917B3A813360F380917B3A85336A
:1028B00040F780917C3A806280937C3A80917C3AA8
:1028C000813661F080917C3A853641F080917C3A86
:1028D000863621F080917C3A873799F680911139BC
:1028E0008F5EF801818380917B3A828380917C3A6C
:1028F0008383148282C180917B3A833289F58DB3C0
:10290000863071F581E090E010E0FC01E558F54C6F
:10291000208120532083110F212F220F220F120F0D
:1029200020917C3A233048F420812A30B8F4208169
:10293000120F01968430910541F7812F8F7771F046
:1029400080917F3A6091803A70E0782B812F80955A
:102950003BDC882319F0812F0E94F40981E048C1F3
:10296000D80180E090E0FC01E558F54C208121344D
:1029700018F020812B3510F0208102C020812062C8
:102980002C932081211105C0F801E80FF11D108260
:1029900005C0019611968134910529F780917B3A03
:1029A000F801811105C010821DBA10924A3823C166
:1029B00080818F3311F0883649F483E99BE7809357
:1029C0002339909324398DE694E00AC08136A1F42E
:1029D0008EE69AE7809323399093243985E291E03B
:1029E000809363399093643981E090E08093A339B8
:1029F0009093A43982E0FCC0873709F041C08DE88C
:102A000096E7809323399093243982E190E0809374
:102A100063399093643921E030E02093A3393093F7
:102A2000A4398091433890E0FC01EE0FFF1FE8517C
:102A3000F04440815181880F991FFC01E052F0441D
:102A4000808191818093253990932639409365390F
:102A5000509366392093A5393093A6398FE596E7D0
:102A600080932739909328398AE190E080936739E1
:102A7000909368392093A7393093A83984E0B8C07F
:102A80006EEB7FEBC801F5DB882319F18EEE0E9417
:102A9000F4098FEE0E94F40980EF0E94F40981EF9F
:102AA0000E94F4090E946D0989E0E1EDFFEBDE016F
:102AB000119601900D928A95E1F78CE30E948D08A2
:102AC000809109388823E1F3CE0101960E947C08A9
:102AD000F7CF64EC7FEBC801CCDB882381F18FEF6B
:102AE0008A8718E141E0BE01665F7F4F812F0E9417
:102AF00008081F5F1032B1F78EEE0E94F4098FEEC6
:102B00000E94F40980EF0E94F40981EF0E94F40909
:102B10000E946D0988E0EAEDFFEBDE01119601905D
:102B20000D928A95E1F78CE30E948D088091093817
:102B30008823E1F3CE0101960E947C08F7CF6BEC6D
:102B40007FEBC80196DB882309F49BCE81E2C82E77
:102B500089E3D82E91E6E92E99E3F92E01EA19E3EB
:102B600028E1522EAA24A394B12C47E5842E4AE7EB
:102B7000942E52E0652E712C41E0BE016F5F7F4FB5
:102B8000852D0E94F807898180958983282F2295B9
:102B90002F7030E023573B48F60120833183F70143
:102BA000A082B182F801A082B1828F7090E0835739
:102BB0009B48F60182839383F701A282B382F801D6
:102BC000A282B382F60184829582F70164827582C3
:102BD000F801A482B5825394F6E0CF0ED11C86E0B2
:102BE000E80EF11C0A5F1F4FE0E25E12C5CF88E1DC
:102BF00097DB80932039FF24F3948F2D2A96CDBF45
:102C0000DEBFDF91CF911F910F91FF90EF90DF908A
:102C1000CF90BF90AF909F908F907F906F905F907C
:102C200008959F92AF92BF92CF92DF92EF92FF9260
:102C30000F931F93CF93DF93CDB7DEB7AB97CDBF85
:102C4000DEBF99249394980E90E0FC01EE0FFF1FD5
:102C5000EF5DF64C2CEC37E720833183FC01EE0F5F
:102C6000FF1FEF59F64C26E130E020833183880FB7
:102C7000991FFC01EF55F64C81E090E08083918331
:102C800004E418E337E5E32E3AE7F32E42E0C42EDE
:102C9000D12CAA24A394B12CF801819191918F0198
:102CA0000097C9F1BE016F5F7F4FB6DB2B8D3C8D66
:102CB000892D90E0FC01EE0FFF1FEF5DF64C4D8576
:102CC0005E8540835183FC01EE0FFF1FEF59F64CE8
:102CD00020833183880F991FFC01EF55F64C108239
:102CE000118281E0890D90E093949394FC01EE0FA2
:102CF000FF1FEF5DF64CE082F182FC01EE0FFF1F3B
:102D0000EF59F64CC082D182880F991FFC01EF5514
:102D1000F64CA082B182F8E308341F0709F0BCCF5B
:102D20008FEF890DAB96CDBFDEBFDF91CF911F91A5
:102D30000F91FF90EF90DF90CF90BF90AF909F905A
:102D400008956F927F928F929F92AF92BF92CF928F
:102D5000DF92EF92FF920F931F93CF93DF93CDB744
:102D6000DEB72897CDBFDEBF3C0191DCC3018FDC0D
:102D7000F82E29E53AE7209321393093223984E06F
:102D800090E0809361399093623901E010E0009304
:102D9000A1391093A239FF2009F454C7D3018C91B3
:102DA000883709F045C080913438E82FF0E0EE0F05
:102DB000FF1FEF51F64C20813181232B11F081113F
:102DC00003C084E496E713C58091273A0E94150A50
:102DD0008823B9F0E0913438E150E0933438F0E0E2
:102DE000EE0FFF1FEF51F64C61E27AE38081918193
:102DF00013DB8091253A90E08093403890934138DE
:102E00002AC28091433A9091443A2091353A3091C8
:102E1000363A209323393093243980936339909341
:102E200064391092A3391092A4398091493AA9C506
:102E3000853619F08F3609F0DEC0B2E0FB12C1CF43
:102E40000091343810E0F801EE0FFF1FEF51F64CFF
:102E500040E050E0D30111966C9180819181ABDB11
:102E6000000F111FF801ED51F64C80839183909172
:102E70003438292F30E0F901EE0FFF1FED51F64CE9
:102E8000408151814115510521F060EE78E3CA017E
:102E90001CC0992309F4DCC6220F331FF901E1524B
:102EA000F64CD30111966C91808191812EDB8823A1
:102EB00009F4CEC6E0913438F0E0EE0FFF1FE15286
:102EC000F64C60EE78E380819181A6DAD3018C9193
:102ED0008536C1F48091E83880FD1DC08DE999E701
:102EE00080932339909324398EE190E08093633965
:102EF0009093643981E090E08093A3399093A43952
:102F000012E097C68F3639F48091E83881FD03C00E
:102F100082E899E76CC48091E6380E94150AE09136
:102F20003438882309F449C0AE2FB0E0AA0FBB1F84
:102F3000AD51B64C8D919C91892B11F0EF5F01C082
:102F4000E150E0933438E0913438F0E0EE0FFF1FA9
:102F5000EF51F64C61E27AE3808191815DDA8091F4
:102F60003D3A90913E3A20912F3A3091303A209359
:102F700023393093243980936339909364391092C4
:102F8000A3391092A43989E59AE780932539909363
:102F9000263982E090E0809365399093663981E02C
:102FA00090E08093A5399093A6398091253A90E0DE
:102FB000809340389093413807C4F0E0EE0FFF1F34
:102FC000ED51F64C108211828091023990910339B3
:102FD0002091F4383091F5382093233930932439F7
:102FE00080936339909364391092A3391092A43975
:102FF00080910839C6C48C3609F059C1E091343843
:10300000B1E0FB12F1C080913D3A90913E3A40917F
:103010002F3A5091303A409323395093243980937A
:103020006339909364391092A3391092A439209394
:1030300025393093263982E090E08093653990936A
:1030400066390093A5391093A6398BEE99E78093E2
:1030500027399093283985E190E0809367399093E0
:1030600068390093A7391093A839F0E0EE0FFF1FDD
:10307000ED51F64C10821182B4E09B2E17E5E12E43
:103080001AE7F12E02E0C02ED12CAA24A394B12C71
:103090008091343890E08C01000F111F0D51164CB7
:1030A000F80140815181880F991FFC01EF51F64CC6
:1030B00060E0808191817FDAD8018D939C93E091CB
:1030C0003438F0E0EE0FFF1FED51F64C8081918116
:1030D000009709F44AC0209144383091453882174E
:1030E000930709F442C0209146383091473882173F
:1030F0009307D9F160EE78E38FD98091FA389091F7
:10310000FB38E92DF0E0DF01AA0FBB1FAF5DB64C25
:103110002091EC383091ED382D933C93DF01AA0FCC
:10312000BB1FAF59B64C8D939C93EE0FFF1FEF550D
:10313000F64C1082118281E0890D90E09394939473
:10314000FC01EE0FFF1FEF5DF64CE082F182FC0107
:10315000EE0FFF1FEF59F64CC082D182880F991FE6
:10316000FC01EF55F64CA082B18220913438822FB9
:1031700090E0FC01EE0FFF1FED51F64C40815181B4
:10318000452B09F085CF222361F1880F991FFC019F
:10319000E152F64C60EE78E3808191813DD9209137
:1031A000FA383091FB3811E0190D892D90E0FC01BF
:1031B000EE0FFF1FEF5DF64C4091EC385091ED386B
:1031C00040835183FC01EE0FFF1FEF59F64C208323
:1031D0003183880F991FFC01EF55F64C1082118244
:1031E00028C51FEF190D25C5EE2EF12CF701EE0FA6
:1031F000FF1FEF51F64C40E050E0D30111966C9167
:1032000080819181D8D9F701EE0FFF1FED51F64C67
:103210008083918390913438292F30E0F901EE0FAB
:10322000FF1FED51F64C408151814115510521F0B0
:1032300060EE78E3CA011CC0992381F1220F331F8D
:10324000F901E152F64CD30111966C918081918184
:103250005CD9811102C011E0ECC4E0913438F0E097
:10326000EE0FFF1FE152F64C60EE78E38081918112
:10327000D3D88091FC389091FD382091EE38309170
:10328000EF38209323393093243980936339909316
:1032900064391092A3391092A43932CE81ED99E7A6
:1032A00080932339909324398AE190E0C9C2803712
:1032B00009F092C08091443890914538892B79F07B
:1032C0008091463890914738892B49F087E098E7FC
:1032D000809323399093243989E590E0B1C2B2E01C
:1032E000FB126FCD0091343810E0F801EE0FFF1F94
:1032F000EF51F64C40E050E0D30111966C91808183
:10330000918159D9000F111FF801ED51F64C8083BE
:1033100091832091343830E02F5F3F4F220F331FCD
:10332000F901EF51F64C80819181009709F438C37F
:1033300040914438509145388417950739F04091B1
:1033400046385091473884179507C1F482EE97E7C5
:10335000809323399093243985E290E080936339F8
:103360009093643981E090E08093A3399093A439DD
:10337000F901EF51F64C10821182C2CD60EE78E374
:103380004BD88091E7380E94150A882309F4E3C2DC
:103390008091EB38882309F414CD809144389091C2
:1033A0004538E0913438F0E0EE0FFF1FED51F64C58
:1033B000892B39F0808191818093463890934738EA
:1033C00006C08081918180934438909345388091E4
:1033D000EA380E94F4092BC08436D9F4809144382D
:1033E00090914538009709F03CC4809146389091FF
:1033F0004738892B49F486EA97E7809323399093DD
:10340000243986E290E072CDB2E0FB1609F48BC459
:10341000D8CC893681F48091443890914538892BF5
:1034200031F48091463890914738892B21F381E01F
:10343000F8DB182FFEC39CE8980F923028F08736EF
:1034400019F0823709F0B5C28EEF8F0D823008F087
:10345000B8CCE09134380E2F10E0D301AF0DB11D80
:103460001197F801EE0FFF1FEF51F64C40E050E0CE
:103470006C91808191819FD8F801EE0FFF1FED5173
:10348000F64C80839183E0913438F0E0EE0FFF1F1B
:10349000ED51F64C80819181009709F478C2F3E0F8
:1034A000FF1260C1D3012C91253719F0273609F09E
:1034B00059C100E011E041E6C42E49E7D42E51E2A3
:1034C000A52EB12C88248394912CE02EF12CC701D9
:1034D000880F991FFC01EC5BF74C7F018081918183
:1034E000009779F0D30111966C910FD8882349F099
:1034F00065EB78E3F701808191810E940C1202E074
:103500001DC00130D1F4E12FF0E0DF01AA0FBB1F95
:10351000AF5DB64CCD92DC92DF01AA0FBB1FAF5955
:10352000B64CAD92BC92EE0FFF1FEF55F64C808269
:103530009182D3011C921F5F01C000E00F5F013038
:1035400021F2F3018081882309F473C3E0913438B8
:10355000F0E0EE0FFF1FED51F64C60EE78E3808156
:1035600091810E940C12E090FE38F090FF38F1E05B
:10357000EF16F10409F089C093012E5F3F4F40E040
:1035800061E08091F0389091F1380E944A08D301AF
:1035900012963C91313309F04CC32091C03851EE62
:1035A000520F41E0410F812F90E0FC01EE0FFF1F11
:1035B000EF5DF64C5430B0F021E039E720833183E1
:1035C000FC01EE0FFF1FEF59F64C2AE130E020839B
:1035D0003183880F991FFC01EF55F64CE082F18290
:1035E000142F27C360E575E760837183FC01EE0F3C
:1035F000FF1FEF59F64C62EB70E060837183880F18
:10360000991FFC01EF55F64CE082F182842F90E087
:10361000FC01EE0FFF1FEF5DF64C49E55AE74083D2
:103620005183FC01EE0FFF1FEF59F64C42E050E0D2
:1036300040835183880F991FFC01EF55F64CE082BF
:10364000F18282E0810F90E01D5FFC01EE0FFF1F11
:10365000EF5DF64C4DEA58E740835183FC01EE0FD5
:10366000FF1FEF59F64C42E150E040835183880F31
:10367000991FFC01EF55F64CE082F182309310392E
:103680002093113910921239D4C29091E938809167
:10369000C03898132EC0209106393091073901E0C7
:1036A000010F812F90E0FC01EE0FFF1FEF5DF64C44
:1036B0004091F8385091F93840835183FC01EE0F66
:1036C000FF1FEF59F64C20833183880F991FFC01AF
:1036D000EF55F64C1082118280910A3990E0809368
:1036E0004038909341388091EA380E94F409102FB5
:1036F000A0C2F3018081853799F4812F90E0FC010D
:10370000EE0FFF1FEF5DF64C21E039E72083318398
:10371000FC01EE0FFF1FEF59F64C2AE130E015C017
:10372000873609F086C2812F90E0FC01EE0FFF1F63
:10373000EF5DF64C2FE936E720833183FC01EE0F75
:10374000FF1FEF59F64C28E230E020833183880FC9
:10375000991FFC01EF55F64C81E090E08083918346
:103760001F5F67C260EE78E30E940C12D3018C9158
:10377000843761F58091E83883FD43C08BE199E798
:1037800080932339909324398EE190E080936339BC
:103790009093643981E090E08093A3399093A439A9
:1037A0008091FA389091FB382091EC383091ED38C7
:1037B0002093253930932639809365399093663963
:1037C0001092A5391092A63913E033C2853739F427
:1037D0008091E83884FD15C081E099E73BC28237CB
:1037E00069F48091E83885FD0CC086EE98E78093F7
:1037F0002339909324398BE190E078CB873609F414
:10380000E0CA0091FE381091FF380130110509F52A
:1038100093012E5F3F4F40E061E08091F03890913E
:10382000F1380E944A08F3018281813309F013CDF7
:1038300085E295E780932339909324398BE290E0D9
:1038400080936339909364390093A3391093A4391A
:1038500057CB0115110509F458C08091F0389091AB
:10386000F13880932339909324390093633910936E
:1038700064391092A3391092A43989E59AE78093AC
:1038800025399093263982E090E0809365399093B2
:10389000663981E090E08093A5399093A6392DEAAE
:1038A00038E7209327393093283922E130E02093FC
:1038B0006739309368398093A7399093A8398091FC
:1038C000003990910139409730F08FE090E080937B
:1038D00000399093013920E139E340E060910039EB
:1038E0008091F2389091F3380E944A0860E179E3C0
:1038F000809100390E942211E0910039F091013944
:10390000E05FF64C108214E094C18091E7380E9489
:10391000150A882301F18091063990910739209189
:10392000F8383091F9382093233930932439809333
:103930006339909364391092A3391092A43980911D
:103940000A3990E080934038909341388091EA386A
:103950000E94F409D5CA80910439909105392091CB
:10396000F6383091F73820932339309324398093F7
:103970006339909364391092A3391092A4398091DD
:10398000093990E08093403890934138B9CAD30107
:103990008C91843711F0873619F489E399E702C0D6
:1039A0008DE499E7809323399093243984E190E062
:1039B0009DCA813609F04FCC80910F39823008F4CE
:1039C000C7C0F3012181222309F4AFC0CE010196C3
:1039D0007C0188E0D7011D928A95E9F72053218365
:1039E0003281315332838381813611F481E00CC0FE
:1039F000853619F4F301138208C0863619F483E082
:103A0000838303C082E0F301838321FD04C080E04F
:103A100090E0DC0104C080E090E0A0E1B0E020FF95
:103A200003C09F5FAF4FBF4FF301238121FD11966C
:103A300020FF03C04096A11DB11D31FF03C0905F60
:103A4000AF4FBF4F30FF03C00196A11DB11D409184
:103A5000433824E030E0241B310904C0880F991F4B
:103A6000AA1FBB1F2A95D2F728EC34E720932339ED
:103A70003093243920E230E0209363393093643965
:103A800021E030E02093A3393093A4394DE954E785
:103A9000409325395093263942E050E040936539F0
:103AA000509366392093A5393093A63907E0F70182
:103AB000E00FF11D282F2F70208344E0B695A795C5
:103AC000979587954A95D1F70097A105B10549F4D7
:103AD00021E2C22E29E3D22E13E0AA24A394B12C12
:103AE00002C00150E4CFB2E0CB0ED11C083008F088
:103AF0009EC01F5FF701E00FF11D808190E08357AA
:103B00009B48D60114968D939C931597F601EC5B18
:103B1000FF4FA082B182E05CFF4FA082B182809112
:103B2000EA380E94F4090F5FDECF88EE94E78093B5
:103B30002339909324398DE390E0809363399093F7
:103B4000643981E090E08093A3399093A4396EC0EA
:103B5000E0913438F0E0EE0FFF1FED51F64C60EECF
:103B600078E3813009F046C0808191810E940C1277
:103B70008091E7380E94150A882301F18091063967
:103B8000909107392091F8383091F93820932339F2
:103B90003093243980936339909364391092A33918
:103BA0001092A43980910A3990E080934038909324
:103BB00041388091EA380E94F40938C08091043974
:103BC000909105392091F6383091F73820932339B8
:103BD0003093243980936339909364391092A339D8
:103BE0001092A4398091093990E0809340389093E5
:103BF00041381CC0808191810E940C1280E698E7B8
:103C000080932339909324398DE490E08093633935
:103C10009093643981E090E08093A3399093A43924
:103C20000E94520E80930D3990930E3912E010923B
:103C3000103980911039882319F0109320398BC0E6
:103C4000812F01C081E00E9490118093203983C0B0
:103C500081ED99E780932339909324398AE190E0AC
:103C600045C9F2E0FF12ADC8F30161810E948512DF
:103C7000882309F458C000E010E0000F111F0C5B0E
:103C8000174C60EE78E3D8018D919C910E940C1244
:103C900086E997E7809323399093243980E190E077
:103CA000809363399093643981E090E08093A339E5
:103CB0009093A4392091FA383091FB384091EC3838
:103CC0005091ED384093253950932639209365392A
:103CD000309366391092A5391092A63929E53AE752
:103CE000209327393093283922E030E02093673938
:103CF000309368398093A7399093A83929E537E73D
:103D00002093293930932A392DE330E02093693903
:103D100030936A398093A9399093AA39F8011082B7
:103D2000118215E086CF80914638909147380097F0
:103D300049F0F30161810E948512882319F001E0A6
:103D400010E09BCF81E699E7809323399093243943
:103D500081E290E0CBC8F301108210924A381DBA7C
:103D600080E02896CDBFDEBFDF91CF911F910F91EC
:103D7000FF90EF90DF90CF90BF90AF909F908F908B
:103D80007F906F900895CF9380910D3990910E3967
:103D9000892B09F10E94520E20910D3930910E3974
:103DA0008217930708F4945CAC01421B530B9A01F1
:103DB0004B30510530F010920D3910920E392AE037
:103DC00030E080914238811106C065E0621B8AE0D4
:103DD000821B0E94E40A0E946A13882311F0C1E04A
:103DE00018C00E94C013C82F8111F9CF80910D39DE
:103DF00090910E39892B69F484E798E30E940014AE
:103E0000C82F811105C084E798E30E94A11601C064
:103E1000C2E08C2FCF9108950E94C0040E94520AE4
:103E20008091673A81608093673A0E94790ECFE172
:103E3000D0E00E94B40C8823E1F38091083880938D
:103E400007380E94BC088093083810924838809147
:103E5000A000823119F40E94AD0802C00E949E08A1
:103E60000E94390B90DF0E94C3030E94D3020E947C
:103E7000660F0E947D000E946D098091C33A909167
:103E8000C43A0A9718F484E70E94F4098091C33A6F
:103E90009091C43A8536910518F084EF0E94F40998
:103EA00020910A3830910B3880910A3890910B3864
:103EB00046E0369527954A95E1F7821B930B809350
:103EC0000A3890930B3880910A3890910B3893956B
:103ED00080930A3890930B382091C33A3091C43ABA
:103EE00080910A3890910B38220F232F221F330B19
:103EF0003195FE01E21BF30BE458F0442081821B54
:103F0000910980930A3890930B3880910A389091E8
:103F10000B3866E0969587956A95E1F780930C38A3
:103F20000E947F0A86CFEE0FFF1F0590F491E02DCF
:063F30000994F894FFCF94
:103F36002D7D39575C79514234617D593B655B442F
:103F46000100000201020001010300030103010058
:103F560001020101010301000D0B0C0A020105001B
:103F660003042422212308200925141211131015F5
:103F76001C1A191B181D010D1926323E4A56626F6E
:103F860078838E98A2ABB4BFC5CFD4DBE1E7ECF063
:103F9600F4F7FAFCFEFF74BFFA541C96B2261EEB29
:103FA600D68BC0C20A6101010201020201020201AE
:103FB6000202020202010102696464716400696B13
:103FC600696C6C7500636865617400476F7463683B
:103FD60061212000526573657421200087768476FE
:0C3FE6007E7679760600030006000500D8
:103FF200FF00013F383F38FFFF01FF1FFF01FF01B4
:1040020000FF0100FF010001FF8080C0FF40FFC0F0
:10401200804001C00140800001D4FF0103070F1F4F
:064022003F7FFF05FF00D7
:00000001FF
