:100000003DC0000058C0000056C0000054C00000B1
:1000100052C0000050C000000C9462080C94AC0860
:1000200084C6000048C0000046C0000044C0000074
:1000300042C00000CBC60000FCC600003CC000006F
:100040003AC0000038C0000036C0000034C00000D4
:10005000BAC7000030C00000EDC700002CC000008F
:100060002AC0000028C0000026C0000035C70000DC
:100070008EC7000020C000001EC0000011241FBE5B
:10008000CFEFCDBFDFE3DEBF18E3A0E0B8E3E4E4E9
:10009000FDE302C005900D92AA32B107D9F72BE318
:1000A000AAE2B8E301C01D92A431B207E1F70E94B1
:1000B000421D0C942F1EA4CF85E190E044E0480F30
:1000C0002091BC3A30E02817390764F02091BC3AFF
:1000D00030E0BC01685F7F4F621773071CF04093EC
:1000E0002E3804C04996863F910541F780912E38FD
:1000F00069E10C94DA1D0895EF92FF920F931F931C
:10010000CF93DF93C4E6D1E08C2F0E94BF0A811108
:1001100001C0D0E0CF5FC836B9F7DD2319F08CE716
:100120000E94B50A8091B93A81111EC180912D3883
:10013000811111C09091393822E3929F902D1124A2
:100140009093003820E038E3209305383093063848
:100150009FEF9093B03A4091BC3A2091003830E044
:1001600050E0B901655071094617570764F0409196
:10017000BC3A50E02B5F3F4F2417350724F0823004
:1001800008F040C0EFC081110AC080912C388F5F09
:1001900080932C38883008F4E7C081E081C081303A
:1001A00089F58ADF80932B38882349F190912C3888
:1001B0009F5F90932C38983008F4D6C090913938CE
:1001C000913029F483508330B8F482E069C09230D2
:1001D00031F48330D1F38550823070F4F6CF933010
:1001E00039F49CEF980F923080F3873029F4EDCFEB
:1001F000943011F48550E7CF10922D3853C01092EF
:100200002C38B0C0823009F050C080912C388F5FFC
:1002100080932C38CEE8DCEB7E010D8110E00E944B
:10022000910987FF03C080910B3801C080E0F8017D
:10023000EC53F54C80832196F701008110E00E9479
:10024000910987FF03C080910B3801C080E0F8015D
:10025000EC53F54C8083FCEBC339DF07E9F6809162
:100260002C38883040F02FEF44E668E080E80E94A8
:10027000E2098093003880912C388A3F08F474C0DA
:100280009091393880912B38891B80932A389817A0
:1002900020F48AEF8093003802C01092003883E087
:1002A00080932D3810922C385FC08330E1F5809117
:1002B0002C388F5F80932C38883008F455C0FCDED2
:1002C000853009F099CF80912A388D590E94B50A5E
:1002D000809139388D590E94B50A20912A38309181
:1002E0003938AEE8BCEB80E0ED011596EC9115973E
:1002F000F0E0821718F490910B3801C090E0EC53B5
:10030000F54C90831196E881F0E0831718F49091F2
:100310000B3801C090E0EC53F54C90838F5F853033
:1003200019F784E0BDCF8430F9F4C6DE8530E1F4FE
:1003300080912C388F5F80932C388A3FA8F0EEE8AC
:10034000FCEB83E99CEBEF01A581B0E0AC53B54C2D
:100350001C923196A881B0E0AC53B54C1C928E171C
:100360009F0789F710922D3880E0DF91CF911F9180
:100370000F91FF90EF90089581E080932204E6E2D0
:10038000F4E0808310923004A1E2B4E092E09C9308
:10039000908310923104E0E1F8E097E0968398E0D2
:1003A000948383838C938581816085838581846C2C
:1003B00085830895809114088860809314081092B2
:1003C000130882E08093220499E021E081E02093E9
:1003D000210430E13A95F1F700C02093220430E186
:1003E0003A95F1F700C0915089F728E0209314085E
:1003F0008093130892E090932104909115089160E6
:100400009093150890911508946C9093150820937B
:10041000140880931308809321048091150881604B
:100420008093150880911508846C809315080895B1
:10043000282F90911508906C9093150890911508AD
:10044000892F847092FD03C020931708089584E0DB
:1004500008958CE080935A3A8091150887FD0AC070
:100460008091150886FD06C080915A3A8111F4CF1B
:100470008FEF089580911508806C80931508809106
:10048000150882FD09C08091150883FD07C0809181
:10049000150882958170089584E0089582E008959A
:1004A000FC018CE080935A3A90911508892F837053
:1004B000823011F088E008959091150897FD06C0EC
:1004C00090915A3A9111F8CF8FEF089590911508B5
:1004D000906C909315089091150892FD1EC0909114
:1004E000150893FD1DC090911508892F807194FD0A
:1004F00016C090911408611102C09B7F01C09460E6
:1005000090931408909118089083611109C09091FC
:100510001408926090931408089584E0089581E08F
:100520000895FC018CE080935A3A909115089370DD
:100530009230B1F48081809318088091150886FD6F
:1005400006C080915A3A8111F8CF8FEF08958091BB
:10055000150882FD07C08091150882958170089565
:1005600088E0089584E00895E0E1F8E08481836004
:1005700084830895CF92DF92FF920F931F93CF93BE
:10058000DF936B01F42EE901182F110F812F50DF3B
:1005900081112BC05EDF813019F4E6DF81E027C0D6
:1005A000811123C0FF2049F0C601BBDF81111DC0AE
:1005B0008FEFC81AD80AFA94F5CF013408F000E496
:1005C0001F5F10931708023040F060E0CE0168DF33
:1005D00081110BC021960150F6CF61E0CE0160DFA2
:1005E000811103C0C1DF80E002C0E4DE8FEFDF9144
:1005F000CF911F910F91FF90DF90CF9008951092AF
:1006000032381092313881E0809304388FEF809334
:100610000338E0918ABCF0E0EC53F54C1082E09195
:100620009BBCF0E0EC53F54C1082E0919ABCF0E0FA
:10063000EC53F54C1082E09199BCF0E0EC53F54C92
:100640001082E09198BCF0E0EC53F54C1082A2EAE5
:10065000BCEBED91F0E0EC53F54C10828CEBA83A3A
:10066000B807B9F70895CF9380913838833071F483
:100670006AE070E080912F38909130380E94C40C6D
:10068000882321F0BCDF10923838BFC08BE777D7C2
:100690008111BBC080913838882319F0833009F06C
:1006A000B4C0C0918ABCEC2FF0E0909109389F3F14
:1006B00019F080910B3801C080E0EC53F54C808339
:1006C000892F807F09F4A1C08091033889278F701A
:1006D00009F49BC00E94B50C80932F38909330385A
:1006E000809103388F3F09F08CC0809109388F705A
:1006F000823061F028F4813069F4109202380DC024
:10070000843031F0883031F482E005C081E003C0EC
:1007100083E001C08FEF8093023883E08093383804
:1007200080913238E82FF0E0EE58F3442081909128
:100730000238291312C090910438917090930438B4
:10074000E09199BCF0E0EC53F54C1082E09198BC3C
:10075000F0E0EC53F54C108205C010920438843060
:1007600008F490CF8F5F80933238909131389F5F3B
:10077000943018F49093313844C0109231389091ED
:100780000438913069F5E82FE695E695F0E0E456F7
:10079000F344E581F0E090910B38EC53F54C9083F5
:1007A000883179F58BE7E1D6EC2FF0E0EC53F54C8E
:1007B0001082E09199BCF0E0EC53F54C1082E0918E
:1007C00098BCF0E0EC53F54C1082E0919BBCF0E05B
:1007D00080910B38EC53F54C8083E0919ABC0BC0B0
:1007E0000EDFE09199BCF0E080910B38EC53F54CB2
:1007F0008083E09198BCF0E080910B38EC53F54C8D
:100800008083809109388093033880E0CF910895E8
:10081000109245381092443881E080930C38109241
:100820004338E0918ABCF0E0EC53F54C1082E09143
:100830009BBCF0E0EC53F54C1082E0919ABCF0E0E8
:10084000EC53F54C1082E09199BCF0E0EC53F54C80
:100850001082E09198BCF0E0EC53F54C1082A2EAD3
:10086000BCEBED91F0E0EC53F54C10828CEBA83A28
:10087000B807B9F7089597FF03C09195819591093D
:100880009C01220F331F2937310544F041E040938A
:1008900038388837910574F481E01FC02837310556
:1008A00029F48837910524F481E011C080E00FC05D
:1008B00082E00DC02C3241E0340774F0280F391F5C
:1008C000283532405CF18C32914054F185E09091B2
:1008D0003838913039F501C082E0EEE8FCEB90E069
:1008E000A581B0E0981768F420910B38AC53B54C53
:1008F0002C93A081B0E020910B38AC53B54C2C93D5
:1009000008C0AC53B54C1C92A081B0E0AC53B54CC0
:100910001C929F5F3196953019F7089583E0D7CFE9
:1009200084E0D5CF0895CF93DF938091383881301C
:1009300071F46AE070E080914138909142380E94F1
:10094000C40C882321F064DF10923838EBC080910A
:100950003838823008F0E6C08091ED3A9091EE3A56
:10096000892B41F48091B53A9091B63A8093ED3A53
:100970009093EE3AC091B53AD091B63A8091ED3A63
:100980009091EE3AC81BD90BCE0175DF80914738A4
:10099000813089F018F08230C1F01FC0C43D9EEF55
:1009A000D90714F491E004C0CD32D1405CF092E05C
:1009B0009093463812C0CD3291E0D907C4F7C938B8
:1009C000DF4F84F31092463808C0C43D9EEFD9072C
:1009D0004CF3C837D105B4F3EACFC0918ABCEC2FF1
:1009E000F0E090914638992319F020910B3801C01E
:1009F00020E0EC53F54C2083891709F493C0B5D758
:100A00008093413890934238209145388091463800
:100A1000211108C0882331F091E0813009F490E081
:100A20009093433880934738882309F47BC091E042
:100A30009093383890914338992311F093E08927A7
:100A400090E0E22FF0E0E855F344408150E0841755
:100A5000950791F480910C38817080930C38E09167
:100A600099BCF0E0EC53F54C1082E09198BCF0E0BA
:100A7000EC53F54C108202C010920C3881E0820FCA
:100A800080934538909144389F5F933018F4909349
:100A9000443848C01092443890910C38913079F520
:100AA000EBEA8E9FE12D1124E695F0E0E456F34445
:100AB000E581F0E090910B38EC53F54C9083823156
:100AC00089F58DE752D5EC2FF0E0EC53F54C108210
:100AD000E09199BCF0E0EC53F54C1082E09198BCA9
:100AE000F0E0EC53F54C1082E0919BBCF0E080917B
:100AF0000B38EC53F54C8083E0919ABC0DC088DE36
:100B000010923838E09199BCF0E080910B38EC53AA
:100B1000F54C8083E09198BCF0E080910B38EC5369
:100B2000F54C808380E0DF91CF910895CF93DF93E0
:100B3000F89488ED84BFC1E0C09361008AE480939B
:100B400000048CE7809320049FE3909340048091FD
:100B50005304806880935304809154048068809388
:100B60005404809155048068809355048091330427
:100B700080688093330480913404806880933404C7
:100B800080913504806880933504C0930102D2E0DF
:100B9000D09305042BE531E0209308083093090831
:100BA00080EA8093050880EC8093060883E08093B8
:100BB00007081CBA1DBA1EBA1FBAC093030A88E000
:100BC0008093000A9093020287E78093010AC09302
:100BD0000A0A8BE08093050A8091000A8160809365
:100BE000000A85E08093400A1092410A8FEF91E05D
:100BF00080934C0A90934D0A1092450AC093500A74
:100C00001092510A8BE893E080935C0A90935D0AFE
:100C1000C093550AB1DB82E18093A00080E280930B
:100C2000A200C093A100D093000684E48093020642
:100C30008EE180930606C0930A06809100068160CB
:100C400080930006C093080610924006D093410698
:100C500082E58093420684E08093450680934606B1
:100C6000C0934A0680914006816080934006C093FD
:100C7000480680E48093A00680E88093A1068091D6
:100C8000A00681608093A0068091410180FDFCCF89
:100C900080E380934001109247018091410182FDE1
:100CA000FCCF80E098E780934A0190934B018091BC
:100CB00048019091490160914A0170914B018296DF
:100CC0000E94E61D8093F13A9093F23A809141019F
:100CD00083FDFCCF8091F13A9091F23A80934C01E0
:100CE00090934D0183E08093420181E08093520113
:100CF00088E0809350018091410180FDFCCF80917C
:100D00004001816080934001809150018160809317
:100D1000500110926F3A8FE69AE38093B33A909322
:100D2000B43A7894DF91CF9108951F920F920FB645
:100D30000F9211248F939F93AF93BF93EF93FF93E1
:100D400087E08093460484E480932604ECB388E033
:100D5000E89FF0011124EC53F54CA8E2BAE096E0CC
:100D600081918D939A95E1F78BE08093050A8CB37E
:100D7000833058F48CB391E001C0990F8A95EAF75B
:100D800099B98CB383958CBB0AC08CB3833021F4A2
:100D90002A9A83958CBB03C02E9A88278CBB80919E
:100DA0005A3A882329F080915A3A815080935A3ACE
:100DB0008FEF80930B0AFF91EF91BF91AF919F91BD
:100DC0008F910F900FBE0F901F9018951F920F924A
:100DD0000FB60F9211248F939F93EF93FF93E0919F
:100DE000B33AF091B43A8081882391F08081809366
:100DF00002088091B33A9091B43A01968093B33A45
:100E00009093B43A8091050880628093050805C0EC
:100E100081E080930A381092450A81E08093460A67
:100E2000FF91EF919F918F910F900FBE0F901F90A8
:100E300018951F920F920FB60F9211242F933F9384
:100E40004F938F939F93EF93FF93E0910738F09127
:100E500008388081811108C080910538909106384A
:100E60008093073890930838E0910738F09108385C
:100E700080818823E1F020814091B03A30E02F5703
:100E80003109429FC001439F900D1124892F990F72
:100E9000990B80589F4F8093A106809107389091BD
:100EA00008380196809307389093083806C080E888
:100EB0008093A10681E08093EC3A81E08093560A0A
:100EC000FF91EF919F918F914F913F912F910F90B3
:100ED0000FBE0F901F9018951F920F920FB60F9292
:100EE00011248F93EF93FF9380914038811144C078
:100EF000EDB3F0E080910008E159F54C8083EDB34B
:100F0000F0E0E159F54C808180930208EDB3F0E008
:100F1000E159F54C80818A3039F0EDB3F0E0E159C8
:100F2000F54C80818D3049F4EDB3F0E0E159F54C9A
:100F3000108281E0809340381FC0EDB3F0E0E159AA
:100F4000F54C8081883039F0EDB3F0E0E159F54C93
:100F500080818F3759F48DB3882341F0EDB3F0E0F1
:100F6000E159F54C10828DB3815005C08DB38034AA
:100F700018F48DB38F5F8DBB80E880930408FF91D8
:100F8000EF918F910F900FBE0F901F9018951F92A9
:100F90000F920FB60F9211248F93EF93FF9310923D
:100FA0004A0A10924B0A81E08093450AE5E0F8E096
:100FB00080818F7D8083FF91EF918F910F900FBE85
:100FC0000F901F9018951F920F920FB60F92112439
:100FD0008F939F93EF93FF9380913338811119C0C2
:100FE0008EB38F5F87708EBB809106068E3149F479
:100FF00080911006909111068093EF3A9093F03A09
:101000000DC0EEB3F0E080911006E454F54C8083FF
:1010100005C08091333881508093333881E08093CC
:101020000B06FF91EF919F918F910F900FBE0F9044
:101030001F9018951F920F920FB60F9211248F9345
:101040009F938091460681110AC08091500690912D
:1010500051068093B73A9093B83A81E010C08091DE
:101060004606813079F488E080930604809150062A
:10107000909151068093B53A9093B63A84E080936C
:10108000460610C080915006909151068093B13A67
:101090009093B23A8FB38F3029F41092460688E0CD
:1010A000809305048FB390E001968F7099278FBBD2
:1010B00081E080934B069F918F910F900FBE0F9010
:1010C0001F9018951F920F920FB60F9211245F93E5
:1010D0006F937F938F939F93AF93BF9380914301BF
:1010E00081FF26C080913E388F3F29F080913E38A5
:1010F0008F5F80933E3880914801909149016091C3
:101100004A0170914B0182960E94E61D8093F13A4C
:101110009093F23A8091410183FDFCCF8091F13AA6
:101120009091F23A80934C0190934D0182E006C079
:1011300080913F388F5F80933F3881E080934301F7
:10114000BF91AF919F918F917F916F915F910F9020
:101150000FBE0F901F9018951F920F920FB60F920F
:1011600011248F9381E080934806809353018F91DF
:101170000F900FBE0F901F9018959091021091FD47
:10118000FCCFFB01480F841739F0A82FB0E0BC5EFC
:101190009C9191938F5FF7CF08959DE924E033E010
:1011A000442309F15091021051FDFCCF94BF2093CC
:1011B0000010E82F582F5F718F5F6F5F7F4FDB014B
:1011C0001197AC91F0E0FC5EA083415019F0E82F3C
:1011D0005F3181F794BF309300105091021052FF9D
:1011E000DFCF81E0089580E0089520910A3822231E
:1011F00059F08093B33A9093B43A10920A3881E050
:101200008093450A80E0089581E00895282F811198
:1012100001C021E08FEF90E0821B9109982F882771
:1012200081509F4F80934C0A90934D0A089582E11C
:101230008093A000E0E0F6E080818B7F80838EE1E8
:101240008093060683E080933338089582E280938A
:10125000A000E0E0F6E080818460808387E08093F6
:10126000060683E08093333808952091B13A309197
:10127000B23A94E0369527959A95E1F733272C35C5
:101280003105D0F423353105A8F52233310550F46A
:101290002D32310558F5235231092530310580F5BD
:1012A0009CE02FC02733310518F12E533109273028
:1012B000310530F596E025C02A38310550F429373C
:1012C0003105D0F4235631092B303105C8F493E0B1
:1012D00018C0223A3105A0F02B3B310578F0205F91
:1012E00031092031310560F490E00BC099E009C06C
:1012F00098E007C094E005C092E003C091E001C00F
:101300009FE0282F2F70921306C0982F907F903F58
:1013100039F0805F0895992311F0892F08958FEF98
:10132000089580911E3890911F389C01322F2227FA
:101330003295330F307E822793279C01232F33274A
:101340002695822793279C013695322F22273795A1
:1013500027958227932780931E3890931F380895EE
:10136000DF92EF92FF920F931F93CF93DF937B0156
:101370008A01C0915C0AD0915D0AE82FF0E03197B4
:10138000E770FF27E05EF74CD080CBDF8D21C80FE0
:10139000D11DC7DF8D21C81BD1090C171D0708F40B
:1013A000E801C701EC16FD0608F4CE0180935C0A43
:1013B00090935D0ADF91CF911F910F91FF90EF9075
:1013C000DF9008950F931F93CF93DF93C82FD42FEF
:1013D000022FE62FF0E03197E770FF27E05EF74C31
:1013E00010819FDF8123C80F9CDF8123C81B8C2FB6
:1013F000002341F09C2F0C1708F4902F8D2FD91744
:1014000008F4892F41E050E08D1710F040E050E0E3
:101410002D2F30E024233523232B09F08D2FDF914E
:10142000CF911F910F910895CF92DF92FF920F936A
:101430001F93CF93DF93CDB7DEB76497CDBFDEBFE9
:1014400044E1BE016F5F7F4F80E097DE8BE5C82EE1
:101450008AE3D82E8E010F5F1F4FF12CF801819186
:101460008F01F6019081981308C0F394FFEFCF1A13
:10147000DF0A80E1F812F2CF08C041E0B6018F2DFB
:101480008CDE882391F391E036C020913A38309178
:101490003B3830936B3A20936C3A80913C38909172
:1014A0003D3890936D3A80936E3A89899A8998274E
:1014B000892798272817390769F48B899C899827E9
:1014C0008927982720913C3830913D3828173907D3
:1014D00049F410C042E06BE67AE380E15EDE8823E7
:1014E00061F3D1CF42E06DE67AE382E156DE91E02E
:1014F000811101C090E0892F6496CDBFDEBFDF91DE
:10150000CF911F910F91FF90DF90CF900895E82F1A
:10151000EF77E695E695E695F0E0E55AF54C208103
:1015200030E08770A90102C0559547958A95E2F78A
:10153000CA0181700895E82FEF77E695E695E69564
:10154000282F2770F0E0E55AF54C81E090E001C0CB
:10155000880F2A95EAF7662319F09081892B03C03A
:1015600080959081892380830895982F8F7731F01B
:1015700097FF02C060E001C061E0DDCF0895CF9326
:10158000C82F8F77C4DF2C2F221F2227221F91E024
:10159000811101C090E0822F8927CF910895E3E067
:1015A000F1E180E09191890FED3091E1F907D1F7F8
:1015B00083708F5F809339380895EBE5FAE31192D9
:1015C0008AE3EF36F807D9F7EADF811104C080918A
:1015D000683A806405C0813031F48091683A80684F
:1015E0008093683A0DC0823021F48091693A81601D
:1015F00005C0833029F48091693A82608093693A0A
:1016000080915B3A816080935B3A0895CF93DF933A
:1016100044E16BE57AE380E0B0DDCEE6D0E08C2FEC
:1016200076DFD80FCF5FC237D1F7D13011F0C5DFE9
:1016300001C0B5DF80916B3A90916C3A9827892769
:10164000982780933A3890933B3880916D3A9091E7
:101650006E3A98278927982780933C3890933D3895
:10166000DF91CF910895CF9386E789DFC82F882334
:1016700081F0E0918DBCF0E0EC53F54C1082E091EC
:101680008CBCF0E080910B38EC53F54C8083C1E0CA
:101690004CC085E774DF882359F1E0918DBCF0E000
:1016A00080910B38EC53F54C80838091533888231C
:1016B00079F08091BA3A9091BB3A2091EF3A30910B
:1016C000F03A80962817390718F086E74EDF2DC0CC
:1016D0008091BA3A9091BB3A2091EF3A3091F03A2A
:1016E00008968217930708F181E0809353381DC054
:1016F0008091BA3A9091BB3A892B41F48091EF3AAC
:101700009091F03A8093BA3A9093BB3A8091BA3A6A
:101710009091BB3A2091EF3A3091F03A8096281799
:10172000390718F085E721DFC0E08C2FCF910895AD
:10173000CF93DF9320915238822F65E00E94DA1D0B
:10174000E92FF0E0E257F344E581F0E0EC53F54C8B
:101750001082822F90E0019665E070E00E94FA1DF1
:10176000FC01E257F344E581F0E080910B38EC5343
:10177000F54C80832F5F209352388EE89CEBC8E9AC
:10178000DCEBDC01ED91CD01F0E0AA91B0E0AC53CF
:10179000B54C2C91EC53F54C2083BCEBC339DB07E3
:1017A00081F7DF91CF9108950F931F93CF93DF932C
:1017B0008091C03A893108F0CFC081E08093B93A76
:1017C00080913638909137388827892B09F0C6C028
:1017D0008091363890913738807E9927892B31F463
:1017E00084E398E3809305389093063880913638E7
:1017F00090913738807E9927809709F059C040E052
:1018000052E260E070E281E0ABDD20E041E065E0C3
:1018100080E8D8DD80930F3880913E38882309F422
:1018200047C080915138811115C084E080935038B1
:101830008FEF80934F3880E090E280935C0A909322
:101840005D0A8DE098E3809305389093063881E037
:101850008093513880914F38882369F08093B03A53
:1018600090915038992321F091509093503803C0B3
:10187000869580934F3880914F38811119C080919F
:101880003638909137388071992780933638909305
:10189000373884E398E38093053890930638809333
:1018A0000738909308388FEF8093B03A10925138F0
:1018B000809136389091373880913638909137380A
:1018C000807E992780369105D1F510924E3888E4B4
:1018D00098E380930538909306388C01C1E0D3E0FB
:1018E0008C2F6D2F0E94DA1D992339F020E041E002
:1018F00065E080E867DDF8018183CF5F0F5F1F4FF0
:10190000C63071F780913E388823C9F040E054E03A
:1019100060E872E085E024DD8091B03A20EA40E1A1
:1019200062E050DD8093B03A20E940E762E08091C8
:10193000483848DD80934838809580934B388091B3
:101940003638909137388091363890913738809179
:1019500036389091373802C01092B93A80913E38AB
:10196000DF91CF911F910F91089520913F38809181
:10197000480190914901892F992786953CE3239F3F
:10198000800D911D112408950F931F93CF93DF9322
:101990008C01EB01EADF9C018017910708F4345CAD
:1019A000C00FD11F81E0C217D30708F080E0DF919C
:1019B000CF911F910F910895CF93DF93EEE8FCEB49
:1019C000EF01A581B0E0AC53B54C1C923196A881D3
:1019D000B0E0AC53B54C1C929CEBE339F90781F7AE
:1019E000813099F4E09193BCF0E080910B38EC5396
:1019F000F54C8083E09194BCF0E080910B38EC537F
:101A0000F54C8083E09195BC2EC0823059F4E09172
:101A100096BCF0E080910B38EC53F54C8083E0915C
:101A200097BC21C0833099F4E0918EBCF0E08091A6
:101A30000B38EC53F54C8083E0918FBCF0E0809143
:101A40000B38EC53F54C8083E09190BC0CC0843093
:101A500081F4E09191BCF0E080910B38EC53F54CAF
:101A60008083E09192BCF0E080910B38EC53F54C10
:101A70008083DF91CF910895CF93DF938AE77FDD55
:101A80008111B8C0809138388D7F09F0B3C0809142
:101A90005638811122C02091B73A3091B83A8091DE
:101AA000EF3A9091F03A820F8F7380932838C0E01C
:101AB00080912838C81718F434DCCF5FF9CFC8E517
:101AC000D8E32FDC8370899388E3C836D807C9F739
:101AD00081E0809328388093563880915638813041
:101AE00029F483E080935638109255388091563807
:101AF0008330D9F4209128388091553890E0322FE6
:101B000036956FE070E0631B71090E94FA1D26177D
:101B100030F485E08093563880E04EDF6BC0772745
:101B2000FB01E85AF74C808147DF809156388530B9
:101B300009F04EC0E09109388E2F807FC9F1EF3F48
:101B4000B9F1EF70E150E83098F5F0E0E654F34475
:101B5000C081CC2369F182E0809338388091543879
:101B6000811143C0109255388C2F26DF4091573891
:101B7000E42FF0E0E85AF74C208130E02F5F3F4F30
:101B80008C2F90E02817390721F44F5F4093573886
:101B900006C0109257381092383880E00DDF8091DF
:101BA00057388031A9F48AE7E0DC1092383810C049
:101BB0008091573890912838891308C08F5F80939F
:101BC00028381092573883E0809356381092543852
:101BD00080915638843049F480915538873028F008
:101BE00080E0EADE85E080935638809155388F5F3B
:101BF0008093553880E0DF91CF9108951F93CF9364
:101C0000DF93CDB7DEB76297CDBFDEBF8A8B80E1B1
:101C1000E2E6FCEBDE01119601900D928A95E1F768
:101C2000FE01319690E08FEF219131912617370711
:101C300009F4892F9F5F9830B9F7883010F080E061
:101C400012C018E1180F41E0BE016F5E7F4F812F77
:101C500094DA89898F3F99F741E0BE016E5E7F4F2C
:101C6000812F9BDA81E06296CDBFDEBFDF91CF91FD
:101C70001F910895F9019C012E1B3F0B88E0489F9E
:101C8000A00111244C5C5244662369F0DF01A20FCD
:101C9000B31FA770BB27A40FB51F80819C91982705
:101CA00091936150F1CF0895262FFB0135E59E2FCA
:101CB000921B981728F49081929593279193F7CFD0
:101CC0000895AF92BF92CF92DF92EF92FF920F935F
:101CD0001F93CF93DF9300D0CDB7DEB7D62EC42E9F
:101CE00059017C01E894F7F8F982EA82062F42E074
:101CF000BE016F5F7F4F80E50E94BA02182F8111ED
:101D000005C095014C2D6D2DC701B4DF812F0F90BB
:101D10000F90DF91CF911F910F91FF90EF90DF9087
:101D2000CF90BF90AF9008958F5F883030F4E82F48
:101D3000F0E0EE5BF54C1082F7CF0895AC0190E037
:101D4000E92FF0E0DA01AE0FBF1F3C91E60FF71F5D
:101D5000311105C081E09081992349F007C02081AD
:101D60002223C1F3321302C09F5FEACF80E00895BF
:101D70006115710551F1EAE4FAE3A2E4BAE320E067
:101D80003FEF6F3F710569F060F0819391933D9350
:101D900081509F4F6F5F71092F5F273091F781E06E
:101DA0000895E22FF0E0DF01AA0FBB1FA65BB54C40
:101DB0008D939C93EE5BF54CCB016FEF70E00E942E
:101DC000E61D80834093403A05C010924A3A109233
:101DD0004B3A20E0822FA8DF1092413A80E008952C
:101DE000CF93DF93282F30E0F901EE0FFF1FEB5E5A
:101DF000F64CABE5BAE7A083B183F901EE0FFF1F04
:101E0000EB5AF64C62E070E060837183220F331F5F
:101E1000F901EB56F64C41E050E04083518321E05C
:101E2000280F30E0F901EE0FFF1FEB5EF64CC4E621
:101E3000DAE7C083D183F901EE0FFF1FEB5AF64CAE
:101E4000CAE0D0E0C083D183220F331FF901EB56E3
:101E5000F64C40835183E2E0E80FF0E0EE0FFF1F05
:101E6000EB5EF64C20EF3FEF2083318323E0280F19
:101E700030E0F901EE0FFF1FEB5EF64CA083B1835B
:101E8000F901EE0FFF1FEB5AF64C60837183220FAE
:101E9000331FF901EB56F64C4083518324E0280FA1
:101EA00030E0F901EE0FFF1FEB5EF64CA7E5BAE755
:101EB000A083B183F901EE0FFF1FEB5AF64C60834C
:101EC0007183220F331FF901EB56F64C4083518387
:101ED0008B5FDF91CF910895AF92BF92DF92EF9227
:101EE000FF920F931F93CF93DF93CDB7DEB72C975D
:101EF000CDBFDEBF7C018B019E012F5F3F4F40E0D5
:101F00006CE08096DEDE89819A8198278927982760
:101F10008096F801808391838B819C819827892703
:101F20009827809682839383DE0115963496C801A4
:101F30000C962D912193E817F907D9F7FCE2EF0EE3
:101F4000F11C5801D12C9E012F5F3F4F40E063E010
:101F5000C701B7DE89819A81982789279827970139
:101F60002E5F3F4F43E04D1580F4AC0141505109C5
:101F7000F801428F538FF3E0EF0EF11CF801E48675
:101F8000F5864B81F50144A305C0F801828F938F3C
:101F9000248735877C01E20EF31ED3940E5F1F4F1A
:101FA000FFEFAF1ABF0A47E0D412CDCF2C96CDBFBA
:101FB000DEBFDF91CF911F910F91FF90EF90DF90E7
:101FC000BF90AF900895CF92DF92EF92FF920F9360
:101FD0001F93CF93DF93CDB7DEB7A097CDBFDEBF02
:101FE000C62E7C0120E2E20EF11C9E012F5F3F4FC6
:101FF00040E062E08C9665DE1A81D12C112351F10C
:10200000012F113208F000E29E012F5F3F4F40E0A8
:10201000602FC7010E9655DEFE01319680E0DD206F
:1020200061F0E1E0F0E0EC0FFD1FE80FF11D9081A1
:10203000906281E09C110EC00EC09191DD24D3947A
:102040009B3509F0D12C8F5F801748F3E00EF11C0F
:10205000101BD4CF80E0A096CDBFDEBFDF91CF9123
:102060001F910F91FF90EF90DF90CF900895AF9266
:10207000BF92DF92EF92FF920F931F93CF93DF9364
:1020800000D000D0CDB7DEB7D62E5A019E012F5F0B
:102090003F4F40E064E0809614DEE980FA80FE2441
:1020A000EF24FE240B811C811027012710270E1519
:1020B0001F0530F5A016B10658F09E012F5F3F4F67
:1020C00040E062E0C8018096FCDD09811A81ECCF16
:1020D0009E012F5F3F4F40E061E0C8018596F1DD32
:1020E0008981811103C0D11005C00DC048DA81116A
:1020F000FACFE3CF6D2DC80166DF8823F1F203C06C
:1021000080E090E001C0C8012496CDBFDEBFDF9122
:10211000CF911F910F91FF90EF90DF90BF90AF9004
:10212000089580629FE9980F9A3138F090ED980FEA
:1021300081E09A3018F080E0089581E008950F93CF
:102140001F93CF93DF938C01D0E0C0E0F801ED0F37
:10215000F11D20818C2F90E0222351F0D801A80F8F
:10216000B91F2C938081DDDF8111CF5FDF5FEECF60
:10217000F801E80FF91F10828C2FDF91CF911F918A
:102180000F910895CF938091363890913738892BED
:1021900099F48091193A90E08093363890933738CB
:1021A0008091363890913738807E992721E0892BAD
:1021B00009F420E0209335382091413A283008F086
:1021C00048C080910A38882309F443C0822F90E0E8
:1021D000FC01EE5BF54CE081E11106C01092003984
:1021E00088E08093413A2DC0509100395E1758F530
:1021F000CE2FC51BC13208F0C0E2880F991FFC0129
:10220000E65BF54C8081918123EF3AE34091403ABF
:102210006C2F850F911D55DD809100398C0F8093B7
:102220000039EC2FF0E0ED50F54C10828091F33A3C
:10223000811103C08BED8093F33A83EF9AE30E9400
:10224000F50881E00BC0109200392F5F2093413ACE
:10225000F8CF90910A3881E0911180E0CF910895F4
:10226000CF93DF93C0911439CC23E9F1C150C093CF
:102270001439D091FF382D2F30E0F901EE0FFF1FF8
:10228000EB5EF64C80819181803F4FEF940751F4D3
:1022900060912F3A7091303A40E08091213A9091CC
:1022A000223A0DC0D901AA0FBB1FAB56B64C220F64
:1022B000331FF901EB5AF64C608171814C9158DD66
:1022C000DF5FD093FF38C1110DC08091193A90E0C3
:1022D00080933638909337381DBA10924038109258
:1022E000FF3801C0C1E08C2FDF91CF9108954F924C
:1022F0005F926F927F928F929F92AF92BF92CF9296
:10230000DF92EF92FF920F931F93CF93DF93CDB79E
:10231000DEB7A197CDBFDEBF8C01809129388F3FFA
:1023200049F465E17AE38091D5399091D639D4DDCD
:102330001092293880914038882309F463C2809133
:102340000439882309F457C01092033981E6F80153
:10235000808364E079E38FE69AE3F0DCF82E88234B
:1023600021F081E08093033904C0809104398133E6
:1023700011F0F12C49C2809106398111FACF8FE614
:102380009AE3DDDE92E090930339F8011182823006
:1023900080F380916F3A813361F080916F3A82339C
:1023A00041F080916F3A833321F080916F3A84330A
:1023B00001F78091703A80628093703A8091703A10
:1023C000813661F08091703A853641F08091703AA3
:1023D000863621F08091703A873759F68091053919
:1023E0008F5EF801818380916F3A82838091703A89
:1023F0008383148209C280916F3A833281F58DB351
:10240000863069F581E090E010E0FC01E159F54C7F
:10241000208120532083110F212F220F220F120F12
:102420002091703A233048F420812A30B0F4208182
:10243000120F01968430910541F7812F8F7769F053
:102440008091733A6091743A70E0782B812F809577
:10245000D5DB882311F0812F88D880E050C0D801C7
:1024600080E090E0FC01E159F54C2081213418F026
:1024700020812B3510F0208102C0208120622C9316
:102480002081211105C0F801E80FF11D108205C05F
:10249000019611968134910529F780916F3AF801E0
:1024A000811105C010821DBA10924038ABC18081E5
:1024B0008F3311F0883639F58BE59AE7809315391B
:1024C0009093163984E090E0809355399093563973
:1024D00081E090E0809395399093963923E93BE72A
:1024E00020931739309318392DE634E0209357396B
:1024F00030935839809397399093983982E070DC03
:10250000809314397FC18136D9F48BE59AE78093A3
:1025100015399093163984E090E080935539909363
:10252000563981E090E080939539909396392EE664
:102530003AE7209317393093183925E231E0D6CFA6
:10254000873709F06EC08BE59AE780931539909331
:10255000163984E090E0809355399093563921E004
:1025600030E020939539309396398BEC96E7809341
:1025700017399093183982E190E0809357399093FE
:102580005839209397393093983980913938813070
:1025900019F485EC96E70FC0823049F482EC96E797
:1025A0008093193990931A3983E090E01EC08330EC
:1025B00049F48CEB96E78093193990931A3986E0A9
:1025C00090E013C0843049F487EB96E78093193983
:1025D00090931A3985E090E008C080E496E78093F4
:1025E000193990931A3982E490E080935939909385
:1025F0005A392093993930939A398DE996E7809327
:102600001B3990931C398AE190E080935B39909359
:102610005C3981E090E080939B3990939C3984E011
:102620006ECF8137D9F48BE59AE780931539909373
:10263000163984E090E0809355399093563981E0C3
:1026400090E0809395399093963923E03AE7209370
:1026500017393093183924E530E048CF62EC7CEB31
:10266000C8016CDB8823F9F01EE660E0812F0E9430
:102670009B0A1F5F1237C9F70E94140A80E2E5E047
:10268000FDEBDE01119601900D928A95E1F78CE346
:102690000E94060980910A388823E1F3CE01019651
:1026A0000E94F508F7CF68EC7CEBC80147DB682E89
:1026B000882361F18FEF89A318E141E0BE016F5DCE
:1026C0007F4F812F0E94CD081F5F1032B1F71EE6A9
:1026D00060E0812F0E949B0A1F5F1237C9F70E949A
:1026E000140A8FE0E5E2FDEBDE01119601900D92F8
:1026F0008A95E1F78CE30E94060980910A388823C5
:10270000E1F3CE0101960E94F508F7CF6FEF7CEB65
:10271000C80114DB882309F42CCE05E119E378E124
:10272000772EEAE05E2EF4E64F2EEE24E394F12CB1
:10273000CC24C394D12C89E5882E8AE7982E92E088
:10274000A92EB12C41E0BE016F5D7F4F872D0E9405
:10275000BD0829A12095822F652D0E94DA1D9B833B
:102760000E94DA1D9A83822F642D0E94DA1D8983CC
:1027700019A2DE01119640E02D91862D840F90E084
:10278000FC01EE0FFF1FEB5EF64C30E02D523B4894
:1027900020833183FC01EE0FFF1FEB5AF64CE082E1
:1027A000F182880F991FFC01EB56F64CE082F18212
:1027B0004F5F433009F7F80186829782EA5BFF4F4B
:1027C000A082B182E05CFF4FC082D1827394085F27
:1027D0001F4FF4E06F0E80E27812B4CF8BE59AE7DA
:1027E000809353399093543984E090E080939339E7
:1027F0009093943981E090E08093D3399093D439C9
:1028000070921439FF24F3948F2DA196CDBFDEBFB3
:10281000DF91CF911F910F91FF90EF90DF90CF90BC
:10282000BF90AF909F908F907F906F905F904F90F0
:1028300008954F925F926F927F928F929F92AF9284
:10284000BF92CF92DF92EF92FF920F931F93CF939D
:10285000DF93CDB7DEB72A97CDBFDEBF8C016FDC2B
:10286000C8016DDCF82E882309F4EEC7D8018C91DD
:10287000883709F045C080912938E82FF0E0EE0F45
:10288000FF1FEB52F64C20813181232B11F0811177
:1028900003C082E896E7A1C580911B3A0E94BF0A57
:1028A0008823B9F0E0912938E150E0932938F0E02D
:1028B000EE0FFF1FEB52F64C65E17AE380819181C8
:1028C0000BDB8091193A90E080933638909337383B
:1028D00031C28091373A9091383A2091293A30911B
:1028E0002A3A2093173930931839809357399093A7
:1028F0005839109297391092983980913D3A3AC6DA
:10290000853619F08F3609F0DFC0B2E0FB12C1CF77
:10291000E0902938F12CF701EE0FFF1FEB52F64C37
:1029200040E050E0D80111966C91808191819FDB4D
:10293000F701EE0FFF1FE952F64C808391839091CF
:102940002938292F30E0F901EE0FFF1FE952F64C2C
:10295000408151814115510521F064ED78E3CA01B0
:102960001CC0992309F487C7220F331FF901ED52C8
:10297000F64CD80111966C918081918124DB8823DB
:1029800009F479C7E0912938F0E0EE0FFF1FED520E
:10299000F64C64ED78E3808191819EDAF8018081C4
:1029A0008536C9F48091DC3880FD1EC080EA99E745
:1029B00080931739909318398EE190E080935739BE
:1029C0009093583981E090E08093973990939839AB
:1029D00072E0772E1EC78F3639F48091DC3881FD86
:1029E00003C085E899E7F9C48091DA380E94BF0AEC
:1029F000E0912938882309F449C0AE2FB0E0AA0F2E
:102A0000BB1FA952B64C8D919C91892B11F0EF5FA1
:102A100001C0E150E0932938E0912938F0E0EE0F51
:102A2000FF1FEB52F64C65E17AE38081918154DA25
:102A30008091313A9091323A2091233A3091243A60
:102A40002093173930931839809357399093583918
:102A500010929739109298398BE59AE7809319393B
:102A600090931A3982E090E08093593990935A39C3
:102A700081E090E08093993990939A398091193A46
:102A800090E080933638909337388DC4F0E0EE0FA5
:102A9000FF1FE952F64C108211828091F638909116
:102AA000F7382091E8383091E9382093173930937E
:102AB000183980935739909358391092973910925A
:102AC00098398091FC3856C58C3609F057C1E09191
:102AD0002938B1E0FB12F6C08091313A9091323A38
:102AE0002091233A3091243A2093173930931839A2
:102AF000809357399093583910929739109298399A
:102B00008BE59AE78093193990931A3982E090E027
:102B10008093593990935A3981E090E080939939A4
:102B200090939A392EEE39E720931B3930931C3954
:102B300025E130E020935B3930935C3980939B39F9
:102B400090939C39F0E0EE0FFF1FE952F64C108293
:102B5000118284E0682E99E5C92E9AE7D92E22E0E9
:102B6000A22EB12C88248394912C8091293890E056
:102B70009C01220F331FF901E952F64C7F0140817D
:102B80005181F901EB52F64C60E0808191816FDA5E
:102B9000D7018D939C93E0912938F0E0EE0FFF1F51
:102BA000E952F64C80819181009709F44AC0209146
:102BB0003A3830913B388217930709F442C020918C
:102BC0003C3830913D3882179307D9F164ED78E3B2
:102BD00083D98091EE389091EF38E62DF0E0DF0157
:102BE000AA0FBB1FAB5EB64C2091E0383091E138A4
:102BF0002D933C93DF01AA0FBB1FAB5AB64C8D93AC
:102C00009C93EE0FFF1FEB56F64C1082118281E071
:102C1000860D90E063946394FC01EE0FFF1FEB5E62
:102C2000F64CC082D182FC01EE0FFF1FEB5AF64C2E
:102C3000A082B182880F991FFC01EB56F64C80826E
:102C4000918220912938822F90E0FC01EE0FFF1F26
:102C5000E952F64C40815181452B09F086CF222361
:102C600069F1880F991FFC01ED52F64C64ED78E391
:102C70008081918131D92091EE383091EF387724DD
:102C80007394760C862D90E0FC01EE0FFF1FEB5E37
:102C9000F64C4091E0385091E13840835183FC017B
:102CA000EE0FFF1FEB5AF64C20833183880F991FDC
:102CB000FC01EB56F64C10821182ABC577247A9456
:102CC000760CA7C5EE2EF12CF701EE0FFF1FEB528D
:102CD000F64C40E050E0D80111966C9180819181D2
:102CE000C6D9F701EE0FFF1FE952F64C808391839E
:102CF00090912938292F30E0F901EE0FFF1FE9529A
:102D0000F64C408151814115510521F064ED78E385
:102D1000CA011EC0992309F4AEC5220F331FF90161
:102D2000ED52F64CD80111966C91808191814BD96E
:102D3000811103C0772473946CC5E0912938F0E0C9
:102D4000EE0FFF1FED52F64C64ED78E38081918128
:102D5000C3D88091F0389091F1382091E2383091C9
:102D6000E33820931739309318398093573990936B
:102D7000583910929739109298392ACE803709F035
:102D800096C080913A3890913B38892B79F08091A8
:102D90003C3890913D38892B49F085E498E7809341
:102DA00017399093183989E590E008CEB2E0FB120C
:102DB00070CDE0902938F12CF701EE0FFF1FEB5298
:102DC000F64C40E050E0D80111966C9180819181E1
:102DD0004ED9F701EE0FFF1FE952F64C8083918325
:102DE0002091293830E02F5F3F4F220F331FF90128
:102DF000EB52F64C80819181009709F4CAC340914F
:102E00003A3850913B388417950739F040913C3857
:102E100050913D3884179507C1F480E298E780937C
:102E200017399093183985E290E080935739909341
:102E3000583981E090E08093973990939839F9015F
:102E4000EB52F64C10821182C3CD64ED78E344D886
:102E50008091DB380E94BF0A882309F475C38091F2
:102E6000DF38882309F415CD80913A3890913B38AA
:102E7000E0912938F0E0EE0FFF1FE952F64C892B64
:102E800039F08081918180933C3890933D3806C021
:102E90008081918180933A3890933B388AE098E71B
:102EA000809317399093183986E190E05EC284369A
:102EB000D9F480913A3890913B38009709F0DEC4FC
:102EC00080913C3890913D38892B49F484EE97E706
:102ED000809317399093183986E290E06FCDB2E075
:102EE000FB1609F431C5D5CC893609F07BC0809139
:102EF0003A3890913B38892B31F480913C3890914D
:102F00003D38892B19F38AE098E78093173990931D
:102F1000183986E190E0809357399093583981E0D1
:102F200090E080939739909398392AE3E22E28E332
:102F3000F22E3EE3632E38E3732E42E0542E59E521
:102F4000C52E5AE7D52E62E0A62EB12C8824839494
:102F5000912CD7018D919D917D010097D9F164ED60
:102F600078E30E946C0F8091EE389091EF38E52D58
:102F7000F0E0DF01AA0FBB1FAB5EB64C2091E0383A
:102F80003091E1382D933C93DF01AA0FBB1FAB5A60
:102F9000B64C8D939C93EE0FFF1FEB56F64C1082B0
:102FA0001182E1E0E50DF0E053945394DF01AA0FA4
:102FB000BB1FAB5EB64CCD92DC92DF01AA0FBB1FEC
:102FC000AB5AB64CAD92BC92EE0FFF1FEB56F64CCF
:102FD000808291826E147F0409F0BBCF77247A94AB
:102FE000750C17C49CE8980F923028F0873619F0BA
:102FF000823709F0D7C28EEF8F0D823008F049CCAE
:10300000E0912938CE2ED12CD801AF0DB11D1197EA
:10301000F601EE0FFF1FEB52F64C40E050E06C91D2
:103020008081918124D8F601EE0FFF1FE952F64C02
:1030300080839183E0912938F0E0EE0FFF1FE95281
:10304000F64C80819181009709F49AC2B3E0FB129B
:1030500078C1F8012081253719F0273609F071C1B0
:10306000612C7724739454E6C52E59E7D52E61E27E
:10307000A62EB12C88248394912CE62CF12CC70128
:10308000880F991F9C01265C374C7901D9018D91DD
:103090009C91009781F0F80161810E94E30F8823E1
:1030A00051F069EA78E3D7018D919C910E946C0FF1
:1030B00032E0632E1EC0B1E06B121AC0E72DF0E0C3
:1030C000DF01AA0FBB1FAB5EB64CCD92DC92DF01D5
:1030D000AA0FBB1FAB5AB64CAD92BC92EE0FFF1FAE
:1030E000EB56F64C80829182F8011082739401C0F5
:1030F000612C6394F1E06F1609F4BFCFD8018C9175
:10310000882309F486C3E0912938F0E0EE0FFF1F11
:10311000E952F64C64ED78E3808191810E946C0F56
:10312000E090F238F090F338B1E0EB16F10409F0DA
:103130009AC098012E5F3F4F40E061E08091E438F3
:103140009091E5380E94610EF801428121E0270D3F
:10315000872D90E0413309F06BC03091B43851EEC7
:10316000530FFC01EE0FFF1FEB5EF64C543060F086
:1031700044E059E740835183FC01EE0FFF1FEB5AF7
:10318000F64C4AE150E064C06EE875E760837183F5
:10319000FC01EE0FFF1FEB5AF64C62EB70E0608310
:1031A0007183880F991FFC01EB56F64CE082F18287
:1031B000822F90E0FC01EE0FFF1FEB5EF64C6BE5FB
:1031C0007AE760837183FC01EE0FFF1FEB5AF64C28
:1031D00062E070E060837183880F991FFC01EB56F9
:1031E000F64CE082F18282E0870D90E0F3E07F0E02
:1031F000FC01EE0FFF1FEB5EF64C60EB78E760839F
:103200007183FC01EE0FFF1FEB5AF64C62E170E098
:1032100060837183880F991FFC01EB56F64CE082A6
:10322000F182409304393093053910920639F1C286
:10323000FC01EE0FFF1FEB5EF64C40E456E74083C7
:103240005183FC01EE0FFF1FEB5AF64C42E450E0B5
:1032500040835183880F991FFC01EB56F64CE082A6
:10326000F182722ED6C29091DD388091B4389813D5
:103270002FC02091FA383091FB38FF24F394F70CDB
:10328000872D90E0FC01EE0FFF1FEB5EF64C4091A6
:10329000EC385091ED3840835183FC01EE0FFF1F55
:1032A000EB5AF64C20833183880F991FFC01EB56B3
:1032B000F64C108211828091FE3890E0809336386F
:1032C000909337388091DE380E94B50A7F2CA1C2D6
:1032D000D8018C91853799F4872D90E0FC01EE0F91
:1032E000FF1FEB5EF64C24E039E720833183FC01BD
:1032F000EE0FFF1FEB5AF64C2AE130E015C087367F
:1033000009F087C2872D90E0FC01EE0FFF1FEB5EF6
:10331000F64C2DED36E720833183FC01EE0FFF1FC5
:10332000EB5AF64C28E230E020833183880F991F56
:10333000FC01EB56F64C81E090E08083918373941E
:1033400068C264ED78E30E946C0FF80180818437D5
:1033500069F58091DC3883FD4AC08EE199E780935E
:103360001739909318398EE190E0809357399093F4
:10337000583981E090E08093973990939839809103
:10338000EE389091EF382091E0383091E138209379
:10339000193930931A398093593990935A391092C8
:1033A000993910929A39A3E07A2E33C2853769F49D
:1033B0008091DC3884FD1BC084E099E78093173945
:1033C000909318398AE190E0F9CA823769F48091C4
:1033D000DC3885FD0CC089EE98E78093173990930F
:1033E00018398BE190E0EACA873609F452CAE090B6
:1033F000F238F090F338F1E0EF16F10411F598018E
:103400002E5F3F4F40E061E08091E4389091E538D5
:103410000E94610ED80112968C91813309F08ACCFA
:1034200083E695E780931739909318398BE290E003
:103430008093573990935839E0929739F0929839A0
:10344000C7CAE114F10409F459C08091E43890919D
:10345000E5388093173990931839E0925739F092F4
:10346000583910929739109298398BE59AE78093E2
:10347000193990931A3982E090E0809359399093EA
:103480005A3981E090E08093993990939A3920EBF2
:1034900038E720931B3930931C3922E130E0209328
:1034A0005B3930935C3980939B3990939C39809140
:1034B000F4389091F538409730F08FE090E08093A9
:1034C000F4389093F53824E039E340E06091F43823
:1034D0008091E6389091E7380E94610E64E079E3CC
:1034E0008091F4380E94540EE091F438F091F53850
:1034F000EC5FF64C1082F4E07F2E8BC18091DB38BC
:103500000E94BF0A882301F18091FA389091FB381C
:103510002091EC383091ED382093173930931839D9
:10352000809357399093583910929739109298395F
:103530008091FE3890E080933638909337388091B0
:10354000DE380E94B50A44CA8091F8389091F93863
:103550002091EA383091EB3820931739309318399D
:10356000809357399093583910929739109298391F
:103570008091FD3890E0809336389093373828CA90
:10358000F8018081843711F0873619F48CE399E7CC
:1035900002C080E599E7809317399093183984E148
:1035A00090E00CCA813609F0C5CB80910339823096
:1035B00008F4BDC0D80111962C91222309F4A4C0AF
:1035C000FE0131967F018AE0DF011D928A95E9F7BD
:1035D0002153F80121833281315332838381813633
:1035E00011F481E008C0853611F4138208C08636D4
:1035F00021F483E0F801838302C082E0838321FD0C
:1036000004C080E090E0DC0104C080E090E0A0E134
:10361000B0E020FF03C09F5FAF4FBF4FF801238191
:1036200021FD119620FF03C04096A11DB11D31FF61
:1036300003C0905FAF4FBF4F30FF03C00196A11D85
:10364000B11D4091393824E030E0241B3109BC0120
:10365000CD0104C0660F771F881F991F2A95D2F7E6
:1036600026E035E7209317393093183920E230E00F
:10367000209357393093583921E030E0209397391F
:103680003093983959E0B52EEAE04E2E512C612C3A
:10369000712C6701CB0CD11CA3019201BED2D601C3
:1036A0006C93B901CA01611571058105910551F449
:1036B00025E1C22E29E3D22E32E0732E8824839492
:1036C000912C02C0BA94E5CFF2E0CF0ED11C29E0D4
:1036D0002B1508F49CC07394F701EB0DF11D80814C
:1036E00090E08D529B48F60182839383EE5BFF4FFF
:1036F00080829182E05CFF4F808291828091DE38EF
:103700000E94B50AB394E0CF86E295E7809317391B
:10371000909318398DE390E08093573990935839FE
:1037200081E090E080939739909398396EC0E09152
:103730002938F0E0EE0FFF1FE952F64C64ED78E314
:10374000813009F046C0808191810E946C0F809188
:10375000DB380E94BF0A882301F18091FA389091EA
:10376000FB382091EC383091ED38209317393093A5
:10377000183980935739909358391092973910928D
:1037800098398091FE3890E080933638909337389E
:103790008091DE380E94B50A38C08091F838909147
:1037A000F9382091EA383091EB382093173930936B
:1037B000183980935739909358391092973910924D
:1037C00098398091FD3890E080933638909337385F
:1037D0001CC0808191810E946C0F8EE998E78093D4
:1037E00017399093183982E190E08093573990937C
:1037F000583981E090E080939739909398390E94EE
:10380000B50C809301399093023982E0782E1092A2
:1038100004398BE59AE7809315399093163982E045
:1038200090E0809355399093563981E090E08093F1
:1038300095399093963980910439882319F07092C4
:1038400014399AC0872D12C08BE59AE780931539F9
:103850009093163982E090E08093553990935639D1
:1038600081E090E080939539909396390E94F00E14
:103870008093143981C084ED99E7A0CDB2E0FB12AA
:1038800008C8D80111966C910E94E30F882309F4AF
:103890005BC080E090E0880F991F9C01265C374C4C
:1038A000790164ED78E3D9018D919C910E946C0FB0
:1038B00084ED97E7809317399093183980E190E071
:1038C000809357399093583981E090E080939739ED
:1038D000909398392091EE383091EF384091E0384C
:1038E0005091E1384093193950931A39209359393E
:1038F00030935A391092993910929A392BE53AE758
:1039000020931B3930931C3922E030E020935B393F
:1039100030935C3980939B3990939C3927E937E742
:1039200020931D3930931E392DE330E020935D390B
:1039300030935E3980939D3990939E39F7011082C0
:103940001182F5E07F2E65CF80913C3890913D3813
:10395000009749F0F80161810E94E30F882319F074
:1039600081E090E098CF84E699E7809317399093AF
:10397000183981E290E022C8D8011C921092403898
:103980001DBA80E02A96CDBFDEBFDF91CF911F9197
:103990000F91FF90EF90DF90CF90BF90AF909F90EE
:1039A0008F907F906F905F904F900895CF9380910C
:1039B000013990910239892B29F40E94C21081119A
:1039C00049C043C00E94B50C2091013930910239A1
:1039D0008217930708F4945C821B930B8B3091053C
:1039E00030F010920139109202398AE090E0209173
:1039F00038382111E2CFEEE8FCEB9C012B5F3F4F02
:103A0000A081B0E02A30310530F420910B38AC535E
:103A1000B54C2C9306C0AC53B54C1C928A30910522
:103A200040F4A581B0E020910B38AC53B54C2C93F9
:103A300005C0A581B0E0AC53B54C1C9201963196FF
:103A40002CEBE339F207C9F6B8CF0E943011C82F2A
:103A5000882311F0C1E013C080910139909102399F
:103A6000892B69F488E698E30E947711C82F8111A9
:103A700005C088E698E30E94191401C0C2E08C2FAB
:103A8000CF9108950E9496058FEF0E940609ACE938
:103A9000BCEB81E0ED91F0E0EC53F54C80831596A2
:103AA000EC911597F0E0EC53F54C80832CEBA23AA7
:103AB000B20781F7EEE8FCEB91E0EF01A581B0E001
:103AC000AC53B54C81E09C933196A881B0E0AC53E7
:103AD000B54C9C932CEBE339F20779F7E0919ABC53
:103AE000F0E0EC53F54C8083E0919BBCF0E0EC53AC
:103AF000F54C8083E09198BCF0E0EC53F54C80836A
:103B0000E09199BCF0E0EC53F54C8083E0918CBCE3
:103B1000F0E0EC53F54C8083E0918DBCF0E0EC5389
:103B2000F54C8083E0918BBCF0E0EC53F54C808346
:103B3000E0918ABCF0E0EC53F54C80830E94060BC8
:103B40000E94D40B8823E1F3809109380E94350943
:103B50008093093810923E388091A000823119F488
:103B60000E94260902C00E9417090E94980B1EDFBE
:103B70000E9493040E9433030E943C0D0E947C002B
:103B80000E94140A8091B73A9091B83A0A9720F4AB
:103B900061E084E70E949B0A8091B73A9091B83A1D
:103BA0008536910520F060E084E70E949B0A0E9420
:103BB000330BC6CF991B79E004C0991F961708F004
:103BC000961B881F7A95C9F780950895AA1BBB1B81
:103BD00051E107C0AA1FBB1FA617B70710F0A61B0D
:103BE000B70B881F991F5A95A9F780959095BC012E
:103BF000CD01089597FB072E16F4009406D077FDAB
:103C000008D0E4DF07FC05D03EF4909581959F4FE6
:103C10000895709561957F4F0895A1E21A2EAA1B11
:103C2000BB1BFD010DC0AA1FBB1FEE1FFF1FA2176C
:103C3000B307E407F50720F0A21BB30BE40BF50B69
:103C4000661F771F881F991F1A9469F760957095F2
:103C5000809590959B01AC01BD01CF010895F8942A
:023C6000FFCF94
:103C62002D7D39575C79514234617D593B655B4406
:103C7200010000020102000101030003010301002F
:103C820001020101010301000D0B0C0A02010500F2
:103C920003042422212308200925141211131015CC
:103CA2001C1A191B181D0101020102020102020164
:103CB20002020202020101020204000300000001EA
:103CC2006964647164007468652074726F75626CF3
:103CD200652077697468207265616C206C6966651D
:103CE2002069732C2074686572652773206E6F20BB
:103CF200726573657420627574746F6E00636865B3
:103D0200617400436865617465722120436F6E744B
:103D1200616374206261646765207465616D2E2E33
:103D22002E2000526573657420706C656173652185
:103D3200200074BFFA541C96B2261EEBD68BC0C26A
:023D42000A6114
:103D4400FF00FFFF0134383438FF01FF0101FF8019
:103D540080C0FF40FFC0804001C00140800001D40A
:0A3D64000103070F1F3F7FFF01FF5F
:00000001FF
