S00E00004953525F494F2E7372656331
S113000046C0000061C000005FC000005DC0000089
S11300105BC0000059C000009EC70000F0C700008C
S1130020D8C5000051C000004FC000004DC0000002
S11300304BC000001FC6000050C6000045C00000B1
S113004043C0000041C000003FC000003DC00000AC
S11300500EC7000039C0000036C7000035C00000DC
S113006033C0000031C000002FC0000089C600006A
S1130070E2C6000029C0000027C00000B00BDE0B60
S1130080E50BA00CA00CF40B010C3F0C660C112426
S11300901FBECFEFCDBFDFE3DEBF18E3A0E0B8E3C0
S11300A0EAE4FFE302C005900D92A633B107D9F745
S11300B02BE3A6E3B8E301C01D92AA31B207E1F72E
S11300C00E948A1E0C944B1F9BCF28ED30E089E0E0
S11300D04091CA3A50E0421753074CF04091CA3A53
S11300E050E0B9016E5E7F4F641775072CF48150A0
S11300F0295131098111ECCF0895CF93DF93809179
S113010039388F5F80933938C4E6D1E08C2F0E9450
S1130110190A811101C0D0E0CF5FC836B9F7DD23D9
S113012019F08CE70E94F80980913838823020F069
S113013094E0909342380DC081110BC090914238E5
S1130140943061F410924238109240381092413841
S113015005C09091C73A9111F1CF18C0811116C012
S11301609091C73A911112C08091433893E3899FCB
S1130170802D11248093003880E098E38093033825
S1130180909304388FEF8093BE3A09C0982F907FE4
S113019031F08F5F8F7080933838109239384091E6
S11301A0CA3A2091003830E050E0B9016A50710930
S11301B080913838461757075CF04091CA3A50E0AE
S11301C0265F3F4F241735071CF0823008F443C0E4
S11301D081110BC08091C73A811196C08091393842
S11301E0883008F491C080EF64C0813041F56DDF40
S11301F080933738882379F190913938983008F40E
S113020083C090914338913011F4835014C09230DC
S113021031F4833091F085508230E8F40EC093308D
S113022039F49CEF980F923040F08730A1F405C068
S1130230943089F48550833070F481EF3AC0823071
S113024069F08330C9F1843009F05EC08091393897
S1130250803408F459C01092383856C087E090E0D2
S1130260809340389093413880913938883040F0F9
S11302702FEF44E668E080E80E943F09809300384D
S1130280809139388A3F08F43FC080914338909177
S11302903738981B90933638891710F489EF04C0C7
S11302A093E3899F802D11248093003880913838FE
S11302B0806F8093383828C080913938883020F195
S11302C004DF8093373890913638482F50E02091DE
S11302D04338291708F4292F30E02B5F3F4F42178A
S11302E0530709F0B8CF83E6890F0E94F8098FE11C
S11302F090E08093403890934138609143388091E6
S113030036380E94E90AD2CF80E0DF91CF91089578
S113031081E080932204E6E2F4E0808310923004CA
S1130320A1E2B4E092E09C93908310923104E0E166
S1130330F8E097E0968398E0948383838C93858197
S1130340816085838581846C8583089580911408F8
S11303508860809314081092130882E0809322042A
S113036099E021E081E02093210430E13A95F1F70E
S113037000C02093220430E13A95F1F700C0915077
S113038089F728E0209314088093130892E090934F
S11303902104909115089160909315089091150887
S11303A0946C9093150820931408809313088093F9
S11303B021048091150881608093150880911508A7
S11303C0846C809315080895282F90911508906CDB
S11303D09093150890911508892F847092FD03C09D
S11303E020931708089584E008958CE08093683A78
S11303F08091150887FD0AC08091150886FD06C006
S11304008091683A8111F4CF8FEF08958091150897
S1130410806C809315088091150882FD09C0809135
S1130420150883FD07C08091150882958170089591
S113043084E0089582E00895FC018CE08093683A9A
S113044090911508892F8370823011F088E0089507
S11304509091150897FD06C09091683A9111F8CFD4
S11304608FEF089590911508906C909315089091D2
S1130470150892FD1EC09091150893FD1DC0909122
S11304801508892F807194FD16C09091140861118C
S113049002C09B7F01C09460909314089091180847
S11304A09083611109C0909114089260909314088C
S11304B0089584E0089581E00895FC018CE0809320
S11304C0683A9091150893709230B1F480818093CA
S11304D018088091150886FD06C08091683A81113C
S11304E0F8CF8FEF08958091150882FD07C08091A1
S11304F0150882958170089588E0089584E0089530
S1130500E0E1F8E08481836084830895CF92DF92F0
S1130510FF920F931F93CF93DF936B01F42EE901A6
S1130520182F110F812F50DF81112BC05EDF813016
S113053019F4E6DF81E027C0811123C0FF2049F0D0
S1130540C601BBDF81111DC08FEFC81AD80AFA9407
S1130550F5CF013408F000E41F5F10931708023050
S113056040F060E0CE0168DF81110BC0219601509C
S1130570F6CF61E0CE0160DF811103C0C1DF80E00E
S113058002C0E4DE8FEFDF91CF911F910F91FF90B6
S1130590DF90CF90089510923D3810923C3881E05E
S11305A0809302380C94270B0895CF93809142389E
S11305B0833081F46AE070E080913A3890913B385E
S11305C00E94410E882331F0E6DF109242380E94E7
S11305D0270BA3C08BE72DD781119FC08091423890
S11305E0882319F0833009F098C0C091B6BEEC2F6F
S11305F0F0E0809108388F3F19F090910C3801C0D9
S113060090E0E553F54C90838F3F09F486C09091B8
S11306100738891709F481C00E94320E80933A3852
S113062090933B38809107388F3F09F076C08091D2
S1130630083820E2829FC0011124815C9E4F809380
S113064040389093413880914238833009F0A3DFD9
S113065083E08093423880913D38E82FF0E0E655FE
S1130660F144208190910838291312C090910238E6
S1130670917090930238E091C5BEF0E0E553F54CDB
S11306801082E091C4BEF0E0E553F54C108209C03D
S113069010920238811105C07EDF82E080934238D7
S11306A03CC08F5F80933D3880913C388F5F80934E
S11306B03C38682F8ED780913C38843070F110928A
S11306C03C3880910238813009F580913D38E82F1B
S11306D0E695F0E0E853F144A481B0E090910C3841
S11306E0A553B54C9C93E581F0E090910C38E5530B
S11306F0F54C90838C3089F48BE77AD6EC2FF0E0BC
S1130700E553F54C108282E490E003C044DF81E2BB
S113071090E0809340389093413880E0CF910895E1
S113072010924F381092503810924E3881E08093D6
S11307300D3810924D388BC70895CF93DF93EC0199
S113074097FF03C0D195C195D109CD33D10544F0AC
S113075080914238811104C0E3DF81E08093423804
S113076080914238813009F5CC33D1051CF460E026
S113077080E01AC0C837D1051CF461E081E014C0E0
S1130780C639D1051CF462E082E00EC0C83CD10534
S11307901CF463E083E008C0CC32D1401CF464E074
S11307A084E002C065E085E014D7DF91CF9108951D
S11307B0CF93DF9380914238813071F46AE070E026
S11307C080914B3890914C380E94410E882321F03F
S11307D0A7DF10924238E5C087EF2BD68111E1C024
S11307E08DE727D68111DDC080914238823008F030
S11307F0D8C08091F33A9091F43A892B41F48091D6
S1130800C33A9091C43A8093F33A9093F43AC091E6
S1130810C33AD091C43A8091F33A9091F43AC81B08
S1130820D90BCE018ADF80915238813089F018F0DB
S11308308230C1F01FC0C43D9EEFD90714F491E08B
S113084004C0CD32D1405CF092E09093513812C094
S1130850CD3291E0D907C4F7C938DF4F84F3109241
S1130860513808C0C43D9EEFD9074CF3C837D105B1
S1130870B4F3EACFC091B6BEEC2FF0E090915138BA
S1130880992319F020910C3801C020E0E553F54C70
S113089020832FE931E02093403830934138891781
S11308A009F47FC00E94320E80934B3890934C38E9
S11308B09091503880915138911108C0882331F0BB
S11308C091E0813009F490E090934D388093523850
S11308D0882309F466C080914238811101C020DF69
S11308E081E08093423880914D382091523888239A
S11308F011F083E0282730E080915038E82FF0E0B1
S1130900EC5FF044408150E02417350791F4909156
S11309100D38917090930D38E091C5BEF0E0E55329
S1130920F54C1082E091C4BEF0E0E553F54C108222
S113093002C010920D388F5F8093503890914E38DA
S11309409F5F933018F490934E382BC010924E381A
S113095090910D389130E1F490914F38E92FF0E007
S1130960E853F144E681F0E020910C38E553F54C6E
S113097020839F5F90934F38823199F48DE738D567
S1130980EC2FF0E0E553F54C108282E490E005C0D2
S1130990C7DE1092423881E290E080934038909311
S11309A0413880E0DF91CF910895CF93DF93F8949D
S11309B088ED84BFC1E0C09361008AE480930004A1
S11309C08CE7809320049FE3909340048091530428
S11309D08068809353048091540480688093540405
S11309E08091550480688093550480913304806815
S11309F0809333048091340480688093340480911C
S1130A003504806880933504C0930102D2E0D0930A
S1130A1005042BE531E0209308083093090880EAA7
S1130A208093050880EC8093060883E08093070890
S1130A301CBA1DBA1FBAC093030A88E08093000A47
S1130A409093020287E78093010AC0930A0A8BE01D
S1130A508093050A8091000A81608093000A85E0F2
S1130A608093400A1092410A8FEF91E080934C0AE0
S1130A7090934D0A1092450AC093500A1092510A5D
S1130A808BE893E080935C0A90935D0AC093550AC7
S1130A903FDC82E18093A00080E28093A200C093B7
S1130AA0A100D093000684E4809302068EE1809333
S1130AB00606C0930A0680910006816080930006B2
S1130AC0C093080610924006D093410682E58093B5
S1130AD0420684E08093450680934606C0934A0606
S1130AE080914006816080934006C093480680E46C
S1130AF08093A00680E88093A1068091A00681607F
S1130B008093A0068091410180FDFCCF80E3809317
S1130B104001109247018091410182FDFCCF80E0A9
S1130B2098E780934A0190934B01809148019091FA
S1130B30490182968093F73A9093F83A20914A01BA
S1130B4030914B018091F73A9091F83A2817390780
S1130B5070F420914A0130914B018091F73A9091C1
S1130B60F83A821B930B8093F73A9093F83A80916A
S1130B70410183FDFCCF8091F73A9091F83A80933C
S1130B804C0190934D0183E08093420181E0809376
S1130B90520188E0809350018091410180FDFCCF97
S1130BA08091400181608093400180915001816077
S1130BB08093500110927D3A8DE79AE38093C13A75
S1130BC09093C23A8FEF80933E387894DF91CF911F
S1130BD008951F920F920FB60F9211248F939F9333
S1130BE0AF93BF93EF93FF9387E08093460484E42D
S1130BF080932604ECB388E0E89FF0011124E553C8
S1130C00F54CA8E2BAE096E081918D939A95E1F7CC
S1130C108BE08093050A8CB3833058F48CB391E055
S1130C2001C0990F8A95EAF799B98CB383958CBB67
S1130C300AC08CB3833021F42A9A83958CBB03C0F9
S1130C402E9A88278CBB8091683A882329F080915A
S1130C50683A81508093683A8FEF80930B0AFF9132
S1130C60EF91BF91AF919F918F910F900FBE0F9015
S1130C701F9018951F920F920FB60F9211248F9305
S1130C809F93EF93FF93E091C13AF091C23A808130
S1130C90882391F08081809302088091C13A9091D9
S1130CA0C23A01968093C13A9093C23A8091050862
S1130CB080628093050805C081E080930938109212
S1130CC0450A81E08093460AFF91EF919F918F91AD
S1130CD00F900FBE0F901F9018951F920F920FB692
S1130CE00F9211242F933F934F938F939F93EF93DE
S1130CF0FF93E0910538F09106388081811108C096
S1130D008091033890910438809305389093063885
S1130D10E0910538F091063880818823E1F0208144
S1130D204091BE3A30E02F573109429FC001439FA2
S1130D30900D1124892F990F990B80589F4F809300
S1130D40A106809105389091063801968093053864
S1130D509093063806C08FEF8093BE3A80E8809364
S1130D60A10681E08093560AFF91EF919F918F91A4
S1130D704F913F912F910F900FBE0F901F90189598
S1130D801F920F920FB60F9211248F93EF93FF933C
S1130D9080914A38811144C0EDB3F0E0809100089D
S1130DA0E358F54C8083EDB3F0E0E358F54C8081D3
S1130DB080930208EDB3F0E0E358F54C80818A306B
S1130DC039F0EDB3F0E0E358F54C80818D3049F40F
S1130DD0EDB3F0E0E358F54C108281E080934A389B
S1130DE01FC0EDB3F0E0E358F54C8081883039F052
S1130DF0EDB3F0E0E358F54C80818F3759F48DB3AF
S1130E00882341F0EDB3F0E0E358F54C10828DB344
S1130E10815005C08DB3803418F48DB38F5F8DBBC2
S1130E2080E880930408FF91EF918F910F900FBE9B
S1130E300F901F9018951F920F920FB60F921124C6
S1130E408F93EF93FF9310924A0A10924B0A81E01A
S1130E508093450AE5E0F8E080818F7D8083FF91EF
S1130E60EF918F910F900FBE0F901F9018951F92C6
S1130E700F920FB60F9211248F939F9380913E3857
S1130E80811112C0809106068E3149F480911006BA
S1130E90909111068093F53A9093F63A0AC08091A6
S1130EA010068093CA3A05C080913E3881508093E1
S1130EB03E3881E080930B069F918F910F900FBE77
S1130EC00F901F9018951F920F920FB60F92112436
S1130ED08F939F938091460681110AC0809150069A
S1130EE0909151068093C53A9093C63A81E010C020
S1130EF080914606813079F488E0809306048091DD
S1130F005006909151068093C33A9093C43A84E07A
S1130F108093460610C080915006909151068093AC
S1130F20BF3A9093C03A8FB38F3029F4109246069B
S1130F3088E0809305048FB390E001968F70992721
S1130F408FBB81E080934B069F918F910F900FBED2
S1130F500F901F9018951F920F920FB60F921124A5
S1130F602F933F938F939F938091430181FF36C0CA
S1130F70809148388F3F29F0809148388F5F809363
S1130F804838809148019091490182968093F73ABC
S1130F909093F83A20914A0130914B018091F73AAD
S1130FA09091F83A2817390758F420914A01309162
S1130FB04B018091F73A9091F83A821B930BE6CF5C
S1130FC08091410183FDFCCF8091F73A9091F83AEA
S1130FD080934C0190934D0182E006C08091493882
S1130FE08F5F8093493881E0809343019F918F9173
S1130FF03F912F910F900FBE0F901F9018951F9245
S11310000F920FB60F9211248F9381E080934806BC
S1131010809353018F910F900FBE0F901F901895DE
S11310209091021091FDFCCFFB01480F841739F019
S1131030A82FB0E0BC5E9C9191938F5FF7CF089589
S11310409DE924E033E0442309F15091021051FD5D
S1131050FCCF94BF20930010E82F582F5F718F5F4F
S11310606F5F7F4FDB011197AC91F0E0FC5EA083D2
S1131070415019F0E82F5F3181F794BF309300108D
S11310805091021052FFDFCF81E0089580E008956F
S1131090F9019C012E1B3F0B88E0489FA0011124FD
S11310A04C505144662369F0DF01A20FB31FA770AF
S11310B0BB27A40FB51F80819C9198279193615001
S11310C0F1CF0895A2E0B0E0E8E6F8E00C94221F26
S11310D0D62EC42E59017C01E894F7F8F982EA82ED
S11310E0062F42E0BE016F5F7F4F80E50FDA182FB5
S11310F0811105C095014C2D6D2DC701C9DF812FCC
S11311002296EAE00C943B1F20910938222359F0DF
S11311108093C13A9093C23A1092093881E0809347
S1131120450A80E0089581E00895282F811101C0C7
S113113021E08FEF90E0821B9109982F882781503E
S11311409F4F80934C0A90934D0A08958FEF80939C
S11311503E3882E18093A000E0E0F6E080818B7F5E
S113116080838EE18093060608958FEF80933E3846
S113117082E28093A000E0E0F6E0808184608083D6
S113118087E08093060608958091BF3A9091C03A13
S113119024E0969587952A95E1F79927803691055D
S11311A040F48F34910588F4C097099790F492E045
S11311B011C08537910568F08E38910540F08E593D
S11311C09109819730F490E005C093E003C091E069
S11311D001C09FEF80912B38981719F090932B380A
S11311E08FEF089580916238909163389C01322F7B
S11311F022273295330F307E822793279C01232F99
S113120033272695822793279C013695322F222750
S11312103795279582279327809362389093633874
S11312200895A0E0B0E0E7E1F9E00C94251F7B010C
S11312308A01C0915C0AD0915D0AE82FF0E03197F1
S1131240E770FF27E45DF74CD080CCDF8D21C80F19
S1131250D11DC8DF8D21C81BD1090C171D0708F447
S1131260E801C701EC16FD0608F4CE0180935C0A80
S113127090935D0ACDB7DEB7E7E00C943E1F0F9361
S11312801F93CF93DF93C82FD42F022FE62FF0E0C4
S11312903197E770FF27E45DF74C1081A3DF8123CA
S11312A0C80FA0DF8123C81B8C2F002341F09C2F83
S11312B00C1708F4902F8D2FD91708F4892F41E0CB
S11312C050E08D1710F040E050E02D2F30E0242343
S11312D03523232B09F08D2FDF91CF911F910F918F
S11312E00895CF92DF92FF920F931F93CF93DF93D2
S11312F0CDB7DEB76497CDBFDEBF44E1BE016F5FFB
S11313007F4F80E08DDE89E6C82E8AE3D82E8E01D9
S11313100F5F1F4FF12CF80181918F01F60190812D
S1131320981308C0F394FFEFCF1ADF0A80E1F81294
S1131330F2CF08C041E0B6018F2D82DE882391F3FD
S113134091E036C020914438309145383093793A51
S113135020937A3A809146389091473890937B3A1B
S113136080937C3A89899A8998278927982728170E
S1131370390769F48B899C899827892798272091B4
S11313804638309147382817390749F410C042E0ED
S113139069E77AE380E154DE882361F3D1CF42E048
S11313A06BE77AE382E14CDE91E0811101C090E0C9
S11313B0892F6496CDBFDEBFDF91CF911F910F912E
S11313C0FF90DF90CF900895E82FEF77E695E695AC
S11313D0E695F0E0E759F54C208130E08770A901EB
S11313E002C0559547958A95E2F7CA018170089520
S11313F0E82FEF77E9F0E695E695E695282F277034
S1131400F0E0E759F54C87FF0AC081E090E001C0A5
S1131410880F2A95EAF780959081892308C081E096
S113142090E001C0880F2A95EAF79081892B808388
S11314300895CF93C82F8F77C7DF2C2F221F222721
S1131440221F91E0811101C090E0822F8927CF9162
S11314500895E3E0F1E180E09191890FED3091E1AD
S1131460F907D1F7837091E0980F9093433808956A
S1131470CF93E9E6FAE311928AE3ED37F807D9F757
S1131480E8DFC82F811102C08EE60BC0813011F451
S11314908FE607C0823011F480E703C0833011F473
S11314A081E7A6DF84E68C0FA3DFCF910895CF9365
S11314B0DF9344E169E67AE380E0B2DDCEE6D0E092
S11314C08C2F82DFD80FCF5FC237D1F7D13011F024
S11314D0CFDF01C0BEDF8091793A90917A3A9827A4
S11314E089279827809344389093453880917B3A94
S11314F090917C3A9827892798278093463890932F
S11315004738DF91CF910895CF9386E792DFC82FB4
S1131510882381F0E091B8BEF0E0E553F54C1082E9
S1131520E091B9BEF0E080910C38E553F54C80832E
S1131530C1E04CC085E77DDF882359F1E091B8BE56
S1131540F0E080910C38E553F54C808380915F384E
S1131550882379F08091C83A9091C93A2091F53A5C
S11315603091F63A80962817390718F086E740DF5D
S11315702DC08091C83A9091C93A2091F53A3091A2
S1131580F63A08968217930708F181E080935F3852
S11315901DC08091C83A9091C93A892B41F4809139
S11315A0F53A9091F63A8093C83A9093C93A80916B
S11315B0C83A9091C93A2091F53A3091F63A80961A
S11315C02817390718F085E713DFC0E08C2FCF9177
S11315D00895EAEBFEEB90E0A581B0E0981734F4AF
S11315E020910C38A553B54C2C9303C0A553B54C8E
S11315F01C92A081B0E0961734F420910C38A553C6
S1131600B54C2C9303C0A553B54C1C929F5F3196E7
S1131610953011F70895A4ECBEEBEC91F0E0E5539E
S1131620F54C80831296EC911297F0E0E553F54C5B
S113163060831196EC911197F0E0E553F54C8083AB
S11316401396EC91F0E0E553F54C60830895CF9345
S1131650DF93E8ECFEEBEF01A681B0E0A553B54CB7
S11316601C923196A881B0E0A553B54C1C928EEB28
S1131670EE3CF80781F7DF91CF910895A0E0B0E048
S1131680E4E4FBE00C94241F80914238882329F081
S113169080E4CFDE811124C050C0C8ECDEEB1AE731
S11316A0812FC7DEEE81F0E0882359F080910C3859
S11316B0E553F54C8083E881F0E0E553F54C108266
S11316C00AC0E553F54C1082E881F0E080910C38B3
S11316D0E553F54C80831F5F2196103809F7D8CF66
S11316E080916138982F9D7FE091B7BEF0E09130F2
S11316F011F0853021F490910C38969506C0823013
S113170011F0843031F490910C38E553F54C90830A
S11317100CC0882311F0863029F490910C389695EA
S11317209695F3CFE553F54C1082803220F48F5F09
S11317308093613802C010926138909160389F5F45
S113174090936038E0914038F0914138EF71FF2771
S1131750E930F10508F0F4C0E25CFF4F0C94141F6B
S113176060E080E036DFE091C4BEF0E0E553F54C84
S11317701082E091C6BEF0E0E553F54C1082E09192
S1131780B8BEF0E0E553F54C1082E091C5BEF0E040
S1131790E553F54C1082E091C7BEF0E0E553F54CFB
S11317A01082E091B9BEF0E0E553F54C1082E0916F
S11317B0B6BEF0E0E553F54C1082C2C0892F8170AB
S11317C090FD80910C3860E00DC0692F70E093FFAC
S11317D002C06095709595E0660F771F9A95E1F7C2
S11317E0615E80E018DFACC0892F837009F0A8C067
S11317F092FF03C065E085E002C060E080E0E9DEBE
S11318009FC0953010F01092603840916038242FBA
S113181030E0F901E654F144E581F0E0E553F54C9C
S11318201082443019F0C901019602C080E090E0B2
S1131830FC01E654F144E581F0E080910C38E55375
S1131840F54C8083EEEBFEEBE21BF30BE081F0E062
S1131850E553F54C1082443029F083E090E0821B7C
S1131860930B02C084E090E0FC01E654F144E08173
S1131870F0E080910C38E553F54C808361C0CAEBED
S1131880DEEB8FEBE82E8EEBF82E6E010D8110E06F
S1131890A9DC87FF03C080910C3801C080E0F80107
S11318A0E553F54C80832196F601008110E09ADC23
S11318B087FF03C080910C3801C080E0F801E55334
S11318C0F54C8083EC16FD0601F73AC090FD38C054
S11318D0EAEBFEEB8EEB9EEB9F01A581B0E0C681A7
S11318E0D0E0C553D54C4881A553B54C4C933196A3
S11318F0E901A881B0E0C081D0E0C553D54C28816E
S1131900A553B54C2C938E179F0731F7C091C3BED6
S1131910D0E068DC813E18F080910C3801C080E092
S1131920C553D54C8883C091BEBED0E05BDC813EFC
S113193018F080910C3801C080E0C553D54C8883E1
S1131940CDB7DEB7E8E00C943D1F0F931F93CF9300
S11319508091CA3A893108F07DC1C1E0C093C73A89
S113196080914038909141388827892B09F01FC114
S11319708091403890914138807E9927892B39F4A1
S11319808FE398E3809303389093043865C1809182
S1131990403890914138807E9927809709F04EC055
S11319A040E052E260E070E281E03BDC20E041E0B4
S11319B065E080E864DC80931C3880914838882393
S11319C009F44AC180915E3881110BC084E0809390
S11319D05D388AE198E38093033890930438C09388
S11319E05E388091BE3A882349F080915D38811138
S11319F005C08091BE3A86958093BE3A8091BE3AE6
S1131A00811113C010925E388FE398E380930338FA
S1131A109093043880914038909141388F71992780
S1131A20809340389093413817C180915D38882362
S1131A3009F412C1815080935D380EC18091403801
S1131A4090914138807E992780349105E1F5809109
S1131A50BE3A882329F08091BE3A81508093BE3AE1
S1131A6080914838882309F4F7C080915C3881114B
S1131A700FC080E09AE080935C0A90935D0A87E14E
S1131A8098E3809303389093043881E080935C3822
S1131A9080915C0A90915D0A8058910980935C0A58
S1131AA090935D0A8091BE3A8111D6C010925C3841
S1131AB08FE398E38093033890930438109240386E
S1131AC010924138C9C08091403890914138807E4D
S1131AD0992780369105B9F510925B3885E598E32E
S1131AE080930338909304388C01C1E0C33039F0FB
S1131AF020E041E065E080E8C2DBF8018183CF5F4C
S1131B000F5F1F4FC63091F780914838882309F43E
S1131B10A3C040E054E060E872E085E082DB80919D
S1131B20BE3A20EA40E162E0AADB8093BE3A20E9B3
S1131B3040E762E080915538A2DB80935538809568
S1131B408093583889C08091403890914138807E84
S1131B5099278038910509F47FC08091403890918D
S1131B604138807E9927803A9105E1F481E198E338
S1131B70809303389093043880914838882309F47B
S1131B806BC040E050E260E075E087E04ADB8091A2
S1131B90BE3A882309F460C08091BE3A8150809394
S1131BA0BE3A5AC0809140389091413855C08091D6
S1131BB040389091413888278115914009F04CC0F4
S1131BC08091403890914138807E992781399105E0
S1131BD008F042C06091403870914138607E7727A8
S1131BE06F5F7F4F86E0660F771F8A95E1F7AB0141
S1131BF05D5F7E5F81E015DB80914838882361F169
S1131C008091543881110BC083E0809353388EE067
S1131C1098E38093033890930438C09354388091A8
S1131C205338811113C080914038909141388F719D
S1131C30992780934038909341388FE398E38093B9
S1131C400338909304381092543806C0815080931E
S1131C50533802C01092C73A80914838CF911F91EF
S1131C600F9108958091480190914901209149383C
S1131C70892F992786953CE3239F800D911D11247C
S1131C8008950F931F93CF93DF938C01EB01EADF49
S1131C909C018017910708F4345CC00FD11F81E0C8
S1131CA0C217D30708F080E0DF91CF911F910F9105
S1131CB00895A4E0B0E0EFE5FEE00C942A1F198239
S1131CC01A821B821C82A8ECBEEB8EEC9EEB2FEFDB
S1131CD0ED91F0E0E553F54C20838A179B07C1F79B
S1131CE08091C53A9091C63A898399272091C53A43
S1131CF03091C63A332728173907C1F3E091C9BE9A
S1131D00F0E0E553F54C10828091BF3A9091C03ACF
S1131D1080389C40C8F3E091CCBEF0E0E553F54C2C
S1131D2010829E012F5F3F4F40E064E08CEC9CE307
S1131D30C9D989818F3349F48A81811106C08B8185
S1131D40803C19F48C81843109F0FFCF80E090E06D
S1131D50FC01E553F54C1082019688329105C1F7D8
S1131D602091C53A3091C63A8091F53A9091F63A6D
S1131D70820F931F880F991F81608093623890931C
S1131D80633880E02496E2E00C94431FCF93DF9302
S1131D90EAEBFEEBEF01A581B0E0A553B54C1C9234
S1131DA03196A881B0E0A553B54C1C929EEBEF3B55
S1131DB0F90781F78330D9F4E091BFBEF0E0809158
S1131DC00C38E553F54C8083E091C0BEF0E080917F
S1131DD00C38E553F54C8083E091C1BEF0E080916E
S1131DE00C38E553F54C80838FE391E046C0813095
S1131DF099F4E091C2BEF0E080910C38E553F54CC3
S1131E008083E091C3BEF0E080910C38E553F54C3B
S1131E1080838FE591E031C08430D9F4E091BABE7B
S1131E20F0E080910C38E553F54C8083E091BBBE23
S1131E30F0E080910C38E553F54C8083E091BCBE12
S1131E40F0E080910C38E553F54C80838FE791E006
S1131E5014C08230B1F4E091BDBEF0E080910C3842
S1131E60E553F54C8083E091BEBEF0E080910C38E0
S1131E70E553F54C80838FE991E08093403890934B
S1131E804138DF91CF910895CF93DF938091423809
S1131E908D7F09F073C18AE7CCDA882341F0809101
S1131EA04238823009F06AC11092423867C18BE728
S1131EB0C0DA90910838882329F09F3F19F082E016
S1131EC080934238E091B6BEF0E09F3F19F08091D4
S1131ED00C3801C080E0E553F54C80838091643870
S1131EE081110CC0CAE6D8E37DD98370899388E355
S1131EF0C637D807C9F781E0809364388091643885
S1131F00813071F480914238823051F48093643886
S1131F1010926938109268381092673810926538B8
S1131F2080916438823019F580916738863038F0B2
S1131F30809165388F5F8093653810926738E0919F
S1131F406538E63048F083E080936438109267384F
S1131F50109265387CDB12C1F0E0E853F144E08173
S1131F60F0E080910C38E553F54C80832BC083302E
S1131F7049F580916738883038F0809165388F5FF3
S1131F808093653810926738E0916538809169389C
S1131F908E1740F41092683885E08093643880E0AE
S1131FA0F5DE98C080916738833030F4F0E0E6596C
S1131FB0F74C80818F5FEADE80916738873010F0BC
S1131FC080E0E4DEC0916438C53009F086C08091B9
S1131FD0083890910738981709F471C090916638C1
S1131FE091116FC0843008F06CC091E09093663812
S1131FF0109267388F5FCADE84E080936438C093A0
S1132000343880916838E82FF0E0E659F74C2081A5
S11320109091083829131DC08F5F80936838E09130
S11320206938E817A0F5EF5FE093693810926738D4
S113203010926538E13059F0E695F0E0E853F14448
S1132040E581F0E080910C38E553F54C808383E022
S11320501CC080E290E08093403890934138A8EC13
S1132060BEEBED91F0E080910C38E553F54C8083A4
S11320708EEBAE3CB807A9F7109268381092693815
S1132080109267381092653886E0809334388091D6
S113209068388C3020F4809169388C3090F082E478
S11320A090E080934038909341388AE7A1D9109208
S11320B067381092653887E08093343802C01092F4
S11320C0663880916738883C41F483E080936438B3
S11320D0109265381092673851C08091643884300A
S11320E081F480916738873060F080E04FDE109291
S11320F0663810926738109265388091343880932E
S1132100643880916438863041F580916738843032
S113211038F0809165388F5F809365381092673806
S113212080916538863040F0109267381092653897
S113213087E08093643822C0E5E0F0E0E81BF10911
S1132140E853F144A081B0E0A553B54C1C92E6815C
S1132150F0E0E553F54C10820CC0873051F4109236
S1132160683810926938109264381092423880E0CE
S11321700DDE809167388F5F8093673880E0DF9150
S1132180CF910895A2E1B0E0E8ECF0E10C94291FAE
S11321908A8B80E1EAE9FEEBDE01119601900D9253
S11321A08A95E1F7FE01319690E08FEF219131910C
S11321B02617370709F4892F9F5F9830B9F78830BD
S11321C010F080E014C018E1180F41E0BE016F5E0A
S11321D07F4F812F0E94100889898F3F91F741E03A
S11321E0BE016E5E7F4F812F0E94200881E06296BF
S11321F0E3E00C94421F262FFB0135E59E2F921B32
S1132200981728F49081929593279193F7CF089586
S11322108F5F883030F4E82FF0E0E05BF54C1082FB
S1132220F7CF0895AC0190E0E92FF0E0DA01AE0FAA
S1132230BF1F3C91E60FF71F311105C081E090816B
S1132240992349F007C020812223C1F3321302C02D
S11322509F5FEACF80E00895CF93DF93FC0161157F
S1132260710559F1A8E5BAE3C0E5DAE380E09FEF30
S11322706F3F710569F060F0ED93FD939993E15020
S1132280FF4F6F5F71098F5F873091F781E01EC048
S1132290282F30E0D901AA0FBB1FA85AB54CED93E3
S11322A0FC936F3F710511F46EEF70E0F901E05B90
S11322B0F54C608340934E3A05C01092583A109200
S11322C0593A80E0A5DF10924F3A80E0DF91CF9138
S11322D00895CF93DF93282F30E0F901EE0FFF1F0D
S11322E0ED5DF64CA9E5BAE7A083B183F901EE0FE1
S11322F0FF1FED59F64C62E070E060837183220F9A
S1132300331FF901ED55F64C41E050E04083518311
S113231021E0280F30E0F901EE0FFF1FED5DF64CD0
S1132320C2E6DAE7C083D183F901EE0FFF1FED594E
S1132330F64CCCE0D0E0C083D183220F331FF901E7
S1132340ED55F64C40835183E2E0E80FF0E0EE0FE8
S1132350FF1FED5DF64C20EF3FEF2083318323E038
S1132360280F30E0F901EE0FFF1FED5DF64CA0835E
S1132370B183F901EE0FFF1FED59F64C60837183B1
S1132380220F331FF901ED55F64C4083518324E0AD
S1132390280F30E0F901EE0FFF1FED5DF64CA5E5C7
S11323A0BAE7A083B183F901EE0FFF1FED59F64C94
S11323B060837183220F331FF901ED55F64C40837E
S11323C051838B5FDF91CF910895AF92BF92DF92DB
S11323D0EF92FF920F931F93CF93DF93CDB7DEB7A6
S11323E02C97CDBFDEBF7C018B019E012F5F3F4F39
S11323F040E06CE080960E94620889819A81982767
S1132400892798278096F801808391838B819C810A
S1132410982789279827809682839383DE011596CF
S11324203496C8010C962D912193E817F907D9F732
S1132430FCE2EF0EF11C5801D12C9E012F5F3F4F9F
S113244040E063E0C7010E94620889819A8198276D
S11324508927982797012E5F3F4F43E04D1580F45D
S1132460AC0141505109F801428F538FF3E0EF0E54
S1132470F11CF801E486F5864B81F50144A305C0FF
S1132480F801828F938F248735877C01E20EF31E37
S1132490D3940E5F1F4FFFEFAF1ABF0A47E0D41269
S11324A0CCCF2C96CDBFDEBFDF91CF911F910F9182
S11324B0FF90EF90DF90BF90AF900895A0E2B0E05E
S11324C0E4E6F2E10C94241FC62E7C0120E2E20E25
S11324D0F11C9E012F5F3F4F40E062E08C960E940A
S11324E062081A81D12C112359F1012F113208F0FD
S11324F000E29E012F5F3F4F40E0602FC7010E9620
S11325000E946208FE01319680E0DD2061F0E1E086
S1132510F0E0EC0FFD1FE80FF11D9081906281E067
S11325209C110EC00EC09191DD24D3949B3509F00B
S1132530D12C8F5F801748F3E00EF11C101BD3CF12
S113254080E0A096E8E00C943D1FAF92BF92DF922A
S1132550EF92FF920F931F93CF93DF9300D000D09D
S1132560CDB7DEB7D62E5A019E012F5F3F4F40E014
S113257064E080960E946208E980FA80FE24EF24D9
S1132580FE240B811C811027012710270E151F051F
S113259048F5A016B10660F09E012F5F3F4F40E062
S11325A062E0C80180960E94620809811A81EBCF1B
S11325B09E012F5F3F4F40E061E0C80185960E9475
S11325C062088981811103C0D11006C00EC00E9427
S11325D0190A8111F9CFE0CF6D2DC8016FDF88236F
S11325E0D9F203C080E090E001C0C8012496CDBFB9
S11325F0DEBFDF91CF911F910F91FF90EF90DF909D
S1132600BF90AF90089580629FE9980F9A3138F097
S113261090ED980F81E09A3018F080E0089581E001
S113262008950F931F93CF93DF938C01D0E0C0E004
S1132630F801ED0FF11D80812C2F30E0882361F02B
S1132640D801A20FB31F8C9380818B3129F0DBDF7B
S11326508111CF5FDF5FECCFF801E20FF31F10822F
S11326608C2FDF91CF911F910F910895CF932091DB
S11326704F3A283008F049C080910938882309F47A
S113268044C0822F90E0FC01E05BF54CE081E11155
S113269006C010920E3988E080934F3A2EC05091B4
S11326A00E395E1760F5CE2FC51BC13208F0C0E2AB
S11326B0880F991FFC01E85AF54C8081918129EF1C
S11326C03AE340914E3A6C2F850F911D0E946208A7
S11326D080910E398C0F80930E39EC2FF0E0E75087
S11326E0F54C10828091F93A811103C08BED8093EF
S11326F0F93A89EF9AE30E94840881E00BC01092B2
S11327000E392F5F20934F3AF8CF9091093881E02A
S1132710911180E0CF910895CF93DF93C091223936
S1132720CC23B1F1C150C0932239D0910D392D2F52
S113273030E0F901EE0FFF1FED5DF64C80819181D1
S1132740803F4FEF940751F460913D3A70913E3AC7
S113275040E080912F3A9091303A0DC0D901AA0FF0
S1132760BB1FAD55B64C220F331FF901ED59F64C82
S1132770608171814C9170DDDF5FD0930D39C1119F
S113278006C01DBA10924A3810920D3901C0C1E03A
S11327908C2FDF91CF910895AAE0B0E0E2EDF3E150
S11327A00C941D1F8C01809135388F3F49F463E2EE
S11327B07AE38091E3399091E43907DE1092353859
S11327C080914A38882309F4D4C18091123988232E
S11327D009F44FC01092113981E6F801808362E157
S11327E079E38DE79AE31EDDF82E882321F081E05A
S11327F08093113904C080911239813311F0F12C86
S1132800BAC1809114398111FACF8DE79AE309DFB7
S113281092E090931139F8011182823080F3809113
S11328207D3A813360F380917D3A853340F780911E
S11328307E3A806280937E3A80917E3A813661F05E
S113284080917E3A853641F080917E3A863621F039
S113285080917E3A873799F6809113398F5EF8011B
S1132860818380917D3A828380917E3A838314822E
S113287082C180917D3A833289F58DB3863071F5BA
S113288081E090E010E0FC01E358F54C20812053F6
S11328902083110F212F220F220F120F20917E3A35
S11328A0233048F420812A30B8F42081120F019695
S11328B08430910541F7812F8F7771F08091813AAF
S11328C06091823A70E0782B812F80955BDC8823BD
S11328D019F0812F0E94F80981E048C1D80180E0F5
S11328E090E0FC01E358F54C2081213418F020815C
S11328F02B3510F0208102C0208120622C9320818E
S1132900211105C0F801E80FF11D108205C00196E0
S113291011968134910529F780917D3AF80181114E
S113292005C010821DBA10924A3823C180818F33AA
S113293011F0883649F483E99BE780932539909315
S113294026398DE694E00AC08136A1F48EE69AE732
S1132950809325399093263985E291E080936539F7
S11329609093663981E090E08093A5399093A639DD
S113297082E0FCC0873709F041C08DE896E7809378
S113298025399093263982E190E0809365399093BC
S1132990663921E030E02093A5393093A63980913F
S11329A0433890E0FC01EE0FFF1FE05CF0444081EF
S11329B05181880F991FFC01E85CF044808191816A
S11329C08093273990932839409367395093683915
S11329D02093A7393093A8398FE596E78093293956
S11329E090932A398AE190E08093693990936A3907
S11329F02093A9393093AA3984E0B8C066E17FEB0B
S1132A00C80110DC882319F18EEE0E94F8098FEEBC
S1132A100E94F80980EF0E94F80981EF0E94F809EA
S1132A200E94710989E0E9E2FFEBDE011196019051
S1132A300D928A95E1F78CE30E94950880910938FC
S1132A408823E1F3CE0101960E948408F7CF6CE15C
S1132A507FEBC801E7DB882381F18FEF8A8718E1D8
S1132A6041E0BE01665F7F4F812F0E9420081F5FF7
S1132A701032B1F78EEE0E94F8098FEE0E94F80929
S1132A8080EF0E94F80981EF0E94F8090E94710901
S1132A9088E0E2E3FFEBDE01119601900D928A9546
S1132AA0E1F78CE30E949508809109388823E1F3CB
S1132AB0CE0101960E948408F7CF63E27FEBC80140
S1132AC0B1DB882309F49BCE83E2C82E89E3D82E98
S1132AD093E6E92E99E3F92E03EA19E328E1522E4D
S1132AE0AA24A394B12C47E5842E4AE7942E52E0FD
S1132AF0652E712C41E0BE016F5F7F4F852D0E94D2
S1132B001008898180958983282F22952F7030E0C1
S1132B1023573B48F60120833183F701A082B18219
S1132B20F801A082B1828F7090E083579B48F60130
S1132B3082839383F701A282B382F801A282B382D3
S1132B40F60184829582F70164827582F801A48279
S1132B50B5825394F6E0CF0ED11C86E0E80EF11C4A
S1132B600A5F1F4FE0E25E12C5CF88E1B2DB8093BB
S1132B702239FF24F3948F2D2A96EFE00C94361F0C
S1132B80ABE2B0E0E6ECF5E10C94211F99249394B8
S1132B90980E90E0FC01EE0FFF1FED5DF64C2CEC5F
S1132BA037E720833183FC01EE0FFF1FED59F64C0C
S1132BB026E130E020833183880F991FFC01ED5515
S1132BC0F64C81E090E08083918304E418E337E5D8
S1132BD0E32E3AE7F32E42E0C42ED12CAA24A39488
S1132BE0B12CF801819191918F010097C9F1BE0137
S1132BF06F5F7F4FEADB2B8D3C8D892D90E0FC01CC
S1132C00EE0FFF1FED5DF64C4D855E8540835183CD
S1132C10FC01EE0FFF1FED59F64C20833183880F22
S1132C20991FFC01ED55F64C1082118281E0890D4B
S1132C3090E093949394FC01EE0FFF1FED5DF64C2E
S1132C40E082F182FC01EE0FFF1FED59F64CC082C9
S1132C50D182880F991FFC01ED55F64CA082B182F8
S1132C60F8E308341F0709F0BCCF8FEF890DAB964A
S1132C70EBE00C943A1FA8E0B0E0E1E4F6E10C9438
S1132C801E1F3C01CEDCC301CCDCF82E29E53AE75B
S1132C90209323393093243984E090E0809363397E
S1132CA09093643901E010E00093A3391093A439A0
S1132CB0FF2009F454C7D3018C91883709F045C02B
S1132CC080913538E82FF0E0EE0FFF1FED51F64C00
S1132CD020813181232B11F0811103C084E496E714
S1132CE013C58091293A0E94190A8823B9F0E0910A
S1132CF03538E150E0933538F0E0EE0FFF1FED5129
S1132D00F64C63E27AE3808191815FDB8091273A1C
S1132D1090E080934038909341382AC28091453A9C
S1132D209091463A2091373A3091383A2093253998
S1132D303093263980936539909366391092A5397A
S1132D401092A63980914B3AA9C5853619F08F3671
S1132D5009F0DEC0B2E0FB12C1CF0091353810E0BB
S1132D60F801EE0FFF1FED51F64C40E050E0D301A7
S1132D7011966C9180819181E8DB000F111FF8019D
S1132D80EB51F64C8083918390913538292F30E0B4
S1132D90F901EE0FFF1FEB51F64C408151814115B3
S1132DA0510521F062EE78E3CA011CC0992309F4AD
S1132DB0DCC6220F331FF901EF51F64CD3011196F3
S1132DC06C91808191817ADB882309F4CEC6E091ED
S1132DD03538F0E0EE0FFF1FEF51F64C62EE78E36A
S1132DE080819181F2DAD3018C918536C1F480918E
S1132DF0EA3880FD1DC08DE999E7809325399093C9
S1132E0026398EE190E0809365399093663981E0AC
S1132E1090E08093A5399093A63912E097C68F3637
S1132E2039F48091EA3881FD03C082E899E76CC4E3
S1132E308091E8380E94190AE0913538882309F412
S1132E4049C0AE2FB0E0AA0FBB1FAB51B64C8D9159
S1132E509C91892B11F0EF5F01C0E150E09335386C
S1132E60E0913538F0E0EE0FFF1FED51F64C63E2D0
S1132E707AE380819181A9DA80913F3A9091403A36
S1132E802091313A3091323A2093253930932639C2
S1132E9080936539909366391092A5391092A639BA
S1132EA089E59AE7809327399093283982E090E066
S1132EB0809367399093683981E090E08093A739D3
S1132EC09093A8398091273A90E08093403890936A
S1132ED0413807C4F0E0EE0FFF1FEB51F64C1082AF
S1132EE0118280910439909105392091F6383091FE
S1132EF0F738209325393093263980936539909398
S1132F0066391092A5391092A63980910A39C6C43F
S1132F108C3609F059C1E0913538B1E0FB12F1C0AB
S1132F2080913F3A9091403A4091313A5091323AEF
S1132F3040932539509326398093653990936639A7
S1132F401092A5391092A639209327393093283945
S1132F5082E090E080936739909368390093A739B1
S1132F601093A8398BEE99E78093293990932A39E5
S1132F7085E190E08093693990936A390093A93987
S1132F801093AA39F0E0EE0FFF1FEB51F64C1082BC
S1132F90118214E0912E07E5E02E0AE7F02E82E07C
S1132FA0C82ED12CAA24A394B12C8091353890E05A
S1132FB08C01000F111F0B51164CF80140815181F7
S1132FC0880F991FFC01ED51F64C60E080819181DE
S1132FD0BCDAD8018D939C93E0913538F0E0EE0F84
S1132FE0FF1FEB51F64C80819181009709F44AC090
S1132FF020914438309145388217930709F442C030
S1133000209146383091473882179307D9F162EE00
S113301078E3DBD98091FC389091FD38E92DF0E01C
S1133020DF01AA0FBB1FAD5DB64C2091EE38309185
S1133030EF382D933C93DF01AA0FBB1FAD59B64C5B
S11330408D939C93EE0FFF1FED55F64C1082118269
S113305081E0890D90E093949394FC01EE0FFF1F9F
S1133060ED5DF64CE082F182FC01EE0FFF1FED599D
S1133070F64CC082D182880F991FFC01ED55F64CA5
S1133080A082B18220913538822F90E0FC01EE0FAE
S1133090FF1FEB51F64C40815181452B09F085CF40
S11330A0222361F1880F991FFC01EF51F64C62EE67
S11330B078E38081918189D92091FC383091FD3861
S11330C011E0190D892D90E0FC01EE0FFF1FED5D5D
S11330D0F64C4091EE385091EF3840835183FC0117
S11330E0EE0FFF1FED59F64C20833183880F991F93
S11330F0FC01ED55F64C1082118228C51FEF190D05
S113310025C5EE2EF12CF701EE0FFF1FED51F64C05
S113311040E050E0D30111966C918081918115DAE1
S1133120F701EE0FFF1FEB51F64C808391839091D2
S11331303538292F30E0F901EE0FFF1FEB51F64C23
S1133140408151814115510521F062EE78E3CA01B5
S11331501CC0992381F1220F331FF901EF51F64C62
S1133160D30111966C9180819181A8D9811102C0FB
S113317011E0ECC4E0913538F0E0EE0FFF1FEF51A1
S1133180F64C62EE78E3808191811FD98091FE38FC
S11331909091FF382091F0383091F13820932539FF
S11331A03093263980936539909366391092A53906
S11331B01092A63932CE81ED99E780932539909308
S11331C026398AE190E0C9C2803709F092C0809123
S11331D0443890914538892B79F080914638909104
S11331E04738892B49F087E098E7809325399093F5
S11331F0263989E590E0B1C2B2E0FB126FCD0091AF
S1133200353810E0F801EE0FFF1FED51F64C40E0A9
S113321050E0D30111966C918081918196D9000F71
S1133220111FF801EB51F64C8083918320913538BE
S113323030E02F5F3F4F220F331FF901ED51F64C61
S113324080819181009709F438C3409144385091AA
S113325045388417950739F04091463850914738DE
S113326084179507C1F482EE97E7809325399093EC
S1133270263985E290E0809365399093663981E040
S113328090E08093A5399093A639F901ED51F64C5D
S113329010821182C2CD62EE78E397D88091E9382A
S11332A00E94190A882309F4E3C28091ED38882327
S11332B009F414CD8091443890914538E091353823
S11332C0F0E0EE0FFF1FEB51F64C892B39F08081B3
S11332D09181809346389093473806C080819181CC
S11332E080934438909345388091EC380E94F809D3
S11332F02BC08436D9F48091443890914538009796
S113330009F03CC48091463890914738892B49F4A0
S113331086EA97E7809325399093263986E290E0F0
S113332072CDB2E0FB1609F48BC4D8CC893681F493
S11333308091443890914538892B31F480914638F6
S113334090914738892B21F381E01ADC182FFEC3B2
S11333509CE8980F923028F0873619F0823709F0EC
S1133360B5C28EEF8F0D823008F0B8CCE0913538BD
S11333700E2F10E0D301AF0DB11D1197F801EE0F20
S1133380FF1FED51F64C40E050E06C91808191813B
S1133390DCD8F801EE0FFF1FEB51F64C80839183CC
S11333A0E0913538F0E0EE0FFF1FEB51F64C8081D1
S11333B09181009709F478C2F3E0FF1260C1D30150
S11333C02C91253719F0273609F059C100E011E096
S11333D041E6C42E49E7D42E51E2A52EB12C88240F
S11333E08394912CE02EF12CC701880F991FFC01C6
S11333F0EC5BF74C7F0180819181009779F0D301D8
S113340011966C915BD8882349F067EB78E3F70158
S1133410808191810E94E51102E01DC00130D1F448
S1133420E12FF0E0DF01AA0FBB1FAD5DB64CCD92DA
S1133430DC92DF01AA0FBB1FAD59B64CAD92BC9212
S1133440EE0FFF1FED55F64C80829182D3011C9242
S11334501F5F01C000E00F5F013021F2F3018081A2
S1133460882309F473C3E0913538F0E0EE0FFF1FB1
S1133470EB51F64C62EE78E3808191810E94E51174
S1133480E0900039F0900139F1E0EF16F10409F011
S113349089C093012E5F3F4F40E061E08091F23894
S11334A09091F3380E946208D30112963C91313313
S11334B009F04CC32091C23851EE520F41E0410F44
S11334C0812F90E0FC01EE0FFF1FED5DF64C5430B0
S11334D0B0F021E039E720833183FC01EE0FFF1FB8
S11334E0ED59F64C2AE130E020833183880F991F8F
S11334F0FC01ED55F64CE082F182142F27C360E500
S113350075E760837183FC01EE0FFF1FED59F64CE4
S113351062EB70E060837183880F991FFC01ED55A5
S1133520F64CE082F182842F90E0FC01EE0FFF1F45
S1133530ED5DF64C49E55AE740835183FC01EE0FFB
S1133540FF1FED59F64C42E050E040835183880F51
S1133550991FFC01ED55F64CE082F18282E0810F67
S113356090E01D5FFC01EE0FFF1FED5DF64C4DEA90
S113357058E740835183FC01EE0FFF1FED59F64CD1
S113358042E150E040835183880F991FFC01ED55BF
S1133590F64CE082F1823093123920931339109261
S11335A01439D4C29091EB388091C23898132EC04C
S11335B0209108393091093901E0010F812F90E001
S11335C0FC01EE0FFF1FED5DF64C4091FA3850916F
S11335D0FB3840835183FC01EE0FFF1FED59F64C7D
S11335E020833183880F991FFC01ED55F64C10821E
S11335F0118280910C3990E0809340389093413847
S11336008091EC380E94F809102FA0C2F301808148
S1133610853799F4812F90E0FC01EE0FFF1FED5DDB
S1133620F64C21E039E720833183FC01EE0FFF1FC4
S1133630ED59F64C2AE130E015C0873609F086C210
S1133640812F90E0FC01EE0FFF1FED5DF64C2FE99A
S113365036E720833183FC01EE0FFF1FED59F64C52
S113366028E230E020833183880F991FFC01ED5557
S1133670F64C81E090E0808391831F5F67C262EE25
S113368078E30E94E511D3018C91843761F5809130
S1133690EA3883FD43C08BE199E780932539909301
S11336A026398EE190E0809365399093663981E004
S11336B090E08093A5399093A6398091FC3890913D
S11336C0FD382091EE383091EF382093273930932C
S11336D0283980936739909368391092A7391092EA
S11336E0A83913E033C2853739F48091EA3884FD70
S11336F015C081E099E73BC2823769F48091EA38CA
S113370085FD0CC086EE98E7809325399093263981
S11337108BE190E078CB873609F4E0CA0091003958
S1133720109101390130110509F593012E5F3F4FC6
S113373040E061E08091F2389091F3380E94620891
S1133740F3018281813309F013CD85E295E78093FB
S11337502539909326398BE290E0809365399093D4
S113376066390093A5391093A63957CB0115110575
S113377009F458C08091F2389091F3388093253938
S11337809093263900936539109366391092A539C0
S11337901092A63989E59AE78093273990932839BE
S11337A082E090E0809367399093683981E090E0FB
S11337B08093A7399093A8392DEA38E720932939C3
S11337C030932A3922E130E02093693930936A3901
S11337D08093A9399093AA39809102399091033941
S11337E0409730F08FE090E0809302399093033952
S11337F022E139E340E0609102398091F4389091FC
S1133800F5380E94620862E179E3809102390E94EE
S1133810FB10E0910239F0910339EE5EF64C108210
S113382014E094C18091E9380E94190A882301F1B7
S113383080910839909109392091FA383091FB38F8
S113384020932539309326398093653990936639CE
S11338501092A5391092A63980910C3990E080938A
S11338604038909341388091EC380E94F809D5CAC9
S113387080910639909107392091F8383091F938C0
S1133880209325393093263980936539909366398E
S11338901092A5391092A63980910B3990E080934B
S11338A0403890934138B9CAD3018C91843711F0D0
S11338B0873619F489E399E702C08DE499E7809388
S11338C025399093263984E190E09DCA813609F028
S11338D04FCC80911139823008F4C7C0F3012181A3
S11338E0222309F4AFC0CE0101967C0188E0D70100
S11338F01D928A95E9F72053218332813153328313
S11339008381813611F481E00CC0853619F4F3010A
S1133910138208C0863619F483E0838303C082E0EF
S1133920F301838321FD04C080E090E0DC0104C046
S113393080E090E0A0E1B0E020FF03C09F5FAF4FC4
S1133940BF4FF301238121FD119620FF03C0409650
S1133950A11DB11D31FF03C0905FAF4FBF4F30FFBA
S113396003C00196A11DB11D4091433824E030E00D
S1133970241B310904C0880F991FAA1FBB1F2A9555
S1133980D2F728EC34E7209325393093263920E206
S113399030E0209365393093663921E030E020939C
S11339A0A5393093A6394DE954E74093273950930C
S11339B0283942E050E040936739509368392093A6
S11339C0A7393093A83907E0F701E00FF11D282F3C
S11339D02F70208344E0B695A795979587954A95CF
S11339E0D1F70097A105B10549F423E2C22E29E3DA
S11339F0D22E13E0AA24A394B12C02C00150E4CF28
S1133A00B2E0CB0ED11C083008F09EC01F5FF70156
S1133A10E00FF11D808190E083579B48D6011496F6
S1133A208D939C931597F601EC5BFF4FA082B182B6
S1133A30E05CFF4FA082B1828091EC380E94F809CB
S1133A400F5FDECF88EE94E7809325399093263973
S1133A508DE390E0809365399093663981E090E03E
S1133A608093A5399093A6396EC0E0913538F0E083
S1133A70EE0FFF1FEB51F64C62EE78E3813009F054
S1133A8046C0808191810E94E5118091E9380E94AD
S1133A90190A882301F180910839909109392091FC
S1133AA0FA383091FB3820932539309326398093A6
S1133AB06539909366391092A5391092A639809190
S1133AC00C3990E080934038909341388091EC38E1
S1133AD00E94F80938C080910639909107392091E5
S1133AE0F8383091F938209325393093263980936A
S1133AF06539909366391092A5391092A639809150
S1133B000B3990E080934038909341381CC08081F9
S1133B1091810E94E51180E698E78093253990937E
S1133B2026398DE490E0809365399093663981E07D
S1133B3090E08093A5399093A6390E94320E809329
S1133B400F399093103912E0109212398091123982
S1133B50882319F0109322398BC0812F01C081E092
S1133B600E9469118093223983C081ED99E7809383
S1133B702539909326398AE190E045C9F2E0FF1295
S1133B80ADC8F30161810E945E12882309F458C014
S1133B9000E010E0000F111F0C5B174C62EE78E39D
S1133BA0D8018D919C910E94E51186E997E7809355
S1133BB025399093263980E190E08093653990937C
S1133BC0663981E090E08093A5399093A6392091DD
S1133BD0FC383091FD384091EE385091EF384093E5
S1133BE027395093283920936739309368391092D4
S1133BF0A7391092A83929E53AE720932939309357
S1133C002A3922E030E02093693930936A3980936D
S1133C10A9399093AA3929E537E720932B393093B2
S1133C202C392DE330E020936B3930936C39809339
S1133C30AB399093AC39F8011082118215E086CF2C
S1133C408091463890914738009749F0F30161819B
S1133C500E945E12882319F001E010E09BCF81E6F8
S1133C6099E7809325399093263981E290E0CBC877
S1133C70F301108210924A381DBA80E02896EEE0D3
S1133C80F6C0CF9380910F3990911039892B09F1A7
S1133C900E94320E20910F39309110398217930708
S1133CA008F4945CAC01421B530B9A014B30510550
S1133CB030F010920F39109210392AE030E08091E0
S1133CC04238811106C065E0621B8AE0821B0E94B3
S1133CD0E90A0E943613882311F0C1E018C00E943B
S1133CE08C13C82F8111F9CF80910F39909110391D
S1133CF0892B69F486E798E30E94CC13C82F8111BD
S1133D0005C086E798E30E943B1601C0C2E08C2FF1
S1133D10CF9108950E94D5040E94570A8091693A70
S1133D2081608093693A0E94590ECFE1D0E00E94ED
S1133D30A50C8823E1F380910838809307380E940A
S1133D40C40880930838809148388150809348385B
S1133D508091A000823119F40E94B50802C00E942B
S1133D60A6080E943E0B8DDF0E94D8030E94D50254
S1133D700E94440F0E947D000E9471098091C53AFF
S1133D809091C63A0A9718F484E70E94F809809142
S1133D90C53A9091C63A8536910518F084EF0E9491
S1133DA0F80920910A3830910B3880910A389091A3
S1133DB00B3846E0369527954A95E1F7821B930B1D
S1133DC080930A3890930B3880910A3890910B387D
S1133DD0939580930A3890930B382091C53A30918B
S1133DE0C63A80910A3890910B38220F232F221F54
S1133DF0330B3195FE01E21BF30BEC52F1442081AD
S1133E00821B910980930A3890930B3880910A3869
S1133E1090910B3866E0969587956A95E1F78093C3
S1133E200C380E94840A83CFEE0FFF1F0590F49193
S1133E30E02D09942F923F924F925F926F927F925E
S1133E408F929F92AF92BF92CF92DF92EF92FF92A6
S1133E500F931F93CF93DF93CDB7DEB7CA1BDB0B52
S1133E60CDBFDEBF09942A88398848885F846E8470
S1133E707D848C849B84AA84B984C884DF80EE808A
S1133E80FD800C811B81AA81B981CE0FD11DCDBFCC
S10D3E90DEBFED010895F894FFCFA2
S1133E9A2D7D39575C79514234617D593B655B44C8
S1133EAA0100000201020001010300030D0B0C0AC8
S1133EBA02010500030424222123082009251412DF
S1133ECA111310151C1A191B181D010D1926323E3F
S1133EDA4A56626F78838E98A2ABB4BFC5CFD4DB3F
S1133EEAE1E7ECF0F4F7FAFCFEFF74BFFA541C960F
S1133EFAB2261EEBD68BC0C20A610101020102027C
S1133F0A01020201020202020201010269646471ED
S1133F1A6400696B696C6C75006368656174004759
S1133F2A6F746368612120005265736574212000EF
S1133F3A877684767E767976060003000600050085
S1133F4AFF00013F383F38FFFF01FF1FFF01FF0158
S1133F5A00FFC080400100FF010001FF8080C0FF14
S1133F6A40FFC0804001C001408000FF0103070FE9
S1093F7A1F3F7FFF05FF5D
S9030000FC
