S00E00004953525F494F2E7372656331
S11300003DC0000058C0000056C0000054C00000AD
S113001052C0000050C0000075C70000BDC70000FA
S1130020A4C5000048C0000046C0000044C0000051
S113003042C00000EBC500001CC600003CC000002C
S11300403AC0000038C0000036C0000034C00000D0
S1130050DAC6000030C000000DC700002CC000004C
S11300602AC0000028C0000026C0000055C60000B9
S1130070AEC6000020C000001EC0000011241FBE38
S1130080CFEFCDBFDFE3DEBF18E3A0E0B8E3E6EFD8
S1130090F9E302C005900D92AA32B107D9F72BE318
S11300A0AAE2B8E301C01D92AC30B207E1F70E94A6
S11300B09D1B0C94881CA4CF85E190E044E0480F7C
S11300C02091B43A30E02817390764F02091B43A0B
S11300D030E0BC01685F7F4F621773071CF04093E8
S11300E02D3804C04996863F910541F780912D38FB
S11300F069E10C94331C0895CF92DF92EF92FF9242
S11301000F931F93CF93DF938091B13A8111BAC0BB
S113011020912C38211111C08091363892E3899FA7
S1130120802D11248093003880E098E38093053873
S1130130909306388FEF8093A83A4091B43A809117
S1130140003890E050E0BC016A5071094617570727
S113015044F04091B43A50E00A96841795070CF0A5
S11301608FC021110AC080912B388F5F80932B3868
S1130170883008F487C081E074C0213089F59CDFA1
S113018080932A38882349F190912B389F5F90936C
S11301902B38983008F476C090913638913029F491
S11301A083508330B8F482E05CC0923031F4833001
S11301B0D1F38550823070F4F6CF933039F49CEF4C
S11301C0980F923080F3873029F4EDCF943011F4F6
S11301D08550E7CF10922C3846C010922B3850C06F
S11301E0223009F043C080912B388F5F80932B38E5
S11301F0C0E4D9EB55E4E52E59EBF52E6E010D81E3
S113020010E0AFD787FF03C080910B3801C080E0B6
S1130210F801E454F54C80832196F601008110E046
S1130220A0D787FF03C080910B3801C080E0F8019C
S1130230E454F54C8083EC16FD0601F780912B38CD
S1130240883C00F120912A3830E08091363890E0E3
S1130250880F991F821793071CF48AEF8093003844
S113026083E080932C3810922B380CC0233051F447
S113027080912B388F5F80932B388830A0F702C091
S113028010922C3880E0DF91CF911F910F91FF9055
S1130290EF90DF90CF90089581E080932204E6E20E
S11302A0F4E0808310923004A1E2B4E092E09C93E5
S11302B0908310923104E0E1F8E097E0968398E0AF
S11302C0948383838C938581816085838581846C09
S11302D0858308958091140888608093140810928F
S11302E0130882E08093220499E021E081E02093C6
S11302F0210430E13A95F1F700C02093220430E163
S11303003A95F1F700C0915089F728E0209314083A
S11303108093130892E090932104909115089160C2
S11303209093150890911508946C90931508209358
S11303301408809313088093210480911508816028
S11303408093150880911508846C8093150808958E
S1130350282F90911508906C90931508909115088A
S1130360892F847092FD03C020931708089584E0B8
S113037008958CE08093523A8091150887FD0AC055
S11303808091150886FD06C08091523A8111F4CF00
S11303908FEF089580911508806C809315088091E3
S11303A0150882FD09C08091150883FD07C080915E
S11303B0150882958170089584E0089582E0089577
S11303C0FC018CE08093523A90911508892F837038
S11303D0823011F088E008959091150897FD06C0C9
S11303E09091523A9111F8CF8FEF0895909115089A
S11303F0906C909315089091150892FD1EC09091F1
S1130400150893FD1DC090911508892F807194FDE6
S113041016C090911408611102C09B7F01C09460C2
S113042090931408909118089083611109C09091D9
S11304301408926090931408089584E0089581E06C
S11304400895FC018CE08093523A909115089370C2
S11304509230B1F48081809318088091150886FD4C
S113046006C08091523A8111F8CF8FEF08958091A0
S1130470150882FD07C08091150882958170089542
S113048088E0089584E00895E0E1F8E084818360E1
S113049084830895CF92DF92FF920F931F93CF939B
S11304A0DF936B01F42EE901182F110F812F50DF18
S11304B081112BC05EDF813019F4E6DF81E027C0B3
S11304C0811123C0FF2049F0C601BBDF81111DC08B
S11304D08FEFC81AD80AFA94F5CF013408F000E473
S11304E01F5F10931708023040F060E0CE0168DF10
S11304F081110BC021960150F6CF61E0CE0160DF7F
S1130500811103C0C1DF80E002C0E4DE8FEFDF9120
S1130510CF911F910F91FF90DF90CF9008958BE7BB
S11305204ED78111D9C080913538882319F0833092
S113053009F0D2C080910938982F907F09F4CCC07B
S113054020910338982F92279F7009F4C5C02F3F3C
S113055009F0BEC08F70823061F028F4813069F4F4
S1130560109202380DC0843031F0883031F482E0CA
S113057005C081E003C083E001C08FEF809302389F
S113058083E08093353880912F38E82FF0E0EC5DDC
S1130590F644208190910238E0913CB9291317C0A8
S11305A090910438917090930438F0E0E454F54C41
S11305B090E89083E0914BB9F0E0E454F54C10825C
S11305C0E0914AB9F0E0E454F54C108213C0109263
S11305D00438F0E0E454F54C1082843058F410925E
S11305E0353810922F3810922E3881E080930438D9
S11305F08FEF70C08F5F80932F3890912E389F5F5C
S1130600943018F490932E3863C010922E38909141
S11306100438913079F5E82FE695E695F0E0E25B51
S1130620F644E581F0E090910B38E454F54C908366
S1130630883109F04DC08BE7B8D6E0914BB9F0E0B2
S1130640E454F54C1082E0914AB9F0E0E454F54CDE
S11306501082E0914DB9F0E080910B38E454F54CF0
S11306608083E0914CB9F0E080910B38E454F54C70
S113067080832EC01092353810922F3881E08093F9
S11306800438E0914DB9F0E0E454F54C1082E09167
S11306904CB9F0E0E454F54C1082E0914BB9F0E031
S11306A080910B38E454F54C8083E0914AB9F0E032
S11306B080910B38E454F54C8083A4E5B9EBED91BB
S11306C0F0E0E454F54C108289EBAA35B807B9F789
S11306D0809109388093033880E00895CF93DF93A5
S11306E087EF6DD681113EC18DE769D681113AC17C
S11306F080913538823008F035C18091E53A909187
S1130700E63A892B41F48091AD3A9091AE3A8093C8
S1130710E53A9093E63A8091AD3A9091AE3A2091C1
S1130720E53A3091E63A821B930B309142383130EE
S113073089F018F03230C1F01FC0843D2EEF9207CB
S113074014F481E004C08D3291405CF082E0809327
S1130750413812C08D3221E09207C4F789389F4F87
S113076084F31092413808C0843D2EEF92074CF375
S113077088379105B4F3EACFC0913FB9EC2FF0E08C
S113078080914138882319F090910B3801C090E092
S1130790E454F54C9083882359F02091403821117A
S11307A03DC091E0813009F490E090933E3836C02A
S11307B0332309F4D7C010924238809140388231F3
S11307C009F0D0C0109235381092403881E08093FF
S11307D00C381082E0914DB9F0E0E454F54C1082ED
S11307E0E0914CB9F0E0E454F54C1082E0914BB93F
S11307F0F0E0E454F54C1082E0914AB9F0E0E4549E
S1130800F54C1082A4E5B9EBED91F0E0E454F54C1D
S1130810108229EBAA35B207B9F7A4C0381709F436
S1130820A1C08093423891E09093353890913E383E
S1130830992311F093E0892790E0E22FF0E0E65A43
S1130840F644408150E08417950791F480910C3868
S1130850817080930C38E0914BB9F0E0E454F54C8E
S11308601082E0914AB9F0E0E454F54C108202C0E1
S113087010920C382F5F2093403880913F388F5F5F
S1130880833018F480933F386DC010923F388091C4
S11308900C388130A9F5EBEA2E9FE12D1124E69561
S11308A0F0E0E25BF644E581F0E080910B38E4543B
S11308B0F54C8083223109F055C08DE776D5D0E020
S11308C0C454D54C1882E0914BB9F0E0E454F54C93
S11308D01082E0914AB9F0E0E454F54C1082E091C2
S11308E04DB9F0E080910B38E454F54C8083E091ED
S11308F04CB9F0E080910B38E454F54C808332C05D
S1130900109235381092403881E080930C38D0E052
S1130910C454D54C1882E0914DB9F0E0E454F54C40
S11309201082E0914CB9F0E0E454F54C1082E0916F
S11309304BB9F0E080910B38E454F54C8083E0919E
S11309404AB9F0E080910B38E454F54C8083A4E577
S1130950B9EBED91F0E0E454F54C108289EBAA3543
S1130960B807B9F780E0DF91CF910895CF93DF9373
S1130970F89488ED84BFC1E0C09361008AE4809359
S113098000048CE7809320049FE3909340048091BB
S11309905304806880935304809154048068809346
S11309A054048091550480688093550480913304E5
S11309B08068809333048091340480688093340485
S11309C080913504806880933504C0930102D2E09D
S11309D0D09305042BE531E02093080830930908EF
S11309E080EA8093050880EC8093060883E0809376
S11309F007081CBA1DBA1EBA1FBAC093030A88E0BE
S1130A008093000A9093020287E78093010AC093BF
S1130A100A0A8BE08093050A8091000A8160809322
S1130A20000A85E08093400A1092410A8FEF91E01A
S1130A3080934C0A90934D0A1092450AC093500A31
S1130A401092510A8BE893E080935C0A90935D0ABC
S1130A50C093550A21DC82E18093A00080E2809358
S1130A60A200C093A100D093000684E48093020600
S1130A708EE180930606C0930A0680910006816089
S1130A8080930006C093080610924006D093410656
S1130A9082E58093420684E080934506809346066F
S1130AA0C0934A0680914006816080934006C093BB
S1130AB0480680E48093A00680E88093A106809194
S1130AC0A00681608093A0068091410180FDFCCF47
S1130AD080E380934001109247018091410182FD9F
S1130AE0FCCF80E098E780934A0190934B0180917A
S1130AF048019091490160914A0170914B0182969D
S1130B000E943F1C8093E93A9093EA3A8091410114
S1130B1083FDFCCF8091E93A9091EA3A80934C01AD
S1130B2090934D0183E08093420181E080935201D0
S1130B3088E0809350018091410180FDFCCF809139
S1130B4040018160809340018091500181608093D5
S1130B5050011092673A87E69AE38093AB3A9093F8
S1130B60AC3A7894DF91CF9108951F920F920FB60B
S1130B700F9211248F939F93AF93BF93EF93FF939F
S1130B8087E08093460484E480932604ECB388E0F1
S1130B90E89FF0011124E454F54CA8E2BAE096E091
S1130BA081918D939A95E1F78BE08093050A8CB33C
S1130BB0833058F48CB391E001C0990F8A95EAF719
S1130BC099B98CB383958CBB0AC08CB3833021F460
S1130BD02A9A83958CBB03C02E9A88278CBB80915C
S1130BE0523A882329F08091523A81508093523AA4
S1130BF08FEF80930B0AFF91EF91BF91AF919F917B
S1130C008F910F900FBE0F901F9018951F920F9207
S1130C100FB60F9211248F939F93EF93FF93E0915C
S1130C20AB3AF091AC3A8081882391F08081809333
S1130C3002088091AB3A9091AC3A01968093AB3A1A
S1130C409093AC3A8091050880628093050805C0B2
S1130C5081E080930A381092450A81E08093460A25
S1130C60FF91EF919F918F910F900FBE0F901F9066
S1130C7018951F920F920FB60F9211242F933F9342
S1130C804F938F939F93EF93FF93E0910738F091E5
S1130C9008388081811108C0809105389091063808
S1130CA08093073890930838E0910738F09108381A
S1130CB080818823E1F020814091A83A30E02F57C9
S1130CC03109429FC001439F900D1124892F990F30
S1130CD0990B80589F4F8093A1068091073890917B
S1130CE008380196809307389093083806C080E846
S1130CF08093A10681E08093E43A81E08093560AD0
S1130D00FF91EF919F918F914F913F912F910F9070
S1130D100FBE0F901F9018951F920F920FB60F924F
S1130D2011248F93EF93FF9380913D38811144C038
S1130D30EDB3F0E080910008E959F54C8083EDB300
S1130D40F0E0E959F54C808180930208EDB3F0E0BE
S1130D50E959F54C80818A3039F0EDB3F0E0E95976
S1130D60F54C80818D3049F4EDB3F0E0E959F54C50
S1130D70108281E080933D381FC0EDB3F0E0E95963
S1130D80F54C8081883039F0EDB3F0E0E959F54C49
S1130D9080818F3759F48DB3882341F0EDB3F0E0AF
S1130DA0E959F54C10828DB3815005C08DB3803460
S1130DB018F48DB38F5F8DBB80E880930408FF9196
S1130DC0EF918F910F900FBE0F901F9018951F9267
S1130DD00F920FB60F9211248F93EF93FF931092FB
S1130DE04A0A10924B0A81E08093450AE5E0F8E054
S1130DF080818F7D8083FF91EF918F910F900FBE43
S1130E000F901F9018951F920F920FB60F921124F6
S1130E108F939F93EF93FF9380913038811119C082
S1130E208EB38F5F87708EBB809106068E3149F436
S1130E3080911006909111068093E73A9093E83AD6
S1130E400DC0EEB3F0E080911006EC54F54C8083B5
S1130E5005C08091303881508093303881E0809390
S1130E600B06FF91EF919F918F910F900FBE0F9002
S1130E701F9018951F920F920FB60F9211248F9303
S1130E809F938091460681110AC0809150069091EB
S1130E9051068093AF3A9093B03A81E010C08091AC
S1130EA04606813079F488E08093060480915006E8
S1130EB0909151068093AD3A9093AE3A84E080933A
S1130EC0460610C080915006909151068093A93A2D
S1130ED09093AA3A8FB38F3029F41092460688E093
S1130EE0809305048FB390E001968F7099278FBB90
S1130EF081E080934B069F918F910F900FBE0F90CE
S1130F001F9018951F920F920FB60F9211245F93A2
S1130F106F937F938F939F93AF93BF93809143017C
S1130F2081FF26C080913B388F3F29F080913B3868
S1130F308F5F80933B388091480190914901609183
S1130F404A0170914B0182960E943F1C8093E93ABA
S1130F509093EA3A8091410183FDFCCF8091E93A74
S1130F609091EA3A80934C0190934D0182E006C03F
S1130F7080913C388F5F80933C3881E080934301BB
S1130F80BF91AF919F918F917F916F915F910F90DE
S1130F900FBE0F901F9018951F920F920FB60F92CD
S1130FA011248F9381E080934806809353018F919D
S1130FB00F900FBE0F901F9018959091021091FD05
S1130FC0FCCFFB01480F841739F0A82FB0E0BC5EBA
S1130FD09C9191938F5FF7CF08959DE924E033E0CE
S1130FE0442309F15091021051FDFCCF94BF20938A
S1130FF00010E82F582F5F718F5F6F5F7F4FDB0109
S11310001197AC91F0E0FC5EA083415019F0E82FF9
S11310105F3181F794BF309300105091021052FF5A
S1131020DFCF81E0089580E0089520910A382223DB
S113103059F08093AB3A9093AC3A10920A3881E01D
S11310408093450A80E0089581E00895282F811156
S113105001C021E08FEF90E0821B9109982F88272F
S113106081509F4F80934C0A90934D0A089582E1DA
S11310708093A000E0E0F6E080818B7F80838EE1A6
S11310808093060683E080933038089582E280934B
S1131090A000E0E0F6E080818460808387E08093B4
S11310A0060683E08093303808952091A93A309160
S11310B0AA3A94E0369527959A95E1F733272C358B
S11310C03105D0F423353105A8F52233310550F428
S11310D02D32310558F5235231092530310580F57B
S11310E09CE02FC02733310518F12E5331092730E6
S11310F0310530F596E025C02A38310550F42937FA
S11311003105D0F4235631092B303105C8F493E06E
S113111018C0223A3105A0F02B3B310578F0205F4E
S113112031092031310560F490E00BC099E009C029
S113113098E007C094E005C092E003C091E001C0CC
S11311409FE0282F2F70921306C0982F907F903F16
S113115039F0805F0895992311F0892F08958FEF56
S1131160089580911E3890911F389C01322F2227B8
S11311703295330F307E822793279C01232F332708
S11311802695822793279C013695322F222737955F
S113119027958227932780931E3890931F380895AC
S11311A0DF92EF92FF920F931F93CF93DF937B0114
S11311B08A01C0915C0AD0915D0AE82FF0E0319772
S11311C0E770FF27E05EF74CD080CBDF8D21C80F9E
S11311D0D11DC7DF8D21C81BD1090C171D0708F4C9
S11311E0E801C701EC16FD0608F4CE0180935C0A01
S11311F090935D0ADF91CF911F910F91FF90EF9033
S1131200DF9008950F931F93CF93DF93C82FD42FAC
S1131210022FE62FF0E03197E770FF27E05EF74CEE
S113122010819FDF8123C80F9CDF8123C81B8C2F73
S1131230002341F09C2F0C1708F4902F8D2FD91701
S113124008F4892F41E050E08D1710F040E050E0A1
S11312502D2F30E024233523232B09F08D2FDF910C
S1131260CF911F910F910895CF92DF92FF920F9328
S11312701F93CF93DF93CDB7DEB76497CDBFDEBFA7
S113128044E1BE016F5F7F4F80E097DE83E5C82EA7
S11312908AE3D82E8E010F5F1F4FF12CF801819144
S11312A08F01F6019081981308C0F394FFEFCF1AD1
S11312B0DF0A80E1F812F2CF08C041E0B6018F2DB9
S11312C08CDE882391F391E036C020913738309139
S11312D038383093633A2093643A80913938909146
S11312E03A389093653A8093663A89899A8998271F
S11312F0892798272817390769F48B899C899827A7
S1131300892798272091393830913A382817390796
S113131049F410C042E063E67AE380E15EDE8823AC
S113132061F3D1CF42E065E67AE382E156DE91E0F3
S1131330811101C090E0892F6496CDBFDEBFDF919B
S1131340CF911F910F91FF90DF90CF900895E82FD8
S1131350EF77E695E695E695F0E0ED5AF54C2081B9
S113136030E08770A90102C0559547958A95E2F748
S1131370CA0181700895E82FEF77E695E695E69522
S1131380282F2770F0E0ED5AF54C81E090E001C081
S1131390880F2A95EAF7662319F09081892B03C0F8
S11313A080959081892380830895982F8F7731F0D9
S11313B097FF02C060E001C061E0DDCF0895CF93E4
S11313C0C82F8F77C4DF2C2F221F2227221F91E0E2
S11313D0811101C090E0822F8927CF910895E3E025
S11313E0F1E180E09191890FED3091E1F907D1F7B6
S11313F083708F5F809336380895E3E5FAE31192A2
S11314008AE3E736F807D9F7EADF811104C080914F
S1131410603A806405C0813031F48091603A80681C
S11314208093603A0DC0823021F48091613A8160EA
S113143005C0833029F48091613A82608093613AD7
S11314408091533A81608093533A0895CF93DF9308
S113145044E163E57AE380E0B0DDCEE6D0E08C2FB2
S113146076DFD80FCF5FC237D1F7D13011F0C5DFA7
S113147001C0B5DF8091633A9091643A9827892737
S1131480982780933738909338388091653A9091B3
S1131490663A9827892798278093393890933A3861
S11314A0DF91CF910895CF9386E789DFC82F8823F2
S11314B081F0E0913FB9F0E0E454F54C1082E09102
S11314C03EB9F0E080910B38E454F54C8083C1E0E0
S11314D04CC085E774DF882359F1E0913FB9F0E00F
S11314E080910B38E454F54C808380914D388823E7
S11314F079F08091B23A9091B33A2091E73A3091E1
S1131500E83A80962817390718F086E74EDF2DC091
S11315108091B23A9091B33A2091E73A3091E83A07
S113152008968217930708F181E080934D381DC017
S11315308091B23A9091B33A892B41F48091E73A81
S11315409091E83A8093B23A9093B33A8091B23A48
S11315509091B33A2091E73A3091E83A809628176F
S1131560390718F085E721DFC0E08C2FCF9108956B
S11315700F931F93CF93DF938091B83A893108F08A
S1131580CFC081E08093B13A809133389091343860
S11315908827892B09F0C6C080913338909134385C
S11315A0807E9927892B31F481E398E38093053871
S11315B0909306388091333890913438807E9927FF
S11315C0809709F059C040E052E260E070E281E0A7
S11315D0E7DD20E041E065E080E814DE80930F3829
S11315E080913B38882309F447C080914C3881119D
S11315F015C084E080934B388FEF80934A3880E0A5
S113160090E280935C0A90935D0A8DE098E3809366
S113161005389093063881E080934C3880914A389D
S1131620882369F08093A83A90914B38992321F04C
S1131630915090934B3803C0869580934A3880919B
S11316404A38811119C080913338909134388071AF
S11316509927809333389093343881E398E38093C7
S113166005389093063880930738909308388FEFA5
S11316708093A83A10924C38809133389091343842
S11316808091333890913438807E99278036910543
S1131690D1F51092493883E498E380930538909308
S11316A006388C01C1E0D3E08C2F6D2F0E94331CCF
S11316B0992339F020E041E065E080E8A3DDF801FA
S11316C08183CF5F0F5F1F4FC63071F780913B3826
S11316D08823C9F040E054E060E872E085E060DD12
S11316E08091A83A20EA40E162E08CDD8093A83A38
S11316F020E940E762E08091433884DD80934338F9
S11317008095809346388091333890913438809115
S1131710333890913438809133389091343802C002
S11317201092B13A80913B38DF91CF911F910F9184
S11317300895CF93DF93E0E4F9EBEF01A581B0E0E6
S1131740A454B54C1C923196A881B0E0A454B54C75
S11317501C9299EBE534F90781F7813099F4E09113
S113176045B9F0E080910B38E454F54C8083E09166
S113177046B9F0E080910B38E454F54C8083E09155
S113178047B92EC0823059F4E09148B9F0E0809115
S11317900B38E454F54C8083E09149B921C083307F
S11317A099F4E09140B9F0E080910B38E454F54CA1
S11317B08083E09141B9F0E080910B38E454F54C1A
S11317C08083E09142B90CC0843081F4E09143B944
S11317D0F0E080910B38E454F54C8083E09144B9F7
S11317E0F0E080910B38E454F54C8083DF91CF9185
S11317F00895CF93DF938AE7E2DD8111B8C0809129
S113180035388D7F09F0B3C080915038811122C0E2
S11318102091AF3A3091B03A8091E73A9091E83A0A
S1131820820F8F7380932838C0E080912838C817BE
S113183018F497DCCF5FF9CFC2E5D8E392DC83706C
S1131840899388E3C236D807C9F781E080932838A2
S11318508093503880915038813029F483E080930C
S1131860503810924F38809150388330D9F42091F9
S1131870283880914F3890E0322F36956FE070E031
S1131880631B71090E94531C261730F485E0809372
S1131890503880E04EDF6BC07727FB01EE5AF74CDF
S11318A0808147DF80915038853009F04EC0E09147
S11318B009388E2F807FC9F1EF3FB9F1EF70E15005
S11318C0E83098F5F0E0E459F644C081CC2369F19E
S11318D082E08093353880914E38811143C0109254
S11318E04F388C2F26DF40915138E42FF0E0EE5A28
S11318F0F74C208130E02F5F3F4F8C2F90E028176A
S1131900390721F44F5F4093513806C01092513883
S11319101092353880E00DDF809151388031A9F480
S11319208AE743DD1092353810C080915138909188
S11319302838891308C08F5F809328381092513853
S113194083E08093503810924E3880915038843020
S113195049F480914F38873028F080E0EADE85E052
S11319608093503880914F388F5F80934F3880E058
S1131970DF91CF9108951F93CF93DF93CDB7DEB757
S11319806297CDBFDEBF8A8B80E1E4E1F9EBDE0133
S1131990119601900D928A95E1F7FE01319690E03F
S11319A08FEF219131912617370709F4892F9F5F13
S11319B09830B9F7883010F080E012C018E1180FA1
S11319C041E0BE016F5E7F4F812FF7DA89898F3F37
S11319D099F741E0BE016E5E7F4F812FFEDA81E010
S11319E06296CDBFDEBFDF91CF911F910895F901BB
S11319F09C012E1B3F0B88E0489FA00111244A51F3
S1131A005644662369F0DF01A20FB31FA770BB27FA
S1131A10A40FB51F80819C91982791936150F1CFB9
S1131A200895262FFB0135E59E2F921B981728F465
S1131A309081929593279193F7CF0895AF92BF9297
S1131A40CF92DF92EF92FF920F931F93CF93DF9386
S1131A5000D0CDB7DEB7D62EC42E59017C01E89450
S1131A60F7F8F982EA82062F42E0BE016F5F7F4FEA
S1131A7080E50E944A02182F811105C095014C2D62
S1131A806D2DC701B4DF812F0F900F90DF91CF919F
S1131A901F910F91FF90EF90DF90CF90BF90AF9088
S1131AA008958F5F883030F4E82FF0E0E65CF54C61
S1131AB01082F7CF0895AC0190E0E92FF0E0DA014D
S1131AC0AE0FBF1F3C91E60FF71F311105C081E037
S1131AD09081992349F007C020812223C1F3321356
S1131AE002C09F5FEACF80E008956115710551F14E
S1131AF0E2E4FAE3AAE3BAE320E03FEF6F3F7105C3
S1131B0069F060F0819391933D9381509F4F6F5F93
S1131B1071092F5F273091F781E00895E22FF0E0FB
S1131B20DF01AA0FBB1FAE5BB54C8D939C93E65CA3
S1131B30F54CCB016FEF70E00E943F1C8083409313
S1131B40383A05C01092423A1092433A20E0822F6C
S1131B50A8DF1092393A80E00895CF93DF93282FBD
S1131B6030E0F901EE0FFF1FE35FF64CABE5BAE797
S1131B70A083B183F901EE0FFF1FE35BF64C62E033
S1131B8070E060837183220F331FF901E357F64C31
S1131B9041E050E04083518321E0280F30E0F90117
S1131BA0EE0FFF1FE35FF64CC4E6DAE7C083D18390
S1131BB0F901EE0FFF1FE35BF64CCAE0D0E0C083EF
S1131BC0D183220F331FF901E357F64C408351832D
S1131BD0E2E0E80FF0E0EE0FFF1FE35FF64C20EFCA
S1131BE03FEF2083318323E0280F30E0F901EE0F2B
S1131BF0FF1FE35FF64CA083B183F901EE0FFF1FD3
S1131C00E35BF64C60837183220F331FF901E357C2
S1131C10F64C4083518324E0280F30E0F901EE0FA5
S1131C20FF1FE35FF64CA7E5BAE7A083B183F90190
S1131C30EE0FFF1FE35BF64C60837183220F331FAB
S1131C40F901E357F64C408351838B5FDF91CF91C9
S1131C500895AF92BF92DF92EF92FF920F931F937A
S1131C60CF93DF93CDB7DEB72C97CDBFDEBF7C011A
S1131C708B019E012F5F3F4F40E06CE08096DEDEDB
S1131C8089819A819827892798278096F8018083EB
S1131C9091838B819C8198278927982780968283BA
S1131CA09383DE0115963496C8010C962D912193E9
S1131CB0E817F907D9F7FCE2EF0EF11C5801D12C13
S1131CC09E012F5F3F4F40E063E0C701B7DE89818B
S1131CD09A8198278927982797012E5F3F4F43E0E1
S1131CE04D1580F4AC0141505109F801428F538FD6
S1131CF0F3E0EF0EF11CF801E486F5864B81F50163
S1131D0044A305C0F801828F938F248735877C0113
S1131D10E20EF31ED3940E5F1F4FFFEFAF1ABF0AFC
S1131D2047E0D412CDCF2C96CDBFDEBFDF91CF914B
S1131D301F910F91FF90EF90DF90BF90AF900895A7
S1131D40CF92DF92EF92FF920F931F93CF93DF9383
S1131D50CDB7DEB7A097CDBFDEBFC62E7C0120E293
S1131D60E20EF11C9E012F5F3F4F40E062E08C9633
S1131D7065DE1A81D12C112351F1012F113208F0A3
S1131D8000E29E012F5F3F4F40E0602FC7010E9697
S1131D9055DEFE01319680E0DD2061F0E1E0F0E007
S1131DA0EC0FFD1FE80FF11D9081906281E09C1102
S1131DB00EC00EC09191DD24D3949B3509F0D12C33
S1131DC08F5F801748F3E00EF11C101BD4CF80E026
S1131DD0A096CDBFDEBFDF91CF911F910F91FF90F1
S1131DE0EF90DF90CF900895AF92BF92DF92EF9281
S1131DF0FF920F931F93CF93DF9300D000D0CDB702
S1131E00DEB7D62E5A019E012F5F3F4F40E064E0BB
S1131E10809614DEE980FA80FE24EF24FE240B81F0
S1131E201C811027012710270E151F0530F5A01659
S1131E30B10658F09E012F5F3F4F40E062E0C801B9
S1131E408096FCDD09811A81ECCF9E012F5F3F4F04
S1131E5040E061E0C8018596F1DD8981811103C00C
S1131E60D11005C00DC0ABDA8111FACFE3CF6D2DCF
S1131E70C80166DF8823F1F203C080E090E001C06E
S1131E80C8012496CDBFDEBFDF91CF911F910F9182
S1131E90FF90EF90DF90BF90AF90089580629FE92C
S1131EA0980F9A3138F090ED980F81E09A3018F03D
S1131EB080E0089581E008950F931F93CF93DF93FB
S1131EC08C01D0E0C0E0F801ED0FF11D20818C2FD2
S1131ED090E0222351F0D801A80FB91F2C938081E0
S1131EE0DDDF8111CF5FDF5FEECFF801E80FF91F6F
S1131EF010828C2FDF91CF911F910F910895CF9372
S1131F008091333890913438892B99F48091113A27
S1131F1090E08093333890933438809133389091A3
S1131F203438807E992721E0892B09F420E020931E
S1131F3032382091393A283008F047C080910A3865
S1131F40882309F442C0822F90E0FC01E65CF54C42
S1131F50E081E11106C01092FA3888E08093393AA2
S1131F602CC05091FA385E1750F5CE2FC51BC132E4
S1131F7008F0C0E2880F991FFC01EE5BF54C8081EC
S1131F8091812BEE3AE34091383A6C2F850F911DE5
S1131F9055DD8091FA388C0F8093FA38EC2FF0E0FD
S1131FA0E551F54C10828091EB3A811103C08BED21
S1131FB08093EB3A8BEE9AE338D881E00BC0109211
S1131FC0FA382F5F2093393AF8CF90910A3881E09C
S1131FD0911180E0CF910895CF93DF93C0910C3994
S1131FE0CC23E9F1C150C0930C39D091F9382D2F8D
S1131FF030E0F901EE0FFF1FE35FF64C8081918121
S1132000803F4FEF940751F46091273A7091283A3A
S113201040E08091193A90911A3A0DC0D901AA0F63
S1132020BB1FA357B64C220F331FF901E35BF64CD9
S1132030608171814C9159DDDF5FD093F938C11112
S11320400DC08091113A90E08093333890933438E6
S11320501DBA10923D381092F93801C0C1E08C2F9E
S1132060DF91CF9108954F925F926F927F928F92FA
S11320709F92AF92BF92CF92DF92EF92FF920F9313
S11320801F93CF93DF93CDB7DEB7A197CDBFDEBF4C
S11320908C01809129388F3F49F46DE07AE3809177
S11320A0CD399091CE39D5DD1092293880913D38C3
S11320B0882309F463C28091FC38882309F457C04B
S11320C01092FB3881E6F80180836CEF78E387E6B1
S11320D09AE3F1DCF82E882321F081E08093FB3829
S11320E004C08091FC38813311F0F12C49C28091F5
S11320F0FE388111FACF87E69AE3DEDE92E0909310
S1132100FB38F8011182823080F38091673A813381
S113211061F08091673A823341F08091673A83336A
S113212021F08091673A843301F78091683A8062A4
S11321308093683A8091683A813661F08091683A78
S1132140853641F08091683A863621F08091683A6C
S1132150873759F68091FD388F5EF801818380912D
S1132160673A82838091683A8383148209C280919A
S1132170673A833281F58DB3863069F581E090E06A
S113218010E0FC01E959F54C208120532083110F04
S1132190212F220F220F120F2091683A233048F486
S11321A020812A30B0F42081120F019684309105E9
S11321B041F7812F8F7769F080916B3A60916C3A87
S11321C070E0782B812F8095D6DB882311F0812F46
S11321D0ECD880E050C0D80180E090E0FC01E959DF
S11321E0F54C2081213418F020812B3510F020810A
S11321F002C0208120622C932081211105C0F801A6
S1132200E80FF11D108205C00196119681349105E5
S113221029F78091673AF801811105C010821DBA2F
S113222010923D38ABC180818F3311F0883639F577
S11322308BE59AE780930D3990930E3984E090E012
S113224080934D3990934E3981E090E080938D399D
S113225090938E3923E93BE720930F39309310395B
S11322602DE634E020934F393093503980938F39E1
S11322709093903982E071DC80930C397FC1813670
S1132280D9F48BE59AE780930D3990930E3984E065
S113229090E080934D3990934E3981E090E08093A3
S11322A08D3990938E392EE63AE720930F39309387
S11322B0103925E231E0D6CF873709F06EC08BE5BF
S11322C09AE780930D3990930E3984E090E08093DF
S11322D04D3990934E3921E030E020938D3930937D
S11322E08E398BEC96E780930F399093103982E105
S11322F090E080934F399093503920938F393093E5
S1132300903980913638813019F485EC96E70FC006
S1132310823049F482EC96E7809311399093123914
S113232083E090E01EC0833049F48CEB96E7809301
S113233011399093123986E090E013C0843049F447
S113234087EB96E7809311399093123985E090E0FA
S113235008C080E496E7809311399093123982E49F
S113236090E080935139909352392093913930936E
S113237092398DE996E780931339909314398AE161
S113238090E0809353399093543981E090E08093A6
S113239093399093943984E06ECF8137D9F48BE5E7
S11323A09AE780930D3990930E3984E090E08093FE
S11323B04D3990934E3981E090E080938D3990931C
S11323C08E3923E03AE720930F393093103924E50E
S11323D030E048CF64E779EBC8016DDB8823F9F07E
S11323E01EE660E0812F0E94BB091F5F1237C9F708
S11323F00E94340980E2E7EBF9EBDE0111960190CB
S11324000D928A95E1F78CE30E94260880910A38A0
S11324108823E1F3CE0101960E941508F7CF6AE7FD
S113242079EBC80148DB682E882361F18FEF89A31B
S113243018E141E0BE016F5D7F4F812F0E94ED07DF
S11324401F5F1032B1F71EE660E0812F0E94BB09C6
S11324501F5F1237C9F70E9434098FE0E7EDF9EBEB
S1132460DE01119601900D928A95E1F78CE30E94AA
S1132470260880910A388823E1F3CE0101960E9450
S11324801508F7CF61EB79EBC80115DB882309F454
S11324902CCE0DE019E378E1772EEAE05E2EF4E627
S11324A04F2EEE24E394F12CCC24C394D12C89E553
S11324B0882E8AE7982E92E0A92EB12C41E0BE0125
S11324C06F5D7F4F872D0E94DD0729A12095822F04
S11324D0652D0E94331C9B830E94331C9A83822F98
S11324E0642D0E94331C898319A2DE01119640E0F9
S11324F02D91862D840F90E0FC01EE0FFF1FE35F0A
S1132500F64C30E02D523B4820833183FC01EE0F22
S1132510FF1FE35BF64CE082F182880F991FFC01F8
S1132520E357F64CE082F1824F5F433009F7F8013C
S113253086829782EA5BFF4FA082B182E05CFF4F04
S1132540C082D1827394085F1F4FF4E06F0E80E263
S11325507812B4CF8BE59AE780934B3990934C393A
S113256084E090E080938B3990938C3981E090E003
S11325708093CB399093CC3970920C39FF24F39427
S11325808F2DA196CDBFDEBFDF91CF911F910F910B
S1132590FF90EF90DF90CF90BF90AF909F908F907F
S11325A07F906F905F904F9008954F925F926F92DB
S11325B07F928F929F92AF92BF92CF92DF92EF92CF
S11325C0FF920F931F93CF93DF93CDB7DEB72A9774
S11325D0CDBFDEBF8C0170DCC8016EDCF82E882311
S11325E009F4DEC7D8018C91883709F045C0809181
S11325F02938E82FF0E0EE0FFF1FE353F64C20815B
S11326003181232B11F0811103C082E896E7A1C523
S11326108091133A0E94DF098823B9F0E0912938A8
S1132620E150E0932938F0E0EE0FFF1FE353F64C3E
S11326306DE07AE3808191810CDB8091113A90E026
S1132640809333389093343831C280912F3A9091EB
S1132650303A2091213A3091223A20930F39309325
S1132660103980934F399093503910928F391092CA
S113267090398091353A3AC6853619F08F3609F08B
S1132680DFC0B2E0FB12C1CFE0902938F12CF70192
S1132690EE0FFF1FE353F64C40E050E0D8011196D3
S11326A06C9180819181A0DBF701EE0FFF1FE15354
S11326B0F64C8083918390912938292F30E0F901D9
S11326C0EE0FFF1FE153F64C408151814115510536
S11326D021F06EEC78E3CA011CC0992309F477C792
S11326E0220F331FF901E553F64CD80111966C9172
S11326F08081918125DB882309F469C7E091293819
S1132700F0E0EE0FFF1FE553F64C6EEC78E38081AA
S113271091819FDAF80180818536C9F48091D63899
S113272080FD1EC080EA99E780930F399093103999
S11327308EE190E080934F399093503981E090E09E
S113274080938F399093903972E0772E0EC78F362D
S113275039F48091D63881FD03C085E899E7F9C43E
S11327608091D4380E94DF09E0912938882309F444
S113277049C0AE2FB0E0AA0FBB1FA153B64C8D9138
S11327809C91892B11F0EF5F01C0E150E09329384F
S1132790E0912938F0E0EE0FFF1FE353F64C6DE0B3
S11327A07AE38081918155DA8091293A90912A3A8D
S11327B020911B3A30911C3A20930F3930931039F1
S11327C080934F399093503910928F3910929039E9
S11327D08BE59AE7809311399093123982E090E067
S11327E0809351399093523981E090E080939139EC
S11327F0909392398091113A90E08093333890937A
S113280034388DC4F0E0EE0FFF1FE153F64C108214
S113281011828091F0389091F1382091E238309112
S1132820E33820930F393093103980934F399093C4
S1132830503910928F39109290398091F63856C5DC
S11328408C3609F057C1E0912938B1E0FB12F6C08B
S11328508091293A90912A3A20911B3A30911C3A5E
S113286020930F393093103980934F399093503916
S113287010928F39109290398BE59AE78093113931
S11328809093123982E090E08093513990935239B9
S113289081E090E080939139909392392EEE39E75C
S11328A0209313393093143925E130E020935339C0
S11328B0309354398093933990939439F0E0EE0F28
S11328C0FF1FE153F64C1082118284E0682E99E5D3
S11328D0C92E9AE7D92E22E0A22EB12C8824839403
S11328E0912C8091293890E09C01220F331FF9012B
S11328F0E153F64C7F0140815181F901E353F64CD9
S113290060E08081918170DAD7018D939C93E0918E
S11329102938F0E0EE0FFF1FE153F64C80819181DE
S1132920009709F44AC0209137383091383882171B
S1132930930709F442C02091393830913A3882170C
S11329409307D9F16EEC78E384D98091E8389091BB
S1132950E938E62DF0E0DF01AA0FBB1FA35FB64CF8
S11329602091DA383091DB382D933C93DF01AA0FA4
S1132970BB1FA35BB64C8D939C93EE0FFF1FE357D5
S1132980F64C1082118281E0860D90E0639463948A
S1132990FC01EE0FFF1FE35FF64CC082D182FC0105
S11329A0EE0FFF1FE35BF64CA082B182880F991FE4
S11329B0FC01E357F64C8082918220912938822FC2
S11329C090E0FC01EE0FFF1FE153F64C4081518172
S11329D0452B09F086CF222369F1880F991FFC014A
S11329E0E553F64C6EEC78E38081918132D92091E5
S11329F0E8383091E93877247394760C862D90E08A
S1132A00FC01EE0FFF1FE35FF64C4091DA38509162
S1132A10DB3840835183FC01EE0FFF1FE35BF64C70
S1132A2020833183880F991FFC01E357F64C1082F1
S1132A3011829BC577247A94760C97C5EE2EF12CDF
S1132A40F701EE0FFF1FE353F64C40E050E0D801CE
S1132A5011966C9180819181C7D9F701EE0FFF1F08
S1132A60E153F64C8083918390912938292F30E0EB
S1132A70F901EE0FFF1FE153F64C408151814115DE
S1132A80510521F06EEC78E3CA011EC0992309F4C4
S1132A909EC5220F331FF901E553F64CD801119658
S1132AA06C91808191814CD9811103C077247394F6
S1132AB05CC5E0912938F0E0EE0FFF1FE553F64CBA
S1132AC06EEC78E380819181C4D88091EA3890914A
S1132AD0EB382091DC383091DD3820930F39309376
S1132AE0103980934F399093503910928F39109246
S1132AF090392ACE803709F096C08091373890916A
S1132B003838892B79F08091393890913A38892B6B
S1132B1049F085E498E780930F399093103989E55B
S1132B2090E008CEB2E0FB1270CDE0902938F12C91
S1132B30F701EE0FFF1FE353F64C40E050E0D801DD
S1132B4011966C91808191814FD9F701EE0FFF1F8F
S1132B50E153F64C808391832091293830E02F5F34
S1132B603F4F220F331FF901E353F64C80819181CB
S1132B70009709F4CAC34091373850913838841704
S1132B80950739F04091393850913A3884179507B0
S1132B90C1F480E298E780930F399093103985E26D
S1132BA090E080934F399093503981E090E0809386
S1132BB08F3990939039F901E353F64C10821182C6
S1132BC0C3CD6EEC78E345D88091D5380E94DF09F7
S1132BD0882309F475C38091D938882309F415CD65
S1132BE08091373890913838E0912938F0E0EE0F31
S1132BF0FF1FE153F64C892B39F08081918180933A
S1132C00393890933A3806C080819181809337385F
S1132C10909338388AE098E780930F39909310396D
S1132C2086E190E05EC28436D9F480913738909181
S1132C303838009709F0CEC48091393890913A38E9
S1132C40892B49F484EE97E780930F3990931039D8
S1132C5086E290E06FCDB2E0FB1609F421C5D5CC35
S1132C60893609F07BC08091373890913838892BA8
S1132C7031F48091393890913A38892B19F38AE0EC
S1132C8098E780930F399093103986E190E0809310
S1132C904F399093503981E090E080938F3990932D
S1132CA0903927E3E22E28E3F22E3BE3632E38E348
S1132CB0732E42E0542E59E5C52E5AE7D52E62E014
S1132CC0A62EB12C88248394912CD7018D919D91AB
S1132CD07D010097D9F16EEC78E30E94290E809172
S1132CE0E8389091E938E52DF0E0DF01AA0FBB1F29
S1132CF0A35FB64C2091DA383091DB382D933C93A6
S1132D00DF01AA0FBB1FA35BB64C8D939C93EE0F00
S1132D10FF1FE357F64C10821182E1E0E50DF0E06D
S1132D2053945394DF01AA0FBB1FA35FB64CCD92FB
S1132D30DC92DF01AA0FBB1FA35BB64CAD92BC9221
S1132D40EE0FFF1FE357F64C808291826E147F04CE
S1132D5009F0BBCF77247A94750C07C49CE8980FCC
S1132D60923028F0873619F0823709F0D7C28EEFF7
S1132D708F0D823008F049CCE0912938CE2ED12C29
S1132D80D801AF0DB11D1197F601EE0FFF1FE353EC
S1132D90F64C40E050E06C918081918125D8F60199
S1132DA0EE0FFF1FE153F64C80839183E0912938A5
S1132DB0F0E0EE0FFF1FE153F64C80819181009704
S1132DC009F49AC2B3E0FB1278C1F80120812537D7
S1132DD019F0273609F071C1612C7724739454E6F5
S1132DE0C52E59E7D52E61E2A62EB12C88248394F2
S1132DF0912CE62CF12CC701880F991F9C01295CAA
S1132E00374C7901D9018D919C91009781F0F8019B
S1132E1061810E94A00E882351F063EA78E3D70110
S1132E208D919C910E94290E32E0632E1EC0B1E068
S1132E306B121AC0E72DF0E0DF01AA0FBB1FA35FDE
S1132E40B64CCD92DC92DF01AA0FBB1FA35BB64C3C
S1132E50AD92BC92EE0FFF1FE357F64C8082918235
S1132E60F8011082739401C0612C6394F1E06F1631
S1132E7009F4BFCFD8018C91882309F476C3E0917B
S1132E802938F0E0EE0FFF1FE153F64C6EEC78E3C7
S1132E90808191810E94290EE090EC38F090ED3809
S1132EA0B1E0EB16F10409F09AC098012E5F3F4F90
S1132EB040E061E08091DE389091DF380E941E0D81
S1132EC0F801428121E0270D872D90E0413309F07C
S1132ED06BC03091AE3851EE530FFC01EE0FFF1F63
S1132EE0E35FF64C543060F044E059E7408351838B
S1132EF0FC01EE0FFF1FE35BF64C4AE150E064C0B7
S1132F006EE875E760837183FC01EE0FFF1FE35BDE
S1132F10F64C62EB70E060837183880F991FFC01AB
S1132F20E357F64CE082F182822F90E0FC01EE0F31
S1132F30FF1FE35FF64C6BE57AE760837183FC0166
S1132F40EE0FFF1FE35BF64C62E070E06083718379
S1132F50880F991FFC01E357F64CE082F18282E06E
S1132F60870D90E0F3E07F0EFC01EE0FFF1FE35F9F
S1132F70F64C60EB78E760837183FC01EE0FFF1F72
S1132F80E35BF64C62E170E060837183880F991F04
S1132F90FC01E357F64CE082F1824093FC38309315
S1132FA0FD381092FE38E1C2FC01EE0FFF1FE35F13
S1132FB0F64C40E456E740835183FC01EE0FFF1FBB
S1132FC0E35BF64C42E450E040835183880F991F41
S1132FD0FC01E357F64CE082F182722EC6C2909156
S1132FE0D7388091AE3898132FC02091F43830919F
S1132FF0F538FF24F394F70C872D90E0FC01EE0FD5
S1133000FF1FE35FF64C4091E6385091E738408368
S11330105183FC01EE0FFF1FE35BF64C20833183E9
S1133020880F991FFC01E357F64C1082118280919E
S1133030F83890E080933338909334388091D838BE
S11330400E94D5097F2C91C2D8018C91853799F4BF
S1133050872D90E0FC01EE0FFF1FE35FF64C24E0A8
S113306039E720833183FC01EE0FFF1FE35BF64C4D
S11330702AE130E015C0873609F077C2872D90E049
S1133080FC01EE0FFF1FE35FF64C2DED36E72083C6
S11330903183FC01EE0FFF1FE35BF64C28E230E0C6
S11330A020833183880F991FFC01E357F64C81E09C
S11330B090E080839183739458C26EEC78E30E940D
S11330C0290EF8018081843769F58091D63883FD13
S11330D04AC08EE199E780930F39909310398EE1BD
S11330E090E080934F399093503981E090E0809341
S11330F08F39909390398091E8389091E9382091F4
S1133100DA383091DB3820931139309312398093B7
S11331105139909352391092913910929239A3E017
S11331207A2E23C2853769F48091D63884FD1BC07A
S113313084E099E780930F39909310398AE190E005
S1133140F9CA823769F48091D63885FD0CC089EEBE
S113315098E780930F39909310398BE190E0EACA95
S1133160873609F452CAE090EC38F090ED38F1E07B
S1133170EF16F10411F598012E5F3F4F40E061E036
S11331808091DE389091DF380E941E0DD80112968E
S11331908C91813309F08ACC83E695E780930F39CB
S11331A0909310398BE290E080934F39909350398B
S11331B0E0928F39F0929039C7CAE114F10409F40E
S11331C059C08091DE389091DF3880930F39909305
S11331D01039E0924F39F092503910928F39109291
S11331E090398BE59AE7809311399093123982E0F4
S11331F090E0809351399093523981E090E080932C
S113320091399093923920EB38E720931339309316
S1133210143922E130E020935339309354398093A8
S11332209339909394398091EE389091EF38409788
S113323030F08FE090E08093EE389093EF382CEFED
S113324038E340E06091EE388091E0389091E138C5
S11332500E941E0D6CEF78E38091EE380E94110DF0
S1133260E091EE38F091EF38E450F74C1082F4E03E
S11332707F2E7BC18091D5380E94DF09882301F11C
S11332808091F4389091F5382091E6383091E73800
S113329020930F393093103980934F3990935039DC
S11332A010928F39109290398091F83890E0809381
S11332B03338909334388091D8380E94D50944CA61
S11332C08091F2389091F3382091E4383091E538C8
S11332D020930F393093103980934F39909350399C
S11332E010928F39109290398091F73890E0809342
S11332F033389093343828CAF8018081843711F028
S1133300873619F48CE399E702C080E599E7809346
S11333100F399093103984E190E00CCA813609F09A
S1133320C5CB8091FB38823008F4B3C0D801119624
S11333302C91222309F4A4C0FE0131967F018AE076
S1133340DF011D928A95E9F72153F8012183328127
S1133350315332838381813611F481E008C085368C
S113336011F4138208C0863621F483E0F8018383C4
S113337002C082E0838321FD04C080E090E0DC0190
S113338004C080E090E0A0E1B0E020FF03C09F5FB4
S1133390AF4FBF4FF801238121FD119620FF03C0D9
S11333A04096A11DB11D31FF03C0905FAF4FBF4FC9
S11333B030FF03C00196A11DB11D4091363824E0B1
S11333C030E0241B3109BC01CD0104C0660F771F16
S11333D0881F991F2A95D2F726E035E720930F39E5
S11333E03093103920E230E020934F393093503934
S11333F021E030E020938F393093903959E0B52E95
S1133400EAE04E2E512C612C712C6701CB0CD11C9F
S1133410A30192015BD2D6016C93B901CA01611573
S113342071058105910551F42DE0C22E29E3D22EB8
S113343032E0732E88248394912C02C0BA94E5CF91
S1133440F2E0CF0ED11C29E02B1508F48CC0739444
S1133450F701EB0DF11D808190E08D529B48F60140
S113346082839383EE5BFF4F80829182E05CFF4F07
S1133470808291828091D8380E94D509B394E0CF9C
S113348086E295E780930F39909310398DE390E0AD
S11334905EC0E0912938F0E0EE0FFF1FE153F64CD7
S11334A06EEC78E3813009F046C0808191810E94FE
S11334B0290E8091D5380E94DF09882301F180917B
S11334C0F4389091F5382091E6383091E73820931C
S11334D00F393093103980934F39909350391092AB
S11334E08F39109290398091F83890E08093333876
S11334F0909334388091D8380E94D50932C0809195
S1133500F2389091F3382091E4383091E5382093E3
S11335100F393093103980934F399093503910926A
S11335208F39109290398091F73890E08093333836
S11335309093343816C0808191810E94290E8EE9BF
S113354098E780930F399093103982E190E080934B
S11335504F399093503981E090E080938F39909364
S1133560903982E0782E1092FC388BE59AE78093AC
S11335700D3990930E3982E090E080934D39909309
S11335804E3981E090E080938D3990938E3980910B
S1133590FC38882319F070920C399AC0872D12C018
S11335A08BE59AE780930D3990930E3982E090E091
S11335B080934D3990934E3981E090E080938D391A
S11335C090938E390E94AD0D80930C3981C084EDA7
S11335D099E7B0CDB2E0FB1218C8D80111966C91EE
S11335E00E94A00E882309F45BC080E090E0880F5D
S11335F0991F9C01295C374C79016EEC78E3D90161
S11336008D919C910E94290E84ED97E780930F3948
S11336109093103980E190E080934F399093503922
S113362081E090E080938F39909390392091E8382D
S11336303091E9384091DA385091DB3840931139B0
S11336405093123920935139309352391092913951
S1133650109292392BE53AE72093133930931439B9
S113366022E030E0209353393093543980939339D6
S11336709093943927E937E7209315393093163915
S11336802DE330E0209355393093563980939539A2
S113369090939639F70110821182F5E07F2E65CF61
S11336A08091393890913A38009749F0F801618156
S11336B00E94A00E882319F081E090E098CF84E660
S11336C099E780930F399093103981E290E032C8E2
S11336D0D8011C9210923D381DBA80E02A96CDBFC5
S11336E0DEBFDF91CF911F910F91FF90EF90DF909C
S11336F0CF90BF90AF909F908F907F906F905F908E
S11337004F900895CF930E947F0F882311F0C1E05A
S113371011C00E94EC0F8111FACF82E698E30E9457
S11337203310C82F811105C082E698E30E94D51298
S113373001C0C2E08C2FCF9108950E94B6048FEF90
S11337400E942608AEE4B9EB81E0ED91F0E0E45488
S1133750F54C80831596EC911597F0E0E454F54C04
S1133760808329EBA435B20781F7E0E4F9EB91E01B
S1133770EF01A581B0E0A454B54C81E09C9331964F
S1133780A881B0E0A454B54C9C9329EBE534F2072E
S113379079F7E0914CB9F0E0E454F54C8083E09182
S11337A04DB9F0E0E454F54C8083E0914AB9F0E07F
S11337B0E454F54C8083E0914BB9F0E0E454F54CCB
S11337C08083E0913EB9F0E0E454F54C8083E091CD
S11337D03FB9F0E0E454F54C8083E0913DB9F0E06A
S11337E0E454F54C8083E0913CB9F0E0E454F54CAA
S11337F080830E94260A0E94B80A8823E1F38091FC
S113380009380E9455088093093810923B388091FA
S1133810A000823119F40E94460802C00E943708B1
S113382071DF0E946E030E948F020E94F90B0E94B6
S11338307C000E9434098091AF3A9091B03A0A9783
S113384020F461E084E70E94BB098091AF3A909133
S1133850B03A8536910520F060E084E70E94BB0908
S11338600E94530AC8CF991B79E004C0991F961788
S113387008F0961B881F7A95C9F780950895AA1BAE
S1133880BB1B51E107C0AA1FBB1FA617B70710F047
S1133890A61BB70B881F991F5A95A9F78095909579
S11338A0BC01CD01089597FB072E16F4009406D0B1
S11338B077FD08D0E4DF07FC05D03EF490958195B0
S11338C09F4F0895709561957F4F0895A1E21A2E38
S11338D0AA1BBB1BFD010DC0AA1FBB1FEE1FFF1FB0
S11338E0A217B307E407F50720F0A21BB30BE40B00
S11338F0F50B661F771F881F991F1A9469F7609547
S11339007095809590959B01AC01BD01CF01089500
S1073910F894FFCF55
S11339142D7D39575C79514234617D593B655B4453
S1133924010000020102000101030003010301007C
S113393401020101010301000D0B0C0A020105003F
S11339440304242221230820092514121113101519
S11339541C1A191B181D01010201020201020201B1
S11339640202020202010102020400030000000137
S11339746964647164007468652074726F75626C40
S1133984652077697468207265616C206C6966656A
S11339942069732C2074686572652773206E6F2008
S11339A4726573657420627574746F6E0063686500
S11339B4617400436865617465722120436F6E7499
S11339C4616374206261646765207465616D2E2E81
S11339D42E2000526573657420706C6561736521D3
S11339E4200074BFFA541C96B2261EEBD68BC0C2B8
S10539F40A6162
S11339F6FF00FFFF0131383138FF01FF0101FF806D
S1133A0680C0FF40FFC0804001C00140800001D457
S10D3A160103070F1F3F7FFF01FFAC
S9030000FC
