:100000003DC0000058C0000056C0000054C00000B1
:1000100052C0000050C000005BC40000AEC400002D
:10002000AFC2000048C0000046C0000044C000004D
:1000300042C00000F9C200002AC300003CC000001A
:100040003AC0000038C0000036C0000034C00000D4
:10005000C1C3000030C00000EBC300002CC0000092
:100060002AC0000028C0000026C0000063C30000B2
:1000700095C3000020C000001EC0000011241FBE58
:10008000CFEFCDBFDFE3DEBF18E3A0E0B8E3ECE5E0
:10009000FAE102C005900D92A039B107D9F72AE321
:1000A000A0E9B8E301C01D92A238B207E1F70E94AF
:1000B000880C0C940A0DA4CF81E080932204E6E220
:1000C000F4E0808310923004A1E2B4E092E09C93CB
:1000D000908310923104E0E1F8E09DE2968398E08D
:1000E000948383838C938581816085838581846CEF
:1000F00085830895E0E1F8E0848188608483138239
:1001000082E08093220489E0A1E2B4E091E0E2E29F
:10011000F4E09C9320E12A95F1F700C0908320E160
:100120002A95F1F700C08150A1F7E0E1F8E028E05E
:10013000248381E08383A1E2B4E092E09C939581E3
:10014000916095839581946C9583248383838C93AC
:100150008581816085838581846C85830895282FBE
:10016000E0E1F8E09581906C95839581892F84700A
:1001700092FD03C020931708089584E008958CE051
:100180008093B939E0E1F8E004C08091B93988235F
:10019000B9F0858188231CF0858186FFF6CFE0E1E8
:1001A000F8E08581806C8583858182FD0BC080911C
:1001B000150883FD09C08091150882958170089506
:1001C0008FEF089584E0089582E00895DC019CE0BB
:1001D0009093B93990911508892F8370823039F046
:1001E00088E008959091B939911103C02AC0E0E1E7
:1001F000F8E095819923B4F7E0E1F8E09581906CFF
:100200009583958192FD1FC09091150893FD1EC0A6
:1002100090911508892F807194FD17C0611109C054
:1002200094819B7F948390859C9394819260948326
:100230000895E0E1F8E094819460948390859C9324
:1002400008958FEF089584E0089581E00895FC01FA
:100250009CE09093B9399091150893709230B1F465
:10026000808180931808E0E1F8E004C08091B939FA
:10027000882371F0858186FFF9CF8091150882FD72
:1002800009C08091150882958170089588E00895CD
:100290008FEF089584E00895E0E1F8E084818360C1
:1002A00084830895CF92DF92EF92FF920F931F9372
:1002B000CF93DF93EB01C42E7901182F110F812FFB
:1002C0004EDF81113CC05BDF813019F4E5DF81E056
:1002D00038C0811134C0CC2079F0CA94D12C8FEF72
:1002E000C81AD80ACC0EDD1ECE01B1DF811127C09D
:1002F0002196CC16DD06C1F7013408F000E41F5F3B
:1003000010931708023090F00250C02FD0E02196D1
:10031000CE0DDF1D60E0C70159DF811110C08FEFE6
:10032000E81AF80AEC16FD06A9F701C0E70161E03A
:10033000CE014CDF811103C0AFDF80E002C0DADE06
:100340008FEFDF91CF911F910F91FF90EF90DF9092
:10035000CF900895CF93DF93F89488ED84BFC1E0E8
:10036000C09361008AE4809300048CE780932004AA
:100370009FE390934004E0E5F4E08081806880830F
:10038000E1E5F4E0808180688083E2E5F4E080814B
:1003900080688083E3E5F4E0808180688083E4E521
:1003A000F4E0808180688083E5E5F4E08081806806
:1003B0008083E2E3F4E0808180688083E3E3F4E01B
:1003C000808180688083E4E3F4E0808180688083BA
:1003D000E5E3F4E0808180688083E6E3F4E08081F7
:1003E00080688083C0930102D2E0D09305042BE59E
:1003F00031E0209308083093090880EA80930508CB
:1004000080EC8093060883E0809307081CBA1DBA2D
:100410001EBA1FBAC093030AE0E0FAE088E08083C6
:100420009093020287E78093010AC0930A0A8BE047
:100430008093050A80818160808385E08093400AF3
:100440001092410A8FEF91E080934C0A90934D0AED
:100450001092450AC093500A1092510A8BE893E01B
:1004600080935C0A90935D0AC093550A25DE82E171
:100470008093A00080E28093A200C093A100E0E0FE
:10048000F6E086E0808384E4809302068EE1809328
:100490000606C0930A06808181608083C0930806A7
:1004A000E0E4F6E01082D093410682E580934206B4
:1004B00084E08093450680934606C0934A06808177
:1004C00081608083C0934806E0EAF6E080E48083A0
:1004D00080E88093A106808181608083E1E4F1E07F
:1004E000808180FDFDCF80E3809340011092470121
:1004F000E1E4F1E0808182FDFDCFEAE4F1E080E01B
:1005000098E78083918380914801909149016081AF
:10051000718182960E94E70C80935F3A9093603AD3
:10052000E1E4F1E0808183FDFDCF80915F3A90911D
:10053000603A80934C0190934D0183E08093420197
:1005400081E08093520188E080935001E1E4F1E082
:10055000808180FDFDCFE0E4F1E0808181608083D7
:10056000E0E5F1E0808181608083EAECF9E31082CC
:10057000E0930E3AF0930F3A7894DF91CF9108957B
:100580001F920F920FB60F9211248F939F93AF93E8
:10059000BF93EF93FF9387E08093460484E48093B6
:1005A0002604ECB3F0E0EE0FFF1FEE0FFF1FEE0F7F
:1005B000FF1FEB5CF54CA8E2BAE096E081918D93C9
:1005C0009A95E1F78BE08093050A8CB3833058F459
:1005D0008CB391E001C0990F8A95EAF799B98CB371
:1005E00083958CBB0AC08CB3833021F42A9A8395FF
:1005F0008CBB03C02E9A88278CBB8091B939882385
:1006000029F08091B93981508093B9398FEF809367
:100610000B0AFF91EF91BF91AF919F918F910F9036
:100620000FBE0F901F9018951F920F920FB60F924A
:1006300011248F939F93EF93FF93E0910E3AF091E3
:100640000F3A8081882391F0808180930208809105
:100650000E3A90910F3A019680930E3A90930F3A8A
:10066000E5E0F8E080818062808305C081E08093CE
:1006700004381092450A81E08093460AFF91EF9179
:100680009F918F910F900FBE0F901F9018951F9202
:100690000F920FB60F9211242F933F934F938F9386
:1006A0009F93EF93FF93E0910238F091033880819C
:1006B000811108C0809100389091013880930238F0
:1006C00090930338E0910238F091033880818823B9
:1006D000E1F0208140910B3A30E02F573109429FE1
:1006E000C001439F900D1124892F990F990B8058B9
:1006F0009F4F8093A1068091023890910338019614
:10070000809302389093033806C080E88093A10656
:1007100081E080935D3A81E08093560AFF91EF91EA
:100720009F918F914F913F912F910F900FBE0F90FE
:100730001F9018951F920F920FB60F9211248F934E
:10074000EF93FF938091973881111DC0EDB3F0E0D6
:1007500080910008E653F64C8083EDB3F0E0E65359
:10076000F64C80818A3049F4EDB3F0E0E653F64C64
:10077000108281E08093973806C08DB3803418F4DE
:100780008DB38F5F8DBB80E880930408FF91EF915C
:100790008F910F900FBE0F901F9018951F920F9280
:1007A0000FB60F9211248F93EF93FF9310924A0A82
:1007B00010924B0A81E08093450AE5E0F8E08081E1
:1007C0008F7D8083FF91EF918F910F900FBE0F90DF
:1007D0001F9018951F920F920FB60F9211248F93AE
:1007E000EF93FF9380919038811115C08EB38F5F86
:1007F0008F718EBB809106068E3129F48091100690
:1008000080935E3A0AC0EEB3F0E080911006EB5E92
:10081000F54C808302C01092903881E080930B06E3
:10082000FF91EF918F910F900FBE0F901F90189531
:100830001F920F920FB60F9211248F939F93809166
:10084000460681110CC0809150069091510680930C
:10085000123A9093133A81E08093460623C0809128
:100860004606813079F488E0809306048091500632
:10087000909151068093103A9093113A84E08093BE
:10088000460610C0809150069091510680930C3A14
:1008900090930D3A8FB38F3029F41092460688E07A
:1008A000809305048FB390E001968F709078992320
:1008B00024F40197806F9F6F01968FBB81E0809336
:1008C0004B069F918F910F900FBE0F901F90189520
:1008D0001F920F920FB60F9211245F936F937F9325
:1008E0008F939F93AF93BF93EF93FF9380914301B7
:1008F00081FF29C0809195388F3F29F080919538EC
:100900008F5F809395388091480190914901609163
:100910004A0170914B0182960E94E70C80935F3AE6
:100920009093603AE1E4F1E0808183FDFDCF809116
:100930005F3A9091603A80934C0190934D0182E030
:10094000809343010CC0809196388F3F29F08091AD
:1009500096388F5F8093963881E080934301FF91B2
:10096000EF91BF91AF919F918F917F916F915F9127
:100970000F900FBE0F901F9018951F920F920FB6F9
:100980000F9211248F9381E0809348068093530146
:100990008F910F900FBE0F901F901895E2E0F0E13D
:1009A000908191FDFDCF442359F0A62FB72F480F1A
:1009B000E82FF0E0FC5E90819D938F5F4813F8CFA5
:1009C0000895FF920F931F93CF93DF93E82F442353
:1009D00079F1C2E0D0E13DE900E010E154E00F2EF2
:1009E000F3E0FF2EF02D888181FDFDCF34BFD801CB
:1009F0005C93442391F02E2F2F7191E09E0F6F5F37
:100A00007F4FDB0111978C91F0E0FC5E80834150B9
:100A100021F0E92F2F3179F70FC08DE984BF83E0F2
:100A2000809300108091021082FB882780F90CC00F
:100A300080E00AC081E008C034BFF801F0828881FC
:100A400082FDF8CFE92FCFCFDF91CF911F910F918A
:100A5000FF9008959C0190910438992359F02093B8
:100A60000E3A30930F3A1092043881E08093450A91
:100A700080E0089581E00895282F811101C021E0D0
:100A80008FEF90E0821B9109982F882781509F4F0C
:100A900080934C0A90934D0A089520910C3A30911E
:100AA0000D3A329522952F7023273F702327332745
:100AB0002C353105D0F42335310598F52233310535
:100AC00050F42D32310548F52352310925303105D6
:100AD00008F442C02EC02733310508F43FC02E531E
:100AE000310927303105D8F024C02A38310548F4BF
:100AF00029373105D0F4235631092B30310598F0D0
:100B000018C0223A3105A8F02B3B310580F0205F58
:100B1000310920313105D8F00CC099E020C096E0B1
:100B20001EC094E01CC093E01AC092E018C091E08F
:100B300016C0982F9F709F3041F4282F207F30E0FF
:100B4000203F31058CF4805F08958FE00895982F41
:100B50009F7099F38FEF08959CE001C098E0282FD3
:100B60002F70921751F3892F0895809185389091B5
:100B700086389C01322F22273295330F307E822710
:100B800093279C01232F33272695822793279C01A7
:100B90003695322F222737952795822793278093E2
:100BA0008538909386380895DF92EF92FF920F93E5
:100BB0001F93CF93DF93E62EF72E8A01C0915C0A34
:100BC000D0915D0AE82FF0E03197E770FF27E957F1
:100BD000F74CD080CADF8D21C80FD11DC6DF8D2113
:100BE000C81BD1090C171D0708F4E8018E2D9F2D95
:100BF0008C179D0708F4CE0180935C0A90935D0AE0
:100C0000DF91CF911F910F91FF90EF90DF900895AA
:100C10000F931F93CF93DF93C82F042F122FE62F2C
:100C2000F0E03197E770FF27E957F74CD0819DDF5F
:100C30008D23C80F9ADF8D23C81B8C2F112341F001
:100C40009C2F1C1708F4912F802F091708F4892F67
:100C5000DF91CF911F910F910895CF92DF92FF9274
:100C60000F931F93CF93DF93CDB7DEB76097CDBFC0
:100C7000DEBF40E1BE016F5F7F4F80E08FDE0AEB99
:100C800019E3CE0101966C01F12CF60181916F01FF
:100C9000F8019081981731F041E0B8018F2D91DE75
:100CA000811108C0F3940F5F1F4FF0E1FF12EDCFE9
:100CB00080E001C081E06096CDBFDEBFDF91CF91C3
:100CC0001F910F91FF90DF90CF900895E82FEF7361
:100CD000E695E695E695F0E0E654F64C208130E0A6
:100CE0008770A90102C0559547958A95E2F7CA0118
:100CF00081700895E82FEF736623A1F0E695E695DD
:100D0000E695F0E0E654F64C877021E030E0A9016A
:100D100002C0440F551F8A95E2F7CA019081892BC2
:100D200080830895E695E695E695F0E0E654F64C66
:100D3000877021E030E0A90102C0440F551F8A9559
:100D4000E2F7CA0180959081892380830895EAEBB8
:100D5000F9E38AEC99E311928E179F07E1F7E3E03C
:100D6000F1E180E09191890FED3091E1F907D1F740
:100D7000837031F4EAEBF9E385818064858317C0E1
:100D8000813031F4EAEBF9E38581806885830FC017
:100D9000823031F4EAEBF9E386818160868307C013
:100DA000833029F4EAEBF9E3868182608683EAEBFB
:100DB000F9E380818160808308950F931F93CF931F
:100DC000DF9385E098E38093003890930138809119
:100DD0009338909194388827892B09F068C08091C6
:100DE000933890919438807E9927892B39F480919B
:100DF000913890E080930038909301388091933837
:100E00009091943880919338909194388091933850
:100E100090919438807E99278036910509F03BC0E7
:100E2000E5E0F8E31682E0930038F09301388F0193
:100E3000C1E0DBEACD9F812D11248695982F990F73
:100E4000890FC81739F020E041E065E080E8E0DE76
:100E5000F8018183CF5F0F5F1F4FC63059F7809134
:100E600095388823C1F040E054E060E872E085E006
:100E70009BDE80910B3A20EA40E162E0C9DE80937C
:100E80000B3AC5E0D8E320E940E762E08881C0DEA4
:100E9000888380958B83809193389091943880914A
:100EA0009338909194388091933890919438DF9151
:100EB000CF911F910F91089580E00895CF93DF9314
:100EC000DC01E9016623A9F050E0440F551F440FEF
:100ED000551F440F551F485D5546FD01E770FF271C
:100EE000E40FF51F8881908198279993119661509E
:100EF000A1F7DF91CF910895AF92BF92CF92DF9289
:100F0000EF92FF920F931F93CF93DF9300D0CDB753
:100F1000DEB7D62EC42E59017C01E894F7F8F98289
:100F2000EA82062F42E0BE016F5F7F4F80E5BAD9AB
:100F3000182F811105C095014C2D6D2DC701BEDF05
:100F4000812F0F900F90DF91CF911F910F91FF9004
:100F5000EF90DF90CF90BF90AF9008958F5F883073
:100F600040F4E82FF0E0E056F64C10828F5F8830B6
:100F7000C1F70895FC019081911107C081E00895A7
:100F800081E0921739F080E00895FB012081211162
:100F9000F7CF81E008951F93CF93DF93EB01122FDA
:100FA0002097E9F06F3F710501F1F8F050E06FEF25
:100FB000252F30E0F901EE0FFF1FE855F64C808336
:100FC0009183F901E056F64C608381509F4FCF5FCB
:100FD000D1095F5FCF3FD10509F050F707C01092EC
:100FE000A8391092A93950E021C050E0252F30E0F7
:100FF000F901EE0FFF1FE855F64C80839183F9014C
:10100000E056F64C9E01A1E8B0E8F5D4880F892F90
:10101000881F990B91956FEF689F9001699F300D24
:101020001124C21BD30BC08340939D39852F96DFBB
:1010300010939E3910929F3980E0DF91CF911F91DC
:1010400008956F927F928F929F92AF92BF92CF92AC
:10105000DF92EF92FF920F931F93CF93DF93CDB761
:10106000DEB72C97CDBFDEBF8C015B019E012F5FE9
:101070003F4F40E06CE080963FDF898190E0982F01
:1010800088272A81822B8096F501808391838B812A
:1010900090E0982F88272C81822B809682839383DF
:1010A000FE013596D50114969E01235F3F4F819135
:1010B0008D93E217F307D9F73801FCE26F0E711C2C
:1010C000035D1F4FF501048715876501FEE0CF0E14
:1010D000D11C45018AE1880E911C730102C0780180
:1010E000380183019E012F5F3F4F40E061E0C8015E
:1010F00003DF89819801280F311D89010F5F1F4F80
:1011000012F08F3F79F3E094F094E00EF11EE89432
:10111000F7F8F601E486F5863F77219331936F0166
:10112000E815F905E1F6061917091F77F50106A379
:1011300017A32C96CDBFDEBFDF91CF911F910F91EA
:10114000FF90EF90DF90CF90BF90AF909F908F90E7
:101150007F906F900895CF92DF92EF92FF921F934E
:10116000CF93DF937C01CB01142F1F71C12ED12CA3
:1011700020E230E0B9016C197D0929D4EC01AC0101
:10118000112361F0E1E6FAE38FEF810F90E08E59D1
:10119000954C3AE03193E817F907E1F7452B39F020
:1011A00096012F59354C41E06C2FC701A5DECF5970
:1011B000D54CC10FD11D188281E69AE34BDCDF913B
:1011C000CF911F91FF90EF90DF90CF900895181668
:1011D00014F47CCD089581E00895CF93C82F8F77C4
:1011E000F6DFC07841E050E04C1B5109282F30E079
:1011F00081E04217530709F080E0CF910895CF9224
:10120000DF92EF92FF920F931F93CF93DF93CDB7AF
:10121000DEB7A097CDBFDEBFC62E7C0120E2E20E76
:10122000F11C9E012F5F3F4F40E061E08C9664DE31
:101230000981002359F1D12C102F013208F010E25E
:101240009E012F5F3F4F40E0612FC7010D9654DE96
:101250001123B1F0DD2059F080E0FE01E80FF11D0F
:101260009181906281E09C15C9F080E017C0FE0179
:10127000319680E091919B3559F08F5F1813FACF2A
:10128000E10EF11C011BC1F680E008C080E006C041
:101290008F5F811710F3DD24D394F2CFA096CDBFDA
:1012A000DEBFDF91CF911F910F91FF90EF90DF9004
:1012B000CF900895DF92EF92FF920F931F93CF93F9
:1012C000DF9300D000D0CDB7DEB7D62E9E012F5FC2
:1012D0003F4F40E064E080960FDEE980F12CFE2C69
:1012E000EE248A81E82A0B8110E0102F00278C81E0
:1012F000082B0E151F0528F59E012F5F3F4F40E07C
:1013000061E0C8018596F8DD898167DF882329F0CF
:101310006D2DC80174DF811117C09E012F5F3F4FF3
:1013200040E062E0C8018096E7DD098110E0102FFF
:1013300000278A81082B0E151F05F0F280E090E04F
:1013400005C080E090E002C0802F912F2496CDBF91
:10135000DEBFDF91CF911F910F91FF90EF90DF9053
:1013600008959FE9980F9A3138F090ED980F81E039
:101370009A3018F080E0089581E008950F931F934C
:10138000CF93DF938C01FC018081882391F0C0E032
:10139000D0E0D801AD0FB11D8C938081E2DF8111C7
:1013A000DF5FCF5FF801EC0FF11D80818111F1CF7C
:1013B00001C0D0E0F801ED0FF11D10828D2FDF91FB
:1013C000CF911F910F910895CF9380919F398830CD
:1013D000D8F5909104389923B9F1282F30E0F9011C
:1013E000E056F64CE08190919C399E1730F5CE2F57
:1013F000C91BC13208F0C0E2220F331FF901E855C2
:10140000F64C0190F081E02D21E63AE340919D39C0
:101410006C2FDF01A90FB11DCD016EDD80919C39CC
:101420008C0F80939C39EC2FF0E0EF59F54C108233
:1014300081E69AE30FDB81E044C010929C398F5F14
:1014400080939F3981E03DC0809104388823A1F1C9
:1014500080919E39882381F1813039F442E062E045
:1014600070E08DE49CE777DE23C0823039F440E001
:1014700061E070E08FE49CE76EDE1AC0833039F4DF
:1014800041E060E070E080E090E065DE11C0843013
:1014900039F442E060E070E080E090E05CDE08C09B
:1014A000853031F440E06BE070E080E59CE753DE8E
:1014B00010929E3981E005C09091043881E091112D
:1014C00080E0CF9108951F93CF93DF93CDB7DEB720
:1014D0002A97CDBFDEBF20919738222309F46EC032
:1014E0002091CA39222351F120E030E040E0F90197
:1014F000E653F64C5081513430F0F901E653F64C86
:1015000050815B3548F0F901E653F64C2081FC012F
:10151000E40FF11D208309C0F901E653F64C208148
:10152000FC01E40FF11D206220834F5F242F30E087
:10153000F901E653F64C50815111D9CFFC012081BD
:101540002F3311F0283661F421E041E065EA73E0C1
:101550008BE59CE720DD1DBA1092973881E02FC003
:10156000213761F421E041E064E570E089EF9BE719
:1015700012DD1DBA1092973881E021C068E17AE946
:10158000F9DC8823E1F01EE660E0812FB3DB1F5F0A
:101590001237D1F762DB8AE0EEE1FAE9DE0111965B
:1015A00001900D928A95E1F78CE366DA8091043818
:1015B0008823E1F3CE0101964DDAF8CF81E02A9637
:1015C000CDBFDEBFDF91CF911F9108950F931F9381
:1015D000CF93DF938C0180919B39811107C063E326
:1015E00079E380915B3990915C392BDD80913739BB
:1015F00090E020919338309194388217930739F016
:10160000809393389093943881E080939238C80106
:10161000B5DEC0913239CC2331F110913139812FAF
:1016200090E0DC01AA0FBB1FAF5DB64CFC01EE0FD2
:10163000FF1FEF5EF64C60817181880F991FFC01DE
:10164000EF5FF64C2C9140E080819181A4DC1F5F1C
:1016500010933139C150C0933239C1113EC11DBA06
:10166000109297383AC1C80189DE882309F435C140
:1016700010923139E1E0F9E3108A118A24E030E078
:1016800020A331A3D8019C91983709F05AC08091CA
:101690009B39E82FF0E0EE0FFF1FE55AF64C208152
:1016A0003181232B11F0811108C021E041E06BE171
:1016B00070E086EA98E76FDC06C1809139398DDDEC
:1016C000882339F1E0919B39E150E0939B39F0E0B8
:1016D000EE0FFF1FE55AF64C63E379E380819181B9
:1016E000B0DCE1E0F9E3A3E3B9E31C968D919C91B2
:1016F0001D97828393835A968D919C915B97828BE1
:10170000938B81E090E082A393A382E080933239AF
:10171000DAC0E1E0F9E3A3E3B9E354968D919C913B
:1017200055978283938392968D919C919397828B08
:10173000938B81E090E082A393A382E0809332397F
:10174000C2C0953619F09F3609F0BDC0823041F015
:1017500024E041E06BE170E086EA98E71CDC90C091
:10176000C0919B39D0E0FE01EE0FFF1FE55AF64C09
:10177000D80111966C91808191819CDDCC0FDD1F89
:10178000C35AD64C8883998390919B39292F30E096
:10179000F901EE0FFF1FE35AF64C408151814115CC
:1017A000510529F069ED78E3CA014BDC17C0992394
:1017B00009F45FC0220F331FF901E75AF64C69EDB7
:1017C00078E3808191813DDCF80161818091E53889
:1017D0009091E63814DD882309F44BC09091E138EC
:1017E000D8018C91853609F075C071C06EE170E04A
:1017F00083E99BE704C06BE170E088E79BE724E0A6
:1018000041E0C9DB3DC08091DF38E7DC882339F156
:1018100080919B39E82FF0E0EE0FFF1FE35AF64C62
:1018200020813181232B21F08F5F80939B3903C06E
:10183000815080939B39E0919B39F0E0EE0FFF1FC0
:10184000E55AF64C63E379E380819181FADB80917C
:10185000373990E0809393389093943811C0E09199
:101860009B39F0E0EE0FFF1FE35AF64C1082118215
:1018700007C024E041E06AE170E087EC9BE78BDB86
:10188000E1E0F9E3128A138A85E090E082A393A352
:10189000148A158A82E090E084A395A3A3E3B9E3B8
:1018A0001C968D919C911D97868397835A968D9156
:1018B0009C915B97868B978B81E090E086A397A3A2
:1018C00083E080933239109297381DBA06C090FF9A
:1018D0008DCF99CF91FF8FCF96CF80E0DF91CF91C1
:1018E0001F910F910895CF936FDD81110BC088E98F
:1018F00098E3E9DDC82F811107C088E998E366DE27
:10190000ACD903C0C1E001C0C2E08C2FCF910895D3
:10191000CF93DF93CDB7DEB7A497CDBFDEBF0E94D4
:10192000AA0140E16AEB79E380E038D81EE600E0E6
:10193000812FCCD9080F1F5F1237D1F7013009F082
:1019400006DA81E099D884E2E8E3FAE9DE0111964B
:1019500001900D928A95E1F7CE0101967BD88FEF29
:101960008BD880E007C0292F2770263010F093E035
:10197000980F892F883228F4E82FF0E0EB5CF54CC3
:10198000108291E0980F983270F317DA80919538B1
:101990008823D9F38091B83980D88093B8391092D0
:1019A0009538A1DF89DA8091123A9091133A0A971B
:1019B00018F461E084E79ED98091123A9091133A2D
:1019C0008536910510F360E084E794D9DECFAA1B39
:1019D000BB1B51E107C0AA1FBB1FA617B70710F01A
:1019E000A61BB70B881F991F5A95A9F7809590954C
:1019F000BC01CD010895A29FB001B39FC001A39F78
:101A0000700D811D1124911DB29F700D811D112437
:081A1000911D0895F894FFCF29
:101A180069646471640043686561746572212000BB
:101A280074BFFA541C96B2261EEBD68BC0C20A614C
:101A38000748E4636B6572486F74656C3230323006
:101A4800206261646765207065737421080808085E
:041A580008740A0004
:101A5C009138913801800000000000000000000067
:101A6C00000000000000000000000000000000006A
:101A7C00000000000000000000000000000000005A
:101A8C00000000000000000000000000000000004A
:101A9C00000000000000000000000000000000003A
:101AAC00000000000000000000000000000000002A
:101ABC00000000000000000000000000000000001A
:101ACC00000000000000000000000000000000000A
:101ADC00000000000001D40103070F1F3F7FFF002F
:00000001FF
