S00E00004953525F494F2E7372656331
S113000056C0000071C000006FC000006DC0000049
S11300106BC0000069C00000C7C6000019C700001B
S1130020A6C4000061C000005FC000005DC0000005
S11300305BC00000E4C4000015C5000055C000000A
S113004053C0000051C000004FC000004DC000006C
S113005037C6000049C000005FC6000045C000006C
S113006043C0000052C500003FC00000B2C50000FC
S11300700BC6000039C0000037C00000240B2B0B56
S1130080340B2B0B340B2B0B240B590B730B850BE1
S1130090400C400C940BA10BDF0B060C400C400CE5
S11300A0400C400C400C400C400C590B730B1124B9
S11300B01FBECFEFCDBFDFE3DEBF18E3A0E0B8E3A0
S11300C0EEEBFFE302C005900D92A034B107D9F71F
S11300D02BE3A0E4B8E301C01D92A732B207E1F715
S11300E00E94931E0C94951F8BCF28ED30E089E07D
S11300F04091D73A50E0421753074CF04091D73A19
S113010050E0B9016E5E7F4F641775072CF481507F
S1130110295131098111ECCF0895CF93DF93809158
S113012043388F5F80934338C4E6D1E08C2F0E941C
S11301306F09811101C0D0E0CF5FC836B9F7DD2364
S113014059F08CE70E944E0980914C38843009F0B4
S1130150F1C010924C38EEC080914238823020F0C9
S113016094E090934C380DC081110BC090914C38A1
S1130170943061F410924C3810924A3810924B38F3
S113018005C09091D43A9111F1CF18C0811116C0D5
S11301909091D43A911112C080914D3893E3899F84
S11301A0802D11248093003880E098E380930338F5
S11301B0909304388FEF8093CA3A09C0982F907FA8
S11301C031F08F5F8F7080934238109243384091A2
S11301D0D73A2091003830E050E0B9016A507109F3
S11301E080914238461757075CF04091D73A50E067
S11301F0265F3F4F241735071CF0823008F443C0B4
S113020081110BC08091D43A811194C080914338FC
S1130210883008F48FC080EF63C0813041F565DF1A
S113022080934138882379F190914338983008F4C9
S113023081C090914D38913011F4835014C09230A4
S113024031F4833091F085508230E8F40EC093305D
S113025039F49CEF980F923040F08730A1F405C038
S1130260943089F48550833070F481EF39C0823042
S113027069F08330C1F1843009F05CC08091433867
S1130280803408F457C01092423854C087E090E09C
S113029080934A3890934B3880914338883038F0B3
S11302A02FEF44E668E080E840D7809300388091DF
S11302B043388A3F08F43EC080914D3890914138CC
S11302C0981B90934038891710F489EF04C093E386
S11302D0899F802D11248093003880914238806F4B
S11302E08093423827C080914338883018F1FDDE6E
S11302F08093413890914038482F50E020914D38F8
S1130300291708F4292F30E02B5F3F4F421753077A
S113031009F0B9CF83E6890FC1D78FE190E08093CC
S11303204A3890934B3860914D38809140380E9400
S11303306A0AD3CF80E0DF91CF91089580914C3841
S1130340833089F46AE070E08091443890914538B4
S11303500E946A0E882339F010924C3810924A3861
S113036010924B3895C08BE7BAD7811191C0809118
S11303704C38882319F0833009F08AC080910838FA
S11303808F3F09F485C090910738891709F480C01C
S11303900E945B0E809344389093453880910738CF
S11303A08F3F09F075C080914C38833021F48091DF
S11303B002388330A1F483E080934C38109247389C
S11303C01092463881E08093023860E080E00E9419
S11303D0A80A80E190E080934A3890934B3880914A
S11303E04738E82FF0E0E25CF0442081909108382F
S11303F0291741F0811103C010924C3849C092E092
S1130400909302388F5F80934738809146388F5F8E
S113041080934638682F0E946A0A80914638843057
S1130420B8F11092463880910238813021F560E0AD
S113043080E00E946A0A80914738E82FE695F0E050
S1130440E45AF044A481B0E090910C38A852B54C21
S11304509C93E581F0E090910C38E852F54C908340
S11304608C30B1F48BE71AD782E490E080934A3859
S113047090934B380DC083E08093023881E390E081
S113048080934A3890934B3860E080E00E946A0A77
S113049080E0089510925A3810925B3810925938BF
S11304A081E080930D381092583880E190E0809379
S11304B04A3890934B3860E080E00C94A80A089581
S11304C0CF93DF93EC0197FF03C0D195C195D10978
S11304D0CD33D10544F080914C38811104C0DADF6A
S11304E081E080934C3880914C38813009F5CC33CD
S11304F0D1051CF460E080E01AC0C837D1051CF4B3
S113050061E081E014C0C639D1051CF462E082E0E8
S11305100EC0C83CD1051CF463E083E008C0CC32B3
S1130520D1401CF464E084E002C065E085E0D2D7E9
S1130530DF91CF910895CF93DF9380914C38813030
S113054071F46AE070E080915638909157380E94B7
S11305506A0E882321F09EDF10924C38E5C087EFA5
S1130560BED68111E1C08DE7BAD68111DDC080917C
S11305704C38823008F0D8C08091003B9091013B08
S1130580892B41F48091CF3A9091D03A8093003BEB
S11305909093013BC091CF3AD091D03A8091003BE7
S11305A09091013BC81BD90BCE018ADF80915D3845
S11305B0813089F018F08230C1F01FC0C43D9EEF35
S11305C0D90714F491E004C0CD32D1405CF092E03C
S11305D090935C3812C0CD3291E0D907C4F7C93882
S11305E0DF4F84F310925C3808C0C43D9EEFD907F6
S11305F04CF3C837D105B4F3EACFC0914ABFEC2F0E
S1130600F0E090915C38992319F020910C3801C0E6
S113061020E0E852F54C2083891709F485C00E9434
S11306205B0E809356389093573890915B38809145
S11306305C38911108C0882331F091E0813009F4CD
S113064090E09093583880935D38882309F46CC007
S11306508FE991E080934A3890934B3880914C38DD
S1130660811101C017DF81E080934C3880915838A4
S113067020915D38882311F083E0282730E08091B1
S11306805B38E82FF0E0E858F044408150E024174C
S1130690350791F490910D38917090930D38E09155
S11306A059BFF0E0E852F54C1082E09158BFF0E0F9
S11306B0E852F54C108202C010920D388F5F80937F
S11306C05B38909159389F5F933018F49093593860
S11306D02BC01092593890910D389130E1F49091DB
S11306E05A38E92FF0E0E45AF044E681F0E0209132
S11306F00C38E852F54C20839F5F90935A3882312E
S113070099F48DE7CBD5EC2FF0E0E852F54C10824C
S113071082E490E005C0BEDE10924C3881E390E0A4
S113072080934A3890934B3880E0DF91CF910895BD
S1130730F89488ED84BF81E0809361009AE49093FB
S113074000049CE7909320042FE3209340049091AD
S11307505304906890935304909154049068909338
S113076054049091550490689093550490913304E7
S11307709068909333049091340490689093340477
S1130780909135049068909335048093010292E02F
S1130790909305044BE551E04093080850930908F1
S11307A030EA3093050830EC3093060833E0309398
S11307B007081CBA1DBA1FBA8093030A38E03093A5
S11307C0000A2093020227E72093010A80930A0A71
S11307D02BE02093050A2091000A21602093000A4F
S11307E025E02093400A1092410A2FEF31E0209334
S11307F04C0A30934D0A1092450A8093500A109285
S1130800510A2BE833E020935C0A30935D0A80930D
S1130810550A2CE02093160823EC2093130820910A
S1130820150821602093150820911508246C209345
S1130830150822E12093A00020E22093A2008093D7
S1130840A1009093000624E4209302062EE1209355
S1130850060680930A062091000621602093000674
S113086080930806109240069093410692E5909377
S1130870420694E0909345069093460680934A0678
S1130880909140069160909340068093480680E4DE
S11308908093A00680E88093A1068091A0068160E1
S11308A08093A0068091410180FDFCCF80E380937A
S11308B04001109247018091410182FDFCCF80E00C
S11308C098E780934A0190934B018091480190915D
S11308D0490182968093043B9093053B20914A0101
S11308E030914B018091043B9091053B28173907C7
S11308F070F420914A0130914B018091043B909116
S1130900053B821B930B8093043B9093053B8091A2
S1130910410183FDFCCF8091043B9091053B809382
S11309204C0190934D0183E08093420181E08093D8
S1130930520188E0809350018091410180FDFCCFF9
S113094080914001816080934001809150018160D9
S1130950809350011092873A87E89AE38093CD3AC6
S11309609093CE3A8FEF80934838789408951F92ED
S11309700F920FB60F9211248F939F93AF93BF934F
S1130980EF93FF9387E08093460484E480932604E6
S1130990ECB388E0E89FF0011124E852F54CA8E29A
S11309A0BAE096E081918D939A95E1F78BE080937C
S11309B0050A8CB3833058F48CB391E001C0990FCD
S11309C08A95EAF799B98CB383958CBB0AC08CB32A
S11309D0833021F42A9A83958CBB03C02E9A8827EE
S11309E08CBB8FEF80930B0AFF91EF91BF91AF9176
S11309F09F918F910F900FBE0F901F9018951F928B
S1130A000F920FB60F9211248F939F93EF93FF933E
S1130A10E091CD3AF091CE3A8081882391F08081A3
S1130A20809302088091CD3A9091CE3A01968093BA
S1130A30CD3A9093CE3A8091050880628093050860
S1130A4005C081E0809309381092450A81E08093C3
S1130A50460AFF91EF919F918F910F900FBE0F90D7
S1130A601F9018951F920F920FB60F9211242F9377
S1130A703F934F938F939F93EF93FF93E0910538A8
S1130A80F09106388081811108C0809103389091DB
S1130A9004388093053890930638E0910538F09136
S1130AA0063880818823E1F020814091CA3A30E001
S1130AB02F573109429FC001439F900D1124892F64
S1130AC0990F990B80589F4F8093A1068091053808
S1130AD0909106380196809305389093063806C0A5
S1130AE08FEF8093CA3A80E88093A10681E08093D7
S1130AF0560AFF91EF919F918F914F913F912F91C2
S1130B000F900FBE0F901F9018951F920F920FB663
S1130B100F9211248F939F93EF93FF938091D33A75
S1130B20882329F08091D33A81508093D33A8091DD
S1130B30150887FF18C08091D33A882381F0E0918B
S1130B40C83AF091C93ACF0101968093C83A90937C
S1130B50C93A8091180880831092140826C084E052
S1130B608093140822C0809115088C7019F010929B
S1130B70D33A1BC08091D33A823031F4E091C83A21
S1130B80F091C93A808109C08091D33A813041F40F
S1130B90E091C83AF091C93A81818093180805C060
S1130BA0809117088160809317088091150887FF4A
S1130BB007C08091D33A811103C087E08093140861
S1130BC0FF91EF919F918F910F900FBE0F901F9007
S1130BD018951F920F920FB60F9211248F93EF93D3
S1130BE0FF9380915538811144C0EDB3F0E08091BA
S1130BF00008E957F54C8083EDB3F0E0E957F54C74
S1130C00808180930208EDB3F0E0E957F54C8081D0
S1130C108A3039F0EDB3F0E0E957F54C80818D303E
S1130C2049F4EDB3F0E0E957F54C108281E080938C
S1130C3055381FC0EDB3F0E0E957F54C808188309A
S1130C4039F0EDB3F0E0E957F54C80818F3759F472
S1130C508DB3882341F0EDB3F0E0E957F54C1082F1
S1130C608DB3815005C08DB3803418F48DB38F5F7C
S1130C708DBB80E880930408FF91EF918F910F90D2
S1130C800FBE0F901F9018951F920F920FB60F92E0
S1130C9011248F93EF93FF9310924A0A10924B0AF8
S1130CA081E08093450AE5E0F8E080818F7D8083D0
S1130CB0FF91EF918F910F900FBE0F901F90189599
S1130CC01F920F920FB60F9211248F939F938091CE
S1130CD04838811112C0809106068E3149F4809102
S1130CE01006909111068093023B9093033B0AC037
S1130CF0809110068093D73A05C08091483881507E
S1130D008093483881E080930B069F918F910F90D8
S1130D100FBE0F901F9018951F920F920FB60F924F
S1130D2011248F939F938091460681110AC080916C
S1130D305006909151068093D13A9093D23A81E033
S1130D4010C080914606813079F488E080930604CF
S1130D5080915006909151068093CF3A9093D03A67
S1130D6084E08093460610C080915006909151060D
S1130D708093CB3A9093CC3A8FB38F3029F410926E
S1130D80460688E0809305048FB390E001968F7047
S1130D9099278FBB81E080934B069F918F910F9091
S1130DA00FBE0F901F9018951F920F920FB60F92BF
S1130DB011242F933F938F939F938091430181FF3D
S1130DC036C0809152388F3F29F0809152388F5F1E
S1130DD08093523880914801909149018296809382
S1130DE0043B9093053B20914A0130914B01809143
S1130DF0043B9091053B2817390758F420914A0188
S1130E0030914B018091043B9091053B821B930BE5
S1130E10E6CF8091410183FDFCCF8091043B90910A
S1130E20053B80934C0190934D0182E006C0809174
S1130E3053388F5F8093533881E0809343019F91AF
S1130E408F913F912F910F900FBE0F901F90189587
S1130E501F920F920FB60F9211248F939F9391E0DC
S1130E6090934806809154388F5F809354389093C0
S1130E7053019F918F910F900FBE0F901F90189563
S1130E800F9380911508837011F481E01DC0609365
S1130E90C83A7093C93A672BC1F380EA8093170864
S1130EA04F5F4093D33A8091D33A8111FCCF209382
S1130EB0C83A3093C93A232B41F30F5F0093D33AD6
S1130EC08091D33A8111FCCF0F9108959091021033
S1130ED091FDFCCFFB01480F841739F0A82FB0E037
S1130EE0BC5E9C9191938F5FF7CF08959DE924E0B8
S1130EF033E0442309F15091021051FDFCCF94BF1B
S1130F0020930010E82F582F5F718F5F6F5F7F4F22
S1130F10DB011197AC91F0E0FC5EA083415019F025
S1130F20E82F5F3181F794BF309300105091021085
S1130F3052FFDFCF81E0089580E00895F9019C011C
S1130F402E1B3F0B88E0489FA001112448595044B0
S1130F50662369F0DF01A20FB31FA770BB27A40F9C
S1130F60B51F80819C91982791936150F1CF08958A
S1130F70A2E0B0E0EEEBF7E00C946C1FD62EC42E8A
S1130F8059017C01E894F7F8F982EA82062F42E0DD
S1130F90BE016F5F7F4F80E573DF182F811105C09D
S1130FA095014C2D6D2DC701C9DF812F2296EAE0F2
S1130FB00C94851F20910938222359F08093CD3A4F
S1130FC09093CE3A1092093881E08093450A80E0EC
S1130FD0089581E00895282F811101C021E08FEF49
S1130FE090E0821B9109982F882781509F4F80930E
S1130FF04C0A90934D0A08958FEF8093483882E10C
S11310008093A000E0E0F6E080818B7F80838EE116
S11310108093060608958FEF8093483882E2809388
S1131020A000E0E0F6E080818460808387E0809324
S1131030060608958091CB3A9091CC3A24E0969597
S113104087952A95E1F799278036910540F48F34E6
S1131050910588F4C097099790F492E011C0853700
S1131060910568F08E38910540F08E599109819769
S113107030F490E005C093E003C091E001C09FEF1D
S113108080913438981719F0909334388FEF08957D
S113109080916C3890916D389C01322F22273295C3
S11310A0330F307E822793279C01232F33272695E5
S11310B0822793279C013695322F2227379527952F
S11310C08227932780936C3890936D380895A0E01D
S11310D0B0E0EDE6F8E00C946F1F7B018A01C0914B
S11310E05C0AD0915D0AE82FF0E03197E770FF27A2
S11310F0EB5CF74CD080CCDF8D21C80FD11DC8DF4D
S11311008D21C81BD1090C171D0708F4E801C7017C
S1131110EC16FD0608F4CE0180935C0A90935D0AF8
S1131120CDB7DEB7E7E00C94881F0F931F93CF93DE
S1131130DF93C82FD42F022FE62FF0E03197E7700A
S1131140FF27EB5CF74C1081A3DF8123C80FA0DFDE
S11311508123C81B8C2F002341F09C2F0C1708F40B
S1131160902F8D2FD91708F4892F41E050E08D1767
S113117010F040E050E02D2F30E024233523232BC2
S113118009F08D2FDF91CF911F910F910895CF9288
S1131190DF92FF920F931F93CF93DF93CDB7DEB708
S11311A06497CDBFDEBF44E1BE016F5F7F4F80E037
S11311B08DDE83E7C82E8AE3D82E8E010F5F1F4F82
S11311C0F12CF80181918F01F6019081981308C0E8
S11311D0F394FFEFCF1ADF0A80E1F812F2CF08C0D0
S11311E041E0B6018F2D82DE882391F391E036C071
S11311F020914E3830914F383093833A2093843A7B
S113120080915038909151389093853A8093863AE2
S113121089899A899827892798272817390769F48B
S11312208B899C8998278927982720915038309159
S113123051382817390749F410C042E063E87AE3CB
S113124080E154DE882361F3D1CF42E065E87AE39C
S113125082E14CDE91E0811101C090E0892F649617
S1131260CDBFDEBFDF91CF911F910F91FF90DF9033
S1131270CF900895E82FEF77E695E695E695F0E0B0
S1131280ED58F54C208130E08770A90102C05595D6
S113129047958A95E2F7CA0181700895E82FEF77A0
S11312A0E9F0E695E695E695282F2770F0E0ED58ED
S11312B0F54C87FF0AC081E090E001C0880F2A95B1
S11312C0EAF780959081892308C081E090E001C00D
S11312D0880F2A95EAF79081892B80830895CF930C
S11312E0C82F8F77C7DF2C2F221F2227221F91E0C0
S11312F0811101C090E0822F8927CF910895E3E006
S1131300F1E180E09191890FED3091E1F907D1F796
S1131310837091E0980F90934D380895A1E0B0E068
S1131320E4E9F9E00C94731F9FEF9983811108C0DD
S113133080914D388351B2DF2196E3E00C948C1FE9
S113134010E041E0BE016F5F7F4F812FCFDD1F5F53
S11313501032B9F7EDCFCF93E3E7FAE311928AE3C2
S1131360E738F807D9F7CBDFC82F811102C08EE622
S11313700BC0813011F48FE607C0823011F480E78E
S113138003C0833011F481E789DF84E68C0F86DFA4
S1131390CF910895CF93DF932091D13A3091D23AEF
S11313A08091023B9091033B820F931F880F991FFA
S11313B0816080936C3890936D3844E163E77AE3FD
S11313C080E084DDCEE6D0E08C2F54DFD80FCF5FF1
S11313D0C237D1F7D13011F0BEDF01C090DF809168
S11313E0833A9091843A98278927982780934E3896
S11313F090934F388091853A9091863A982789271F
S113140098278093503890935138DF91CF91089565
S1131410CF9386E764DFC82F882381F0E0914CBF27
S1131420F0E0E852F54C1082E0914DBFF0E080917D
S11314300C38E852F54C8083C1E049C085E74FDFA2
S1131440882349F1E0914CBFF0E080910C38E852D8
S1131450F54C808380916938882371F08091D53A66
S11314609091D63A2091023B3091033B8096281705
S1131470390710F086E72AC08091D53A9091D63A80
S11314802091023B3091033B08968217930718F092
S113149081E0809369388091D53A9091D63A892B2E
S11314A041F48091023B9091033B8093D53A909311
S11314B0D63A8091D53A9091D63A2091023B309118
S11314C0033B80962817390710F085E7E7DE8C2F59
S11314D0CF910895EEE4FFEB90E0A581B0E098177A
S11314E034F420910C38A852B54C2C9303C0A85264
S11314F0B54C1C92A081B0E0961734F420910C38BE
S1131500A852B54C2C9303C0A852B54C1C929F5FB3
S11315103196953011F70895A8E5BFEBEC91F0E012
S1131520E852F54C80831296EC911297F0E0E85261
S1131530F54C60831196EC911197F0E0E852F54C6C
S113154080831396EC91F0E0E852F54C60830895A3
S1131550ACE5BFEBED91F0E0E852F54C80831596D5
S1131560EC911597F0E0E852F54C60839FEBA236BE
S1131570B90781F7089560910C3880E0CDDF809140
S1131580480190914901892F992782958F7087701E
S113159099278430910559F028F4039758F488E08A
S11315A090E00DC0069731F487E090E008C086E033
S11315B090E005C060E080E08DDF82E090E0809301
S11315C04A3890934B380895A0E0B0E0EAEEFAE090
S11315D00C946E1F80914C38882329F080E47FDEC0
S11315E0811124C053C0CCE5DFEB1AE7812F77DEED
S11315F0EE81F0E0882359F080910C38E852F54CE4
S11316008083E881F0E0E852F54C10820AC0E85289
S1131610F54C1082E881F0E080910C38E852F54CEA
S113162080831F5F2196103809F7D8CF90916B38CB
S1131630492F50E080914BBF47305105D0F4FA0157
S1131640E25CFF4F0C945E1FE82FF0E080910C38B1
S11316508695869505C0E82FF0E080910C38869534
S1131660E852F54C80830AC0E82FF0E080910C38F2
S1131670F7CFE82FF0E0E852F54C1082903220F4D6
S11316809F5F90936B3802C010926B3890916A38C8
S11316909F5F90936A38E0914A38F0914B38EF712C
S11316A0FF27E231F10508F0EBC0EB5BFF4F0C9430
S11316B05E1F60E080E030DF80914A3890914B38C3
S11316C084FD0AC060E080E005DFE0914ABFF0E0FD
S11316D0E852F54C1082D4C08FE190E080934A38F0
S11316E090934B38CDC0892F817090FD80910C3838
S11316F060E012DF80914A3890914B3884FFC0C07B
S113170080910C3860E024DFBBC0692F70E093FF48
S113171002C06095709595E0660F771F9A95E1F782
S1131720615E80E0F9DEACC0892F837009F0A8C047
S113173092FF03C065E085E002C060E080E0CADE9D
S11317409FC0953010F010926A3840916A38242F67
S113175030E0F901E25BF044E581F0E0E852F54C59
S11317601082443019F0C901019602C080E090E073
S1131770FC01E25BF044E581F0E080910C38E85232
S1131780F54C8083E2E5FFEBE21BF30BE081F0E034
S1131790E852F54C1082443029F083E090E0821B3B
S11317A0930B02C084E090E0FC01E25BF044E08132
S11317B0F0E080910C38E852F54C808361C0CEE4AF
S11317C0DFEB83E5E82E8FEBF82E6E010D8110E040
S11317D05FDC87FF03C080910C3801C080E0F80112
S11317E0E852F54C80832196F601008110E050DC2C
S11317F087FF03C080910C3801C080E0F801E852F3
S1131800F54C8083EC16FD0601F73AC090FD38C014
S1131810EEE4FFEB82E59FEB9F01A581B0E0C6817A
S1131820D0E0C852D54C4881A852B54C4C9331965F
S1131830E901A881B0E0C081D0E0C852D54C28812C
S1131840A852B54C2C938E179F0731F7C09157BF00
S1131850D0E01EDC813E18F080910C3801C080E09D
S1131860C852D54C8883C09152BFD0E011DC813E70
S113187018F080910C3801C080E0C852D54C8883A0
S1131880CDB7DEB7E8E00C94871F809520915438DB
S113189030E08770A90102C0559547958A95E2F713
S11318A0CA01442301F13091CA3A431730F49091AC
S11318B0CA3A981B9093CA3A14C01092CA3A662343
S11318C081F089E498E380930338909304388091FD
S11318D04A3890914B388F71992780934A38909366
S11318E04B381092543808950F931F93CF93DF937E
S11318F08091D73A893108F0CAC1C1E0C093D43A83
S113190080914A3890914B388827892B09F075C10A
S113191080914A3890914B38807E9927892B39F4ED
S113192089E498E3809303389093043863C18091E9
S11319304A3890914B38807E9927809761F520E052
S113194041E065E080E8F1DB8093253880916838D8
S1131950811114C080E091E280935C0A90935D0A47
S113196083E298E380930338909304388FEF809355
S1131970CA3AC093683888E08093673880916738A2
S1131980811104C06091683884E07FDF40E052E256
S113199060E070E279C180914A3890914B38807E42
S11319A0992780349105C1F580916838811114C05C
S11319B080E09AE080935C0A90935D0A80E298E369
S11319C080930338909304388FEF8093CA3AC0937E
S11319D0683886E08093673880916738811104C045
S11319E06091683884E051DF80915238882309F48B
S11319F050C180915C0A90915D0A8058910980934E
S1131A005C0A90935D0A8091CA3A811142C1109296
S1131A104A3810924B383DC180914A3890914B38E6
S1131A20807E99278038910551F080914A389091B1
S1131A304B38807E99278036910509F055C0109265
S1131A40663880E698E380930338909304388C01D9
S1131A50C1E0D6E0C33099F080914A3890914B3878
S1131A60807A992735E0969587953A95E1F76D2F19
S1131A70681B20E041E080E858DBF8018183CF5FF8
S1131A800F5F1F4FC63031F780915238882309F415
S1131A9000C180914A3890914B3887FF06C040E0DE
S1131AA050E260E078E086E005C040E054E060E8A1
S1131AB072E085E00CDB8091CA3A20EA40E162E002
S1131AC034DB8093CA3A80914A3890914B3840ED88
S1131AD0481B20E962E08091603827DB80936038FE
S1131AE0809580936338D5C080914A3890914B3863
S1131AF0807E9927803C910509F4CBC080914A38B7
S1131B0090914B38807E9927803A910581F5809198
S1131B10CA3A20915C0A30915D0A20935C0A3093A2
S1131B205D0A2AE138E32093033830930438809324
S1131B30CA3AC093683861E080E0A7DE80915238E9
S1131B40882309F4A6C0A4DAF0E28F9FC00111240F
S1131B509C5F80935C0A90935D0ACAE1D8E398DAAB
S1131B608160899328E3CF31D207C9F792C080916D
S1131B704A3890914B38807E9927803E910509F030
S1131B8088C080916838811119C088E198E38093F6
S1131B900338909304388091CA3A20E030E62093C9
S1131BA05C0A30935D0A22E138E3209305383093D0
S1131BB006388093CA3A81E0809368386091683827
S1131BC080E063DE80915238882309F462C08091FA
S1131BD0113881508093113881115BC080915C0A67
S1131BE090915D0A9D5F80935C0A90935D0A86E004
S1131BF080931138109268384CC080914A38909183
S1131C004B3888278115914009F043C080914A38A8
S1131C1090914B38807E992781399105D0F5809138
S1131C206838811122C080914A3890914B38807E67
S1131C309927019626E0880F991F2A95E1F780934A
S1131C405E3890935F3880935C0A90935D0A8EE0CF
S1131C5098E380930338909304388FEF8093CA3AC3
S1131C60C093683883E08093673880916738811126
S1131C7004C06091683887E008DE60915E38709136
S1131C805F38AB015D5F7E5F81E021DA02C01092B4
S1131C90D43A80915238882339F080916738882368
S1131CA019F081508093673880915238DF91CF9139
S1131CB01F910F91089580914801909149012091BD
S1131CC05338892F992786953CE3239F800D911DD6
S1131CD0112408950F931F93CF93DF938C01EB018D
S1131CE0EADF9C018017910708F4345CC00FD11F10
S1131CF081E0C217D30708F080E0DF91CF911F91F4
S1131D000F910895A4E0B0E0E8E8FEE00C946D1FA4
S1131D1019821A821B821C828091023B9091033BA0
S1131D20892BD1F344E0BE016F5F7F4F84E1CED8AD
S1131D308981853AA1F48A8190E0982F882780933D
S1131D40D53A9093D63A8091D53A9091D63A2B8150
S1131D50822B8093D53A9093D63AB12C7CC08C8157
S1131D608F3F09F076C000914BBF10E00852154C2C
S1131D70D8018C93E0914ABFF0E0E852F54C80839F
S1131D80C09058BF2C2D30E0A9014852554C6A012F
S1131D90DA018C93E09059BF2E2D30E0A90148520E
S1131DA0554C7A01DA018C93A0914CBFB0E0A85253
S1131DB0B54C8C938091D13A9091D23A89839927EA
S1131DC02091D13A3091D23A332728173907C1F3F9
S1131DD01C928091CB3A9091CC3A80389C40C8F3C5
S1131DE010829E012F5F3F4F40E064E082ED94E358
S1131DF0BFD88981823049F48A818E3F31F4BB8017
S1131E00B11003C08C81843509F0FFCF04D98091CF
S1131E10D73A8837E0F38091D73A8938C0F7F6018A
S1131E201082D7011C9285EA89838091023B9091AC
S1131E30033B9A838091023B9091033B8B8343E065
S1131E40BE016F5F7F4F84E151D888E0F801808341
S1131E5002C0BB24B3948B2D2496E9E00C94861F16
S1131E60CF93C82F60E080E035DBCC2351F1809123
S1131E704A3890914B38807E892B51F420E2C29FDE
S1131E80C0011124815E9E4F80934A3890934B3851
S1131E90C13019F4E09157BF0EC0C23019F4E0917B
S1131EA052BF09C0C33019F4E09155BF04C0C43017
S1131EB041F4E09150BFF0E080910C38E852F54CC9
S1131EC08083CF9108950F931F93CF93DF938091D5
S1131ED04C38882321F0823009F06BC10AC080910C
S1131EE008388F3F31F060E080E0F4DA82E08093DC
S1131EF04C3880916E3881110DC0C4E7D8E300E8F6
S1131F0018E3C6D8837089930C171D07D1F781E0B5
S1131F1080936E3880916E38813091F480914C3882
S1131F20823071F480936E38109273381092723844
S1131F301092713810926F3810924A3810924B38C0
S1131F4080916E38823051F580917138843038F048
S1131F5080916F388F5F80936F3810927138E09161
S1131F606F38E63058F083E080936E381092713801
S1131F7010926F3860E080E0EBDA1BC1F0E0E45AC5
S1131F80F044A081B0E080910C38A852B54C8C93F9
S1131F90E681F0E0E852F54C10822AC0833041F526
S1131FA080917138893038F080916F388F5F8093D9
S1131FB06F3810927138E0916F38809173388E17B2
S1131FC040F41092723885E080936E3880E048DFE8
S1131FD098C080917138883010F080E008C0863055
S1131FE008F492C0F0E0EC58F74C80818F5F38DF42
S1131FF0C0916E38C53009F087C08091083890913F
S11320000738981709F472C090917038911170C014
S1132010843008F06DC091E090937038109271385C
S11320208F5F1EDF84E080936E38C0933D388091CB
S11320307238E82FF0E0EC58F74C20819091083882
S113204029131DC08F5F80937238E0917338E817AD
S1132050A8F5EF5FE09373381092713810926F38DF
S1132060E13059F0E695F0E0E45AF044E581F0E01F
S113207080910C38E852F54C808383E01DC081E2E6
S113208090E080934A3890934B38ACE5BFEB82E6FE
S11320909FEBED91F0E020910C38E852F54C208351
S11320A08A179B07B1F71092723810927338109206
S11320B0713810926F3886E080933D388091723881
S11320C08C3020F4809173388C3090F082E490E06E
S11320D080934A3890934B388AE7E0D8109271384D
S11320E010926F3887E080933D3802C010927038A8
S11320F0809171388B3441F483E080936E38109270
S11321006F381092713855C080916E38843081F4E4
S113211080917138833060F080E0A2DE10927038D4
S11321201092713810926F3880913D3880936E38D8
S113213080916E38863061F580917138843038F042
S113214080916F388F5F80936F38109271388091CF
S11321506F38863060F01092713810926F3887E0D3
S113216080936E3810924A3810924B3822C0E5E0C2
S1132170F0E0E81BF109E45AF044A081B0E0A85271
S1132180B54C1C92E681F0E0E852F54C10820CC08C
S1132190873051F4109272381092733810926E385E
S11321A010924C3880E05CDE809171388F5F8093B0
S11321B0713880E0DF91CF911F910F910895A2E1D2
S11321C0B0E0E5EEF0E10C94731F8A8B80E1EEE25F
S11321D0FFEBDE01119601900D928A95E1F7FE0165
S11321E0319690E08FEF219131912617370709F44A
S11321F0892F9F5F9830B9F7883010F080E014C0C1
S113220018E1180F41E0BE016F5E7F4F812F0E94DD
S1132210660789898F3F91F741E0BE016E5E7F4F6B
S1132220812F0E94760781E06296E3E00C948C1F74
S1132230262FFB0135E59E2F921B981728F49081D9
S1132240929593279193F7CF08958F5F883030F458
S1132250E82FF0E0E65AF54C1082F7CF0895AC0170
S113226090E0E92FF0E0DA01AE0FBF1F3C91E60FDA
S1132270F71F311105C081E09081992349F007C00F
S113228020812223C1F3321302C09F5FEACF80E092
S11322900895CF93DF93FC016115710559F1A2E60E
S11322A0BAE3CAE5DAE380E09FEF6F3F710569F0B6
S11322B060F0ED93FD939993E150FF4F6F5F7109C7
S11322C08F5F873091F781E01EC0282F30E0D9015D
S11322D0AA0FBB1FAE59B54CED93FC936F3F71052C
S11322E011F46EEF70E0F901E65AF54C6083409307
S11322F0583A05C01092623A1092633A80E0A5DF22
S11323001092593A80E0DF91CF910895CF93DF93F3
S1132310282F30E0F901EE0FFF1FE35DF64CA9E52D
S1132320BAE7A083B183F901EE0FFF1FE359F64C1E
S113233062E070E060837183220F331FF901E3557B
S1132340F64C41E050E04083518321E0280F30E017
S1132350F901EE0FFF1FE35DF64CC2E6DAE7C08336
S1132360D183F901EE0FFF1FE359F64CCCE0D0E026
S1132370C083D183220F331FF901E355F64C408308
S11323805183E2E0E80FF0E0EE0FFF1FE35DF64C4F
S113239020EF3FEF2083318323E0280F30E0F90161
S11323A0EE0FFF1FE35DF64CA083B183F901EE0F3E
S11323B0FF1FE359F64C60837183220F331FF90129
S11323C0E355F64C4083518324E0280F30E0F901B3
S11323D0EE0FFF1FE35DF64CA5E5BAE7A083B183DA
S11323E0F901EE0FFF1FE359F64C60837183220F4E
S11323F0331FF901E355F64C408351838B5FDF9122
S1132400CF910895AF92BF92DF92EF92FF920F9314
S11324101F93CF93DF93CDB7DEB72C97CDBFDEBF2D
S11324207C018B019E012F5F3F4F40E06CE0809662
S11324300E94B80789819A819827892798278096CE
S1132440F801808391838B819C8198278927982721
S1132450809682839383DE0115963496C8010C9688
S11324602D912193E817F907D9F7FCE2EF0EF11C3F
S11324705801D12C9E012F5F3F4F40E063E0C7011C
S11324800E94B80789819A819827892798279701FC
S11324902E5F3F4F43E04D1580F4AC01415051098C
S11324A0F801428F538FF3E0EF0EF11CF801E4863C
S11324B0F5864B81F50144A305C0F801828F938F03
S11324C0248735877C01E20EF31ED3940E5F1F4FE1
S11324D0FFEFAF1ABF0A47E0D412CCCF2C96CDBF82
S11324E0DEBFDF91CF911F910F91FF90EF90DF90AE
S11324F0BF90AF900895A0E2B0E0E1E8F2E10C945F
S11325006E1FC62E7C0120E2E20EF11C9E012F5F9D
S11325103F4F40E062E08C960E94B8071A81D12CAC
S1132520112359F1012F113208F000E29E012F5FAF
S11325303F4F40E0602FC7010E960E94B807FE018E
S1132540319680E0DD2061F0E1E0F0E0EC0FFD1F6A
S1132550E80FF11D9081906281E09C110EC00EC0C5
S11325609191DD24D3949B3509F0D12C8F5F801792
S113257048F3E00EF11C101BD3CF80E0A096E8E0F6
S11325800C94871FAF92BF92DF92EF92FF920F934A
S11325901F93CF93DF9300D000D0CDB7DEB7D62EF4
S11325A05A019E012F5F3F4F40E064E080960E94F5
S11325B0B807E980FA80FE24EF24FE240B811C81F5
S11325C01027012710270E151F0548F5A016B10680
S11325D060F09E012F5F3F4F40E062E0C8018096AB
S11325E00E94B80709811A81EBCF9E012F5F3F4FEC
S11325F040E061E0C80185960E94B8078981811195
S113260003C0D11006C00EC00E946F098111F9CF1A
S1132610E0CF6D2DC8016FDF8823D9F203C080E0BD
S113262090E001C0C8012496CDBFDEBFDF91CF91F9
S11326301F910F91FF90EF90DF90BF90AF9008959E
S113264080629FE9980F9A3138F090ED980F81E0FD
S11326509A3018F080E0089581E008950F931F9355
S1132660CF93DF938C01D0E0C0E0F801ED0FF11DB2
S113267080812C2F30E0882361F0D801A20FB31F92
S11326808C9380818B3129F0DBDF8111CF5FDF5F99
S1132690ECCFF801E20FF31F10828C2FDF91CF9162
S11326A01F910F910895CF932091593A283008F043
S11326B049C080910938882309F444C0822F90E0EE
S11326C0FC01E65AF54CE081E11106C0109218397C
S11326D088E08093593A2EC0509118395E1760F5FE
S11326E0CE2FC51BC13208F0C0E2880F991FFC0130
S11326F0EE59F54C8081918126E03BE34091583AB4
S11327006C2F850F911D0E94B807809118398C0F8A
S113271080931839EC2FF0E0EA5FF44C108280913A
S1132720063B811103C08BED8093063B86E09BE35F
S11327300E94DA0781E00BC0109218392F5F2093B2
S1132740593AF8CF9091093881E0911180E0CF9106
S11327500895CF93DF93C0912C39CC23B1F1C150AC
S1132760C0932C39D09117392D2F30E0F901EE0F99
S1132770FF1FE35DF64C80819181803F4FEF94070A
S113278051F46091473A7091483A40E08091393A67
S113279090913A3A0DC0D901AA0FBB1FA355B64C6C
S11327A0220F331FF901E359F64C608171814C917A
S11327B070DDDF5FD0931739C11106C01DBA1092C6
S11327C055381092173901C0C1E08C2FDF91CF9199
S11327D00895A9E0B0E0EFEEF3E10C94671F8C01DB
S11327E080913E388F3F49F46DE27AE38091ED3970
S11327F09091EE3907DE10923E3880915538882347
S113280009F4C0C180911C39882309F44FC0109287
S11328101B3981E6F80180836CE179E387E89AE368
S11328201EDDF82E882321F081E080931B3904C03B
S113283080911C39813311F0F12CA6C180911E398D
S11328408111FACF87E89AE309DF92E090931B396C
S1132850F8011182823080F38091873A813360F3EA
S11328608091873A853340F78091883A80628093DB
S1132870883A8091883A813661F08091883A853629
S113288041F08091883A863621F08091883A8737E2
S113289099F680911D398F5EF80181838091873A82
S11328A082838091883A838314826EC18091873AAF
S11328B0833289F58DB3863071F581E090E010E0C4
S11328C0FC01E957F54C208120532083110F212F5F
S11328D0220F220F120F2091883A233048F42081CE
S11328E02A30B8F42081120F01968430910541F703
S11328F0812F8F7771F080918B3A60918C3A70E0E0
S1132900782B812F80955BDC882319F0812F0E941E
S11329104E0981E034C1D80180E090E0FC01E95720
S1132920F54C2081213418F020812B3510F02081C2
S113293002C0208120622C932081211105C0F8015E
S1132940E80FF11D108205C001961196813491059E
S113295029F78091873AF801811105C010821DBAC8
S1132960109255380FC180818F3311F0883649F4A5
S113297083E99BE780932F39909330398DE694E077
S113298059C0813649F48EE69AE780932F399093A3
S1132990303985E291E04EC0873709F041C08DE8B7
S11329A096E780932F399093303982E190E08093B9
S11329B06F399093703921E030E02093AF39309330
S11329C0B03980914D3890E0FC01EE0FFF1FEC54BC
S11329D0F04440815181880F991FFC01E455F04473
S11329E08081918180933139909332394093713948
S11329F0509372392093B1393093B2398FE596E709
S1132A0080933339909334398AE190E08093733919
S1132A10909374392093B3393093B43984E0AFC0C0
S1132A208137A1F480E09AE780932F39909330396D
S1132A3085E590E080936F399093703981E090E060
S1132A408093AF399093B03982E099C06AE87FEB04
S1132A50C80105DC8823D1F080E00E948E090E9421
S1132A60C70889E0EDE9FFEBDE01119601900D92B4
S1132A708A95E1F78CE30E94EB078091093888235B
S1132A80E1F3CE0101960E94DA07F7CF60E97FEB0C
S1132A90C801E5DB8823D1F081E00E948E090E9401
S1132AA0C70888E0E6EAFFEBDE01119601900D927B
S1132AB08A95E1F78CE30E94EB078091093888231B
S1132AC0E1F3CE0101960E94DA07F7CF67E97FEBC5
S1132AD0C801C5DB882309F4AFCE8DE2C82E89E393
S1132AE0D82E9DE6E92E99E3F92E0DEA19E328E1A3
S1132AF0522EAA24A394B12C47E5842E4AE7942E9F
S1132B0052E0652E712C41E0BE016F5F7F4F852D31
S1132B100E946607898180958983282F22952F70CA
S1132B2030E023573B48F60120833183F701A0822C
S1132B30B182F801A082B1828F7090E083579B48E4
S1132B40F60182839383F701A282B382F801A28201
S1132B50B382F60184829582F70164827582F8015A
S1132B60A482B5825394F6E0CF0ED11C86E0E80E21
S1132B70F11C0A5F1F4FE0E25E12C5CF88E1C6DB9D
S1132B8080932C39FF24F3948F2D2996EFE00C9435
S1132B90801FABE2B0E0EFECF5E10C946B1F9924DD
S1132BA09394980E90E0FC01EE0FFF1FE35DF64C4A
S1132BB02CEC37E720833183FC01EE0FFF1FE35930
S1132BC0F64C26E130E020833183880F991FFC0105
S1132BD0E355F64C81E090E0808391830EE418E3A2
S1132BE037E5E32E3AE7F32E42E0C42ED12CAA2493
S1132BF0A394B12CF801819191918F010097C9F1AF
S1132C00BE016F5F7F4FFEDB2B8D3C8D892D90E0E5
S1132C10FC01EE0FFF1FE35DF64C4D855E8540839E
S1132C205183FC01EE0FFF1FE359F64C20833183DF
S1132C30880F991FFC01E355F64C1082118281E044
S1132C40890D90E093949394FC01EE0FFF1FE35DD4
S1132C50F64CE082F182FC01EE0FFF1FE359F64CC3
S1132C60C082D182880F991FFC01E355F64CA082E3
S1132C70B182F8E302351F0709F0BCCF8FEF890D4D
S1132C80AB96EBE00C94841FA8E0B0E0EAE4F6E134
S1132C900C94681F3C01E2DCC301E0DCF82E29E55A
S1132CA03AE720932D3930932E3984E090E08093D5
S1132CB06D3990936E3901E010E00093AD391093B3
S1132CC0AE39FF2009F454C7D3018C91883709F039
S1132CD045C080913E38E82FF0E0EE0FFF1FE3512E
S1132CE0F64C20813181232B11F0811103C084E43F
S1132CF096E713C58091333A0E946F098823B9F08F
S1132D00E0913E38E150E0933E38F0E0EE0FFF1FD3
S1132D10E351F64C6DE27AE38081918173DB80911B
S1132D20313A90E080934A3890934B382AC280918C
S1132D304F3A9091503A2091413A3091423A20933F
S1132D402F393093303980936F39909370391092C2
S1132D50AF391092B0398091553AA9C5853619F02A
S1132D608F3609F0DEC0B2E0FB12C1CF00913E38CD
S1132D7010E0F801EE0FFF1FE351F64C40E050E085
S1132D80D30111966C9180819181FCDB000F111F9E
S1132D90F801E151F64C8083918390913E38292FBC
S1132DA030E0F901EE0FFF1FE151F64C40815181F3
S1132DB04115510521F06CEE78E3CA011CC099233A
S1132DC009F4DCC6220F331FF901E551F64CD30197
S1132DD011966C91808191818EDB882309F4CEC693
S1132DE0E0913E38F0E0EE0FFF1FE551F64C6CEE3B
S1132DF078E38081918106DBD3018C918536C1F41F
S1132E008091F43880FD1DC08DE999E780932F39B6
S1132E10909330398EE190E080936F3990937039BC
S1132E2081E090E08093AF399093B03912E097C677
S1132E308F3639F48091F43881FD03C082E899E734
S1132E406CC48091F2380E946F09E0913E38882367
S1132E5009F449C0AE2FB0E0AA0FBB1FA151B64C74
S1132E608D919C91892B11F0EF5F01C0E150E093AB
S1132E703E38E0913E38F0E0EE0FFF1FE351F64C90
S1132E806DE27AE380819181BDDA8091493A909133
S1132E904A3A20913B3A30913C3A20932F3930936F
S1132EA0303980936F39909370391092AF39109202
S1132EB0B03989E59AE7809331399093323982E0C9
S1132EC090E0809371399093723981E090E080931F
S1132ED0B1399093B2398091313A90E080934A3875
S1132EE090934B3807C4F0E0EE0FFF1FE151F64C0E
S1132EF01082118280910E3990910F3920910039FE
S1132F003091013920932F393093303980936F39C0
S1132F10909370391092AF391092B039809114396E
S1132F20C6C48C3609F059C1E0913E38B1E0FB12B9
S1132F30F1C08091493A90914A3A40913B3A50917C
S1132F403C3A40932F395093303980936F399093A2
S1132F5070391092AF391092B039209331393093CF
S1132F60323982E090E08093713990937239009302
S1132F70B1391093B2398BEE99E78093333990933A
S1132F80343985E190E080937339909374390093D8
S1132F90B3391093B439F0E0EE0FFF1FE151F64C52
S1132FA01082118214E0912E07E5E02E0AE7F02E3C
S1132FB082E0C82ED12CAA24A394B12C80913E384F
S1132FC090E08C01000F111F0151164CF801408153
S1132FD05181880F991FFC01E351F64C60E0808118
S1132FE09181D0DAD8018D939C93E0913E38F0E042
S1132FF0EE0FFF1FE151F64C80819181009709F497
S11330004AC020914E3830914F388217930709F403
S113301042C0209150383091513882179307D9F12A
S11330206CEE78E3EFD98091063990910739E92D58
S1133030F0E0DF01AA0FBB1FA35DB64C2091F83866
S11330403091F9382D933C93DF01AA0FBB1FA3598C
S1133050B64C8D939C93EE0FFF1FE355F64C1082F4
S1133060118281E0890D90E093949394FC01EE0F1A
S1133070FF1FE35DF64CE082F182FC01EE0FFF1FBF
S1133080E359F64CC082D182880F991FFC01E355A5
S1133090F64CA082B18220913E38822F90E0FC0150
S11330A0EE0FFF1FE151F64C40815181452B09F091
S11330B085CF222361F1880F991FFC01E551F64C5D
S11330C06CEE78E3808191819DD92091063930910D
S11330D0073911E0190D892D90E0FC01EE0FFF1F57
S11330E0E35DF64C4091F8385091F93840835183B0
S11330F0FC01EE0FFF1FE359F64C20833183880F48
S1133100991FFC01E355F64C1082118228C51FEF6C
S1133110190D25C5EE2EF12CF701EE0FFF1FE3511B
S1133120F64C40E050E0D30111966C91808191817E
S113313029DAF701EE0FFF1FE151F64C80839183EA
S113314090913E38292F30E0F901EE0FFF1FE15135
S1133150F64C408151814115510521F06CEE78E324
S1133160CA011CC0992381F1220F331FF901E551D3
S1133170F64CD30111966C9180819181BCD9811157
S113318002C011E0ECC4E0913E38F0E0EE0FFF1F06
S1133190E551F64C6CEE78E38081918133D98091CE
S11331A00839909109392091FA383091FB382093ED
S11331B02F393093303980936F399093703910924E
S11331C0AF391092B03932CE81ED99E780932F391F
S11331D0909330398AE190E0C9C2803709F092C0F7
S11331E080914E3890914F38892B79F080915038E6
S11331F090915138892B49F087E098E780932F39D3
S11332009093303989E590E0B1C2B2E0FB126FCD02
S113321000913E3810E0F801EE0FFF1FE351F64C29
S113322040E050E0D30111966C9180819181AAD93C
S1133230000F111FF801E151F64C80839183209116
S11332403E3830E02F5F3F4F220F331FF901E35127
S1133250F64C80819181009709F438C340914E382F
S113326050914F388417950739F040915038509158
S1133270513884179507C1F482EE97E780932F396C
S11332809093303985E290E080936F399093703950
S113329081E090E08093AF399093B039F901E35124
S11332A0F64C10821182C2CD6CEE78E3ABD88091DB
S11332B0F3380E946F09882309F4E3C28091F73838
S11332C0882309F414CD80914E3890914F38E091C1
S11332D03E38F0E0EE0FFF1FE151F64C892B39F038
S11332E080819181809350389093513806C08081B9
S11332F0918180934E3890934F388091F6380E9494
S11333004E092BC08436D9F480914E3890914F38B1
S1133310009709F03CC48091503890915138892B22
S113332049F486EA97E780932F399093303986E2FF
S113333090E072CDB2E0FB1609F48BC4D8CC893688
S113334081F480914E3890914F38892B31F48091DB
S1133350503890915138892B21F381E01ADC182FD1
S1133360FEC39CE8980F923028F0873619F0823714
S113337009F0B5C28EEF8F0D823008F0B8CCE09121
S11333803E380E2F10E0D301AF0DB11D1197F80197
S1133390EE0FFF1FE351F64C40E050E06C9180814A
S11333A09181F0D8F801EE0FFF1FE151F64C8083B4
S11333B09183E0913E38F0E0EE0FFF1FE151F64CAF
S11333C080819181009709F478C2F3E0FF1260C113
S11333D0D3012C91253719F0273609F059C100E0A3
S11333E011E041E6C42E49E7D42E51E2A52EB12CBA
S11333F088248394912CE02EF12CC701880F991F07
S1133400FC01E25BF74C7F0180819181009779F0A8
S1133410D30111966C916FD8882349F061EC78E35D
S1133420F701808191810E94021202E01DC00130E7
S1133430D1F4E12FF0E0DF01AA0FBB1FA35DB64C6E
S1133440CD92DC92DF01AA0FBB1FA359B64CAD92FB
S1133450BC92EE0FFF1FE355F64C80829182D3019C
S11334601C921F5F01C000E00F5F013021F2F301E5
S11334708081882309F473C3E0913E38F0E0EE0FB5
S1133480FF1FE151F64C6CEE78E3808191810E943C
S11334900212E0900A39F0900B39F1E0EF16F104D2
S11334A009F089C093012E5F3F4F40E061E08091B5
S11334B0FC389091FD380E94B807D30112963C91D4
S11334C0313309F04CC32091CC3851EE520F41E016
S11334D0410F812F90E0FC01EE0FFF1FE35DF64CDE
S11334E05430B0F021E039E720833183FC01EE0F42
S11334F0FF1FE359F64C2AE130E020833183880F23
S1133500991FFC01E355F64CE082F182142F27C386
S113351060E575E760837183FC01EE0FFF1FE359DB
S1133520F64C62EB70E060837183880F991FFC0195
S1133530E355F64CE082F182842F90E0FC01EE0F1B
S1133540FF1FE35DF64C49E55AE740835183FC01D4
S1133550EE0FFF1FE359F64C42E050E040835183E5
S1133560880F991FFC01E355F64CE082F18282E05A
S1133570810F90E01D5FFC01EE0FFF1FE35DF64C31
S11335804DEA58E740835183FC01EE0FFF1FE359D6
S1133590F64C42E150E040835183880F991FFC01AF
S11335A0E355F64CE082F18230931C3920931D39A7
S11335B010921E39D4C29091F5388091CC3898136A
S11335C02EC0209112393091133901E0010F812F5F
S11335D090E0FC01EE0FFF1FE35DF64C40910439CF
S11335E05091053940835183FC01EE0FFF1FE359CD
S11335F0F64C20833183880F991FFC01E355F64C68
S1133600108211828091163990E080934A38909309
S11336104B388091F6380E944E09102FA0C2F30156
S11336208081853799F4812F90E0FC01EE0FFF1F14
S1133630E35DF64C21E039E720833183FC01EE0F92
S1133640FF1FE359F64C2AE130E015C0873609F034
S113365086C2812F90E0FC01EE0FFF1FE35DF64C64
S11336602FE936E720833183FC01EE0FFF1FE35976
S1133670F64C28E230E020833183880F991FFC0147
S1133680E355F64C81E090E0808391831F5F67C22D
S11336906CEE78E30E940212D3018C91843761F5B9
S11336A08091F43883FD43C08BE199E780932F39EF
S11336B0909330398EE190E080936F399093703914
S11336C081E090E08093AF399093B03980910639CE
S11336D0909107392091F8383091F9382093313995
S11336E03093323980937139909372391092B13991
S11336F01092B23913E033C2853739F48091F4382B
S113370084FD15C081E099E73BC2823769F480915A
S1133710F43885FD0CC086EE98E780932F3990939A
S113372030398BE190E078CB873609F4E0CA009118
S11337300A3910910B390130110509F593012E5FF7
S11337403F4F40E061E08091FC389091FD380E9449
S1133750B807F3018281813309F013CD85E295E73F
S113376080932F39909330398BE290E080936F39B6
S1133770909370390093AF391093B03957CB01153A
S1133780110509F458C08091FC389091FD3880935C
S11337902F399093303900936F3910937039109208
S11337A0AF391092B03989E59AE780933139909313
S11337B0323982E090E0809371399093723981E0DC
S11337C090E08093B1399093B2392DEA38E7209391
S11337D033393093343922E130E020937339309314
S11337E074398093B3399093B43980910C399091A2
S11337F00D39409730F08FE090E080930C3990932E
S11338000D392CE139E340E060910C398091FE38A8
S11338109091FF380E94B8076CE179E380910C39EC
S11338200E941811E0910C39F0910D39E45EF64CC8
S1133830108214E094C18091F3380E946F098823A8
S113384001F180911239909113392091043930910A
S1133850053920932F393093303980936F39909301
S113386070391092AF391092B0398091163990E0C6
S113387080934A3890934B388091F6380E944E09D1
S1133880D5CA809110399091113920910239309123
S1133890033920932F393093303980936F399093C3
S11338A070391092AF391092B0398091153990E087
S11338B080934A3890934B38B9CAD3018C9184379A
S11338C011F0873619F489E399E702C08DE499E78A
S11338D080932F399093303984E190E09DCA8136EA
S11338E009F04FCC80911B39823008F4C7C0F30132
S11338F02181222309F4AFC0CE0101967C0188E026
S1133900D7011D928A95E9F72053218332813153DF
S113391032838381813611F481E00CC0853619F439
S1133920F301138208C0863619F483E0838303C04D
S113393082E0F301838321FD04C080E090E0DC0198
S113394004C080E090E0A0E1B0E020FF03C09F5FEE
S1133950AF4FBF4FF301238121FD119620FF03C018
S11339604096A11DB11D31FF03C0905FAF4FBF4F03
S113397030FF03C00196A11DB11D40914D3824E0D4
S113398030E0241B310904C0880F991FAA1FBB1FF4
S11339902A95D2F728EC34E720932F393093303925
S11339A020E230E020936F393093703921E030E029
S11339B02093AF393093B0394DE954E7409331390E
S11339C05093323942E050E0409371395093723948
S11339D02093B1393093B23907E0F701E00FF11DBC
S11339E0282F2F70208344E0B695A7959795879547
S11339F04A95D1F70097A105B10549F42DE2C22EED
S1133A0029E3D22E13E0AA24A394B12C02C00150BE
S1133A10E4CFB2E0CB0ED11C083008F09EC01F5F8B
S1133A20F701E00FF11D808190E083579B48D60198
S1133A3014968D939C931597F601EC5BFF4FA0822F
S1133A40B182E05CFF4FA082B1828091F6380E947F
S1133A504E090F5FDECF88EE94E780932F39909361
S1133A6030398DE390E080936F399093703981E021
S1133A7090E08093AF399093B0396EC0E0913E38B6
S1133A80F0E0EE0FFF1FE151F64C6CEE78E381306D
S1133A9009F046C0808191810E9402128091F3381E
S1133AA00E946F09882301F1809112399091133992
S1133AB0209104393091053920932F3930933039CE
S1133AC080936F39909370391092AF391092B03956
S1133AD08091163990E080934A3890934B388091C6
S1133AE0F6380E944E0938C08091103990911139EE
S1133AF0209102393091033920932F393093303992
S1133B0080936F39909370391092AF391092B03915
S1133B108091153990E080934A3890934B381CC0BB
S1133B20808191810E94021280E698E780932F3968
S1133B30909330398DE490E080936F39909370398D
S1133B4081E090E08093AF399093B0390E945B0E8E
S1133B508093193990931A3912E010921C3980918C
S1133B601C39882319F010932C398BC0812F01C084
S1133B7081E00E94861180932C3983C081ED99E7FE
S1133B8080932F39909330398AE190E045C9F2E06F
S1133B90FF12ADC8F30161810E947B12882309F4EE
S1133BA058C000E010E0000F111F025B174C6CEED0
S1133BB078E3D8018D919C910E94021286E997E7DF
S1133BC080932F399093303980E190E080936F395E
S1133BD09093703981E090E08093AF399093B0393D
S1133BE020910639309107394091F8385091F938CD
S1133BF0409331395093323920937139309372396B
S1133C001092B1391092B23929E53AE72093333949
S1133C103093343922E030E020937339309374398F
S1133C208093B3399093B43929E537E72093353934
S1133C30309336392DE330E020937539309376395B
S1133C408093B5399093B639F8011082118215E04A
S1133C5086CF8091503890915138009749F0F30104
S1133C6061810E947B12882319F001E010E09BCF50
S1133C7081E699E780932F399093303981E290E07F
S1133C80CBC8F3011082109255381DBA80E02896F3
S1133C90EEE037C1CF938091193990911A39892B6D
S1133CA009F10E945B0E2091193930911A3982175B
S1133CB0930708F4945CAC01421B530B9A014B30FC
S1133CC0510530F01092193910921A392AE030E077
S1133CD080914C38811106C065E0621B8AE0821B2A
S1133CE00E946A0A0E945313882311F0C1E018C08D
S1133CF00E94A913C82F8111F9CF8091193990918D
S1133D001A39892B69F480E898E30E94E913C82FD3
S1133D10811105C080E898E30E94441601C0C2E006
S1133D208C2FCF9108950E9498030E94CA09809114
S1133D30733A81608093733A0E94820E882321F043
S1133D4081E00E948E09FFCFC0914ABFD0E0C852E3
S1133D50D54C1FEF08E00E94740C8823E1F3809196
S1133D600838809307380E941A08809308388F3FD8
S1133D70A9F090910C38988320914A3830914B38AF
S1133D80207E232B61F420E2829FC0011124815CF8
S1133D909E4F80934A3890934B3801C0188280918B
S1133DA052388150809352388091A000823119F4A6
S1133DB00E940B0802C00E94FC0780914C388111BC
S1133DC019C080917D3A811115C08AE70E946F095C
S1133DD0882381F08BE70E946F09882359F08CE7D0
S1133DE00E946F09882331F08FE70E946F098111C7
S1133DF00E94BB0A0E94E40A4DDF0E949B020E94BB
S1133E009E010E94630F0E948D000E94C70880914A
S1133E10D13A9091D23A0A9718F484E70E944E0955
S1133E208091D13A9091D23A8536910518F084EF79
S1133E300E944E0920910A3830910B3880910A383B
S1133E4090910B3846E0369527954A95E1F7821B09
S1133E50930B80930A3890930B388091D13A9091C8
S1133E60D23A20910A3830910B3854E096958795D0
S1133E705A95E1F7820F931F80930A3890930B3879
S1133E8080910A3890910B388115904290F480917A
S1133E900A3890910B3825E0969587952A95E1F795
S1133EA080930C3880910C38883028F400930C38B7
S1133EB002C010930C380E94080A4DCFEE0FFF1F6A
S1133EC00590F491E02D09942F923F924F925F92C6
S1133ED06F927F928F929F92AF92BF92CF92DF9216
S1133EE0EF92FF920F931F93CF93DF93CDB7DEB77B
S1133EF0CA1BDB0BCDBFDEBF09942A8839884888EA
S1133F005F846E847D848C849B84AA84B984C884F1
S1133F10DF80EE80FD800C811B81AA81B981CE0FE8
S1113F20D11DCDBFDEBFED010895F894FFCF93
S1133F2E2D7D39575C79514234617D593B655B4433
S1133F3E0100000201020001010300030D0B0C0A33
S1133F4E020105000304242221230820092514124A
S1133F5E111310151C1A191B181D74BFFA541C9634
S1133F6EB2261EEBD68BC0C20A6101010201020207
S1133F7E0102020102020202020101026964647179
S1133F8E6400696B696C6C750063686561740047E5
S1133F9E6F7463686121200052657365742120007B
S1133FAE877684767E767976060003000600050011
S1133FBEFF000149384938FFFF010020FF01FF01CE
S1133FCE000640C8F08040201000FFC08040010071
S1133FDEFF010001FF8080C0FF40FFC0804001C090
S1133FEE01408000FF0103070F1F3F7FFF05FF0005
S9030000FC
