S00E00004953525F494F2E7372656331
S11300003DC0000058C0000056C0000054C00000AD
S113001052C0000050C000003DC4000089C400006C
S11300208EC2000048C0000046C0000044C000006A
S113003042C00000D5C2000006C300003CC000005E
S11300403AC0000038C0000036C0000034C00000D0
S1130050ABC3000030C00000D5C300002CC00000BA
S11300602AC0000028C0000026C000003FC30000D2
S11300707FC3000020C000001EC0000011241FBE6A
S1130080CFEFCDBFDFE3DEBF18E3A0E0B8E3ECEDD4
S1130090F5E202C005900D92A039B107D9F72BE320
S11300A0A0E9B8E301C01D92AB35B207E1F70E94A5
S11300B02A120C94CD12A4CF81E080932204E6E2AC
S11300C0F4E0808310923004A1E2B4E092E09C93C7
S11300D0908310923104E0E1F8E09DE2968398E089
S11300E0948383838C938581816085838581846CEB
S11300F08583089580911408886080931408109271
S1130100130882E08093220499E021E081E02093A7
S1130110210430E13A95F1F700C02093220430E144
S11301203A95F1F700C0915089F728E0209314081C
S11301308093130892E090932104909115089160A4
S11301409093150890911508946C9093150820933A
S1130150140880931308809321048091150881600A
S11301608093150880911508846C80931508089570
S1130170282F90911508906C90931508909115086C
S1130180892F847092FD03C020931708089584E09A
S113019008958CE080938E3A8091150887FD0AC0FB
S11301A08091150886FD06C080918E3A8111F4CFA6
S11301B08FEF089580911508806C809315088091C5
S11301C0150882FD09C08091150883FD07C0809140
S11301D0150882958170089584E0089582E0089559
S11301E0FC018CE080938E3A90911508892F8370DE
S11301F0823011F088E008959091150897FD06C0AB
S113020090918E3A9111F8CF8FEF0895909115083F
S1130210906C909315089091150892FD1EC09091D2
S1130220150893FD1DC090911508892F807194FDC8
S113023016C090911408611102C09B7F01C09460A4
S113024090931408909118089083611109C09091BB
S11302501408926090931408089584E0089581E04E
S11302600895FC018CE080938E3A90911508937068
S11302709230B1F48081809318088091150886FD2E
S113028006C080918E3A8111F8CF8FEF0895809146
S1130290150882FD07C08091150882958170089524
S11302A088E0089584E00895E0E1F8E084818360C3
S11302B084830895CF92DF92FF920F931F93CF937D
S11302C0DF936B01F42EE901182F110F812F50DFFA
S11302D081112BC05EDF813019F4E6DF81E027C095
S11302E0811123C0FF2049F0C601BBDF81111DC06D
S11302F08FEFC81AD80AFA94F5CF013408F000E455
S11303001F5F10931708023040F060E0CE0168DFF1
S113031081110BC021960150F6CF61E0CE0160DF60
S1130320811103C0C1DF80E002C0E4DE8FEFDF9102
S1130330CF911F910F91FF90DF90CF900895CF93AD
S1130340DF93F89488ED84BFC1E0C09361008AE430
S1130350809300048CE7809320049FE390934004EF
S1130360809153048068809353048091540480687E
S1130370809354048091550480688093550480913F
S113038033048068809333048091340480688093BC
S1130390340480913504806880933504C09301024D
S11303A0D2E0D09305042BE531E020930808309384
S11303B0090880EA8093050880EC8093060883E0AE
S11303C0809307081CBA1DBA1EBA1FBAC093030A49
S11303D088E08093000A9093020287E78093010AE1
S11303E0C0930A0A8BE08093050A8091000A816019
S11303F08093000A85E08093400A1092410A8FEFAF
S113040091E080934C0A90934D0A1092450AC09350
S1130410500A1092510A8BE893E080935C0A9093FF
S11304205D0AC093550A48DE82E18093A00080E211
S11304308093A200C093A10086E08093000684E428
S1130440809302068EE180930606C0930A0680918B
S11304500006816080930006C0930806109240064F
S1130460D093410682E58093420684E0809345065A
S113047080934606C0934A0680914006816080932B
S11304804006C093480680E48093A00680E88093E9
S1130490A1068091A00681608093A006809141010D
S11304A080FDFCCF80E3809340011092470180914E
S11304B0410182FDFCCF80E098E780934A0190934C
S11304C04B01809148019091490160914A017091DA
S11304D04B0182960E94B9128093383B9093393B2A
S11304E08091410183FDFCCF8091383B9091393B51
S11304F080934C0190934D0183E08093420181E00D
S11305008093520188E0809350018091410180FDE5
S1130510FCCF809140018160809340018091500123
S11305208160809350011092A33A83EA9AE3809306
S1130530E73A9093E83A7894DF91CF9108951F9227
S11305400F920FB60F9211248F939F93AF93BF9383
S1130550EF93FF9387E08093460484E4809326041A
S1130560ECB388E0E89FF0011124E25FF44CA8E2C8
S1130570BAE096E081918D939A95E1F78BE08093B0
S1130580050A8CB3833058F48CB391E001C0990F01
S11305908A95EAF799B98CB383958CBB0AC08CB35E
S11305A0833021F42A9A83958CBB03C02E9A882722
S11305B08CBB80918E3A882329F080918E3A8150A9
S11305C080938E3A8FEF80930B0AFF91EF91BF9146
S11305D0AF919F918F910F900FBE0F901F90189520
S11305E01F920F920FB60F9211248F939F93EF9344
S11305F0FF93E091E73AF091E83A8081882391F003
S11306008081809302088091E73A9091E83A0196BC
S11306108093E73A9093E83A80910508806280934A
S1130620050805C081E0809304381092450A81E0F2
S11306308093460AFF91EF919F918F910F900FBE87
S11306400F901F9018951F920F920FB60F921124BE
S11306502F933F934F938F939F93EF93FF93E09147
S11306600238F09103388081811108C080910038EC
S1130670909101388093023890930338E0910238C6
S1130680F091033880818823E1F020814091E43A9D
S113069030E02F573109429FC001439F900D112430
S11306A0892F990F990B80589F4F8093A1068091B1
S11306B0023890910338019680930238909303385E
S11306C006C080E88093A10681E08093363B81E0F8
S11306D08093560AFF91EF919F918F914F913F9193
S11306E02F910F900FBE0F901F9018951F920F928D
S11306F00FB60F9211248F93EF93FF9380919C3840
S113070081112BC0EDB3F0E080910008ED55F54C5C
S11307108083EDB3F0E0ED55F54C808180930208C1
S1130720EDB3F0E0ED55F54C80818A3039F0EDB34E
S1130730F0E0ED55F54C80818D3049F4EDB3F0E0F7
S1130740ED55F54C108281E080939C3806C08DB342
S1130750803418F48DB38F5F8DBB80E880930408D8
S1130760FF91EF918F910F900FBE0F901F901895EE
S11307701F920F920FB60F9211248F93EF93FF9352
S113078010924A0A10924B0A81E08093450AE5E0F0
S1130790F8E080818F7D8083FF91EF918F910F909E
S11307A00FBE0F901F9018951F920F920FB60F92C5
S11307B011248F93EF93FF9380919038811115C08A
S11307C08EB38F5F8F718EBB809106068E3129F4B4
S11307D0809110068093373B0AC0EEB3F0E080911D
S11307E01006E251F54C808302C01092903881E0EB
S11307F080930B06FF91EF918F910F900FBE0F9096
S11308001F9018951F920F920FB60F9211248F9379
S11308109F938091460681110AC080915006909161
S113082051068093EB3A9093EC3A81E010C08091AA
S11308304606813079F488E080930604809150065E
S1130840909151068093E93A9093EA3A84E0809338
S1130850460610C080915006909151068093E53A67
S11308609093E63A8FB38F3029F41092460688E0CD
S1130870809305048FB390E001968F7099278FBB06
S113088081E080934B069F918F910F900FBE0F9044
S11308901F9018951F920F920FB60F9211245F9319
S11308A06F937F938F939F93AF93BF9380914301F3
S11308B081FF26C080919A388F3F29F080919A3821
S11308C08F5F80939A38809148019091490160919B
S11308D04A0170914B0182960E94B9128093383B71
S11308E09093393B8091410183FDFCCF8091383B4B
S11308F09091393B80934C0190934D0182E00AC062
S113090080919B388F3F29F080919B388F5F809333
S11309109B3881E080934301BF91AF919F918F9168
S11309207F916F915F910F900FBE0F901F9018955C
S11309301F920F920FB60F9211248F9381E0809330
S11309404806809353018F910F900FBE0F901F9014
S113095018959091021091FDFCCFFB01480F84176C
S113096039F0A82FB0E0BC5E9C9191938F5FF7CFD4
S113097008959DE924E033E0442309F150910210E5
S113098051FDFCCF94BF20930010E82F582F5F71C6
S11309908F5F6F5F7F4FDB011197AC91F0E0FC5EDE
S11309A0A083415019F0E82F5F3181F794BF309351
S11309B000105091021052FFDFCF81E0089580E0D3
S11309C0089520910438222359F08093E73A9093B4
S11309D0E83A1092043881E08093450A80E0089553
S11309E081E00895282F811101C021E08FEF90E06C
S11309F0821B9109982F882781509F4F80934C0A1E
S1130A0090934D0A08952091E53A3091E63A94E0A6
S1130A10369527959A95E1F733272C353105D0F48F
S1130A2023353105A8F52233310550F42D32310533
S1130A3058F5235231092530310580F59CE02FC04B
S1130A402733310518F12E5331092730310530F59C
S1130A5096E025C02A38310550F429373105D0F401
S1130A60235631092B303105C8F493E018C0223ADB
S1130A703105A0F02B3B310578F0205F310920319E
S1130A80310560F490E00BC099E009C098E007C01C
S1130A9094E005C092E003C091E001C09FE0282FDC
S1130AA02F70921306C0982F907F903F39F0805F8B
S1130AB00895992311F0892F08958FEF0895809157
S1130AC08538909186389C01322F22273295330F36
S1130AD0307E822793279C01232F33272695822754
S1130AE093279C013695322F222737952795822705
S1130AF0932780938538909386380895DF92EF92F8
S1130B00FF920F931F93CF93DF937B018A01C091D0
S1130B105C0AD0915D0AE82FF0E03197E770FF2777
S1130B20E957F74CD080CBDF8D21C80FD11DC7DF2B
S1130B308D21C81BD1090C171D0708F4E801C70152
S1130B40EC16FD0608F4CE0180935C0A90935D0ACE
S1130B50DF91CF911F910F91FF90EF90DF90089557
S1130B600F931F93CF93DF93C82F042F122FE62FD9
S1130B70F0E03197E770FF27E957F74CD0819FDF0A
S1130B808D23C80F9CDF8D23C81B8C2F112341F0AC
S1130B909C2F1C1708F4912F802F091708F4892F14
S1130BA0DF91CF911F910F910895CF92DF92FF9221
S1130BB00F931F93CF93DF93CDB7DEB76497CDBF69
S1130BC0DEBF44E1BE016F5F7F4F80E0C2DE8FE88D
S1130BD0C82E8AE3D82E8E010F5F1F4FF12CF80127
S1130BE081918F01F6019081981308C0F394FFEF6F
S1130BF0CF1ADF0A80E1F812F2CF08C041E0B60153
S1130C008F2DB7DE882391F391E036C0209196387A
S1130C103091973830939F3A2093A03A8091983836
S1130C20909199389093A13A8093A23A89899A89AC
S1130C309827892798272817390769F48B899C896D
S1130C409827892798272091983830919938281720
S1130C50390749F410C042E06FE97AE380E189DEA4
S1130C60882361F3D1CF42E061EA7AE382E181DE55
S1130C7091E0811101C090E0892F6496CDBFDEBF61
S1130C80DF91CF911F910F91FF90DF90CF90089546
S1130C90E82FEF77E695E695E695F0E0E157F54C19
S1130CA0208130E08770A90102C0559547958A9547
S1130CB0E2F7CA0181700895E82FEF77E695E6958B
S1130CC0E695282F2770F0E0E157F54C81E090E09D
S1130CD001C0880F2A95EAF7662319F09081892BC1
S1130CE003C080959081892380830895E3E0F1E136
S1130CF080E09191890FED3091E1F907D1F783708C
S1130D008F5F809395380895EFE8FAE311928AE3B0
S1130D10E33AF807D9F7EADF811104C080919C3ADD
S1130D20806405C0813031F480919C3A806880935E
S1130D309C3A0DC0823021F480919D3A816005C0B7
S1130D40833029F480919D3A826080939D3A80910A
S1130D508F3A816080938F3A08950F931F93CF93B6
S1130D60DF9380919338909194388827892B09F0E8
S1130D7065C08091933890919438807E9927892B0F
S1130D8031F481E998E3809300389093013880919D
S1130D9093389091943880919338909194388091BD
S1130DA0933890919438807E992780369105D1F5B7
S1130DB010920B3885E098E38093003890930138C3
S1130DC08C01C1E0D3E08C2F6D2F0E94AD129923CA
S1130DD039F020E041E065E080E8C2DEF80181837B
S1130DE0CF5F0F5F1F4FC63071F780919A38882309
S1130DF0C9F040E054E060E872E085E07FDE809175
S1130E00E43A20EA40E162E0ABDE8093E43A20E990
S1130E1040E762E080910538A3DE80930538809531
S1130E2080930838809193389091943880919338C6
S1130E30909194388091933890919438DF91CF9128
S1130E401F910F91089580E00895F9019C012E1BD4
S1130E503F0B88E0489FA001112444535A45662360
S1130E6069F0DF01A20FB31FA770BB27A40FB51F42
S1130E7080819C91982791936150F1CF0895262FFA
S1130E80FB0135E59E2F921B981728F490819295CB
S1130E9093279193F7CF0895AF92BF92CF92DF92A9
S1130EA0EF92FF920F931F93CF93DF9300D0CDB7B0
S1130EB0DEB7D62EC42E59017C01E894F7F8F982E6
S1130EC0EA82062F42E0BE016F5F7F4F80E5F2D9D0
S1130ED0182F811105C095014C2D6D2DC701B5DF6B
S1130EE0812F0F900F90DF91CF911F910F91FF9061
S1130EF0EF90DF90CF90BF90AF9008958F5F8830D0
S1130F0030F4E82FF0E0EB58F54C1082F7CF089559
S1130F10AC0190E0E92FF0E0DA01AE0FBF1F3C9185
S1130F20E60FF71F311105C081E09081992349F044
S1130F3007C020812223C1F3321302C09F5FEACF8E
S1130F4080E008956115710551F1EDE7FAE3A5E735
S1130F50BAE320E03FEF6F3F710569F060F08193E1
S1130F6091933D9381509F4F6F5F71092F5F27309D
S1130F7091F781E00895E22FF0E0DF01AA0FBB1F93
S1130F80A358B54C8D939C93EB58F54CCB016FEF64
S1130F9070E00E94B91280834093733A05C01092A6
S1130FA07D3A10927E3A20E0822FA8DF1092743AA4
S1130FB080E00895CF93DF93282F30E0F901EE0FFE
S1130FC0FF1FE85BF64CABE5BAE7A083B183F901F8
S1130FD0EE0FFF1FE857F64C62E070E06083718308
S1130FE0220F331FF901E853F64C41E050E04083EF
S1130FF0518321E0280F30E0F901EE0FFF1FE85B79
S1131000F64CC4E6DAE7C083D183F901EE0FFF1F83
S1131010E857F64CCAE0D0E0C083D183220F331FD7
S1131020F901E853F64C40835183E2E0E80FF0E025
S1131030EE0FFF1FE85BF64C20EF3FEF2083318378
S113104023E0280F30E0F901EE0FFF1FE85BF64CB8
S1131050A083B183F901EE0FFF1FE857F64C6083BC
S11310607183220F331FF901E853F64C40835183F7
S113107024E0280F30E0F901EE0FFF1FE85BF64C87
S1131080A7E5BAE7A083B183F901EE0FFF1FE85784
S1131090F64C60837183220F331FF901E853F64C39
S11310A0408351838B5FDF91CF910895AF92BF92BC
S11310B0CF92DF92EF92FF920F931F93CF93DF9320
S11310C0CDB7DEB72C97CDBFDEBF7C018B019E016F
S11310D02F5F3F4F40E06CE08096DEDE89819A818D
S11310E09827892798278096F801808391838B819C
S11310F09C81982789279827809682839383DE0191
S11311001596349668012CE0C20ED11C8D91819302
S1131110EC15FD05D9F78CE2E80EF11C580110E03E
S11311209E012F5F3F4F40E063E0C701B5DE898138
S11311309A81982789279827143050F09C012150D0
S11311403109F601268737872B81F50124A303C0D3
S1131150F60186879787F2E0EF0EF11CF601E19223
S1131160F1926F01E80EF91E1F5FFFEFAF1ABF0A7D
S11311701730B1F62C96CDBFDEBFDF91CF911F9112
S11311800F91FF90EF90DF90CF90BF90AF900895B4
S1131190982F8F7797FF02C060E001C061E08CCD8B
S11311A0CF93C82F8F7774DD2C2F221F2227221F65
S11311B091E0811101C090E0822F8927CF91089599
S11311C0CF92DF92EF92FF920F931F93CF93DF930F
S11311D0CDB7DEB7A097CDBFDEBFC62E7C0120E21F
S11311E0E20EF11C9E012F5F3F4F40E062E08C96BF
S11311F053DE1A81D12C112351F1012F113208F041
S113120000E29E012F5F3F4F40E0602FC7010E9622
S113121043DEFE01319680E0DD2061F0E1E0F0E0A4
S1131220EC0FFD1FE80FF11D9081906281E09C118D
S11312300EC00EC09191DD24D3949B3509F0D12CBE
S11312408F5F801748F3E00EF11C101BD4CF80E0B1
S1131250A096CDBFDEBFDF91CF911F910F91FF907C
S1131260EF90DF90CF900895AF92BF92DF92EF920C
S1131270FF920F931F93CF93DF9300D000D0CDB78D
S1131280DEB7D62E5A019E012F5F3F4F40E064E047
S1131290809602DEE980FA80FE24EF24FE240B818E
S11312A01C811027012710270E151F0530F5A016E5
S11312B0B10658F09E012F5F3F4F40E062E0C80145
S11312C08096EADD09811A81ECCF9E012F5F3F4FA2
S11312D040E061E0C8018596DFDD8981811103C0AA
S11312E0D11005C00DC05CDF8111FACFE3CF6D2DA5
S11312F0C80166DF8823F1F203C080E090E001C0FA
S1131300C8012496CDBFDEBFDF91CF911F910F910D
S1131310FF90EF90DF90BF90AF9008959FE9980FF2
S11313209A3138F090ED980F81E09A3018F080E00F
S1131330089581E008950F931F93CF93DF938C0159
S1131340D0E0C0E0F801ED0FF11D20818C2F90E07A
S1131350222351F0D801A80FB91F2C938081DEDF1E
S11313608111CF5FDF5FEECFF801E80FF91F108224
S11313708C2FDF91CF911F910F910895CF932091DE
S1131380743A283008F047C080910438882309F45F
S113139042C0822F90E0FC01EB58F54CE081E11152
S11313A006C01092353988E08093743A2CC050916D
S11313B035395E1750F5CE2FC51BC13208F0C0E297
S11313C0880F991FFC01E358F54C808191812AE331
S11313D03BE34091733A6C2F850F911D5DDD809145
S11313E035398C0F80933539EC2FF0E0E65CF44C02
S11313F0108280913A3B811103C08BED80933A3B7C
S11314008AE39BE3DEDA81E00BC0109235392F5F6B
S11314102093743AF8CF9091043881E0911180E0E0
S1131420CF910895CF93DF93C0914739CC23E9F14D
S1131430C150C0934739D09134392D2F30E0F90190
S1131440EE0FFF1FE85BF64C80819181803F4FEFE8
S1131450940751F46091623A7091633A40E080914C
S1131460543A9091553A0DC0D901AA0FBB1FA85305
S1131470B64C220F331FF901E857F64C6081718195
S11314804C9160DDDF5FD0933439C1110DC0809180
S11314904C3A90E080939338909394381DBA10920C
S11314A09C381092343901C0C1E08C2FDF91CF9168
S11314B00895EF92FF920F931F93CF93DF93CDB7CD
S11314C0DEB72A97CDBFDEBF8C0180918F388F3F66
S11314D009F057C044E16FE87AE380E03ADA8EE637
S11314E0F82EE12C8F2DD4DBE80EF39482E7F8126A
S11314F0F9CFE1E0EE1611F007DC01C0F7DB8091D3
S11315009F3A9091A03A98278927982780939638F4
S1131510909397388091A13A9091A23A982789277D
S1131520982780939838909399383FDB68E47AE35E
S11315308091083A9091093AB9DD10928F388091E0
S11315409338909194388F3F910509F0D0F48091AD
S11315504C3A90E020919338309194388217930755
S113156081F080939338909394388091933890913C
S11315709438807E992721E0892B09F420E0209378
S1131580923880919C38882309F403C180913739BB
S1131590882319F11092363981E6F801808367E3D4
S11315A079E383EA9AE3B4DC882341F081E0809311
S11315B0363910923739F801118208C090913739C1
S11315C0913331F490913839911102C080E0E2C036
S11315D010923739F8011182DDC0D80180E090E023
S11315E0FC01ED55F54C2081213418F020812B3578
S11315F010F0208102C0208120622C9320812111CF
S113160005C0F801E80FF11D108205C0019611967E
S11316108134910529F78091A33AF801811105C01D
S113162010821DBA10929C38B4C080818F3311F09F
S1131630883649F483E99BE7809348399093493984
S11316408DE694E079C0813649F48EE69AE780937A
S113165048399093493985E291E06EC0873709F0A3
S113166061C08BEC96E7809348399093493982E1C5
S113167090E0809388399093893981E090E0809359
S1131680C8399093C93920919538213019F425EC43
S113169036E70FC0223049F422EC36E720934A396A
S11316A030934B3923E030E01EC0233049F42CEB57
S11316B036E720934A3930934B3926E030E013C0A3
S11316C0243049F427EB36E720934A3930934B39D9
S11316D025E030E008C020E436E720934A3930930F
S11316E04B3922E430E020938A3930938B3980934C
S11316F0CA399093CB398DE996E780934C3990930E
S11317004D398AE190E080938C3990938D3981E052
S113171090E08093CC399093CD3983E04BDC809377
S1131720473937C0813799F483E09AE78093483981
S11317309093493984E590E080938839909389396E
S113174081E090E08093C8399093C939E7CF6CEB7E
S113175075EAC801DDDB882309F438CF1EE660E0B2
S1131760812FAADA1F5F1237D1F71FDA8AE0E2EC81
S1131770F5EADE01119601900D928A95E1F78CE36A
S113178031D9809104388823E1F3CE01019619D927
S1131790F8CF81E02A96CDBFDEBFDF91CF911F91B4
S11317A00F91FF90EF9008958F929F92AF92BF9206
S11317B0CF92DF92EF92FF920F931F93CF93DF9319
S11317C08C01B9DDC801B7DDD82F882309F419C607
S11317D0D8018C91883729F580918F38E82FF0E073
S11317E0EE0FFF1FE85FF54C20813181232B11F0B0
S11317F0811103C082E896E779C080914E3AD0DC2B
S1131800882331F0E0918F38E150E0938F388DC018
S113181080916A3A90916B3A20915C3A30915D3AAA
S1131820E4C1853619F08F3609F09AC0D23011F729
S1131830C0918F38D0E0FE01EE0FFF1FE85FF54C3A
S113184040E050E0D80111966C91808191810CDDCB
S1131850CC0FDD1FC65FD54C8883998390918F3858
S1131860292F30E0F901EE0FFF1FE65FF54C4081B0
S113187051814115510521F069E079E3CA011CC089
S1131880992309F432C5220F331FF901EA5FF54C9D
S1131890D80111966C918081918192DC882309F49E
S11318A024C5E0918F38F0E0EE0FFF1FEA5FF54C9E
S11318B069E079E380819181F9DBF80180818536E3
S11318C069F48091113980FD18C080EA99E780930A
S11318D04839909349398EE190E088C58F3669F490
S11318E08091113981FD09C085E899E780934839D1
S11318F0909349398BE190E079C580910F3950DCA0
S1131900E0918F388823E1F0AE2FB0E0AA0FBB1F1F
S1131910A65FB54C8D919C91892B11F0EF5F01C0AE
S1131920E150E0938F38E0918F38F0E0EE0FFF1F25
S1131930E85FF54C68E47AE380819181B7DBEAC320
S1131940F0E0EE0FFF1FE65FF54C108211828091EC
S11319502B3990912C3920911D3930911E3945C174
S11319608C3609F04FC1C0918F38D13009F0F2C0E4
S11319708091643A9091653A2091563A3091573A61
S11319802093483930934939809388399093893921
S11319901092C8391092C9398BE59AE780934A3975
S11319A090934B3982E090E080938A3990938B39FD
S11319B081E090E08093CA399093CB392EEE39E7D9
S11319C020934C3930934D3925E130E020938C3904
S11319D030938D398093CC399093CD39D0E0CC0FAE
S11319E0DD1FC65FD54C18821982D3E0C9E5EC2E01
S11319F0CAE7FC2E82E0C82ED12CAA24A394B12CD1
S1131A0080918F3890E09C01220F331FF901E65F2B
S1131A10F54C4F0140815181F901E85FF54C60E0DC
S1131A208081918121DCD4018D939C93E0918F3846
S1131A30F0E0EE0FFF1FE65FF54C80819181009787
S1131A4009F449C02091963830919738821793074A
S1131A5009F441C02091983830919938821793073E
S1131A60D1F169E079E322DB809123399091243923
S1131A70ED2FF0E0DF01AA0FBB1FA85BB64C20914D
S1131A801539309116392D933C93DF01AA0FBB1FF2
S1131A90A857B64C8D939C93EE0FFF1FE853F64C5A
S1131AA01082118281E08D0F90E0DE5FFC01EE0F69
S1131AB0FF1FE85BF64CE082F182FC01EE0FFF1F92
S1131AC0E857F64CC082D182880F991FFC01E85375
S1131AD0F64CA082B18220918F38822F90E0FC01D5
S1131AE0EE0FFF1FE65FF54C40815181452B09F055
S1131AF087CF222361F1880F991FFC01EA5FF54C1F
S1131B0069E079E380819181D1DA209123393091A0
S1131B102439C1E0CD0F8D2F90E0FC01EE0FFF1FA3
S1131B20E85BF64C40911539509116394083518346
S1131B30FC01EE0FFF1FE857F64C20833183880F1A
S1131B40991FFC01E853F64C10821182BCC3CFEFFD
S1131B50CD0FB9C3D0E0FE01EE0FFF1FE85FF54CD7
S1131B6040E050E0D80111966C91808191817CDB3A
S1131B70CC0FDD1FC65FD54C8883998390918F3835
S1131B80292F30E0F901EE0FFF1FE65FF54C40818D
S1131B9051814115510521F069E079E3CA011CC066
S1131BA0992309F4A2C3220F331FF901EA5FF54C0C
S1131BB0D80111966C918081918102DB882309F40C
S1131BC0A9C2E0918F38F0E0EE0FFF1FEA5FF54CF9
S1131BD069E079E38081918169DA80912539909176
S1131BE02639209117393091183920934839309388
S1131BF0493980938839909389391092C839109261
S1131C00C93960C3803709F08FC0809196389091AC
S1131C109738892B79F08091983890919938892B4D
S1131C2049F085E498E7809348399093493989E5E8
S1131C3090E0DCC3D23009F0DDCD80918F3890E0A4
S1131C40EC01CC0FDD1FC65FD54C48815981880F4C
S1131C50991FFC01E85FF54CD80111966C918081C5
S1131C60918102DB8883998320918F3830E02F5F44
S1131C703F4F220F331FF901E85FF54C80819181BA
S1131C80009709F48DC04091963850919738841785
S1131C90950739F0409198385091993884179507F1
S1131CA0C1F480E298E7809348399093493985E2FA
S1131CB090E0809388399093893981E090E0809313
S1131CC0C8399093C939F901E85FF54C1082118243
S1131CD0F9C269E079E3EAD980911439882309F4D7
S1131CE089CD8091963890919738E0918F38F0E0C3
S1131CF0EE0FFF1FE65FF54C892B39F0808191814F
S1131D00809398389093993806C08081918180930C
S1131D109638909397388AE098E78093483990935F
S1131D20493986E190E0B0C18436E9F1893609F495
S1131D3054C09CE8980F923008F0C6C08EEF8D0F07
S1131D40823008F057CDE0908F38F12CD801AD0FD8
S1131D50B11D1197F701EE0FFF1FE85FF54C40E04E
S1131D6050E06C91808191817FDAF701EE0FFF1FC3
S1131D70E65FF54C80839183E0918F38F0E0EE0FBD
S1131D80FF1FE65FF54C80819181009709F0A3C0A5
S1131D90F8018081843709F444C2873609F441C2CA
S1131DA080E599E740C280919638909197380097E2
S1131DB009F0A4C28091983890919938892B49F4FC
S1131DC084EE97E7809348399093493986E290E00E
S1131DD00DC3D23009F4F3C20DCD809196389091A1
S1131DE09738892B31F48091983890919938892BC0
S1131DF039F38AE098E7809348399093493986E12A
S1131E0090E0809388399093893981E090E08093C1
S1131E10C8399093C939C6E9AC2EC8E3BC2E9924BD
S1131E209394C9E5DAE782E0E82EF12CCC24C3943C
S1131E30D12CD5018D919D915D010097E1F169E06F
S1131E4079E334D92091233930912439892D90E0D4
S1131E50FC01EE0FFF1FE85BF64C409115395091E1
S1131E60163940835183FC01EE0FFF1FE857F64CEF
S1131E7020833183880F991FFC01E853F64C1082AC
S1131E80118281E0890D90E093949394FC01EE0F0C
S1131E90FF1FE85BF64CC083D183FC01EE0FFF1FEC
S1131EA0E857F64CE082F182880F991FFC01E85351
S1131EB0F64CC082D182BAE9AB16B8E3BB0609F08E
S1131EC0B8CFCFEFC90DFFC1873609F437CF8237BA
S1131ED009F0B0C133CFD33009F0C2C0F80120817A
S1131EE0253719F0273609F0BBC0D0E0C0E064E61E
S1131EF0E62E69E7F62E71E2C72ED12CAA24A3940C
S1131F00B12C8D2E912CC401880F991F9C012A5647
S1131F10374C4901D9018D919C91009769F0F801E2
S1131F2061814ED9882341F06EED78E3D4018D911F
S1131F309C91BCD8D2E01EC0D130D9F48C2F90E053
S1131F40FC01EE0FFF1FE85BF64CE082F182FC011E
S1131F50EE0FFF1FE857F64CC082D182880F991FFD
S1131F60FC01E853F64CA082B182F8011082CF5FE5
S1131F7001C0D0E0DF5FD13021F2D8018C918823F9
S1131F8009F4A1C1E0918F38F0E0EE0FFF1FE65F86
S1131F90F54C69E079E38081918188D89091123978
S1131FA08091E938981323C080911339F1D8209196
S1131FB02F39309130398C2F90E0FC01EE0FFF1F48
S1131FC0E85BF64C4091213950912239408351838A
S1131FD0FC01EE0FFF1FE857F64C20833183880F76
S1131FE0991FFC01E853F64C1082118237C0F801A6
S1131FF08081853799F48C2F90E0FC01EE0FFF1F50
S1132000E85BF64C24E039E720833183FC01EE0FD2
S1132010FF1FE857F64C2AE130E015C0873609F077
S113202052C18C2F90E0FC01EE0FFF1FE85BF64CD1
S11320302DED36E720833183FC01EE0FFF1FE857B7
S1132040F64C28E230E020833183880F991FFC018D
S1132050E853F64C81E090E080839183CF5F33C1F5
S113206069E079E323D8D8018C91843769F58091AC
S11320701139809583FF3CC08EE199E780934839FC
S1132080909349398EE190E080938839909389390F
S113209081E090E08093C8399093C93980912339C5
S11320A090912439209115393091163920934A3969
S11320B030934B3980938A3990938B391092CA3973
S11320C01092CB39C2E0FFC0853741F480911139B9
S11320D0809584FF0DC084E099E709C1823741F4FB
S11320E080911139809585FF03C089EE98E7FECB76
S11320F080912739909128398130910569F49801AC
S11321002E5F3F4F40E061E08091193990911A3978
S11321100E944C07C0E0D7C0009709F45AC0209130
S1132120193930911A3920934839309349398093B9
S11321308839909389391092C8391092C9398BE53E
S11321409AE780934A3990934B3982E090E08093E8
S11321508A3990938B3981E090E08093CA399093C7
S1132160CB3920EB38E720934C3930934D3922E1B9
S113217030E020938C3930938D398093CC3990930F
S1132180CD398091293990912A39409730F08FE0E8
S113219090E08093293990932A3927E339E340E08A
S11321A06091293980911B3990911C390E944C0708
S11321B067E379E3809129390E943F07E091293947
S11321C0F0912A39E95CF64C108210923639C3E05A
S11321D07AC0809110390E94D0088823C9F0809178
S11321E02F3990913039209121393091223920931F
S11321F048393093493980938839909389391092BA
S1132200C8391092C939809113390E94C8085AC03C
S113221080912D3990912E3920911F393091203998
S1132220E4CC8CE399E7809348399093493984E16D
S113223090E0DCC0813609F06DCF80913639823070
S113224009F468CFE0918F38F0E0EE0FFF1FE65FEE
S1132250F54C69E079E38130E9F4808191810E9451
S1132260560880912F39909130392091213930913D
S1132270223920934839309349398093883990938F
S113228089391092C8391092C939809113390E9442
S1132290C80816C0808191810E9456088EE998E78B
S11322A0809348399093493982E190E0809388394A
S11322B09093893981E090E08093C8399093C9392B
S11322C010923739C1E0D8011C9210929C381DBA83
S11322D080913739882319F0C093473992C08C2FE5
S11322E00E94DA07809347398CC084ED99E7809384
S11322F04839909349398AE190E078C0D23009F0A6
S113230079CAD80111966C910E94E008882309F4D7
S113231056C0C0E0D0E0CC0FDD1FCA56D74C69E0F0
S113232079E3888199810E94560884ED97E7809328
S113233048399093493980E190E0809388399093AB
S1132340893981E090E08093C8399093C93920910C
S113235023393091243940911539509116394093DD
S11323604A3950934B3920938A3930938B391092E0
S1132370CA391092CB392BE53AE720934C39309384
S11323804D3922E030E020938C3930938D3980939D
S1132390CC399093CD3927E937E720934E393093E0
S11323A04F392DE330E020938E3930938F39809369
S11323B0CE399093CF3918821982C4E084CF8091AA
S11323C0983890919938009749F0F80161810E94FA
S11323D0E008882319F0C1E0D0E09DCF84E699E7B6
S11323E0809348399093493981E290E08093883909
S11323F09093893981E090E08093C8399093C939EA
S113240061CF80E0DF91CF911F910F91FF90EF900A
S1132410DF90CF90BF90AF909F908F900895CF930F
S11324200E94BE09882311F0C1E011C00E94120A63
S11324308111FACF8DE998E33CD8C82F811106C0E9
S11324408DE998E3B1D90E94D50501C0C2E08C2F73
S1132450CF9108950E949F018FEF0E94F204A0EB98
S1132460B5EA81E0ED91F0E0E25FF44C80831596EB
S1132470EC911597F0E0E25FF44C808325EAA63BEB
S1132480B20781F7E2EAF5EA91E0EF01A581B0E055
S1132490A25FB44C81E09C933196A881B0E0A25F26
S11324A0B44C9C9325EAE73AF20779F7E091AEA59C
S11324B0F0E0E25FF44C8083E091AFA5F0E0E25FEE
S11324C0F44C8083E091ACA5F0E0E25FF44C8083AF
S11324D0E091ADA5F0E0E25FF44C8083E091A0A52B
S11324E0F0E0E25FF44C8083E091A1A5F0E0E25FCC
S11324F0F44C8083E0919FA5F0E0E25FF44C80838C
S1132500E0919EA5F0E0E25FF44C80830E94AD066A
S113251080919A388823D1F380918D3A0E940305E3
S113252080938D3A10929A387ADF0E942307809123
S1132530EB3A9091EC3A0A9720F461E084E70E9428
S11325405C068091EB3A9091EC3A85369105F0F275
S113255060E084E70E945C06D9CF991B79E004C04F
S1132560991F961708F0961B881F7A95C9F78095CE
S11325700895AA1BBB1B51E107C0AA1FBB1FA617C6
S1132580B70710F0A61BB70B881F991F5A95A9F718
S111259080959095BC01CD010895F894FFCF7D
S113259E0D0B0C0A0201050003042422212308203A
S11325AE09251412111310151C1A191B181D696410
S11325BE647164004368656174657221200074BFA0
S11125CEFA541C96B2261EEBD68BC0C20A61CC
S11325DC91389138018000000000000000000000D8
S11325EC00000000000000000000000000000000DB
S11325FC00000000000000000000000000000000CB
S113260C00000000000000000000000000000000BA
S113261C00000000000000000000000000000000AA
S113262C000000000000000000000000000000009A
S113263C000000000000000000000000000000008A
S113264C000000000000000000000000000000007A
S113265C000000000001D40103070F1F3F7FFFFFA0
S9030000FC
