:100000003DC0000056C0000054C0000052C00000B7
:1000100050C000004EC0000045C4000097C400005E
:10002000C1C2000046C0000044C0000042C0000041
:1000300040C000000BC300003CC300003AC00000F9
:1000400038C0000036C0000034C0000032C00000DC
:10005000ABC300002EC00000D5C300002AC00000C2
:1000600028C0000026C0000024C0000051C30000CA
:100070007FC300001EC000001CC0000011241FBE72
:10008000CFEFCDBFDFE3DEBF18E3A0E0B8E3E8EFDA
:10009000FDE002C005900D92A230B107D9F728E328
:1000A000A2E0B8E301C01D92AE36B207E1F764D515
:1000B00089C6A6CF81E080932204E6E2F4E0808343
:1000C00010923004A1E2B4E092E09C9390831092ED
:1000D0003104E0E1F8E09DE2968398E09483838325
:1000E0008C938581816085838581846C8583089567
:1000F000E0E1F8E0848188608483138282E0809369
:10010000220489E0A1E2B4E091E0E2E2F4E09C9311
:1001100020E12A95F1F700C0908320E12A95F1F7BC
:1001200000C08150A1F7E0E1F8E028E0248381E0FD
:100130008383A1E2B4E092E09C93958191609583E2
:100140009581946C9583248383838C9385818160CE
:1001500085838581846C85830895282FE0E1F8E00C
:100160009581906C95839581892F847092FD03C051
:1001700020931708089584E008958CE08093063852
:10018000E0E1F8E004C0809106388823B9F0858169
:1001900088231CF0858186FFF6CFE0E1F8E08581B9
:1001A000806C8583858182FD0BC08091150883FD5D
:1001B00009C0809115088295817008958FEF089588
:1001C00084E0089582E00895DC019CE09093063875
:1001D00090911508892F8370823039F088E0089556
:1001E00090910638911103C02AC0E0E1F8E09581B2
:1001F0009923B4F7E0E1F8E09581906C95839581BF
:1002000092FD1FC09091150893FD1EC09091150896
:10021000892F807194FD17C0611109C094819B7F63
:10022000948390859C939481926094830895E0E1F7
:10023000F8E094819460948390859C9308958FEF67
:10024000089584E0089581E00895FC019CE0909376
:1002500006389091150893709230B1F480818093A4
:100260001808E0E1F8E004C080910638882371F0B6
:10027000858186FFF9CF8091150882FD09C08091A4
:10028000150882958170089588E008958FEF08958C
:1002900084E00895E0E1F8E0848183608483089538
:1002A000CF92DF92EF92FF920F931F93CF93DF9342
:1002B000EB01C42E7901182F110F812F4EDF811110
:1002C0003CC05BDF813019F4E5DF81E038C081118B
:1002D00034C0CC2079F0CA94D12C8FEFC81AD80A38
:1002E000CC0EDD1ECE01B1DF811127C02196CC15C9
:1002F000DD05C1F7013408F000E41F5F1093170813
:10030000023090F00250C02FD0E02196CE0DDF1DBC
:1003100060E0C70159DF811110C08FEFE81AF80AB9
:10032000EC16FD06A9F701C0E70161E0CE014CDF44
:10033000811103C0AFDF80E002C0DADE8FEFDF9112
:10034000CF911F910F91FF90EF90DF90CF90089584
:10035000CF92DF92EF92FF920F93CF93DF93EB0157
:10036000E42E6901880FF9DE811127C006DF813094
:1003700019F490DF81E030C081111FC0EE2001F13F
:10038000EA94F12C8FEFE81AF80AEC0EFD1ECE016C
:100390005CDF811112C02196CE15DF05C1F710C0B8
:1003A000C60153DF811109C08FEFC81AD80ACC16D5
:1003B000DD06B1F76FDF80E00FC09ADE8FEF0CC073
:1003C000013408F000E40023A9F30150C02FD0E06D
:1003D0002196CC0DDD1DE4CFDF91CF910F91FF90E1
:1003E000EF90DF90CF900895CF93DF93F89488ED4E
:1003F00084BFC1E0C09361008AE4809300048CE76D
:10040000809320048FE380934004C0930102D2E0E4
:10041000D09305042BE531E02093080830930908B8
:1004200090EA9093050890EC9093060893E09093DF
:1004300007081CBA1DBA1EBA1FBAC093030AE0E02F
:10044000FAE098E090838093020287E78093010AA4
:10045000C0930A0A8BE08093050A808181608083C3
:1004600085E08093400A1092410A8FEF91E08093DB
:100470004C0A90934D0A1092450AC093500A10926C
:10048000510A8BE893E080935C0A90935D0AC093D5
:10049000550A10DE82E18093A00080E28093A200E2
:1004A000C093A100E0E0F6E086E0808384E48093DE
:1004B00002068EE180930606C0930A068081816061
:1004C0008083C0930806E0E4F6E01082D0934106F2
:1004D00082E58093420684E0809345068093460639
:1004E000C0934A06808181608083C0934806E0EA19
:1004F000F6E080E4808380E88093A10680818160BB
:100500008083E1E4F1E0808180FDFDCF80E3809392
:10051000400110924701E1E4F1E0808182FDFDCFCE
:10052000EAE4F1E080E098E78083918380914801DC
:100530009091490160817181829630D480936C38AA
:1005400090936D38E1E4F1E0808183FDFDCF8091EF
:100550006C3890916D3880934C0190934D0183E0FD
:100560008093420181E08093520188E080935001A2
:10057000E1E4F1E0808180FDFDCFE0E4F1E0808105
:1005800081608083E0E5F1E0808181608083E7E045
:10059000F8E31082E0931B38F0931C387894DF91D5
:1005A000CF9108951F920F920FB60F9211248F933F
:1005B0009F93AF93BF93EF93FF9387E0809346049D
:1005C00084E480932604ECB3F0E0EE0FFF1FEE0FFF
:1005D000FF1FEE0FFF1FEE5BF74CA8E2BAE096E0BC
:1005E00081918D939A95E1F78BE08093050A8CB306
:1005F000833058F48CB391E001C0990F8A95EAF7E3
:1006000099B98CB383958CBB0AC08CB3833021F429
:100610002A9A83958CBB03C02E9A88278CBB809125
:100620000638882329F08091063881508093063857
:100630008FEF80930B0AFF91EF91BF91AF919F9144
:100640008F910F900FBE0F901F9018951F920F92D1
:100650000FB60F9211248F939F93EF93FF93E09126
:100660001B38F0911C388081882391F08081809321
:10067000020880911B3890911C38019680931B389A
:1006800090931C38E5E0F8E080818062808305C0AB
:1006900081E0809300381092450A81E08093460AF9
:1006A000FF91EF919F918F910F900FBE0F901F9030
:1006B00018951F920F920FB60F9211248F939F934C
:1006C000EF93FF93E0911738F091183880818823D9
:1006D00069F080818093A106809117389091183835
:1006E0000196809317389093183806C080E880935D
:1006F000A10681E080936A3881E08093560AFF91D9
:10070000EF919F918F910F900FBE0F901F901895B2
:100710001F920F920FB60F9211248F93EF93FF93B6
:10072000EDB3F0E080910008E95FF74C8083EDB312
:10073000F0E0E95FF74C80818A3049F4EDB3F0E0F6
:10074000E95FF74C108281E08093053806C08DB3D5
:100750008F3018F48DB38F5F8DBB80E880930408D1
:10076000FF91EF918F910F900FBE0F901F901895F2
:100770001F920F920FB60F9211248F93EF93FF9356
:1007800010924A0A10924B0A81E08093450AE5E0F4
:10079000F8E080818F7D8083FF91EF918F910F90A2
:1007A0000FBE0F901F9018951F920F920FB60F92C9
:1007B00011248F93EF93FF938EB38F5F8F718EBB56
:1007C00080910238811111C0809106068E3129F482
:1007D0008091100680936B380AC0EEB3F0E08091F0
:1007E0001006EE5DF74C808302C01092023881E063
:1007F00080930B06FF91EF918F910F900FBE0F909A
:100800001F9018951F920F920FB60F9211248F937D
:100810009F938091460681110CC080915006909163
:10082000510680931F389093203881E080934606CC
:1008300023C080914606813079F488E080930604D5
:10084000809150069091510680931D3890931E38E8
:1008500084E08093460610C0809150069091510626
:100860008093193890931A388FB38F3029F41092EF
:10087000460688E0809305048FB390E001968F7060
:100880009078992324F40197806F9F6F01968FBB16
:1008900081E080934B069F918F910F900FBE0F9038
:1008A0001F9018951F920F920FB60F9211245F930D
:1008B0006F937F938F939F93AF93BF93EF93FF9328
:1008C0008091430181FF28C0809103388F3F29F038
:1008D000809103388F5F8093033880914801909115
:1008E000490160914A0170914B01829657D28093E1
:1008F0006C3890936D38E1E4F1E0808183FDFDCFA9
:1009000080916C3890916D3880934C0190934D019B
:1009100082E0809343010CC0809104388F3F29F01E
:10092000809104388F5F8093043881E08093430185
:10093000FF91EF91BF91AF919F918F917F916F91B7
:100940005F910F900FBE0F901F9018951F920F92FE
:100950000FB60F9211248F9381E080934806809305
:1009600053018F910F900FBE0F901F901895E2E0EA
:10097000F0E1908191FDFDCF442359F0A62FB72FD0
:10098000480FE82FF0E0FC5E90819D938F5F481345
:10099000F8CF0895FF920F931F93CF93DF93E82F23
:1009A000442379F1C2E0D0E13DE900E010E154E0F8
:1009B0000F2EF3E0FF2EF02D888181FDFDCF34BF97
:1009C000D8015C93442391F02E2F2F7191E09E0F5C
:1009D0006F5F7F4FDB0111978C91F0E0FC5E8083AD
:1009E000415021F0E92F2F3179F70FC08DE984BFF5
:1009F00083E0809300108091021082FB882780F9A9
:100A00000CC080E00AC081E008C034BFF801F08269
:100A1000888182FDF8CFE92FCFCFDF91CF911F9151
:100A20000F91FF9008959C0190910038992359F0FF
:100A300020931B3830931C381092003881E080934B
:100A4000450A80E0089581E00895282F811101C0B2
:100A500021E08FEF90E0821B9109982F8827815029
:100A60009F4F80934C0A90934D0A089582E18093A2
:100A7000A000E0E0F6E08081846080838EE18093D6
:100A8000060681E080930238089582E28093A000F8
:100A9000E0E0F6E080818B7F808387E0809306062C
:100AA00081E08093023808952091193830911A38E6
:100AB000329522952F7023273F70232733272C351B
:100AC0003105D0F42335310598F52233310550F442
:100AD0002D32310548F5235231092530310508F40E
:100AE00042C02EC02733310508F43FC02E533109D0
:100AF00027303105D8F024C02A38310548F4293789
:100B00003105D0F4235631092B30310598F018C047
:100B1000223A3105A8F02B3B310580F0205F3109E6
:100B200020313105D8F00CC099E020C096E01EC0FD
:100B300094E01CC093E01AC092E018C091E016C087
:100B4000982F9F709F3041F4282F207F30E0203F66
:100B500031058CF4805F08958FE00895982F9F7081
:100B600099F38FEF08959CE001C098E0282F2F7033
:100B7000921751F3892F0895CF93DF93CDB7DEB746
:100B8000A797CDBFDEBF30DC84E2E4EDFDE8DE01F7
:100B9000119601900D928A95E1F7CE01019643DFFF
:100BA0001DA21EA21FA204E29E012F5F3F4F42E042
:100BB000BE016B5D7F4F80E5CBDB882311F08AEFB0
:100BC0008FA38FEF42DF80E02FEF07C0392F377000
:100BD000363010F093E0980F892F883208F0DAC091
:100BE000E82FF0E0EE5BF74C2083D4C0A7EAB1E633
:100BF0001197F1F700C000009150C1F791E0980FF4
:100C0000983220F380E007C0292F2770263010F09B
:100C100093E0980F892F883208F0BEC0E82FF0E0EB
:100C2000EE5BF74C1082B8C0E7EAF1E63197F1F7D6
:100C300000C000009150C1F791E0980F983220F366
:100C40002AEC3DE8A4EDBDE880E090E041E050E012
:100C5000F90161919F01E62FF0E0EE5BF74CBA01DC
:100C6000082E02C0660F771F0A94E2F76083EE91A8
:100C7000F0E0EE5BF74C60836AE0E7EAF1E631977B
:100C8000F1F700C000006150C1F701968530910571
:100C9000F9F6A8ECBDE8EC91F0E0EE5BF74C8FEFD5
:100CA00080831196EC91F0E0EE5BF74C8FE380834C
:100CB00044E2BE016F5F7F4F80E16CDE882311F05C
:100CC0008AEF8FA3D12CC12C1AEF0F2EF2E2EF2E58
:100CD000F8E3FF2EF02D80910538882361F0809194
:100CE00000388823E1F387E098E39DDE81111FA39C
:100CF0001DBA1092053880910338882361F38C2D3A
:100D0000D3DEE7E0F8E38083C08010920338D39409
:100D1000D0FE02C0BADE01C0A9DE80911D389091DC
:100D20001E38929582958F7089279F708927E7E0FA
:100D3000F8E3818380911F389091203892958295B5
:100D40008F7089279F708927828380916B38838376
:100D5000D7018C91848380910438858341E06DE0D4
:100D600078E381E104DE01E02EE038E342E0BE01F9
:100D70006B5D7F4F80E594DA81111FA38FA1809373
:100D80000F38809100388823E1F387E098E34BDE49
:100D90001FA2A1CF9AE02ACF9AE046CFAA1BBB1B85
:100DA00051E107C0AA1FBB1FA617B70710F0A61B6B
:100DB000B70B881F991F5A95A9F780959095BC018C
:080DC000CD010895F894FFCF66
:100DC8000C0A0201050003041C1A191B0748E463F6
:100DD8006B6572486F74656C3230323020626164C2
:100DE80067652070657374210808080808740A008C
:020DF8000100F8
:00000001FF
