:100000003DC0000058C0000056C0000054C00000B1
:1000100052C0000050C0000086C60000CEC60000DE
:10002000BEC4000048C0000046C0000044C000003C
:1000300042C0000005C5000036C500003CC00000FD
:100040003AC0000038C0000036C0000034C00000D4
:10005000F4C5000030C000001EC600002CC0000027
:100060002AC0000028C0000026C000006FC50000A4
:10007000C8C5000020C000001EC0000011241FBE23
:10008000CFEFCDBFDFE3DEBF18E3A0E0B8E3E4E3EA
:10009000F3E302C005900D92A832B107D9F72BE324
:1000A000A8E2B8E301C01D92A430B207E1F70E94B4
:1000B00062180C942B19A4CF81E080932204E6E20D
:1000C000F4E0808310923004A1E2B4E092E09C93CB
:1000D000908310923104E0E1F8E097E0968398E095
:1000E000948383838C938581816085838581846CEF
:1000F0008583089580911408886080931408109275
:10010000130882E08093220499E021E081E02093AB
:10011000210430E13A95F1F700C02093220430E148
:100120003A95F1F700C0915089F728E02093140820
:100130008093130892E090932104909115089160A8
:100140009093150890911508946C9093150820933E
:10015000140880931308809321048091150881600E
:100160008093150880911508846C80931508089574
:10017000282F90911508906C909315089091150870
:10018000892F847092FD03C020931708089584E09E
:1001900008958CE08093343A8091150887FD0AC059
:1001A0008091150886FD06C08091343A8111F4CF04
:1001B0008FEF089580911508806C809315088091C9
:1001C000150882FD09C08091150883FD07C0809144
:1001D000150882958170089584E0089582E008955D
:1001E000FC018CE08093343A90911508892F83703C
:1001F000823011F088E008959091150897FD06C0AF
:100200009091343A9111F8CF8FEF0895909115089D
:10021000906C909315089091150892FD1EC09091D6
:10022000150893FD1DC090911508892F807194FDCC
:1002300016C090911408611102C09B7F01C09460A8
:1002400090931408909118089083611109C09091BF
:100250001408926090931408089584E0089581E052
:100260000895FC018CE08093343A909115089370C6
:100270009230B1F48081809318088091150886FD32
:1002800006C08091343A8111F8CF8FEF08958091A4
:10029000150882FD07C08091150882958170089528
:1002A00088E0089584E00895E0E1F8E084818360C7
:1002B00084830895CF92DF92FF920F931F93CF9381
:1002C000DF936B01F42EE901182F110F812F50DFFE
:1002D00081112BC05EDF813019F4E6DF81E027C099
:1002E000811123C0FF2049F0C601BBDF81111DC071
:1002F0008FEFC81AD80AFA94F5CF013408F000E459
:100300001F5F10931708023040F060E0CE0168DFF5
:1003100081110BC021960150F6CF61E0CE0160DF64
:10032000811103C0C1DF80E002C0E4DE8FEFDF9106
:10033000CF911F910F91FF90DF90CF900895CF93B1
:10034000DF938BE720D78111E7C080912F38882376
:1003500019F0833009F0E0C0C09185B2EC2FF0E0D5
:100360008091073891E08F3F09F490E09195EB542C
:10037000F54C9083982F907F09F4CEC020910138DE
:10038000982F92279F7009F4C7C02F3F09F0C0C073
:100390008F70823061F028F4813069F41092003857
:1003A0000DC0843031F0883031F482E005C081E046
:1003B00003C083E001C08FEF8093003883E0809317
:1003C0002F3880912938E82FF0E0E659FD4420814C
:1003D00090910038E09182B2291317C090910238B1
:1003E000917090930238F0E0EB54F54C90E89083D4
:1003F000E09191B2F0E0EB54F54C1082E09190B2B4
:10040000F0E0EB54F54C108213C010920238F0E08B
:10041000EB54F54C1082843058F410922F3810921F
:1004200029381092283881E0809302388FEF72C00B
:100430008F5F80932938909128389F5F943018F40B
:100440009093283865C010922838909102389130E6
:1004500079F5E82FE695E695F0E0EC56FD44E58168
:10046000F0E0EB54F54CDFEFD083883109F050C059
:100470008BE781D6EC2FF0E0EB54F54C1082E09145
:1004800091B2F0E0EB54F54C1082E09190B2F0E0C4
:10049000EB54F54C1082E09193B2F0E0EB54F54C44
:1004A000D083E09192B2F0E0EB54F54CD08330C0B1
:1004B00010922F381092293881E080930238EC2F67
:1004C000F0E0EB54F54C1082E09193B2F0E0EB5485
:1004D000F54C1082E09192B2F0E0EB54F54C1082B2
:1004E000E09191B2F0E0EB54F54C8FEF8083E09116
:1004F00090B2F0E0EB54F54C8083AAE9B2EBED91B9
:10050000F0E0EB54F54C108282EBA03AB807B9F753
:10051000809107388093013880E0DF91CF91089572
:10052000CF93DF9387EF2FD6811135C18DE72BD67F
:10053000811131C180912F38823008F02CC1809117
:10054000DE3A9091DF3A892B41F480918F3A909175
:10055000903A8093DE3A9093DF3A80918F3A90916F
:10056000903A2091DE3A3091DF3A821B930B309122
:100570003C38313089F018F03230C1F01FC0843D72
:100580002EEF920714F481E004C08D3291405CF0AC
:1005900082E080933B3812C08D3221E09207C4F78D
:1005A00089389F4F84F310923B3808C0843D2EEF6A
:1005B00092074CF388379105B4F3EACFC09185B226
:1005C000EC2FF0E080913B3891E0811101C090E088
:1005D0009195EB54F54C9083882309F4A8C02091A1
:1005E0003A38211106C091E0813009F490E09093EF
:1005F0003838381709F4CFC080933C3891E0909395
:100600002F3890913838992311F093E0892790E0A2
:10061000E22FF0E0E056FD44408150E0841795075A
:1006200091F480910938817080930938E09191B2FA
:10063000F0E0EB54F54C1082E09190B2F0E0EB5416
:10064000F54C108202C0109209382F5F20933A387F
:10065000809139388F5F833018F4809339389BC08C
:100660001092393880910938813089F5EBEA2E9F54
:10067000E12D1124E695F0E0EC56FD44E581F0E033
:10068000EB54F54CDFEFD083223109F084C08DE7C5
:1006900072D5EC2FF0E0EB54F54C1082E09191B262
:1006A000F0E0EB54F54C1082E09190B2F0E0EB54A6
:1006B000F54C1082E09193B2F0E0EB54F54CD0830E
:1006C000E09192B2F0E0EB54F54CD08364C010920C
:1006D0002F3810923A3881E080930938D0E0CB541B
:1006E000D54C1882E09193B2F0E0EB54F54C1082B7
:1006F000E09192B2F0E0EB54F54C1082E09191B2AF
:10070000F0E0EB54F54C8FEF8083E09190B2F0E095
:10071000EB54F54C8083AAE9B2EBED91F0E0EB5499
:10072000F54C108282EBA03AB807B9F734C03323F6
:1007300091F110923C3880913A38823161F51092F3
:100740002F3810923A3881E0809309381082E09176
:1007500093B2F0E0EB54F54C1082E09192B2F0E0ED
:10076000EB54F54C1082E09191B2F0E0EB54F54C73
:100770001082E09190B2F0E0EB54F54C1082AAE9BF
:10078000B2EB80EA92EBED91F0E0EB54F54C108285
:100790008A179B07C1F780E0DF91CF910895CF932F
:1007A000DF93F89488ED84BFC1E0C09361008AE4D0
:1007B000809300048CE7809320049FE3909340048F
:1007C000809153048068809353048091540480681E
:1007D00080935404809155048068809355048091DF
:1007E000330480688093330480913404806880935C
:1007F000340480913504806880933504C0930102ED
:10080000D2E0D09305042BE531E020930808309323
:10081000090880EA8093050880EC8093060883E04D
:10082000809307081CBA1DBA1EBA1FBAC093030AE8
:1008300088E08093000A9093020287E78093010A80
:10084000C0930A0A8BE08093050A8091000A8160B8
:100850008093000A85E08093400A1092410A8FEF4E
:1008600091E080934C0A90934D0A1092450AC093F0
:10087000500A1092510A8BE893E080935C0A90939F
:100880005D0AC093550A18DC82E18093A00080E2E3
:100890008093A200C093A10086E08093000684E4C8
:1008A000809302068EE180930606C0930A0680912B
:1008B0000006816080930006C093080610924006EF
:1008C000D093410682E58093420684E080934506FA
:1008D00080934606C0934A068091400681608093CB
:1008E0004006C093480680E48093A00680E8809389
:1008F000A1068091A00681608093A00680914101AD
:1009000080FDFCCF80E380934001109247018091ED
:10091000410182FDFCCF80E098E780934A019093EB
:100920004B01809148019091490160914A01709179
:100930004B0182960E94F5188093E13A9093E23A37
:100940008091410183FDFCCF8091E13A9091E23AA0
:1009500080934C0190934D0183E08093420181E0AC
:100960008093520188E0809350018091410180FD85
:10097000FCCF8091400181608093400180915001C3
:100980008160809350011092493A89E49AE3809300
:100990008D3A90938E3A7894DF91CF9108951F927B
:1009A0000F920FB60F9211248F939F93AF93BF9323
:1009B000EF93FF9387E08093460484E480932604BA
:1009C000ECB388E0E89FF0011124EB54F54CA8E269
:1009D000BAE096E081918D939A95E1F78BE0809350
:1009E000050A8CB3833058F48CB391E001C0990FA1
:1009F0008A95EAF799B98CB383958CBB0AC08CB3FE
:100A0000833021F42A9A83958CBB03C02E9A8827C1
:100A10008CBB8091343A882329F08091343A8150FC
:100A20008093343A8FEF80930B0AFF91EF91BF913F
:100A3000AF919F918F910F900FBE0F901F901895BF
:100A40001F920F920FB60F9211248F939F93EF93E3
:100A5000FF93E0918D3AF0918E3A8081882391F056
:100A600080818093020880918D3A90918E3A019610
:100A700080938D3A90938E3A80910508806280939E
:100A8000050805C081E0809308381092450A81E08E
:100A90008093460AFF91EF919F918F910F900FBE27
:100AA0000F901F9018951F920F920FB60F9211245E
:100AB0002F933F934F938F939F93EF93FF93E091E7
:100AC0000538F09106388081811108C08091033883
:100AD000909104388093053890930638E09105385A
:100AE000F091063880818823E1F0208140918A3A94
:100AF00030E02F573109429FC001439F900D1124D0
:100B0000892F990F990B80589F4F8093A106809150
:100B100005389091063801968093053890930638F1
:100B200006C080E88093A10681E08093DD3A81E0F1
:100B30008093560AFF91EF919F918F914F913F9132
:100B40002F910F900FBE0F901F9018951F920F922C
:100B50000FB60F9211248F93EF93FF938091373844
:100B6000811144C0EDB3F0E080910008E75BF54CE3
:100B70008083EDB3F0E0E75BF54C80818093020861
:100B8000EDB3F0E0E75BF54C80818A3039F0EDB3EE
:100B9000F0E0E75BF54C80818D3049F4EDB3F0E097
:100BA000E75BF54C108281E0809337381FC0EDB3CE
:100BB000F0E0E75BF54C8081883039F0EDB3F0E090
:100BC000E75BF54C80818F3759F48DB3882341F072
:100BD000EDB3F0E0E75BF54C10828DB3815005C0BA
:100BE0008DB3803418F48DB38F5F8DBB80E8809314
:100BF0000408FF91EF918F910F900FBE0F901F90FF
:100C000018951F920F920FB60F9211248F93EF93A6
:100C1000FF9310924A0A10924B0A81E08093450A92
:100C2000E5E0F8E080818F7D8083FF91EF918F91E7
:100C30000F900FBE0F901F9018951F920F920FB636
:100C40000F9211248F93EF93FF9380912A38811193
:100C500015C08EB38F5F8F718EBB809106068E316B
:100C600029F4809110068093E03A0AC0EEB3F0E0D8
:100C700080911006EB56F54C808302C010922A3802
:100C800081E080930B06FF91EF918F910F900FBE43
:100C90000F901F9018951F920F920FB60F9211246C
:100CA0008F939F938091460681110AC080915006D0
:100CB000909151068093913A9093923A81E010C0BE
:100CC00080914606813079F488E080930604809113
:100CD00050069091510680938F3A9093903A84E019
:100CE0008093460610C080915006909151068093E3
:100CF0008B3A90938C3A8FB38F3029F4109246063A
:100D000088E0809305048FB390E001968F70992757
:100D10008FBB81E080934B069F918F910F900FBE08
:100D20000F901F9018951F920F920FB60F921124DB
:100D30005F936F937F938F939F93AF93BF938091B4
:100D4000430181FF26C0809135388F3F29F0809183
:100D500035388F5F809335388091480190914901F3
:100D600060914A0170914B0182960E94F518809320
:100D7000E13A9093E23A8091410183FDFCCF80916A
:100D8000E13A9091E23A80934C0190934D0182E0D8
:100D900006C0809136388F5F8093363881E080932B
:100DA0004301BF91AF919F918F917F916F915F911F
:100DB0000F900FBE0F901F9018951F920F920FB6B5
:100DC0000F9211248F9381E0809348068093530102
:100DD0008F910F900FBE0F901F9018959091021059
:100DE00091FDFCCFFB01480F841739F0A82FB0E02C
:100DF000BC5E9C9191938F5FF7CF08959DE924E0AD
:100E000033E0442309F15091021051FDFCCF94BF0F
:100E100020930010E82F582F5F718F5F6F5F7F4F17
:100E2000DB011197AC91F0E0FC5EA083415019F01A
:100E3000E82F5F3181F794BF30930010509102107A
:100E400052FFDFCF81E0089580E0089520910838B7
:100E5000222359F080938D3A90938E3A109208385D
:100E600081E08093450A80E0089581E00895282F6D
:100E7000811101C021E08FEF90E0821B9109982F32
:100E8000882781509F4F80934C0A90934D0A089574
:100E900020918B3A30918C3A94E0369527959A952B
:100EA000E1F733272C353105D0F423353105A8F58A
:100EB0002233310550F42D32310558F523523109D2
:100EC0002530310580F59CE02FC02733310518F11E
:100ED0002E5331092730310530F596E025C02A38E8
:100EE000310550F429373105D0F4235631092B3020
:100EF0003105C8F493E018C0223A3105A0F02B3B2D
:100F0000310578F0205F31092031310560F490E03F
:100F10000BC099E009C098E007C094E005C092E0DA
:100F200003C091E001C09FE0282F2F70921306C0EC
:100F3000982F907F903F39F0805F0895992311F0AA
:100F4000892F08958FEF089580911C3890911D3856
:100F50009C01322F22273295330F307E8227932730
:100F60009C01232F33272695822793279C013695B2
:100F7000322F2227379527958227932780931C3875
:100F800090931D380895DF92EF92FF920F931F9375
:100F9000CF93DF937B018A01C0915C0AD0915D0AF7
:100FA000E82FF0E03197E770FF27E25EF74CD08042
:100FB000CBDF8D21C80FD11DC7DF8D21C81BD10903
:100FC0000C171D0708F4E801C701EC16FD0608F42C
:100FD000CE0180935C0A90935D0ADF91CF911F91BF
:100FE0000F91FF90EF90DF9008950F931F93CF9391
:100FF000DF93C82F042F122FE62FF0E03197E77010
:10100000FF27E25EF74CD0819FDF8D23C80F9CDF66
:101010008D23C81B8C2F112341F09C2F1C1708F423
:10102000912F802F091708F4892FDF91CF911F91FD
:101030000F910895CF92DF92FF920F931F93CF935A
:10104000DF93CDB7DEB76497CDBFDEBF44E1BE010D
:101050006F5F7F4F80E0C2DE85E3C82E8AE3D82E23
:101060008E010F5F1F4FF12CF80181918F01F60166
:101070009081981308C0F394FFEFCF1ADF0A80E144
:10108000F812F2CF08C041E0B6018F2DB7DE8823F9
:1010900091F391E036C0209131383091323830935D
:1010A000453A2093463A8091333890913438909362
:1010B000473A8093483A89899A89982789279827B7
:1010C0002817390769F48B899C89982789279827DD
:1010D00020913338309134382817390749F410C03B
:1010E00042E065E47AE380E189DE882361F3D1CFD1
:1010F00042E067E47AE382E181DE91E0811101C0A0
:1011000090E0892F6496CDBFDEBFDF91CF911F9114
:101110000F91FF90DF90CF900895E82FEF77E6953D
:10112000E695E695F0E0EB5CF54C208130E08770C9
:10113000A90102C0559547958A95E2F7CA018170C9
:101140000895E82FEF77E695E695E695282F277026
:10115000F0E0EB5CF54C81E090E001C0880F2A954F
:10116000EAF7662319F09081892B03C0809590815E
:10117000892380830895982F8F7797FF02C060E0BE
:1011800001C061E0DECFCF93C82F8F77C6DF2C2F51
:10119000221F2227221F91E0811101C090E0822F9F
:1011A0008927CF910895E3E0F1E180E09191890FE3
:1011B000ED3091E1F907D1F783708F5F809330387C
:1011C0000895E5E3FAE311928AE3E934F807D9F7E1
:1011D000EADF811104C08091423A806405C0813009
:1011E00031F48091423A80688093423A0DC0823057
:1011F00021F48091433A816005C0833029F48091C5
:10120000433A82608093433A8091353A816080937B
:10121000353A08950F931F93CF93DF9380912D3824
:1012200090912E388827892B09F08DC080912D3818
:1012300090912E38807E9927892B31F48BE298E3A8
:10124000809303389093043880912D3890912E38F4
:10125000807E9927809721F58BE098E3809303386F
:1012600090930438809135388823D1F080910A38E2
:10127000882331F080938A3A815080930A3810C0D5
:101280008BE298E3809303389093043880912D3853
:1012900090912E388071992780932D3890932E3815
:1012A00080912D3890912E3880912D3890912E3844
:1012B000807E992780369105D1F5109243388DE3D1
:1012C00098E380930338909304388C01C1E0D3E015
:1012D0008C2F6D2F0E94E918992339F020E041E00E
:1012E00065E080E882DEF8018183CF5F0F5F1F4FEA
:1012F000C63071F7809135388823C9F040E054E05A
:1013000060E872E085E03FDE80918A3A20EA40E1C1
:1013100062E06BDE80938A3A20E940E762E08091E8
:101320003D3863DE80933D388095809340388091CE
:101330002D3890912E3880912D3890912E388091B3
:101340002D3890912E38DF91CF911F910F910895F4
:1013500080E008951F93CF93DF93CDB7DEB76297F8
:10136000CDBFDEBF8A8B80E1EAE5F2EBDE011196AC
:1013700001900D928A95E1F7FE01319690E08FEF92
:10138000219131912617370709F4892F9F5F9830F3
:10139000B9F7883010F080E012C018E1180F41E072
:1013A000BE016F5E7F4F812F19DD89898F3F99F7CD
:1013B00041E0BE016E5E7F4F812F20DD81E06296AD
:1013C000CDBFDEBFDF91CF911F910895F9019C0140
:1013D0002E1B3F0B88E0489FA00111244C5D5C440C
:1013E000662369F0DF01A20FB31FA770BB27A40F0C
:1013F000B51F80819C91982791936150F1CF0895FA
:10140000262FFB0135E59E2F921B981728F490811B
:10141000929593279193F7CF0895AF92BF92CF9271
:10142000DF92EF92FF920F931F93CF93DF9300D041
:10143000CDB7DEB7D62EC42E59017C01E894F7F85B
:10144000F982EA82062F42E0BE016F5F7F4F80E59E
:101450000E945A01182F811105C095014C2D6D2D48
:10146000C701B4DF812F0F900F90DF91CF911F91B3
:101470000F91FF90EF90DF90CF90BF90AF900895C5
:101480008F5F883030F4E82FF0E0E45EF54C108296
:10149000F7CF0895AC0190E0E92FF0E0DA01AE0F4C
:1014A000BF1F3C91E60FF71F311105C081E090810D
:1014B000992349F007C020812223C1F3321302C0CF
:1014C0009F5FEACF80E008956115710551F1E4E274
:1014D000FAE3ACE1BAE320E03FEF6F3F710569F05A
:1014E00060F0819391933D9381509F4F6F5F71099D
:1014F0002F5F273091F781E00895E22FF0E0DF01C0
:10150000AA0FBB1FAC5DB54C8D939C93E45EF54C6C
:10151000CB016FEF70E00E94F518808340931A3A78
:1015200005C01092243A1092253A20E0822FA8DFBD
:1015300010921B3A80E00895CF93DF93282F30E07C
:10154000F901EE0FFF1FE151F74CABE5BAE7A083BD
:10155000B183F901EE0FFF1FE15DF64C62E070E030
:1015600060837183220F331FF901E159F64C41E08A
:1015700050E04083518321E0280F30E0F901EE0F65
:10158000FF1FE151F74CC4E6DAE7C083D183F901CC
:10159000EE0FFF1FE15DF64CCAE0D0E0C083D183BF
:1015A000220F331FF901E159F64C40835183E2E0E9
:1015B000E80FF0E0EE0FFF1FE151F74C20EF3FEF97
:1015C0002083318323E0280F30E0F901EE0FFF1F65
:1015D000E151F74CA083B183F901EE0FFF1FE15DEC
:1015E000F64C60837183220F331FF901E159F64CE9
:1015F0004083518324E0280F30E0F901EE0FFF1FF4
:10160000E151F74CA7E5BAE7A083B183F901EE0FEA
:10161000FF1FE15DF64C60837183220F331FF901D8
:10162000E159F64C408351838B5FDF91CF91089550
:10163000AF92BF92DF92EF92FF920F931F93CF93DF
:10164000DF93CDB7DEB72C97CDBFDEBF7C018B011A
:101650009E012F5F3F4F40E06CE08096DEDE898187
:101660009A819827892798278096F801808391830B
:101670008B819C81982789279827809682839383E2
:10168000DE0115963496C8010C962D912193E8172A
:10169000F907D9F7FCE2EF0EF11C5801D12C9E019D
:1016A0002F5F3F4F40E063E0C701B7DE89819A8139
:1016B00098278927982797012E5F3F4F43E04D15C4
:1016C00080F4AC0141505109F801428F538FF3E08F
:1016D000EF0EF11CF801E486F5864B81F50144A379
:1016E00005C0F801828F938F248735877C01E20E35
:1016F000F31ED3940E5F1F4FFFEFAF1ABF0A47E0F0
:10170000D412CDCF2C96CDBFDEBFDF91CF911F91EC
:101710000F91FF90EF90DF90BF90AF900895CF9220
:10172000DF92EF92FF920F931F93CF93DF93CDB78A
:10173000DEB7A097CDBFDEBFC62E7C0120E2E20E51
:10174000F11C9E012F5F3F4F40E062E08C9665DE0A
:101750001A81D12C112351F1012F113208F000E22E
:101760009E012F5F3F4F40E0602FC7010E9655DE70
:10177000FE01319680E0DD2061F0E1E0F0E0EC0F69
:10178000FD1FE80FF11D9081906281E09C110EC059
:101790000EC09191DD24D3949B3509F0D12C8F5F3D
:1017A000801748F3E00EF11C101BD4CF80E0A09608
:1017B000CDBFDEBFDF91CF911F910F91FF90EF90D2
:1017C000DF90CF900895AF92BF92DF92EF92FF9299
:1017D0000F931F93CF93DF9300D000D0CDB7DEB728
:1017E000D62E5A019E012F5F3F4F40E064E0809665
:1017F00014DEE980FA80FE24EF24FE240B811C8194
:101800001027012710270E151F0530F5A016B10669
:1018100058F09E012F5F3F4F40E062E0C801809684
:10182000FCDD09811A81ECCF9E012F5F3F4F40E024
:1018300061E0C8018596F1DD8981811103C0D11075
:1018400005C00DC0A0DC8111FACFE3CF6D2DC8011A
:1018500066DF8823F1F203C080E090E001C0C80198
:101860002496CDBFDEBFDF91CF911F910F91FF90E6
:10187000EF90DF90BF90AF90089580629FE9980F3E
:101880009A3138F090ED980F81E09A3018F080E0AE
:10189000089581E008950F931F93CF93DF938C01F8
:1018A000D0E0C0E0F801ED0FF11D20818C2F90E019
:1018B000222351F0D801A80FB91F2C938081DDDFBE
:1018C0008111CF5FDF5FEECFF801E80FF91F1082C3
:1018D0008C2FDF91CF911F910F910895CF9320917D
:1018E0001B3A283008F047C080910838882309F453
:1018F00042C0822F90E0FC01E45EF54CE081E111F2
:1019000006C01092DC3888E080931B3A2CC05091BE
:10191000DC385E1750F5CE2FC51BC13208F0C0E28F
:10192000880F991FFC01EC5DF54C8081918123EEBD
:101930003AE340911A3A6C2F850F911D6EDD80912C
:10194000DC388C0F8093DC38EC2FF0E0ED51F54C57
:1019500010828091E33A811103C08BED8093E33ACA
:1019600083EE9AE373DA81E00BC01092DC382F5FCC
:1019700020931B3AF8CF9091083881E0911180E0D4
:10198000CF910895CF93DF93C091EE38CC23E9F146
:10199000C150C093EE38D091DB382D2F30E0F901E3
:1019A000EE0FFF1FE151F74C80819181803F4FEF97
:1019B000940751F46091093A70910A3A40E080919D
:1019C000FB399091FC390DC0D901AA0FBB1FA15959
:1019D000B64C220F331FF901E15DF64C6081718135
:1019E0004C9172DDDF5FD093DB38C1110DC0809167
:1019F000F33990E080932D3890932E381DBA1092D1
:101A000037381092DB3801C0C1E08C2FDF91CF91C5
:101A100008954F925F926F927F928F929F92AF92B2
:101A2000BF92CF92DF92EF92FF920F931F93CF93CB
:101A3000DF93CDB7DEB7A197CDBFDEBF8C0180911C
:101A400026388F3F09F057C044E165E37AE380E030
:101A5000C5D92EE6F22EE12C8F2D5FDBE80EF39434
:101A600082E7F812F9CFE1E0EE1611F0AADB01C02F
:101A70009ADB8091453A9091463A98278927982792
:101A800080933138909332388091473A9091483A18
:101A90009827892798278093333890933438CADA67
:101AA0006FEE79E38091AF399091B039C1DD10923A
:101AB000263880912D3890912E388F3F910509F06E
:101AC000D0F48091F33990E020912D3830912E3868
:101AD0008217930781F080932D3890932E38809150
:101AE0002D3890912E38807E992721E0892B09F49A
:101AF00020E020932C3880913738882309F45EC287
:101B00008091DE38882309F457C01092DD3881E6D1
:101B1000F80180836EED78E389E49AE3BBDCF82E6C
:101B2000882321F081E08093DD3804C08091DE3885
:101B3000813311F0F12C44C28091E0388111FACF49
:101B400089E49AE3A8DE92E09093DD38F8011182EF
:101B5000823080F38091493A813361F08091493A33
:101B6000823341F08091493A833321F08091493AA0
:101B7000843301F780914A3A806280934A3A809197
:101B80004A3A813661F080914A3A853641F0809137
:101B90004A3A863621F080914A3A873759F6809141
:101BA000DF388F5EF80181838091493A828380918A
:101BB0004A3A8383148204C28091493A833281F580
:101BC0008DB3863069F581E090E010E0FC01E75BC1
:101BD000F54C208120532083110F212F220F220F3B
:101BE000120F20914A3A233048F420812A30B0F471
:101BF0002081120F01968430910541F7812F8F7754
:101C000069F080914D3A60914E3A70E0782B812FC7
:101C10008095A0DB882311F0812FADDA80E050C0E1
:101C2000D80180E090E0FC01E75BF54C2081213495
:101C300018F020812B3510F0208102C02081206215
:101C40002C932081211105C0F801E80FF11D1082AD
:101C500005C0019611968134910529F78091493A82
:101C6000F801811105C010821DBA10923738A6C143
:101C700080818F3311F0883639F58BE59AE78093B0
:101C8000EF389093F03884E090E080932F39909370
:101C9000303981E090E080936F399093703923E977
:101CA0003BE72093F1383093F2382DE634E020936F
:101CB000313930933239809371399093723982E09F
:101CC0003BDC8093EE387AC18136D9F48BE59AE714
:101CD0008093EF389093F03884E090E080932F3930
:101CE0009093303981E090E080936F399093703910
:101CF0002EE63AE72093F1383093F23825E231E0CE
:101D0000D6CF873709F06EC08BE59AE78093EF381E
:101D10009093F03884E090E080932F39909330399D
:101D200021E030E020936F39309370398BEC96E7E7
:101D30008093F1389093F23882E190E080933139CA
:101D400090933239209371393093723980913038C1
:101D5000813019F485EC96E70FC0823049F482ECAB
:101D600096E78093F3389093F43883E090E01EC0B8
:101D7000833049F48CEB96E78093F3389093F438F2
:101D800086E090E013C0843049F487EB96E78093B7
:101D9000F3389093F43885E090E008C080E496E74B
:101DA0008093F3389093F43882E490E08093333951
:101DB0009093343920937339309374398DE996E7D1
:101DC0008093F5389093F6388AE190E08093353926
:101DD0009093363981E090E080937539909376390D
:101DE00084E06ECF8137D9F48BE59AE78093EF38A2
:101DF0009093F03884E090E080932F3990933039BD
:101E000081E090E080936F399093703923E03AE756
:101E10002093F1383093F23824E530E048CF62EB7C
:101E200072EBC80137DB8823E1F01EE660E0812F0A
:101E300088D91F5F1237D1F7FDD880E2E5EFF2EBCA
:101E4000DE01119601900D928A95E1F78CE30FD88F
:101E5000809108388823E1F3CE0101960E9426077D
:101E6000F7CF68EB72EBC80115DB682E882351F1C0
:101E70008FEF89A318E141E0BE016F5D7F4F812F95
:101E80000E94FE061F5F1032B1F71EE660E0812F50
:101E900058D91F5F1237D1F7CDD88FE0E5E1F3EBCA
:101EA000DE01119601900D928A95E1F78CE30E9474
:101EB0003707809108388823E1F3CE0101960E940C
:101EC0002607F7CF6FEE72EBC801E4DA882309F436
:101ED00031CE0FEE18E378E1772EEAE05E2EF4E6DD
:101EE0004F2EEE24E394F12CCC24C394D12C89E51D
:101EF000882E8AE7982E92E0A92EB12C41E0BE01EF
:101F00006F5D7F4F872D0E94EE0629A12095822FBD
:101F1000652D0E94E9189B830E94E9189A83822FFD
:101F2000642D0E94E918898319A2DE01119640E010
:101F30002D91862D840F90E0FC01EE0FFF1FE151E3
:101F4000F74C30E02D523B4820833183FC01EE0FEB
:101F5000FF1FE15DF64CE082F182880F991FFC01C2
:101F6000E159F64CE082F1824F5F433009F7F80106
:101F700086829782EA5BFF4FA082B182E05CFF4FCE
:101F8000C082D1827394085F1F4FF4E06F0E80E22D
:101F90007812B4CF8BE59AE780932D3990932E3940
:101FA00084E090E080936D3990936E3981E090E009
:101FB0008093AD399093AE397092EE38FF24F3944C
:101FC0008F2DA196CDBFDEBFDF91CF911F910F91D5
:101FD000FF90EF90DF90CF90BF90AF909F908F9049
:101FE0007F906F905F904F9008954F925F926F92A5
:101FF0007F928F929F92AF92BF92CF92DF92EF9299
:10200000FF920F931F93CF93DF93CDB7DEB72A973D
:10201000CDBFDEBF8C013FDCC8013DDCF82E88233C
:1020200009F47CC7D8018C91883779F580912638DE
:10203000E82FF0E0EE0FFF1FE155F64C20813181D3
:10204000232B11F0811103C082E896E758C58091D7
:10205000F53999D8882381F0E0912638E150E09352
:102060002638F0E0EE0FFF1FE155F64C6FEE79E3F6
:1020700080819181DDDA0DC28091113A9091123AFE
:102080002091033A3091043AF2C5853619F08F3623
:1020900009F0C9C0B2E0FB12D7CFE0902638F12C8E
:1020A000F701EE0FFF1FE155F64C40E050E0D8017C
:1020B00011966C918081918186DBF701EE0FFF1FF5
:1020C000EF54F64C8083918390912638292F30E08D
:1020D000F901EE0FFF1FEF54F64C4081518141157D
:1020E000510521F060EB78E3CA011CC0992309F483
:1020F00031C7220F331FF901E355F64CD801119671
:102100006C91808191810BDB882309F423C7E091D6
:102110002638F0E0EE0FFF1FE355F64C60EB78E356
:102120008081918185DAD8018C918536C9F48091BE
:10213000B83880FD1EC080EA99E78093F13890930B
:10214000F2388EE190E0809331399093323981E01A
:1021500090E0809371399093723972E0772EBEC609
:102160008F3639F48091B83881FD03C085E899E74E
:10217000C6C48091B63807D8E0912638882309F480
:1021800042C0AE2FB0E0AA0FBB1FAF54B64C8D912A
:102190009C91892B11F0EF5F01C0E150E09326384C
:1021A000E0912638F0E0EE0FFF1FE155F64C6FEEA0
:1021B00079E3808191813CDA80910B3A90910C3ADD
:1021C0002091FD393091FE392093F1383093F23867
:1021D000809331399093323910927139109272395B
:1021E0008BE59AE78093F3389093F43882E090E09F
:1021F000809333399093343981E090E08093733940
:102200009093743968C4F0E0EE0FFF1FEF54F64C62
:10221000108211828091D2389091D3382091C438A5
:102220003091C53824C58C3609F04BC1E091263871
:10223000B1E0FB12F6C080910B3A90910C3A2091DC
:10224000FD393091FE392093F1383093F238809384
:1022500031399093323910927139109272398BE57D
:102260009AE78093F3389093F43882E090E080937B
:1022700033399093343981E090E0809373399093AF
:1022800074392EEE39E72093F5383093F63825E18E
:1022900030E02093353930933639809375399093F7
:1022A0007639F0E0EE0FFF1FEF54F64C10821182EA
:1022B00084E0682E99E5C92E9AE7D92E22E0A22E55
:1022C000B12C88248394912C8091263890E09C0135
:1022D000220F331FF901EF54F64C7F0140815181E9
:1022E000F901E155F64C60E0808191816CDAD7010B
:1022F0008D939C93E0912638F0E0EE0FFF1FEF5492
:10230000F64C80819181009709F44AC020913138C0
:10231000309132388217930709F442C02091333844
:102320003091343882179307D9F160EB78E380D984
:102330008091CA389091CB38E62DF0E0DF01AA0FEA
:10234000BB1FA151B74C2091BC383091BD382D93A3
:102350003C93DF01AA0FBB1FA15DB64C8D939C93EC
:10236000EE0FFF1FE159F64C1082118281E0860DBD
:1023700090E063946394FC01EE0FFF1FE151F74C72
:10238000C082D182FC01EE0FFF1FE15DF64CA082FE
:10239000B182880F991FFC01E159F64C808291822D
:1023A00020912638822F90E0FC01EE0FFF1FEF54A2
:1023B000F64C40815181452B09F086CF222369F1EB
:1023C000880F991FFC01E355F64C60EB78E38081A0
:1023D00091812ED92091CA383091CB3877247394CB
:1023E000760C862D90E0FC01EE0FFF1FE151F74CBB
:1023F0004091BC385091BD3840835183FC01EE0FB1
:10240000FF1FE15DF64C20833183880F991FFC018B
:10241000E159F64C1082118261C577247A94760CCA
:102420005DC5EE2EF12CF701EE0FFF1FE155F64CC6
:1024300040E050E0D80111966C9180819181C3D920
:10244000F701EE0FFF1FEF54F64C808391839091BC
:102450002638292F30E0F901EE0FFF1FEF54F64C1C
:10246000408151814115510521F060EB78E3CA01AB
:102470001EC0992309F46EC5220F331FF901E355DD
:10248000F64CD80111966C918081918148D98111C7
:1024900003C07724739422C5E0912638F0E0EE0F54
:1024A000FF1FE355F64C60EB78E380819181C0D843
:1024B0008091CC389091CD382091BE383091BF3882
:1024C000D6C3803709F096C0809131389091323868
:1024D000892B79F08091333890913438892B49F0E9
:1024E00085E498E78093F1389093F23889E590E09D
:1024F0002ACEB2E0FB12A8CDE0902638F12CF701ED
:10250000EE0FFF1FE155F64C40E050E0D801119668
:102510006C918081918157D9F701EE0FFF1FEF5425
:10252000F64C808391832091263830E02F5F3F4F17
:10253000220F331FF901E155F64C808191810097FC
:1025400009F4ABC340913138509132388417950764
:1025500039F0409133385091343884179507C1F4DD
:1025600080E298E78093F1389093F23885E290E02A
:10257000809331399093323981E090E080937139C2
:1025800090937239F901E155F64C10821182E5CD34
:1025900060EB78E34DD88091B7380E94C308882358
:1025A00009F45DC38091BB38882309F44DCD809137
:1025B000313890913238E0912638F0E0EE0FFF1F6D
:1025C000EF54F64C892B39F0808191818093333818
:1025D0009093343806C080819181809331389093F4
:1025E00032388AE098E78093F1389093F23886E1A8
:1025F00090E053C28436D9F48091313890913238CA
:10260000009709F0B0C48091333890913438892B09
:1026100049F484EE97E78093F1389093F23886E29C
:1026200090E091CDB2E0FB1609F402C50DCD8936DC
:1026300009F07BC08091313890913238892B31F488
:102640008091333890913438892B19F38AE098E7D8
:102650008093F1389093F23886E190E0809331399D
:102660009093323981E090E0809371399093723980
:1026700021E3E22E28E3F22E35E3632E38E3732EB6
:1026800042E0542E59E5C52E5AE7D52E62E0A62E1B
:10269000B12C88248394912CD7018D919D917D013B
:1026A0000097D9F160EB78E30E94180B8091CA384B
:1026B0009091CB38E52DF0E0DF01AA0FBB1FA151AF
:1026C000B74C2091BC383091BD382D933C93DF013D
:1026D000AA0FBB1FA15DB64C8D939C93EE0FFF1FFD
:1026E000E159F64C10821182E1E0E50DF0E05394DF
:1026F0005394DF01AA0FBB1FA151B74CCD92DC92BE
:10270000DF01AA0FBB1FA15DB64CAD92BC92EE0FCC
:10271000FF1FE159F64C808291826E147F0409F00C
:10272000BBCF77247A94750CD9C39CE8980F92306C
:1027300028F0873619F0823709F0B8C28EEF8F0D76
:10274000823008F081CCE0912638CE2ED12CD801F1
:10275000AF0DB11D1197F601EE0FFF1FE155F64CBD
:1027600040E050E06C91808191812DD8F601EE0F10
:10277000FF1FEF54F64C80839183E0912638F0E000
:10278000EE0FFF1FEF54F64C80819181009709F402
:102790007BC2B3E0FB126DC1F8012081253719F02F
:1027A000273609F066C1612C7724739454E6C52E50
:1027B00059E7D52E61E2A62EB12C88248394912C62
:1027C000E62CF12CC701880F991F9C012F5C374C18
:1027D0007901D9018D919C91009781F0F801618177
:1027E0000E948F0B882351F065E878E3D7018D9123
:1027F0009C910E94180B32E0632E1EC0B1E06B1258
:102800001AC0E72DF0E0DF01AA0FBB1FA151B74CA2
:10281000CD92DC92DF01AA0FBB1FA15DB64CAD9239
:10282000BC92EE0FFF1FE159F64C80829182F801B5
:102830001082739401C0612C6394F1E06F1609F467
:10284000BFCFD8018C91882309F448C3E091263882
:10285000F0E0EE0FFF1FEF54F64C60EB78E3808161
:1028600091810E94180BE090CE38F090CF38B1E003
:10287000EB16F10409F09AC098012E5F3F4F40E03B
:1028800061E08091C0389091C1380E940D0AF80132
:10289000428121E0270D872D90E0413309F06BC084
:1028A0003091903851EE530FFC01EE0FFF1FE151B4
:1028B000F74C543060F044E059E740835183FC0109
:1028C000EE0FFF1FE15DF64C4AE150E064C06EE898
:1028D00075E760837183FC01EE0FFF1FE15DF64C2D
:1028E00062EB70E060837183880F991FFC01E159EE
:1028F000F64CE082F182822F90E0FC01EE0FFF1F88
:10290000E151F74C6BE57AE760837183FC01EE0FD0
:10291000FF1FE15DF64C62E070E060837183880F19
:10292000991FFC01E159F64CE082F18282E0870DAB
:1029300090E0F3E07F0EFC01EE0FFF1FE151F74C3A
:1029400060EB78E760837183FC01EE0FFF1FE15DB0
:10295000F64C62E170E060837183880F991FFC017F
:10296000E159F64CE082F1824093DE383093DF3853
:102970001092E038B3C2FC01EE0FFF1FE151F74C9B
:1029800040E456E740835183FC01EE0FFF1FE15DF9
:10299000F64C42E450E040835183880F991FFC01BC
:1029A000E159F64CE082F182722E98C29091B938CA
:1029B00080919038981324C08091BA380E94BB0847
:1029C0002091D6383091D738872D90E0FC01EE0F5A
:1029D000FF1FE151F74C4091C8385091C9384083EE
:1029E0005183FC01EE0FFF1FE15DF64C2083318324
:1029F000880F991FFC01E159F64C1082118237C0F3
:102A0000D8018C91853799F4872D90E0FC01EE0F69
:102A1000FF1FE151F74C24E039E720833183FC01AB
:102A2000EE0FFF1FE15DF64C2AE130E015C087365E
:102A300009F054C2872D90E0FC01EE0FFF1FE15119
:102A4000F74C2DED36E720833183FC01EE0FFF1F9D
:102A5000E15DF64C28E230E020833183880F991F36
:102A6000FC01E159F64C81E090E0808391837394FE
:102A700035C260EB78E30E94180BF801808184373F
:102A800069F58091B83883FD44C08EE199E7809361
:102A9000F1389093F2388EE190E080933139909341
:102AA000323981E090E0809371399093723980914E
:102AB000CA389091CB382091BC383091BD382093E2
:102AC000F3383093F438809333399093343910923B
:102AD000733910927439A3E07A2E00C2853739F425
:102AE0008091B83884FD15C084E099E735C28237FB
:102AF00069F48091B83885FD0CC089EE98E7809321
:102B0000F1389093F2388BE190E01DCB873609F4D1
:102B10009BCAE090CE38F090CF38F1E0EF16F10488
:102B200011F598012E5F3F4F40E061E08091C03881
:102B30009091C1380E940D0AD80112968C91813370
:102B400009F0A7CC83E695E78093F1389093F238AB
:102B50008BE290E08093313990933239E092713971
:102B6000F0927239FACAE114F10409F459C0809163
:102B7000C0389091C1388093F1389093F238E09248
:102B80003139F092323910927139109272398BE5E5
:102B90009AE78093F3389093F43882E090E0809342
:102BA00033399093343981E090E080937339909376
:102BB000743920EB38E72093F5383093F63822E16A
:102BC00030E02093353930933639809375399093BE
:102BD00076398091D0389091D138409730F08FE09D
:102BE00090E08093D0389093D1382EED38E340E0D8
:102BF0006091D0388091C2389091C3380E940D0AFC
:102C00006EED78E38091D0380E94000AE091D038D0
:102C1000F091D138E252F74C1082F4E07F2E5EC181
:102C20008091B7380E94C3088823C9F08091D638B4
:102C30009091D7382091C8383091C9382093F13815
:102C40003093F23880933139909332391092713940
:102C5000109272398091BA380E94BB087ECA809166
:102C6000D4389091D5382091C6383091C738209308
:102C7000F1383093F2388093313990933239109291
:102C800071391092723969CAF8018081843711F064
:102C9000873619F48CE399E702C080E599E78093C1
:102CA000F1389093F23884E190E04DCA813609F012
:102CB000F0CB8091DD38823008F4B3C0D801119692
:102CC0002C91222309F4A4C0FE0131967F018AE0F1
:102CD000DF011D928A95E9F72153F80121833281A2
:102CE000315332838381813611F481E008C0853607
:102CF00011F4138208C0863621F483E0F80183833F
:102D000002C082E0838321FD04C080E090E0DC010A
:102D100004C080E090E0A0E1B0E020FF03C09F5F2E
:102D2000AF4FBF4FF801238121FD119620FF03C053
:102D30004096A11DB11D31FF03C0905FAF4FBF4F43
:102D400030FF03C00196A11DB11D4091303824E031
:102D500030E0241B3109BC01CD0104C0660F771F90
:102D6000881F991F2A95D2F726E035E72093F1387E
:102D70003093F23820E230E0209331393093323909
:102D800021E030E0209371393093723959E0B52E4B
:102D9000EAE04E2E512C612C712C6701CB0CD11C1A
:102DA000A301920136D2D6016C93B901CA01611513
:102DB00071058105910551F42FEEC22E28E3D22E24
:102DC00032E0732E88248394912C02C0BA94E5CF0C
:102DD000F2E0CF0ED11C29E02B1508F47DC07394CE
:102DE000F701EB0DF11D808190E08D529B48F601BB
:102DF00082839383EE5BFF4F80829182E05CFF4F82
:102E0000808291828091BA380E94BB08B394E0CF4F
:102E100086E295E78093F1389093F2388DE390E065
:102E20004FC0E0912638F0E0EE0FFF1FEF54F64C54
:102E300060EB78E38130C1F5808191810E94180BAD
:102E40008091B7380E94C3088823C9F08091D63892
:102E50009091D7382091C8383091C9382093F138F3
:102E60003093F2388093313990933239109271391E
:102E7000109272398091BA380E94BB082BC08091A1
:102E8000D4389091D5382091C6383091C7382093E6
:102E9000F1383093F238809331399093323910926F
:102EA00071391092723916C0808191810E94180B7D
:102EB0008EE998E78093F1389093F23882E190E0C0
:102EC000809331399093323981E090E08093713969
:102ED0009093723982E0782E1092DE38D8011C92DD
:102EE000109237381DBA8BE59AE78093EF389093AC
:102EF000F03882E090E080932F399093303981E070
:102F000090E080936F39909370398091DE388823F8
:102F100019F07092EE38A4C0872D17C0F801108206
:102F2000109237381DBA8BE59AE78093EF3890936B
:102F3000F03882E090E080932F399093303981E02F
:102F400090E080936F39909370390E949C0A80932F
:102F5000EE3886C084ED99E78093F1389093F2388B
:102F60008AE190E0F0C8F2E0FF126EC8F8016181DA
:102F70000E948F0B882309F45BC080E090E0880FEB
:102F8000991F9C012F5C374C790160EB78E3D901E4
:102F90008D919C910E94180B84ED97E78093F138F6
:102FA0009093F23880E190E08093313990933239F8
:102FB00081E090E080937139909372392091CA3802
:102FC0003091CB384091BC385091BD384093F338A4
:102FD0005093F43820933339309334391092733945
:102FE000109274392BE53AE72093F5383093F63890
:102FF00022E030E0209335393093363980937539AB
:103000009093763927E937E72093F7383093F838EB
:103010002DE330E020933739309338398093773976
:1030200090937839F70110821182F5E07F2E56CF08
:103030008091333890913438009749F0F8016181DC
:103040000E948F0B882319F081E090E098CF84E6EE
:1030500099E78093F1389093F23881E290E073C859
:1030600080E02A96CDBFDEBFDF91CF911F910F91F7
:10307000FF90EF90DF90CF90BF90AF909F908F9098
:103080007F906F905F904F900895CF930E946E0C49
:10309000882311F0C1E013C00E94C20C8111FACF45
:1030A00084E498E30E94090DC82F811107C084E4CD
:1030B00098E30E94F50F0E941A0801C0C2E08C2F0D
:1030C000CF9108950E94CF038FEF0E943707A4E9A4
:1030D000B2EB81E0ED91F0E0EB54F54C8083159676
:1030E000EC911597F0E0EB54F54C808322EBAA3974
:1030F000B20781F7E6E8F2EB91E0EF01A581B0E0DD
:10310000AB54B54C81E09C933196A881B0E0AB54B0
:10311000B54C9C9322EBEB38F20779F7E09192B231
:10312000F0E0EB54F54C8083E09193B2F0E0EB5487
:10313000F54C8083E09190B2F0E0EB54F54C808345
:10314000E09191B2F0E0EB54F54C8083E09184B2D1
:10315000F0E0EB54F54C8083E09185B2F0E0EB5465
:10316000F54C8083E09183B2F0E0EB54F54C808322
:10317000E09182B2F0E0EB54F54C80830E940A09A2
:10318000809135388823D1F3809107380E94480711
:10319000809307381092353878DF0E9490020E94A1
:1031A000A8090E949F018091913A9091923A0A97C2
:1031B00020F461E084E70E94A1088091913A909107
:1031C000923A85369105D0F260E084E70E94A1082A
:1031D000D5CF991B79E004C0991F961708F0961B6C
:1031E000881F7A95C9F780950895AA1BBB1B51E1EA
:1031F00007C0AA1FBB1FA617B70710F0A61BB70B67
:10320000881F991F5A95A9F780959095BC01CD010B
:103210000895A1E21A2EAA1BBB1BFD010DC0AA1F17
:10322000BB1FEE1FFF1FA217B307E407F50720F02F
:10323000A21BB30BE40BF50B661F771F881F991FAA
:103240001A9469F760957095809590959B01AC01F3
:0A325000BD01CF010895F894FFCFEF
:10325A002D7D39575C79514234617D593B655B4418
:10326A000100000201020001010300030103010041
:10327A0001020101010301000D0B0C0A0201050004
:10328A0003042422212308200925141211131015DE
:10329A001C1A191B181D0101020102020102020176
:1032AA000202020202010102696464716400746824
:1032BA00652074726F75626C652077697468207214
:1032CA0065616C206C6966652069732C2074686579
:1032DA0072652773206E6F2072657365742062753C
:1032EA0074746F6E00636865617400436865617425
:1032FA0065722120436F6E74616374206261646732
:10330A0065207465616D2E2E2E20005265736574DA
:10331A0020706C6561736521200074BFFA541C9695
:0A332A00B2261EEBD68BC0C20A616A
:10333400FFFF012B382B38FF0101FF01FF8080C004
:10334400FFC0FFC0804001400140800001D4010360
:08335400070F1F3F7FFFFF0080
:00000001FF
