S00E00004953525F494F2E7372656331
S11300003DC0000058C0000056C0000054C00000AD
S113001052C0000050C0000023C4000075C400009A
S113002077C2000048C0000046C0000044C0000081
S113003042C00000C1C20000F2C200003CC0000087
S11300403AC0000038C0000036C0000034C00000D0
S113005089C3000030C00000B3C300002CC00000FE
S11300602AC0000028C0000026C000002BC30000E6
S11300705DC3000020C000001EC0000011241FBE8C
S1130080CFEFCDBFDFE3DEBF18E3A0E0B8E3E7E1E5
S1130090F4E102C005900D92A031B107D9F729E32C
S11300A0A0E1B8E301C01D92A33AB207E1F70E94B0
S11300B024090C94E409A4CF81E080932204E6E2AD
S11300C0F4E0808310923004A1E2B4E092E09C93C7
S11300D0908310923104E0E1F8E09DE2968398E089
S11300E0948383838C938581816085838581846CEB
S11300F085830895E0E1F8E0848188608483138235
S113010082E08093220489E0A1E2B4E091E0E2E29B
S1130110F4E09C9320E12A95F1F700C0908320E15C
S11301202A95F1F700C08150A1F7E0E1F8E028E05A
S1130130248381E08383A1E2B4E092E09C939581DF
S1130140916095839581946C9583248383838C93A8
S11301508581816085838581846C85830895282FBA
S1130160E0E1F8E09581906C95839581892F847006
S113017092FD03C020931708089584E008958CE04D
S11301808093D338E0E1F8E004C08091D338882329
S1130190B9F0858188231CF0858186FFF6CFE0E1E4
S11301A0F8E08581806C8583858182FD0BC0809118
S11301B0150883FD09C08091150882958170089502
S11301C08FEF089584E0089582E00895DC019CE0B7
S11301D09093D33890911508892F8370823039F029
S11301E088E008959091D338911103C02AC0E0E1CA
S11301F0F8E095819923B4F7E0E1F8E09581906CFB
S11302009583958192FD1FC09091150893FD1EC0A2
S113021090911508892F807194FD17C0611109C050
S113022094819B7F948390859C9394819260948322
S11302300895E0E1F8E094819460948390859C9320
S113024008958FEF089584E0089581E00895FC01F6
S11302509CE09093D3389091150893709230B1F448
S1130260808180931808E0E1F8E004C08091D338DD
S1130270882371F0858186FFF9CF8091150882FD6E
S113028009C08091150882958170089588E00895C9
S11302908FEF089584E00895E0E1F8E084818360BD
S11302A084830895CF92DF92EF92FF920F931F936E
S11302B0CF93DF93EB01C42E7901182F110F812FF7
S11302C04EDF81113CC05BDF813019F4E5DF81E052
S11302D038C0811134C0CC2079F0CA94D12C8FEF6E
S11302E0C81AD80ACC0EDD1ECE01B1DF811127C099
S11302F02196CC16DD06C1F7013408F000E41F5F37
S113030010931708023090F00250C02FD0E02196CD
S1130310CE0DDF1D60E0C70159DF811110C08FEFE2
S1130320E81AF80AEC16FD06A9F701C0E70161E036
S1130330CE014CDF811103C0AFDF80E002C0DADE02
S11303408FEFDF91CF911F910F91FF90EF90DF908E
S1130350CF900895CF93DF93F89488ED84BFC1E0E4
S1130360C09361008AE4809300048CE780932004A6
S11303708FE380934004C0930102D2E0D09305043C
S11303802BE531E0209308083093090890EA909314
S1130390050890EC9093060893E0909307081CBA24
S11303A01DBA1EBA1FBAC093030AE0E0FAE098E04F
S11303B090838093020287E78093010AC0930A0A1C
S11303C08BE08093050A80818160808385E080933F
S11303D0400A1092410A8FEF91E080934C0A909367
S11303E04D0A1092450AC093500A1092510A8BE8A4
S11303F093E080935C0A90935D0AC093550A5CDE97
S113040082E18093A00080E28093A200C093A100C7
S1130410E0E0F6E086E0808384E4809302068EE1E7
S113042080930606C0930A06808181608083C0930E
S11304300806E0E4F6E01082D093410682E580935A
S1130440420684E08093450680934606C0934A069C
S1130450808181608083C0934806E0EAF6E080E40E
S1130460808380E88093A106808181608083E1E4B9
S1130470F1E0808180FDFDCF80E380934001109204
S11304804701E1E4F1E0808182FDFDCFEAE4F1E09F
S113049080E098E78083918380914801909149019D
S11304A06081718182966DD7809380399093813970
S11304B0E1E4F1E0808183FDFDCF8091803990916A
S11304C0813980934C0190934D0183E080934201E4
S11304D081E08093520188E080935001E1E4F1E0EF
S11304E0808180FDFDCFE0E4F1E080818160808344
S11304F0E0E5F1E0808181608083E4EEF8E310823E
S1130500E0932F39F09330397894DF91CF910895A7
S11305101F920F920FB60F9211248F939F93AF9354
S1130520BF93EF93FF9387E08093460484E4809322
S11305302604ECB3F0E0EE0FFF1FEE0FFF1FEE0FEB
S1130540FF1FEA5AF64CA8E2BAE096E081918D9337
S11305509A95E1F78BE08093050A8CB3833058F4C5
S11305608CB391E001C0990F8A95EAF799B98CB3DD
S113057083958CBB0AC08CB3833021F42A9A83956B
S11305808CBB03C02E9A88278CBB8091D3388823D8
S113059029F08091D33881508093D3388FEF8093A2
S11305A00B0AFF91EF91BF91AF919F918F910F90A3
S11305B00FBE0F901F9018951F920F920FB60F92B7
S11305C011248F939F93EF93FF93E0912F39F09130
S11305D030398081882391F0808180930208809152
S11305E02F3990913039019680932F399093303977
S11305F0E5E0F8E080818062808305C081E080933B
S113060004381092450A81E08093460AFF91EF91E5
S11306109F918F910F900FBE0F901F9018951F926E
S11306200F920FB60F9211242F933F934F938F93F2
S11306309F93EF93FF93E0910238F0910338808108
S1130640811108C08091003890910138809302385C
S113065090930338E0910238F09103388081882325
S1130660E1F0208140912C3930E02F573109429F2D
S1130670C001439F900D1124892F990F990B805825
S11306809F4F8093A1068091023890910338019680
S1130690809302389093033806C080E88093A106C3
S11306A081E080937E3981E08093560AFF91EF9137
S11306B09F918F914F913F912F910F900FBE0F906B
S11306C01F9018951F920F920FB60F9211248F93BB
S11306D0EF93FF938091143881111DC0EDB3F0E0C6
S11306E080910008EC51F74C8083EDB3F0E0EC51BD
S11306F0F74C80818A3049F4EDB3F0E0EC51F74CCB
S1130700108281E08093143806C08DB3873418F4C6
S11307108DB38F5F8DBB80E880930408FF91EF91C8
S11307208F910F900FBE0F901F9018951F920F92EC
S11307300FB60F9211248F93EF93FF9310924A0AEE
S113074010924B0A81E08093450AE5E0F8E080814D
S11307508F7D8083FF91EF918F910F900FBE0F904B
S11307601F9018951F920F920FB60F9211248F931A
S1130770EF93FF9380911138811115C08EB38F5F71
S11307808F718EBB809106068E3129F480911006FC
S113079080937F390AC0EEB3F0E080911006EA5CE2
S11307A0F64C808302C01092113881E080930B06CE
S11307B0FF91EF918F910F900FBE0F901F9018959E
S11307C01F920F920FB60F9211248F939F938091D3
S11307D0460681110CC08091500690915106809379
S11307E033399093343981E08093460623C0809155
S11307F04606813079F488E080930604809150069F
S113080090915106809331399093323984E08093EA
S1130810460610C0809150069091510680932D3960
S113082090932E398FB38F3029F41092460688E0C6
S1130830809305048FB390E001968F70907899238C
S113084024F40197806F9F6F01968FBB81E08093A2
S11308504B069F918F910F900FBE0F901F9018958C
S11308601F920F920FB60F9211245F936F937F9391
S11308708F939F93AF93BF93EF93FF938091430123
S113088081FF28C0809112388F3F29F0809112385F
S11308908F5F809312388091480190914901609153
S11308A04A0170914B0182966CD580938039909364
S11308B08139E1E4F1E0808183FDFDCF80918039CD
S11308C09091813980934C0190934D0182E0809303
S11308D043010CC0809113388F3F29F08091133865
S11308E08F5F8093133881E080934301FF91EF91F0
S11308F0BF91AF919F918F917F916F915F910F9075
S11309000FBE0F901F9018951F920F920FB60F9263
S113091011248F9381E080934806809353018F9133
S11309200F900FBE0F901F901895E2E0F0E19081B8
S113093091FDFDCF442359F0A62FB72F480FE82F80
S1130940F0E0FC5E90819D938F5F4813F8CF08958B
S1130950FF920F931F93CF93DF93E82F442379F1F2
S1130960C2E0D0E13DE900E010E154E00F2EF3E0F5
S1130970FF2EF02D888181FDFDCF34BFD8015C931B
S1130980442391F02E2F2F7191E09E0F6F5F7F4FC4
S1130990DB0111978C91F0E0FC5E8083415021F0E3
S11309A0E92F2F3179F70FC08DE984BF83E080935D
S11309B000108091021082FB882780F90CC080E02F
S11309C00AC081E008C034BFF801F082888182FD4A
S11309D0F8CFE92FCFCFDF91CF911F910F91FF90E7
S11309E008959C0190910438992359F020932F394C
S11309F0309330391092043881E08093450A80E0C6
S1130A00089581E00895282F811101C021E08FEF1E
S1130A1090E0821B9109982F882781509F4F8093E3
S1130A204C0A90934D0A08958091053890910638A8
S1130A309C01322F22273295330F307E8227932751
S1130A409C01232F33272695822793279C013695D3
S1130A50322F2227379527958227932780930538AD
S1130A60909306380895DF92EF92FF920F931F93AD
S1130A70CF93DF93E62EF72E8A01C0915C0AD091C2
S1130A805D0AE82FF0E03197E770FF27E95FF74C44
S1130A90D080CADF8D21C80FD11DC6DF8D21C81BB0
S1130AA0D1090C171D0708F4E8018E2D9F2D8C1712
S1130AB09D0708F4CE0180935C0A90935D0ADF9150
S1130AC0CF911F910F91FF90EF90DF9008950F93B6
S1130AD01F93CF93DF93C82F042F122FE62FF0E03C
S1130AE03197E770FF27E95FF74CD0819DDF8D23B5
S1130AF0C80F9ADF8D23C81B8C2F112341F09C2F24
S1130B001C1708F4912F802F091708F4892FDF91FF
S1130B10CF911F910F910895CF92DF92FF920F937F
S1130B201F93CF93DF93CDB7DEB76097CDBFDEBF02
S1130B3040E1BE016F5F7F4F80E0F7DE04ED18E314
S1130B40CE0101966C01F12CF60181916F01F8013F
S1130B509081981731F041E0B8018F2DF9DE8111B1
S1130B6008C0F3940F5F1F4FF0E1FF12EDCF80E058
S1130B7001C081E06096CDBFDEBFDF91CF911F91B0
S1130B800F91FF90DF90CF900895E82FEF73E695D3
S1130B90E695E695F0E0EC52F74C208130E0877062
S1130BA0A90102C0559547958A95E2F7CA0181705B
S1130BB00895E82FEF736623A1F0E695E695E69590
S1130BC0F0E0EC52F74C877021E030E0A90102C05C
S1130BD0440F551F8A95E2F7CA019081892B8083BF
S1130BE00895E695E695E695F0E0EC52F74C8770AB
S1130BF021E030E0A90102C0440F551F8A95E2F7B5
S1130C00CA0180959081892380830895E4EDF8E3F7
S1130C1084EE98E311928E179F07E1F7E3E0F1E188
S1130C2080E09191890FED3091E1F907D1F783705C
S1130C3031F4E4EDF8E3858180648583089581309F
S1130C4031F4E4EDF8E3858180688583089582308A
S1130C5031F4E4EDF8E3868181608683089583307E
S1130C6029F4E4EDF8E38681826086830895CF93C6
S1130C70DF93DC01E9016623A9F050E0440F551F1E
S1130C80440F551F440F551F4D515C46FD01E7703D
S1130C90FF27E40FF51F8881908198279993119677
S1130CA06150A1F7DF91CF910895AF92BF92CF9297
S1130CB0DF92EF92FF920F931F93CF93DF9300D0B5
S1130CC0CDB7DEB7D62EC42E59017C01E894F7F8CF
S1130CD0F982EA82062F42E0BE016F5F7F4F80E512
S1130CE0E1DA182F811105C095014C2D6D2DC70136
S1130CF0BEDF812F0F900F90DF91CF911F910F9145
S1130D00FF90EF90DF90CF90BF90AF9008958F5FEA
S1130D10883040F4E82FF0E0E554F74C10828F5F00
S1130D208830C1F70895FC019081911107C081E0DA
S1130D30089581E0921739F080E00895FB01208145
S1130D402111F7CF81E008951F93CF93DF93EB0137
S1130D50122F6F3F7105D1F0C8F050E06FEF252FCF
S1130D6030E0F901EE0FFF1FED53F74C80839183C0
S1130D70F901E554F74C608381509F4FCF5FD1094F
S1130D805F5FCF3FD10509F050F701C050E0252F38
S1130D9030E0F901EE0FFF1FED53F74C8083918390
S1130DA0F901E554F74C9E01A1E8B0E8FED2880FA2
S1130DB0892F881F990B91956FEF689F9001699F08
S1130DC0300D1124C21BD30BC0834093B838852F38
S1130DD09EDF1093B9381092BA3880E0DF91CF913A
S1130DE01F9108956F927F928F929F92AF92BF92BC
S1130DF0CF92DF92EF92FF920F931F93CF93DF93E3
S1130E00CDB7DEB72C97CDBFDEBF8C015B019E0151
S1130E102F5F3F4F40E06CE0809647DF898190E090
S1130E20982F88272A81822B8096F50180839183CD
S1130E308B8190E0982F88272C81822B8096828347
S1130E409383FE013596D50114969E01235F3F4F8F
S1130E5081918D93E217F307D9F73801FCE26F0E05
S1130E60711C035D1F4FF501048715876501FEE0C2
S1130E70CF0ED11C45018AE1880E911C730102C07A
S1130E807801380183019E012F5F3F4F40E061E00C
S1130E90C8010BDF89819801280F311D89010F5F7B
S1130EA01F4F12F08F3F79F3E094F094E00EF11E9F
S1130EB0E894F7F8F601E486F5863F7721933193B9
S1130EC06F01E815F905E1F6061917091F77F50111
S1130ED006A317A32C96CDBFDEBFDF91CF911F9140
S1130EE00F91FF90EF90DF90CF90BF90AF909F90C5
S1130EF08F907F906F900895CF92DF92EF92FF9240
S1130F001F93CF93DF937C01CB01142F1F71C12E4C
S1130F10D12C20E230E0B9016C197D0932D2EC0108
S1130F20AC01112361F0E2E8F9E38FEF810F90E067
S1130F308D57964C3AE03193E817F907E1F7452BC2
S1130F4039F096012E57364C41E06C2FC701ADDEC7
S1130F50CE57D64CC10FD11D188282E899E341DDEA
S1130F60DF91CF911F91FF90EF90DF90CF90089584
S1130F70CF938091BA388830D8F59091043899236A
S1130F80B9F1282F30E0F901E554F74CE081909154
S1130F90B7389E1730F5CE2FC91BC13208F0C0E216
S1130FA0220F331FF901ED53F74C0190F081E02D2E
S1130FB022E839E34091B8386C2FDF01A90FB11D45
S1130FC0CD0173DE8091B7388C0F8093B738EC2F46
S1130FD0F0E0EE57F64C108282E899E302DD81E0FE
S1130FE032C01092B7388F5F8093BA3881E02BC03B
S1130FF080910438882311F18091B9388823F1F065
S1131000813039F442E062E070E08DE49CE774DF03
S113101011C0823039F440E061E070E08FE49CE775
S11310206BDF08C0833031F442E060E070E080E0C0
S113103090E062DF1092B93881E005C090910438E5
S113104081E0911180E0CF9108951F93CF93DF93B6
S1131050CDB7DEB72A97CDBFDEBF20911438222347
S113106009F46EC02091E438222351F120E030E0ED
S113107040E0F901EC51F74C5081513430F0F90162
S1131080EC51F74C50815B3548F0F901EC51F74CC9
S11310902081FC01E40FF11D208309C0F901EC510A
S11310A0F74C2081FC01E40FF11D206220834F5F87
S11310B0242F30E0F901EC51F74C50815111D9CF74
S11310C0FC0120812F3311F0283661F421E041E046
S11310D065EA73E08BE59CE737DE1DBA109214389D
S11310E081E02FC0213761F421E041E064E570E044
S11310F089EF9BE729DE1DBA1092143881E021C0E4
S113110063ED73E910DE8823E1F01EE660E0812FD1
S113111050DD1F5F1237D1F7FFDC8AE0E9EDF3E918
S1131120DE01119601900D928A95E1F78CE36BDC58
S1131130809104388823E1F3CE01019652DCF8CF84
S113114081E02A96CDBFDEBFDF91CF911F91089534
S11311500F931F93CF938C016FE878E380E090E0C6
S113116041DEC0918E38CC2331F110918D38812F1E
S113117090E0DC01AA0FBB1FA358B74CFC01EE0F93
S1131180FF1FE359F74C60817181880F991FFC019F
S1131190E35AF74C2C9140E080819181D5DD1F5FAB
S11311A010938D38C150C0938E38C11134C01DBA0C
S11311B01092143830C0F8018081882361F11092B4
S11311C08D388837B9F4EDE5F8E3AFE8B8E31C9659
S11311D08D919C911D97808391835A968D919C91BA
S11311E05B97808B918B81E090E080A391A38093A7
S11311F08E3811C091E9980F923068F08C3659F00E
S1131200982F9F7E9456923030F0893621F087369D
S113121011F0F8011082CF911F910F910895CF938F
S1131220A7DE81110BC085E198E30FDFC82F811180
S113123007C085E198E38CDF6FDC03C0C1E001C027
S1131240C2E08C2FCF910895CF93DF93CDB7DEB753
S1131250AB97CDBFDEBF7ED840E164ED78E380E09C
S113126064DB1EE600E0812F90DC080F1F5F12375D
S1131270D1F7013009F0CADC81E0C5DB84E2E3EF99
S1131280F3E9DE01119601900D928A95E1F7CE0102
S11312900196A7DB8FEFB7DB80E022E007C0392F90
S11312A03770363010F093E0980F892F883228F485
S11312B0E82FF0E0EA5AF64C208391E0980F983238
S11312C070F387E0ECECF3E9DE01959601900D9262
S11312D08A95E1F7CE018596809300389093013882
S11312E08FE780932C390BEA7E0185E2E80EF11C2E
S11312F011E0109F812D11248695982F990F890F45
S1131300181739F020E041E066E080E8E0DBF701FF
S113131081831F5FFFEFEF1AFF0A163051F78091A8
S11313201238882309F31092123840E057E060E045
S113133073E086E098DB80912C3920EA40E162E09A
S1131340C6DB80932C3920E940E762E08DA1BFDB46
S11313508DA3809588A763DF8091333990913439C8
S11313600A9718F461E084E724DC80913339909182
S113137034398536910508F4B7CF60E084E719DC89
S1131380B3CFAA1BBB1B51E107C0AA1FBB1FA617E3
S1131390B70710F0A61BB70B881F991F5A95A9F71A
S11313A080959095BC01CD010895A29FB001B39F93
S11313B0C001A39F700D811D1124911DB29F700D5A
S10F13C0811D1124911D0895F894FFCFA5
S11313CC80808080808000696464716400436865F7
S11313DC6174657221200074BFFA541C96B2261EE7
S11313ECEBD68BC0C20A610748E4636B6572486F25
S11313FC74656C32303230206261646765207065CC
S10E140C7374210808080808740A0023
S1131417103810380101D40103070F1F3F7FFF0065
S9030000FC
