:100000003DC0000058C0000056C0000054C00000B1
:1000100052C0000050C00000D0C700000C9434084B
:10002000FFC5000048C0000046C0000044C00000FA
:1000300042C0000046C6000077C600003CC0000079
:100040003AC0000038C0000036C0000034C00000D4
:1000500035C7000030C0000068C700002CC0000099
:100060002AC0000028C0000026C00000B0C6000062
:1000700009C7000020C000001EC0000011241FBEE0
:10008000CFEFCDBFDFE3DEBF18E3A0E0B8E3E6EBE0
:10009000F0E402C005900D92A033B107D9F72BE32D
:1000A000A0E3B8E301C01D92AC31B207E1F70E94B2
:1000B000601F0C94DC1FA4CF2091343885E190E0C0
:1000C0004091C43A50E04817590774F04091C43A3F
:1000D00050E0BC01685F7F4F641775072CF02093D8
:1000E00034388091343808952F5F4996863F9105C2
:1000F00039F7F5CFEF92FF920F931F93CF93DF93D2
:10010000C4E6D1E08C2F0E94650A811101C0D0E0C5
:10011000CF5FC836B9F7DD2319F08CE70E945B0A80
:100120008091C13A81111EC180913338811111C073
:1001300090913F3822E3929F902D112490930038A4
:1001400020E038E320930338309304389FEF9093F6
:10015000B83A4091C43A2091003830E050E0B901FB
:10016000655071094617570764F04091C43A50E052
:100170002B5F3F4F2417350724F0823008F040C032
:10018000EFC081110AC0809132388F5F809332387E
:10019000883008F4E7C081E081C0813089F58CDFC8
:1001A00080933138882349F1909132389F5F909342
:1001B0003238983008F4D6C090913F38913029F405
:1001C00083508330B8F482E069C0923031F48330D8
:1001D000D1F38550823070F4F6CF933039F49CEF30
:1001E000980F923080F3873029F4EDCF943011F4DA
:1001F0008550E7CF1092333853C010923238B0C0D8
:10020000823009F050C0809132388F5F809332384D
:10021000C8EEDFEB7E010D8110E00E94370987FFF9
:1002200003C080910C3801C080E0F801E453F54C24
:1002300080832196F701008110E00E94370987FF33
:1002400003C080910C3801C080E0F801E453F54C04
:100250008083FFEBCD3EDF07E9F6809132388830AE
:1002600040F02FEF44E668E080E80E948809809320
:100270000038809132388A3F08F474C090913F383A
:1002800080913138891B80933038981720F48AEF99
:100290008093003802C01092003883E08093333896
:1002A000109232385FC08330E1F5809132388F5F31
:1002B00080933238883008F455C0FEDE853009F06E
:1002C00099CF809130388D590E945B0A80913F38D8
:1002D0008D590E945B0A2091303830913F38A8EE4A
:1002E000BFEB80E0ED011596EC911597F0E08217D9
:1002F00018F490910C3801C090E0E453F54C9083D1
:100300001196E881F0E0831718F490910C3801C041
:1003100090E0E453F54C90838F5F853019F784E0CB
:10032000BDCF8430F9F4C8DE8530E1F480913238F5
:100330008F5F809332388A3FA8F0E8EEFFEB8DEEB6
:100340009FEBEF01A581B0E0A453B54C1C92319610
:10035000A881B0E0A453B54C1C928E179F0789F773
:100360001092333880E0DF91CF911F910F91FF9071
:10037000EF90089581E080932204E6E2F4E0808328
:1003800010923004A1E2B4E092E09C93908310922A
:100390003104E0E1F8E097E0968398E0948383836A
:1003A0008C938581816085838581846C85830895A4
:1003B000809114088860809314081092130882E0DA
:1003C0008093220499E021E081E02093210430E130
:1003D0003A95F1F700C02093220430E13A95F1F705
:1003E00000C0915089F728E02093140880931308E7
:1003F00092E09093210490911508916090931508D4
:1004000090911508946C909315082093140880938C
:10041000130880932104809115088160809315084A
:1004200080911508846C809315080895282F909169
:100430001508906C9093150890911508892F847079
:1004400092FD03C020931708089584E008958CE07E
:100450008093623A8091150887FD0AC08091150843
:1004600086FD06C08091623A8111F4CF8FEF089526
:1004700080911508806C809315088091150882FD85
:1004800009C08091150883FD07C0809115088295E9
:100490008170089584E0089582E00895FC018CE065
:1004A0008093623A90911508892F8370823011F001
:1004B00088E008959091150897FD06C09091623AE2
:1004C0009111F8CF8FEF089590911508906C90934B
:1004D00015089091150892FD1EC09091150893FD86
:1004E0001DC090911508892F807194FD16C09091C0
:1004F0001408611102C09B7F01C09460909314089E
:10050000909118089083611109C09091140892602D
:1005100090931408089584E0089581E00895FC0103
:100520008CE08093623A9091150893709230B1F408
:100530008081809318088091150886FD06C08091FF
:10054000623A8111F8CF8FEF08958091150882FDEE
:1005500007C08091150882958170089588E00895FC
:1005600084E00895E0E1F8E0848183608483089565
:10057000CF92DF92FF920F931F93CF93DF936B0184
:10058000F42EE901182F110F812F50DF81112BC09C
:100590005EDF813019F4E6DF81E027C0811123C0DE
:1005A000FF2049F0C601BBDF81111DC08FEFC81AC3
:1005B000D80AFA94F5CF013408F000E41F5F1093D5
:1005C0001708023040F060E0CE0168DF81110BC0F7
:1005D00021960150F6CF61E0CE0160DF811103C0AA
:1005E000C1DF80E002C0E4DE8FEFDF91CF911F9189
:1005F0000F91FF90DF90CF900895109238381092AD
:10060000373881E08093023810923C3810923D38A0
:100610000895CF9380913E38833071F46AE070E0A2
:1006200080913538909136380E947B0D882321F0D7
:10063000E4DF10923E389BC08BE747D7811197C00B
:1006400080913E38882319F0833009F090C0C09122
:10065000E4BFEC2FF0E0809108388F3F19F09091C3
:100660000C3801C090E0E453F54C90838F3F09F4BF
:100670007EC090910738891709F479C00E946C0DEB
:100680008093353890933638809107388F3F09F042
:100690006EC08091083820E2829FC0011124815CE5
:1006A0009E4F80933C3890933D3880913E38833004
:1006B00009F0A3DF83E080933E3880913838E82F3B
:1006C000F0E0E453F044208190910838291312C0DF
:1006D00090910238917090930238E091F3BFF0E06E
:1006E000E453F54C1082E091F2BFF0E0E453F54C96
:1006F000108209C010920238843028F47EDF82E034
:1007000080933E3834C08F5F80933838909137386B
:100710009F5F943018F49093373829C0109237387F
:10072000909102389130E1F4982F937069F4E82F9A
:10073000E695E695F0E0EA50F044E581F0E090912E
:100740000C38E453F54C9083883189F48BE7B3D6A9
:10075000EC2FF0E0E453F54C108282E490E003C00B
:100760004CDF81E290E080933C3890933D3880E00C
:10077000CF91089510924B3810924C3810924A380D
:1007800081E080930D381092493810923C381092D5
:100790003D38089597FF03C09195819591099C017B
:1007A000220F331F293731051CF041E040933E38BA
:1007B00040913E38413021F5283731051CF460E086
:1007C00080E01DC0883791051CF461E081E017C00E
:1007D0002C3241E034071CF462E082E010C0280FA4
:1007E000391F283532401CF463E083E008C08C32A6
:1007F00091401CF464E084E002C065E085E03EC7FF
:100800000895CF93DF9380913E38813071F46AE090
:1008100070E080914738909148380E947B0D882382
:1008200021F0A8DF10923E38E5C087EF4ED6811147
:10083000E1C08DE74AD68111DDC080913E3882301B
:1008400008F0D8C08091F53A9091F63A892B41F49E
:100850008091BD3A9091BE3A8093F53A9093F63AE2
:10086000C091BD3AD091BE3A8091F53A9091F63A56
:10087000C81BD90BCE018EDF80914E38813089F0B4
:1008800018F08230C1F01FC0C43D9EEFD90714F4A8
:1008900091E004C0CD32D1405CF092E090934D38AD
:1008A00012C0CD3291E0D907C4F7C938DF4F84F3C5
:1008B00010924D3808C0C43D9EEFD9074CF3C8379D
:1008C000D105B4F3EACFC091E4BFEC2FF0E09091F2
:1008D0004D38992319F020910C3801C020E0E453E1
:1008E000F54C20832FE931E020933C3830933D389C
:1008F000891709F47FC00E946C0D8093473890934C
:10090000483890914C3880914D38911108C0882317
:1009100031F091E0813009F490E090934938809370
:100920004E38882309F466C080913E38811101C099
:1009300021DF81E080933E388091493820914E3804
:10094000882311F083E0282730E080914C38E82F8D
:10095000F0E0EE5CFF43408150E02417350791F44E
:1009600090910D38917090930D38E091F3BFF0E0C5
:10097000E453F54C1082E091F2BFF0E0E453F54C03
:10098000108202C010920D388F5F80934C38909186
:100990004A389F5F933018F490934A382BC01092D6
:1009A0004A3890910D389130E1F490914B38E92F0D
:1009B000F0E0EA50F044E681F0E020910C38E45396
:1009C000F54C20839F5F90934B38823199F48DE7EB
:1009D00072D5EC2FF0E0E453F54C108282E490E005
:1009E00005C0C8DE10923E3881E290E080933C382A
:1009F00090933D3880E0DF91CF910895CF93DF93BE
:100A0000F89488ED84BFC1E0C09361008AE48093CC
:100A100000048CE7809320049FE39093400480912E
:100A200053048068809353048091540480688093B9
:100A30005404809155048068809355048091330458
:100A400080688093330480913404806880933404F8
:100A500080913504806880933504C0930102D2E010
:100A6000D09305042BE531E0209308083093090862
:100A700080EA8093050880EC8093060883E08093E9
:100A800007081CBA1DBA1EBA1FBAC093030A88E031
:100A90008093000A9093020287E78093010AC09333
:100AA0000A0A8BE08093050A8091000A8160809396
:100AB000000A85E08093400A1092410A8FEF91E08E
:100AC00080934C0A90934D0A1092450AC093500AA5
:100AD0001092510A8BE893E080935C0A90935D0A30
:100AE000C093550A47DC82E18093A00080E28093A6
:100AF000A200C093A100D093000684E48093020674
:100B00008EE180930606C0930A06809100068160FC
:100B100080930006C093080610924006D0934106C9
:100B200082E58093420684E08093450680934606E2
:100B3000C0934A0680914006816080934006C0932E
:100B4000480680E48093A00680E88093A106809107
:100B5000A00681608093A0068091410180FDFCCFBA
:100B600080E380934001109247018091410182FD12
:100B7000FCCF80E098E780934A0190934B018091ED
:100B800048019091490182968093F93A9093FA3AFC
:100B900020914A0130914B018091F93A9091FA3AB3
:100BA0002817390770F420914A0130914B01809148
:100BB000F93A9091FA3A821B930B8093F93A909309
:100BC000FA3A8091410183FDFCCF8091F93A9091EE
:100BD000FA3A80934C0190934D0183E08093420157
:100BE00081E08093520188E080935001809141011F
:100BF00080FDFCCF80914001816080934001809115
:100C000050018160809350011092773A87E79AE310
:100C10008093BB3A9093BC3A7894DF91CF9108953A
:100C20001F920F920FB60F9211248F939F93AF9341
:100C3000BF93EF93FF9387E08093460484E480930F
:100C40002604ECB388E0E89FF0011124E453F54C4E
:100C5000A8E2BAE096E081918D939A95E1F78BE056
:100C60008093050A8CB3833058F48CB391E001C0B3
:100C7000990F8A95EAF799B98CB383958CBB0AC012
:100C80008CB3833021F42A9A83958CBB03C02E9AAF
:100C900088278CBB8091623A882329F08091623A40
:100CA00081508093623A8FEF80930B0AFF91EF910E
:100CB000BF91AF919F918F910F900FBE0F901F909A
:100CC00018951F920F920FB60F9211248F939F9336
:100CD000EF93FF93E091BB3AF091BC3A8081882377
:100CE00091F08081809302088091BB3A9091BC3A48
:100CF00001968093BB3A9093BC3A8091050880623C
:100D00008093050805C081E0809309381092450A58
:100D100081E08093460AFF91EF919F918F910F9010
:100D20000FBE0F901F9018951F920F920FB60F9243
:100D300011242F933F934F938F939F93EF93FF93A0
:100D4000E0910538F09106388081811108C08091CA
:100D50000338909104388093053890930638E091D9
:100D60000538F091063880818823E1F02081409198
:100D7000B83A30E02F573109429FC001439F900D90
:100D80001124892F990F990B80589F4F8093A106AA
:100D9000809105389091063801968093053890939C
:100DA000063806C080E88093A10681E08093F43A7B
:100DB00081E08093560AFF91EF919F918F914F911F
:100DC0003F912F910F900FBE0F901F9018951F927B
:100DD0000F920FB60F9211248F93EF93FF93809190
:100DE0004638811144C0EDB3F0E080910008E95825
:100DF000F54C8083EDB3F0E0E958F54C80818093A9
:100E00000208EDB3F0E0E958F54C80818A3039F002
:100E1000EDB3F0E0E958F54C80818D3049F4EDB345
:100E2000F0E0E958F54C108281E0809346381FC00D
:100E3000EDB3F0E0E958F54C8081883039F0EDB33E
:100E4000F0E0E958F54C80818F3759F48DB3882351
:100E500041F0EDB3F0E0E958F54C10828DB38150CC
:100E600005C08DB3803418F48DB38F5F8DBB80E8DF
:100E700080930408FF91EF918F910F900FBE0F9018
:100E80001F9018951F920F920FB60F9211248F93F7
:100E9000EF93FF9310924A0A10924B0A81E08093DD
:100EA000450AE5E0F8E080818F7D8083FF91EF9136
:100EB0008F910F900FBE0F901F9018951F920F9259
:100EC0000FB60F9211248F939F93EF93FF9380910E
:100ED0003938811119C08EB38F5F87708EBB8091B6
:100EE00006068E3149F48091100690911106809388
:100EF000F73A9093F83A0DC0EEB3F0E08091100607
:100F0000EC53F54C808305C0809139388150809333
:100F1000393881E080930B06FF91EF919F918F917B
:100F20000F900FBE0F901F9018951F920F920FB643
:100F30000F9211248F939F938091460681110AC0CE
:100F400080915006909151068093BF3A9093C03A99
:100F500081E010C080914606813079F488E080936A
:100F6000060480915006909151068093BD3A90936B
:100F7000BE3A84E08093460610C08091500690915E
:100F800051068093B93A9093BA3A8FB38F3029F4CF
:100F90001092460688E0809305048FB390E0019696
:100FA0008F7099278FBB81E080934B069F918F9123
:100FB0000F900FBE0F901F9018951F920F920FB6B3
:100FC0000F9211242F933F938F939F93809143010E
:100FD00081FF39C0809144388F3F29F08091443897
:100FE0008F5F8093443880914801909149018296A7
:100FF0008093F93A9093FA3A20914A0130914B014B
:101000008091F93A9091FA3A2817390770F42091B3
:101010004A0130914B018091F93A9091FA3A821B42
:10102000930B8093F93A9093FA3A8091410183FDB2
:10103000FCCF8091F93A9091FA3A80934C019093C9
:101040004D0182E006C0809145388F5F809345381E
:1010500081E0809343019F918F913F912F910F9059
:101060000FBE0F901F9018951F920F920FB60F9200
:1010700011248F9381E080934806809353018F91D0
:101080000F900FBE0F901F9018959091021091FD38
:10109000FCCFFB01480F841739F0A82FB0E0BC5EED
:1010A0009C9191938F5FF7CF08959DE924E033E001
:1010B000442309F15091021051FDFCCF94BF2093BD
:1010C0000010E82F582F5F718F5F6F5F7F4FDB013C
:1010D0001197AC91F0E0FC5EA083415019F0E82F2D
:1010E0005F3181F794BF309300105091021052FF8E
:1010F000DFCF81E0089580E00895F9019C012E1B67
:101100003F0B88E0489FA00111244E5D5F4366239A
:1011100069F0DF01A20FB31FA770BB27A40FB51F93
:1011200080819C91982791936150F1CF0895AF925F
:10113000BF92CF92DF92EF92FF920F931F93CF93C4
:10114000DF9300D0CDB7DEB7D62EC42E59017C0177
:10115000E894F7F8F982EA82062F42E0BE016F5F59
:101160007F4F80E505DA182F811105C095014C2DC0
:101170006D2DC701C2DF812F0F900F90DF91CF91AE
:101180001F910F91FF90EF90DF90CF90BF90AF90A5
:10119000089520910938222359F08093BB3A909307
:1011A000BC3A1092093881E08093450A80E00895A6
:1011B00081E00895282F811101C021E08FEF90E098
:1011C000821B9109982F882781509F4F80934C0A4A
:1011D00090934D0A089582E18093A000E0E0F6E04C
:1011E00080818B7F80838EE18093060683E08093ED
:1011F0003938089582E28093A000E0E0F6E0808133
:101200008460808387E08093060683E0809339388A
:1012100008958091B93A9091BA3A24E096958795CD
:101220002A95E1F799278036910540F48F3491058E
:1012300088F4C097099790F492E011C08537910522
:1012400068F08E38910540F08E599109819730F4FD
:1012500090E005C093E003C091E001C09FEF809152
:101260002438981719F0909324388FEF08958091BF
:101270002238909123389C01322F22273295330F48
:10128000307E822793279C01232F332726958227A0
:1012900093279C013695322F222737952795822751
:1012A000932780932238909323380895DF92EF920A
:1012B000FF920F931F93CF93DF937B018A01C0911D
:1012C0005C0AD0915D0AE82FF0E03197E770FF27C4
:1012D000EB5DF74CD080CBDF8D21C80FD11DC7DF70
:1012E0008D21C81BD1090C171D0708F4E801C7019F
:1012F000EC16FD0608F4CE0180935C0A90935D0A1B
:10130000DF91CF911F910F91FF90EF90DF900895A3
:101310000F931F93CF93DF93C82FD42F022FE62F65
:10132000F0E03197E770FF27EB5DF74C10819FDF0E
:101330008123C80F9CDF8123C81B8C2F002341F021
:101340009C2F0C1708F4902F8D2FD91708F4892F94
:1013500041E050E08D1710F040E050E02D2F30E0DC
:1013600024233523232B09F08D2FDF91CF911F915B
:101370000F910895CF92DF92FF920F931F93CF9317
:10138000DF93CDB7DEB76497CDBFDEBF44E1BE01CA
:101390006F5F7F4F80E079DE83E6C82E8AE3D82E28
:1013A0008E010F5F1F4FF12CF80181918F01F60123
:1013B0009081981308C0F394FFEFCF1ADF0A80E101
:1013C000F812F2CF08C041E0B6018F2D6EDE8823FF
:1013D00091F391E036C020914038309141383093FC
:1013E000733A2093743A80914238909143389093A5
:1013F000753A8093763A89899A8998278927982718
:101400002817390769F48B899C8998278927982799
:1014100020914238309143382817390749F410C0D9
:1014200042E063E77AE380E140DE882361F3D1CFD5
:1014300042E065E77AE382E138DE91E0811101C0A4
:1014400090E0892F6496CDBFDEBFDF91CF911F91D1
:101450000F91FF90DF90CF900895E82FEF77E695FA
:10146000E695E695F0E0ED59F54C208130E0877087
:10147000A90102C0559547958A95E2F7CA01817086
:101480000895E82FEF77E695E695E695282F2770E3
:10149000F0E0ED59F54C81E090E001C0880F2A950D
:1014A000EAF7662319F09081892B03C0809590811B
:1014B000892380830895982F8F7731F097FF02C09A
:1014C00060E001C061E0DDCF0895CF93C82F8F7732
:1014D000C4DF2C2F221F2227221F91E0811101C07F
:1014E00090E0822F8927CF910895E3E0F1E180E039
:1014F0009191890FED3091E1F907D1F783708F5FFA
:1015000080933F380895E3E6FAE311928AE3E737E0
:10151000F807D9F7EADF811104C08091703A80643E
:1015200005C0813031F48091703A80688093703AC0
:101530000DC0823021F48091713A816005C0833002
:1015400029F48091713A82608093713A8091633A74
:1015500081608093633A0895CF93DF9344E163E61B
:101560007AE380E092DDCEE6D0E08C2F76DFD80FF4
:10157000CF5FC237D1F7D13011F0C5DF01C0B5DF81
:101580008091733A9091743A98278927982780938D
:101590004038909341388091753A9091763A9827E7
:1015A000892798278093423890934338DF91CF91D1
:1015B0000895CF9386E789DFC82F882381F0E091D3
:1015C000E7BFF0E0E453F54C1082E091E6BFF0E0B5
:1015D00080910C38E453F54C8083C1E04CC085E722
:1015E00074DF882359F1E091E7BFF0E080910C3877
:1015F000E453F54C808380915B38882379F08091A7
:10160000C23A9091C33A2091F73A3091F83A8096D5
:101610002817390718F086E74EDF2DC08091C23AAF
:101620009091C33A2091F73A3091F83A0896821790
:10163000930708F181E080935B381DC08091C23A26
:101640009091C33A892B41F48091F73A9091F83AFE
:101650008093C23A9093C33A8091C23A9091C33A30
:101660002091F73A3091F83A80962817390718F008
:1016700085E721DFC0E08C2FCF910895E8EEFFEBE6
:1016800090E0A581B0E0981734F420910C38A45371
:10169000B54C2C9303C0A453B54C1C92A081B0E070
:1016A000961734F420910C38A453B54C2C9303C0F6
:1016B000A453B54C1C929F5F3196953011F7089555
:1016C000A2EFBFEBEC91F0E0E453F54C808312966F
:1016D000EC911297F0E0E453F54C60831196EC9195
:1016E0001197F0E0E453F54C80831396EC91F0E011
:1016F000E453F54C608308951F93CF93DF9380915B
:101700003E38882329F080E4E0DE811124C050C0F7
:10171000C6EFDFEB1AE7812FD8DEEE81F0E08823F9
:1017200059F080910C38E453F54C8083E881F0E067
:10173000E453F54C10820AC0E453F54C1082E88162
:10174000F0E080910C38E453F54C80831F5F2196C4
:10175000103809F7D8CF80915D38982F9D7FE091A0
:10176000E5BFF0E0913011F0853021F490910C3814
:10177000969506C0823011F0843031F490910C3887
:10178000E453F54C90830CC0882311F0863029F483
:1017900090910C3896959695F3CFE453F54C1082C2
:1017A000803220F48F5F80935D3802C010925D38E4
:1017B00090915C389F5F90935C3820913C383091D9
:1017C0003D382F7133272130310599F120F0223037
:1017D0003105B1F146C060E080E050DFE091F2BF3A
:1017E000F0E0E453F54C1082E091F4BFF0E0E453F4
:1017F000F54C1082E091E6BFF0E0E453F54C108226
:10180000E091F3BFF0E0E453F54C1082E091F5BFB6
:10181000F0E0E453F54C1082E091E7BFF0E0E453D0
:10182000F54C1082E091E4BFF0E0E453F54C1082F7
:1018300018C0892F817090FD80910C3860E00DC038
:10184000692F70E093FF02C06095709585E0660F88
:10185000771F8A95E1F7615E80E0DF91CF911F915C
:101860002FCFDF91CF911F9108950F931F93CF93A7
:101870008091C83A893108F027C1C1E0C093C13ACC
:1018800080913C3890913D388827892B09F0BFC062
:1018900080913C3890913D38807E9927892B31F496
:1018A0008AE398E3809303389093043880913C381E
:1018B00090913D38807E9927809709F059C040E08B
:1018C00052E260E070E281E0F1DC20E041E065E0BE
:1018D00080E81EDD8093133880914438882309F412
:1018E00047C080915A38811115C084E080935938DF
:1018F0008FEF8093583880E090E280935C0A909359
:101900005D0A81E198E3809303389093043881E085
:1019100080935A3880915838882369F08093B83A78
:1019200090915938992321F091509093593803C0E0
:1019300086958093583880915838811119C08091CC
:101940003C3890913D388F71992780933C38909323
:101950003D388AE398E3809303389093043880936A
:101960000538909306388FEF8093B83A10925A3822
:1019700080913C3890913D3880913C3890913D3831
:10198000807E992780369105A9F51092573881E518
:1019900098E380930338909304388C01C1E0C330FE
:1019A00039F020E041E065E080E8B2DCF8018183B5
:1019B000CF5F0F5F1F4FC63091F780914438882367
:1019C000C9F040E054E060E872E085E06FDC8091AF
:1019D000B83A20EA40E162E09BDC8093B83A20E923
:1019E00040E762E08091513893DC809351388095D4
:1019F0008093543880913C3890913D3880913C38A8
:101A000090913D3880913C3890913D385FC08091F5
:101A10003C3890913D3888278115914009F056C097
:101A200080913C3890913D38807E9927813991058D
:101A300008F04CC060913C3870913D38607E77274B
:101A40006F5F7F4F86E0660F771F8A95E1F7AB01E6
:101A50005D5F7E5F81E02ADC809144388823B1F1AC
:101A60008091503881110EC083E080934F388EE012
:101A700098E380930338909304388FEF8093B83ABB
:101A8000C093503880914F3881111AC080913C38F2
:101A900090913D388F71992780933C3890933D38D1
:101AA0008AE398E380930338909304388093053851
:101AB000909306388FEF8093B83A1092503806C052
:101AC000815080934F3802C01092C13A80914438BF
:101AD000CF911F910F910895209145388091480131
:101AE00090914901892F992786953CE3239F800D8A
:101AF000911D112408950F931F93CF93DF938C01B1
:101B0000EB01EADF9C018017910708F4345CC00FF9
:101B1000D11F81E0C217D30708F080E0DF91CF9199
:101B20001F910F910895DF92EF92FF920F931F93F1
:101B3000CF93DF9300D000D0CDB7DEB719821A82E1
:101B40001B821C8280E8898380E090E020E4FC0115
:101B5000E453F54C2083019688329105C1F7A6EF36
:101B6000BFEB8FEFED91F0E0E453F54C80832FEB6A
:101B7000AC3FB207B9F73EDB8091C43A8A37E0F355
:101B80008091C43A8638C0F7E091F6BFF0E0E453A4
:101B9000F54C1082E091FCBFF0E0E453F54C8FEF80
:101BA00080838AE398E3809303389093043880918C
:101BB000BF3A9091C03A99272091BF3A3091C03AEC
:101BC000332728173907C1F3E091F7BFF0E0E4535A
:101BD000F54C1082E091FDBFF0E0E453F54C8FEF3F
:101BE00080838091BD3A9091BE3A89839927209154
:101BF000BD3A3091BE3A332728173907C1F3E09137
:101C0000F8BFF0E0E453F54C1082E091FEBFF0E045
:101C1000E453F54C8FEF8083DEDA8091F73A9091B0
:101C2000F83A898399272091F73A3091F83A332787
:101C300028173907C1F3E091F9BFF0E0E453F54C00
:101C40001082E091FFBFF0E0E453F54C8FEF80830A
:101C50008091B93A9091BA3A80389C40C8F3E090AC
:101C6000FABF8E2D90E0FC01E453F54C7F01108209
:101C7000009100C010E00453154CDD24DA94F80103
:101C8000D0829E012F5F3F4F40E064E08CEC9CE3EC
:101C90004EDA89818F3349F48A81811106C08B81A4
:101CA000803C19F48C81843109F0FFCFF701108258
:101CB000F801D08280E02496CDBFDEBFDF91CF91C6
:101CC0001F910F91FF90EF90DF900895CF93DF93D6
:101CD000E8EEFFEBEF01A581B0E0A453B54C1C92F8
:101CE0003196A881B0E0A453B54C1C929FEBED3E19
:101CF000F90781F78330D9F4E091EDBFF0E08091EE
:101D00000C38E453F54C8083E091EEBFF0E0809115
:101D10000C38E453F54C8083E091EFBFF0E0809104
:101D20000C38E453F54C80838FE391E046C081305A
:101D300099F4E091F0BFF0E080910C38E453F54C59
:101D40008083E091F1BFF0E080910C38E453F54CD2
:101D500080838FE591E031C08430D9F4E091E8BF11
:101D6000F0E080910C38E453F54C8083E091E9BFBA
:101D7000F0E080910C38E453F54C8083E091EABFA9
:101D8000F0E080910C38E453F54C80838FE791E0CC
:101D900014C08230B1F4E091EBBFF0E080910C38D8
:101DA000E453F54C8083E091ECBFF0E080910C3877
:101DB000E453F54C80838FE991E080933C38909315
:101DC0003D38DF91CF910895CF93DF938AE77DDB94
:101DD00081117DC180913E388D7F09F078C1E091FD
:101DE000E4BFF0E0809108388F3F19F080910C3803
:101DF00001C080E0E453F54C808380915E3881110E
:101E000020C02091BF3A3091C03A8091F73A90912A
:101E1000F83A820F8F7380936338C0E08091633803
:101E2000C81718F424DACF5FF9CFC4E6D8E31FDA75
:101E30008370899388E3C037D807C9F781E080931E
:101E40005E3880915E38813071F480913E38823006
:101E500051F480935E381092633810926238109279
:101E6000613810925F3880915E38823079F58091C8
:101E70006138863038F080915F388F5F80935F38AB
:101E800010926138E0915F38E630A8F083E08093EB
:101E90005E381092613810925F38ACEFBFEB82E091
:101EA00090EC21E0ED91F0E0E453F54C20838A17AB
:101EB0009B07C1F70CC1F0E0EA50F044E081F0E08C
:101EC00080910C38E453F54C808323C0833009F5AE
:101ED00080916138883038F080915F388F5F8093CF
:101EE0005F3810926138E0915F38809163388E17C7
:101EF00050F41092623885E080935E3880E0E6DE30
:101F000010926138E4C0F0E0EC59F74C80818F5FAB
:101F1000DDDEC0915E38C53009F075C080910838AB
:101F200090910738981709F46CC09091603891111E
:101F30007EC0843008F07BC091E0909360381092AE
:101F400061388F5FC3DE84E080935E38C0932D38A4
:101F500080916238E82FF0E0EC59F74C20819091A5
:101F6000083829131DC08F5F80936238E091633871
:101F7000E817A8F5EF5FE09363381092613810928C
:101F80005F38E13059F0E695F0E0EA50F044E58141
:101F9000F0E080910C38E453F54C808383E01DC061
:101FA00080E290E080933C3890933D38A6EFBFEB01
:101FB0008CEF9FEBED91F0E020910C38E453F54C61
:101FC00020838A179B07B1F710926238109263380A
:101FD0001092613810925F3886E080932D3880919E
:101FE00062388C3020F4809163388C3060F08AE75E
:101FF00062DA1092613810925F3887E080932D3852
:1020000002C01092603880915E38843081F48091F3
:102010006138873060F080E059DE109260381092AD
:10202000613810925F3880912D3880935E388091AE
:102030005E38863049F580916138863038F080917D
:102040005F388F5F80935F381092613880915F387E
:10205000863040F01092613810925F3887E08093AC
:102060005E3835C0E5E0F0E0E81BF109EA50F044E5
:10207000A081B0E0A453B54C81E08C93E681F0E000
:10208000E453F54C80831EC08730E1F4109262382F
:102090001092633810925E3810923E38E8EEFFEBF3
:1020A0002DEE3FEB81E0EF01A581B0E0A453B54CEC
:1020B0008C933196A881B0E0A453B54C8C932E1725
:1020C0003F0789F7809161388F5F8093613880E0A6
:1020D000DF91CF9108951F93CF93DF93CDB7DEB7F4
:1020E0006297CDBFDEBF8A8B80E1ECEBFFEBDE01B8
:1020F000119601900D928A95E1F7FE01319690E0DC
:102100008FEF219131912617370709F4892F9F5FAF
:102110009830B9F7883010F080E014C018E1180F3B
:1021200041E0BE016F5E7F4F812F0E944508898983
:102130008F3F91F741E0BE016E5E7F4F812F0E947D
:10214000550881E06296CDBFDEBFDF91CF911F9130
:102150000895262FFB0135E59E2F921B981728F432
:102160009081929593279193F7CF08958F5F883050
:1021700030F4E82FF0E0E65BF54C1082F7CF0895DD
:10218000AC0190E0E92FF0E0DA01AE0FBF1F3C9107
:10219000E60FF71F311105C081E09081992349F0C6
:1021A00007C020812223C1F3321302C09F5FEACF10
:1021B00080E00895CF93DF93FC016115710559F11B
:1021C000A2E5BAE3CAE4DAE380E09FEF6F3F71056E
:1021D00069F060F0ED93FD939993E150FF4F6F5FCD
:1021E00071098F5F873091F781E01EC0282F30E0A2
:1021F000D901AA0FBB1FAE5AB54CED93FC936F3FAC
:10220000710511F46EEF70E0F901E65BF54C608347
:102210004093483A05C01092523A1092533A80E0E7
:10222000A5DF1092493A80E0DF91CF910895CF93D6
:10223000DF93282F30E0F901EE0FFF1FE35EF64C2D
:10224000A9E5BAE7A083B183F901EE0FFF1FE35AB6
:10225000F64C62E070E060837183220F331FF90156
:10226000E356F64C41E050E04083518321E0280FD3
:1022700030E0F901EE0FFF1FE35EF64CC2E6DAE74D
:10228000C083D183F901EE0FFF1FE35AF64CCCE077
:10229000D0E0C083D183220F331FF901E356F64CFF
:1022A00040835183E2E0E80FF0E0EE0FFF1FE35EB2
:1022B000F64C20EF3FEF2083318323E0280F30E0FE
:1022C000F901EE0FFF1FE35EF64CA083B183F90125
:1022D000EE0FFF1FE35AF64C60837183220F331F0A
:1022E000F901E356F64C4083518324E0280F30E097
:1022F000F901EE0FFF1FE35EF64CA5E5BAE7A083F8
:10230000B183F901EE0FFF1FE35AF64C608371832E
:10231000220F331FF901E356F64C408351838B5F44
:10232000DF91CF910895AF92BF92DF92EF92FF922B
:102330000F931F93CF93DF93CDB7DEB72C97CDBF0D
:10234000DEBF7C018B019E012F5F3F4F40E06CE0C0
:1023500080960E94970889819A81982789279827D3
:102360008096F801808391838B819C8198278927AF
:102370009827809682839383DE0115963496C80150
:102380000C962D912193E817F907D9F7FCE2EF0E8F
:10239000F11C5801D12C9E012F5F3F4F40E063E0BC
:1023A000C7010E94970889819A81982789279827D1
:1023B00097012E5F3F4F43E04D1580F4AC01415033
:1023C0005109F801428F538FF3E0EF0EF11CF80131
:1023D000E486F5864B81F50144A305C0F801828FA0
:1023E000938F248735877C01E20EF31ED3940E5F12
:1023F0001F4FFFEFAF1ABF0A47E0D412CCCF2C9685
:10240000CDBFDEBFDF91CF911F910F91FF90EF9075
:10241000DF90BF90AF900895CF92DF92EF92FF923E
:102420000F931F93CF93DF93CDB7DEB7A097CDBFA8
:10243000DEBFC62E7C0120E2E20EF11C9E012F5F62
:102440003F4F40E062E08C960E9497081A81D12CA1
:10245000112359F1012F113208F000E29E012F5F84
:102460003F4F40E0602FC7010E960E949708FE0183
:10247000319680E0DD2061F0E1E0F0E0EC0FFD1F3F
:10248000E80FF11D9081906281E09C110EC00EC09A
:102490009191DD24D3949B3509F0D12C8F5F801767
:1024A00048F3E00EF11C101BD3CF80E0A096CDBF07
:1024B000DEBFDF91CF911F910F91FF90EF90DF90E2
:1024C000CF900895AF92BF92DF92EF92FF920F9359
:1024D0001F93CF93DF9300D000D0CDB7DEB7D62EB9
:1024E0005A019E012F5F3F4F40E064E080960E94BA
:1024F0009708E980FA80FE24EF24FE240B811C81DA
:102500001027012710270E151F0548F5A016B10644
:1025100060F09E012F5F3F4F40E062E0C80180966F
:102520000E94970809811A81EBCF9E012F5F3F4FD0
:1025300040E061E0C80185960E9497088981811179
:1025400003C0D11006C00EC00E94650A8111F9CFE8
:10255000E0CF6D2DC80160DF8823D9F203C080E091
:1025600090E001C0C8012496CDBFDEBFDF91CF91BE
:102570001F910F91FF90EF90DF90BF90AF90089563
:1025800080629FE9980F9A3138F090ED980F81E0C2
:102590009A3018F080E0089581E008950F931F931A
:1025A000CF93DF938C01D0E0C0E0F801ED0FF11D77
:1025B00020818C2F90E0222351F0D801A80FB91F61
:1025C0002C938081DDDF8111CF5FDF5FEECFF801DB
:1025D000E80FF91F10828C2FDF91CF911F910F917F
:1025E0000895CF9380913C3890913D38892B99F490
:1025F0008091213A90E080933C3890933D388091CF
:102600003C3890913D38807E992721E0892B09F450
:1026100020E020933B382091493A283008F049C007
:1026200080910938882309F444C0822F90E0FC018E
:10263000E65BF54CE081E11106C01092083988E0B4
:102640008093493A2EC0509108395E1760F5CE2F1D
:10265000C51BC13208F0C0E2880F991FFC01EE5A79
:10266000F54C808191812BEF3AE34091483A6C2FF1
:10267000850F911D0E949708809108398C0F8093D7
:102680000839EC2FF0E0E550F54C10828091FB3AD0
:10269000811103C08BED8093FB3A8BEF9AE30E948C
:1026A000C90881E00BC0109208392F5F2093493A86
:1026B000F8CF9091093881E0911180E0CF91089591
:1026C000CF93DF93C0911C39CC23E9F1C150C09363
:1026D0001C39D09107392D2F30E0F901EE0FFF1F83
:1026E000E35EF64C80819181803F4FEF940751F477
:1026F0006091373A7091383A40E08091293A909150
:102700002A3A0DC0D901AA0FBB1FA356B64C220FFF
:10271000331FF901E35AF64C608171814C914ADD17
:10272000DF5FD0930739C1110DC08091213A90E04D
:1027300080933C3890933D381DBA109246381092E1
:10274000073901C0C1E08C2FDF91CF9108953F92EE
:102750004F925F926F927F928F929F92AF92BF92B1
:10276000CF92DF92EF92FF920F931F93CF93DF935D
:10277000CDB7DEB7A197CDBFDEBF8C0180912E38DB
:102780008F3F49F46DE17AE38091DD399091DE3934
:10279000CADD10922E3880914638882309F460C231
:1027A00080910C39882309F457C010920B3981E6C7
:1027B000F80180836CE079E387E79AE3E1DCF82EA7
:1027C000882321F081E080930B3904C080910C397B
:1027D000813311F0F12C46C280910E398111FACF6C
:1027E00087E79AE3DBDE92E090930B39F8011182E0
:1027F000823080F38091773A813361F08091773A2B
:10280000823341F08091773A833321F08091773A97
:10281000843301F78091783A80628093783A80918E
:10282000783A813661F08091783A853641F080912E
:10283000783A863621F08091783A873759F6809138
:102840000D398F5EF80181838091773A8283809180
:10285000783A8383148206C28091773A833289F56D
:102860008DB3863071F581E090E010E0FC01E9580D
:10287000F54C208120532083110F212F220F220F8E
:10288000120F2091783A233048F420812A30B8F48E
:102890002081120F01968430910541F7812F8F77A7
:1028A00071F080917B3A60917C3A70E0782B812FB7
:1028B000809511DC882319F0812F0E945B0A80E04B
:1028C00050C0D80180E090E0FC01E958F54C20812F
:1028D000213418F020812B3510F0208102C0208196
:1028E00020622C932081211105C0F801E80FF11D11
:1028F000108205C0019611968134910529F78091C7
:10290000773AF801811105C010821DBA109246383D
:10291000A7C180818F3311F0883639F589E59AE7B0
:1029200080931D3990931E3984E090E080935D3947
:1029300090935E3981E090E080939D3990939E3929
:1029400023E93BE720931F39309320392DE634E00B
:1029500020935F393093603980939F399093A039E9
:1029600082E065DC80931C397BC18136D9F489E52E
:102970009AE780931D3990931E3984E090E080930C
:102980005D3990935E3981E090E080939D3990931A
:102990009E392EE63AE720931F393093203925E2FD
:1029A00031E0D6CF873709F06EC089E59AE780938A
:1029B0001D3990931E3984E090E080935D399093A7
:1029C0005E3921E030E020939D3930939E398DE8C7
:1029D00096E780931F399093203982E190E08093AD
:1029E0005F399093603920939F393093A03980915B
:1029F0003F38813019F487E896E70FC0823049F4F8
:102A000084E896E7809321399093223983E090E01F
:102A10001EC0833049F48EE796E780932139909366
:102A2000223986E090E013C0843049F489E796E7C4
:102A3000809321399093223985E090E008C082E0AC
:102A400096E7809321399093223982E490E0809335
:102A50006139909362392093A1393093A2398FE57F
:102A600096E780932339909324398AE190E080930C
:102A700063399093643981E090E08093A339909317
:102A8000A43984E06ECF8137D9F489E59AE7809341
:102A90001D3990931E3984E090E080935D399093C6
:102AA0005E3981E090E080939D3990939E3920E0DB
:102AB0003AE720931F393093203925E530E048CF9D
:102AC00064E470ECC8015CDB8823F9F01EE660E08A
:102AD000812F0E94410A1F5F1237C9F70E94BA096D
:102AE00080E2E7E8F0ECDE01119601900D928A9504
:102AF000E1F78CE30E94DA08809109388823E1F33A
:102B0000CE0101960E94C908F7CF6AE470ECC801B3
:102B100037DB882361F18FEF89A318E141E0BE0123
:102B20006F5D7F4F812F0E9455081F5F1032B1F7F4
:102B30001EE660E0812F0E94410A1F5F1237C9F72D
:102B40000E94BA098FE0E7EAF0ECDE0111960190ED
:102B50000D928A95E1F78CE30E94DA08809109389A
:102B60008823E1F3CE0101960E94C908F7CF61E8FE
:102B700070ECC80105DB882309F42CCE8DE1C82E4A
:102B800089E3D82E9DE5E92E99E3F92E0DE919E3A5
:102B900028E1322E3DE9632E34E7732E42E0842E85
:102BA000912CAA24A394B12C67E5462E6AE7562EF1
:102BB00041E0BE016F5F7F4F832D0E9445088981F0
:102BC00080958983F60160827182F701808291820B
:102BD000F801A082B182282F22952F7030E0235770
:102BE0003B48F60122833383F701A282B382F801C6
:102BF000A282B3828F7090E083579B48F601848352
:102C00009583F701A482B582F801A482B582F6010A
:102C100046825782F70186829782F801A682B782A0
:102C20003394F8E0CF0ED11C88E0E80EF11C085F69
:102C30001F4FE0E23E12BCCF89E59AE780935B39F3
:102C400090935C3984E090E080939B3990939C3919
:102C500081E090E08093DB399093DC3930921C392D
:102C6000FF24F3948F2DA196CDBFDEBFDF91CF91CE
:102C70001F910F91FF90EF90DF90CF90BF90AF909A
:102C80009F908F907F906F905F904F903F900895AE
:102C90005F926F927F928F929F92AF92BF92CF92EC
:102CA000DF92EF92FF920F931F93CF93DF93CDB7F5
:102CB000DEB72897CDBFDEBF8C0170DCC8016EDCAB
:102CC000F82E882311F40C94651ED8018C91883756
:102CD00009F045C080912E38E82FF0E0EE0FFF1F7D
:102CE000E352F64C20813181232B11F0811103C076
:102CF00084E496E7A5C58091233A0E94650A88235B
:102D0000B9F0E0912E38E150E0932E38F0E0EE0F6C
:102D1000FF1FE352F64C6DE17AE38081918103DB82
:102D20008091213A90E080933C3890933D3831C2B5
:102D300080913F3A9091403A2091313A3091323A25
:102D400020931F393093203980935F3990936039F5
:102D500010929F391092A0398091453A3EC685362F
:102D600019F08F3609F0DFC0B2E0FB12C1CFE0905E
:102D70002E38F12CF701EE0FFF1FE352F64C40E026
:102D800050E0D80111966C91808191819BDBF70115
:102D9000EE0FFF1FE152F64C8083918390912E3805
:102DA000292F30E0F901EE0FFF1FE152F64C408170
:102DB00051814115510521F06CED78E3CA011CC029
:102DC000992309F499C7220F331FF901E552F64CF4
:102DD000D80111966C91808191811EDB882309F4C2
:102DE0008BC7E0912E38F0E0EE0FFF1FE552F64C56
:102DF0006CED78E38081918196DAF80180818536E7
:102E0000C9F48091E43880FD1EC08DE999E7809374
:102E10001F39909320398EE190E080935F39909331
:102E2000603981E090E080939F399093A03972E0FF
:102E3000772E30C78F3639F48091E43881FD03C096
:102E400082E899E7FDC48091E2380E94650AE0912A
:102E50002E38882309F449C0AE2FB0E0AA0FBB1F5B
:102E6000A152B64C8D919C91892B11F0EF5F01C05E
:102E7000E150E0932E38E0912E38F0E0EE0FFF1F86
:102E8000E352F64C6DE17AE3808191814CDA8091D6
:102E9000393A90913A3A20912B3A30912C3A20933A
:102EA0001F393093203980935F39909360391092A5
:102EB0009F391092A03989E59AE780932139909340
:102EC000223982E090E0809361399093623981E009
:102ED00090E08093A1399093A2398091213A90E0BB
:102EE00080933C3890933D3891C4F0E0EE0FFF1F83
:102EF000E152F64C108211828091FE389091FF3899
:102F00002091F0383091F13820931F3930932039D7
:102F100080935F399093603910929F391092A03955
:102F2000809104395AC58C3609F057C1E0912E388A
:102F3000B1E0FB12F6C08091393A90913A3A209173
:102F40002B3A30912C3A20931F39309320398093BB
:102F50005F399093603910929F391092A03989E5BA
:102F60009AE7809321399093223982E090E0809310
:102F700061399093623981E090E08093A139909318
:102F8000A2392BEE39E7209323393093243925E1F8
:102F900030E020936339309364398093A339909360
:102FA000A439F0E0EE0FFF1FE152F64C10821182BF
:102FB00084E0682E97E5C92E9AE7D92E22E0A22E4A
:102FC000B12C88248394912C80912E3890E09C0120
:102FD000220F331FF901E152F64C7F0140815181EC
:102FE000F901E352F64C60E0808191816BDAD70100
:102FF0008D939C93E0912E38F0E0EE0FFF1FE1528D
:10300000F64C80819181009709F44AC020914038A4
:10301000309141388217930709F442C02091423819
:103020003091433882179307D9F16CED78E37BD95F
:103030008091F6389091F738E62DF0E0DF01AA0F85
:10304000BB1FA35EB64C2091E8383091E9382D9330
:103050003C93DF01AA0FBB1FA35AB64C8D939C93E0
:10306000EE0FFF1FE356F64C1082118281E0860DB1
:1030700090E063946394FC01EE0FFF1FE35EF64C57
:10308000C082D182FC01EE0FFF1FE35AF64CA082F2
:10309000B182880F991FFC01E356F64C8082918221
:1030A00020912E38822F90E0FC01EE0FFF1FE1529D
:1030B000F64C40815181452B09F086CF222369F1DE
:1030C000880F991FFC01E552F64C6CED78E3808186
:1030D000918129D92091F6383091F738772473946B
:1030E000760C862D90E0FC01EE0FFF1FE35EF64CA0
:1030F0004091E8385091E93840835183FC01EE0F4C
:10310000FF1FE35AF64C20833183880F991FFC017F
:10311000E356F64C10821182BDC577247A94760C62
:10312000B9C5EE2EF12CF701EE0FFF1FE352F64C5E
:1031300040E050E0D80111966C9180819181C2D914
:10314000F701EE0FFF1FE152F64C808391839091BF
:103150002E38292F30E0F901EE0FFF1FE152F64C17
:10316000408151814115510521F06CED78E3CA0190
:103170001EC0992309F4C0C5220F331FF901E5527F
:10318000F64CD80111966C918081918145D98111BD
:1031900003C0772473947EC5E0912E38F0E0EE0FE3
:1031A000FF1FE552F64C6CED78E380819181BBD82E
:1031B0008091F8389091F9382091EA383091EB38C5
:1031C00020931F393093203980935F399093603971
:1031D00010929F391092A0392ACE803709F09AC0F8
:1031E0008091403890914138892B79F08091423814
:1031F00090914338892B49F087E098E780931F39F5
:103200009093203989E590E008CEB2E0FB1270CDB2
:10321000E0902E38F12CF701EE0FFF1FE352F64C31
:1032200040E050E0D80111966C91808191814AD99B
:10323000F701EE0FFF1FE152F64C8083918320913E
:103240002E3830E02F5F3F4F220F331FF901E3523A
:10325000F64C80819181009709F4CEC340914038AB
:10326000509141388417950739F040914238509178
:10327000433884179507C1F482EE97E780931F398E
:103280009093203985E290E080935F399093603984
:1032900081E090E080939F399093A039F901E35247
:1032A000F64C10821182C3CD6CED78E33CD880914E
:1032B000E3380E94650A882309F479C38091E738CE
:1032C000882309F415CD8091403890914138E091E0
:1032D0002E38F0E0EE0FFF1FE152F64C892B39F04B
:1032E00080819181809342389093433806C08081D9
:1032F000918180934038909341388091E6380E94C4
:103300005B0A8CEC97E780931F399093203986E114
:1033100090E05EC28436D9F4809140389091413873
:10332000009709F0ECC48091423890914338892B82
:1033300049F486EA97E780931F399093203986E213
:1033400090E06BCDB2E0FB1609F440C5D1CC8936D4
:1033500009F07BC08091403890914138892B31F43D
:103360008091423890914338892B19F38CEC97E780
:1033700080931F399093203986E190E080935F39E4
:103380009093603981E090E080939F399093A039C9
:1033900020E4E22E28E3F22E34E4632E38E3732E89
:1033A00042E0542E57E5C52E5AE7D52E62E0A62EF0
:1033B000B12C88248394912CD7018D919D917D010E
:1033C0000097D9F16CED78E30E9493118091F63863
:1033D0009091F738E52DF0E0DF01AA0FBB1FA35E47
:1033E000B64C2091E8383091E9382D933C93DF01B9
:1033F000AA0FBB1FA35AB64C8D939C93EE0FFF1FD1
:10340000E356F64C10821182E1E0E50DF0E05394B2
:103410005394DF01AA0FBB1FA35EB64CCD92DC9282
:10342000DF01AA0FBB1FA35AB64CAD92BC92EE0FA0
:10343000FF1FE356F64C808291826E147F0409F0E0
:10344000BBCF77247A94750C25C49CE8980F9230F2
:1034500028F0873619F0823709F0D7C28EEF8F0D2A
:10346000823008F045CCE0912E38CE2ED12CD801F8
:10347000AF0DB11D1197F601EE0FFF1FE352F64C91
:1034800040E050E06C91808191811CD8F601EE0FF4
:10349000FF1FE152F64C80839183E0912E38F0E0DB
:1034A000EE0FFF1FE152F64C80819181009709F4E5
:1034B0009AC2B3E0FB1278C1F8012081253719F0D8
:1034C000273609F071C1612C7724739451E6C52E1B
:1034D00059E7D52E61E2A62EB12C88248394912C35
:1034E000E62CF12CC701880F991F9C01205C374CFA
:1034F0007901D9018D919C91009781F0F80161814A
:103500000E940C12882351F061EB78E3D7018D9172
:103510009C910E94931132E0632E1EC0B1E06B12A9
:103520001AC0E72DF0E0DF01AA0FBB1FA35EB64C67
:10353000CD92DC92DF01AA0FBB1FA35AB64CAD920D
:10354000BC92EE0FFF1FE356F64C80829182F80189
:103550001082739401C0612C6394F1E06F1609F43A
:10356000BFCFD8018C91882309F494C3E0912E3801
:10357000F0E0EE0FFF1FE152F64C6CED78E3808136
:1035800091810E949311E090FA38F090FB38B1E0FD
:10359000EB16F10409F09AC098012E5F3F4F40E00E
:1035A00061E08091EC389091ED380E949708F80125
:1035B000428121E0270D872D90E0413309F06BC057
:1035C0003091BC3851EE530FFC01EE0FFF1FE35E4C
:1035D000F64C543060F041E059E740835183FC01E0
:1035E000EE0FFF1FE35AF64C4AE150E064C060E57D
:1035F00075E760837183FC01EE0FFF1FE35AF64C01
:1036000062EB70E060837183880F991FFC01E356C1
:10361000F64CE082F182822F90E0FC01EE0FFF1F5A
:10362000E35EF64C69E57AE760837183FC01EE0F97
:10363000FF1FE35AF64C62E070E060837183880FED
:10364000991FFC01E356F64CE082F18282E0870D7F
:1036500090E0F3E07F0EFC01EE0FFF1FE35EF64CFF
:103660006DEA78E760837183FC01EE0FFF1FE35A78
:10367000F64C62E170E060837183880F991FFC0152
:10368000E356F64CE082F18240930C3930930D39C9
:1036900010920E39FFC2FC01EE0FFF1FE35EF64CE5
:1036A00042E056E740835183FC01EE0FFF1FE35ACF
:1036B000F64C42E450E040835183880F991FFC018F
:1036C000E356F64CE082F182722EE4C29091E53826
:1036D0008091BC3898132FC0209102393091033962
:1036E000FF24F394F70C872D90E0FC01EE0FFF1FF1
:1036F000E35EF64C4091F4385091F53840835183A5
:10370000FC01EE0FFF1FE35AF64C20833183880F34
:10371000991FFC01E356F64C108211828091063904
:1037200090E080933C3890933D388091E6380E9439
:103730005B0A7F2CAFC2D8018C91853799F4872D15
:1037400090E0FC01EE0FFF1FE35EF64C21E039E74D
:1037500020833183FC01EE0FFF1FE35AF64C2AE170
:1037600030E015C0873609F095C2872D90E0FC0146
:10377000EE0FFF1FE35EF64C2FE936E7208331831F
:10378000FC01EE0FFF1FE35AF64C28E230E02083E5
:103790003183880F991FFC01E356F64C81E090E0DD
:1037A00080839183739476C26CED78E30E949311C9
:1037B000F8018081843769F58091E43883FD4AC03F
:1037C0008BE199E780931F39909320398EE190E047
:1037D00080935F399093603981E090E080939F39C6
:1037E0009093A0398091F6389091F7382091E8387D
:1037F0003091E9382093213930932239809361390F
:10380000909362391092A1391092A239E3E07E2E92
:1038100041C2853769F48091E43884FD1BC081E0A2
:1038200099E780931F39909320398AE190E0F5CA97
:10383000823769F48091E43885FD0CC086EE98E704
:1038400080931F39909320398BE190E0E6CA873648
:1038500009F44ECAE090FA38F090FB38F1E0EF1628
:10386000F10411F598012E5F3F4F40E061E0809137
:10387000EC389091ED380E949708D80112968C91FF
:10388000813309F086CC85E295E780931F399093C8
:1038900020398BE290E080935F3990936039E09219
:1038A0009F39F092A039C3CAE114F10409F459C058
:1038B0008091EC389091ED3880931F3990932039A6
:1038C000E0925F39F092603910929F391092A039DE
:1038D00089E59AE7809321399093223982E090E03C
:1038E000809361399093623981E090E08093A139AF
:1038F0009093A2392DEA38E7209323393093243965
:1039000022E130E020936339309364398093A33906
:103910009093A4398091FC389091FD38409730F015
:103920008FE090E08093FC389093FD382CE039E3F1
:1039300040E06091FC388091EE389091EF380E9421
:1039400097086CE079E38091FC380E94A910E0911F
:10395000FC38F091FD38E45FF64C108274E0772E6D
:1039600099C18091E3380E94650A882301F1809112
:103970000239909103392091F4383091F538209331
:103980001F393093203980935F39909360391092BA
:103990009F391092A0398091063990E080933C388D
:1039A00090933D388091E6380E945B0A40CA80912E
:1039B0000039909101392091F2383091F3382093F9
:1039C0001F393093203980935F399093603910927A
:1039D0009F391092A0398091053990E080933C384E
:1039E00090933D3824CAF8018081843711F08736DE
:1039F00019F489E399E702C08DE499E780931F39B0
:103A00009093203984E190E008CA813609F0C1CB57
:103A100080910B39823008F4CBC0D80111962C91DB
:103A2000222309F4B2C0FE0131967F0188E0DF0154
:103A30001D928A95E9F72053F80121833281315391
:103A400032838381813611F481E008C0853611F418
:103A5000138208C0863621F483E0F801838302C014
:103A600082E0838321FD04C080E090E0DC0104C09B
:103A700080E090E0A0E1B0E020FF03C09F5FAF4F87
:103A8000BF4FF801238121FD119620FF03C040960E
:103A9000A11DB11D31FF03C0905FAF4FBF4F30FF7D
:103AA00003C00196A11DB11D40913F3824E030E0D4
:103AB000241B310904C0880F991FAA1FBB1F2A9518
:103AC000D2F728EC34E720931F393093203920E2D5
:103AD00030E020935F393093603921E030E020936B
:103AE0009F393093A0394DE954E7409321395093E1
:103AF000223942E050E0409361395093623920937B
:103B0000A1393093A23967E0D62EF701ED0DF11DF2
:103B1000282F2F70208354E0B695A7959795879509
:103B20005A95D1F70097A105B10551F42DE1A22EC8
:103B300029E3B22E33E0732E88248394912C02C0A3
:103B4000DA94E3CFB2E0AB0EB11CE7E0ED1508F478
:103B50009FC07394F701ED0DF11D808190E08357B4
:103B60009B48D50114968D939C931597F501EC5BBA
:103B7000FF4F80829182E05CFF4F80829182809132
:103B8000E6380E945B0AD394DDCF88EE94E78093F9
:103B90001F39909320398DE390E080935F399093A3
:103BA000603981E090E080939F399093A0396EC096
:103BB000E0912E38F0E0EE0FFF1FE152F64C6CED75
:103BC00078E3813009F046C0808191810E94931191
:103BD0008091E3380E94650A882301F180910239BF
:103BE000909103392091F4383091F53820931F39A2
:103BF0003093203980935F399093603910929F39C8
:103C00001092A0398091063990E080933C389093CF
:103C10003D388091E6380E945B0A38C080910039B7
:103C2000909101392091F2383091F33820931F3967
:103C30003093203980935F399093603910929F3987
:103C40001092A0398091053990E080933C38909390
:103C50003D381CC0808191810E94931180E698E7D5
:103C600080931F39909320398DE490E080935F39E1
:103C70009093603981E090E080939F399093A039D0
:103C80000E946C0D8093093990930A3982E0782E56
:103C900010920C3989E59AE780931D3990931E396B
:103CA00082E090E080935D3990935E3981E090E00E
:103CB00080939D3990939E3980910C39882319F017
:103CC00070921C399BC0872D12C089E59AE78093BA
:103CD0001D3990931E3982E090E080935D39909376
:103CE0005E3981E090E080939D3990939E390E94E7
:103CF000171180931C3982C081ED99E792CDB2E013
:103D0000FB120C947816D80111966C910E940C123B
:103D1000882309F45BC080E090E0880F991F9C0124
:103D2000205C374C79016CED78E3D9018D919C9141
:103D30000E94931186E997E780931F399093203969
:103D400080E190E080935F399093603981E090E06A
:103D500080939F399093A0392091F6383091F738AD
:103D60004091E8385091E9384093213950932239F5
:103D700020936139309362391092A1391092A2399F
:103D800029E53AE7209323393093243922E030E0C3
:103D900020936339309364398093A3399093A43985
:103DA00029E537E720932539309326392DE330E094
:103DB00020936539309366398093A5399093A6395D
:103DC000F70110821182F5E07F2E64CF8091423896
:103DD00090914338009749F0F80161810E940C12DC
:103DE000882319F081E090E098CF81E699E78093ED
:103DF0001F399093203981E290E00FC8D8011C92BE
:103E0000109246381DBA80E02896CDBFDEBFDF9104
:103E1000CF911F910F91FF90EF90DF90CF90BF90C7
:103E2000AF909F908F907F906F905F900895CF9309
:103E30008091093990910A39892B09F10E946C0D02
:103E40002091093930910A398217930708F4945C5C
:103E5000AC01421B530B9A014B30510530F01092CC
:103E6000093910920A392AE030E080913E388111F8
:103E700006C065E0621B8AE0821B0E943E0B0E9426
:103E8000F112882311F0C1E018C00E946013C82FFE
:103E90008111F9CF8091093990910A39892B69F400
:103EA00080E798E30E94A713C82F811105C080E71F
:103EB00098E30E94481601C0C2E08C2FCF9108956C
:103EC0000E94FE040E94AC0A0E94930DCFE1D0E054
:103ED0000E94350C8823E1F38091083880930738DD
:103EE0000E94090980930838109244388091A000FC
:103EF000823119F40E94FA0802C00E94EB080E9465
:103F00007C0B95DF0E9401040E9409030E94E40ECD
:103F10000E947A000E94BA098091BF3A9091C03AFB
:103F20000A9720F461E084E70E94410A8091BF3A39
:103F30009091C03A8536910520F060E084E70E94B8
:103F4000410A20910A3830910B3880910A389091BB
:103F50000B38232F3327821B930B80930A389093BF
:103F60000B3880910A3890910B38939580930A38DA
:103F700090930B382091BF3A3091C03A80910A3823
:103F800090910B38220F232F221F330B3195FE0106
:103F9000E21BF30BEE5FFF432081821B91098093AC
:103FA0000A3890930B3880910A3890910B3890938F
:0C3FB0000C380E94D90A8CCFF894FFCF87
:103FBC002D7D39575C79514234617D593B655B44A9
:103FCC0001000002010200010103000301030100D2
:103FDC0001020101010301000D0B0C0A0201050095
:103FEC00030424222123082009251412111310156F
:103FFC001C1A191B181D010D1926323E4A56626FE8
:10400C0078838E98A2ABB4BFC5CFD4DBE1E7ECF0DC
:10401C00F4F7FAFCFEFF74BFFA541C96B2261EEBA2
:10402C00D68BC0C20A610101020102020102020127
:10403C000202020202010102696464716400746884
:10404C00652074726F75626C652077697468207274
:10405C0065616C206C6966652069732C20746865D9
:10406C0072652773206E6F2072657365742062759C
:10407C0074746F6E00636865617400436865617485
:10408C0065722120436F6E74616374206261646792
:10409C0065207465616D2E2E2E200052657365743B
:0A40AC0020706C656173652120002F
:1040B600FF00013A383A38FFFF01FFFFFF01FF0119
:1040C6000001FF8080C0FF40FFC0804001C001406A
:1040D600800001D4FF0103070F1F3F7FFF05FF008C
:00000001FF
